{
  "abi": [
    {
      "inputs": [],
      "name": "chainId",
      "outputs": [
        {
          "internalType": "uint16",
          "name": "",
          "type": "uint16"
        }
      ],
      "stateMutability": "view",
      "type": "function"
    },
    {
      "inputs": [
        {
          "internalType": "bytes32[]",
          "name": "hashesToClear",
          "type": "bytes32[]"
        }
      ],
      "name": "clearBatchCache",
      "outputs": [],
      "stateMutability": "nonpayable",
      "type": "function"
    },
    {
      "inputs": [],
      "name": "getCurrentGuardianSetIndex",
      "outputs": [
        {
          "internalType": "uint32",
          "name": "",
          "type": "uint32"
        }
      ],
      "stateMutability": "view",
      "type": "function"
    },
    {
      "inputs": [
        {
          "internalType": "uint32",
          "name": "index",
          "type": "uint32"
        }
      ],
      "name": "getGuardianSet",
      "outputs": [
        {
          "components": [
            {
              "internalType": "address[]",
              "name": "keys",
              "type": "address[]"
            },
            {
              "internalType": "uint32",
              "name": "expirationTime",
              "type": "uint32"
            }
          ],
          "internalType": "struct Structs.GuardianSet",
          "name": "",
          "type": "tuple"
        }
      ],
      "stateMutability": "view",
      "type": "function"
    },
    {
      "inputs": [],
      "name": "getGuardianSetExpiry",
      "outputs": [
        {
          "internalType": "uint32",
          "name": "",
          "type": "uint32"
        }
      ],
      "stateMutability": "view",
      "type": "function"
    },
    {
      "inputs": [
        {
          "internalType": "bytes32",
          "name": "hash",
          "type": "bytes32"
        }
      ],
      "name": "governanceActionIsConsumed",
      "outputs": [
        {
          "internalType": "bool",
          "name": "",
          "type": "bool"
        }
      ],
      "stateMutability": "view",
      "type": "function"
    },
    {
      "inputs": [],
      "name": "governanceChainId",
      "outputs": [
        {
          "internalType": "uint16",
          "name": "",
          "type": "uint16"
        }
      ],
      "stateMutability": "view",
      "type": "function"
    },
    {
      "inputs": [],
      "name": "governanceContract",
      "outputs": [
        {
          "internalType": "bytes32",
          "name": "",
          "type": "bytes32"
        }
      ],
      "stateMutability": "view",
      "type": "function"
    },
    {
      "inputs": [
        {
          "internalType": "address",
          "name": "impl",
          "type": "address"
        }
      ],
      "name": "isInitialized",
      "outputs": [
        {
          "internalType": "bool",
          "name": "",
          "type": "bool"
        }
      ],
      "stateMutability": "view",
      "type": "function"
    },
    {
      "inputs": [],
      "name": "messageFee",
      "outputs": [
        {
          "internalType": "uint256",
          "name": "",
          "type": "uint256"
        }
      ],
      "stateMutability": "view",
      "type": "function"
    },
    {
      "inputs": [
        {
          "internalType": "address",
          "name": "emitter",
          "type": "address"
        }
      ],
      "name": "nextSequence",
      "outputs": [
        {
          "internalType": "uint64",
          "name": "",
          "type": "uint64"
        }
      ],
      "stateMutability": "view",
      "type": "function"
    },
    {
      "inputs": [
        {
          "internalType": "bytes",
          "name": "encodedVM",
          "type": "bytes"
        },
        {
          "internalType": "bool",
          "name": "cache",
          "type": "bool"
        }
      ],
      "name": "parseAndVerifyBatchVM",
      "outputs": [
        {
          "components": [
            {
              "internalType": "uint8",
              "name": "version",
              "type": "uint8"
            },
            {
              "internalType": "uint32",
              "name": "guardianSetIndex",
              "type": "uint32"
            },
            {
              "components": [
                {
                  "internalType": "bytes32",
                  "name": "r",
                  "type": "bytes32"
                },
                {
                  "internalType": "bytes32",
                  "name": "s",
                  "type": "bytes32"
                },
                {
                  "internalType": "uint8",
                  "name": "v",
                  "type": "uint8"
                },
                {
                  "internalType": "uint8",
                  "name": "guardianIndex",
                  "type": "uint8"
                }
              ],
              "internalType": "struct Structs.Signature[]",
              "name": "signatures",
              "type": "tuple[]"
            },
            {
              "internalType": "bytes32[]",
              "name": "hashes",
              "type": "bytes32[]"
            },
            {
              "internalType": "bytes32",
              "name": "hash",
              "type": "bytes32"
            },
            {
              "components": [
                {
                  "internalType": "uint8",
                  "name": "index",
                  "type": "uint8"
                },
                {
                  "internalType": "bytes",
                  "name": "observation",
                  "type": "bytes"
                }
              ],
              "internalType": "struct Structs.IndexedObservation[]",
              "name": "indexedObservations",
              "type": "tuple[]"
            }
          ],
          "internalType": "struct Structs.VM2",
          "name": "vm",
          "type": "tuple"
        },
        {
          "internalType": "bool",
          "name": "valid",
          "type": "bool"
        },
        {
          "internalType": "string",
          "name": "reason",
          "type": "string"
        }
      ],
      "stateMutability": "nonpayable",
      "type": "function"
    },
    {
      "inputs": [
        {
          "internalType": "bytes",
          "name": "encodedVM",
          "type": "bytes"
        }
      ],
      "name": "parseAndVerifyVM",
      "outputs": [
        {
          "components": [
            {
              "internalType": "uint8",
              "name": "version",
              "type": "uint8"
            },
            {
              "internalType": "uint32",
              "name": "timestamp",
              "type": "uint32"
            },
            {
              "internalType": "uint32",
              "name": "nonce",
              "type": "uint32"
            },
            {
              "internalType": "uint16",
              "name": "emitterChainId",
              "type": "uint16"
            },
            {
              "internalType": "bytes32",
              "name": "emitterAddress",
              "type": "bytes32"
            },
            {
              "internalType": "uint64",
              "name": "sequence",
              "type": "uint64"
            },
            {
              "internalType": "uint8",
              "name": "consistencyLevel",
              "type": "uint8"
            },
            {
              "internalType": "bytes",
              "name": "payload",
              "type": "bytes"
            },
            {
              "internalType": "uint32",
              "name": "guardianSetIndex",
              "type": "uint32"
            },
            {
              "components": [
                {
                  "internalType": "bytes32",
                  "name": "r",
                  "type": "bytes32"
                },
                {
                  "internalType": "bytes32",
                  "name": "s",
                  "type": "bytes32"
                },
                {
                  "internalType": "uint8",
                  "name": "v",
                  "type": "uint8"
                },
                {
                  "internalType": "uint8",
                  "name": "guardianIndex",
                  "type": "uint8"
                }
              ],
              "internalType": "struct Structs.Signature[]",
              "name": "signatures",
              "type": "tuple[]"
            },
            {
              "internalType": "bytes32",
              "name": "hash",
              "type": "bytes32"
            }
          ],
          "internalType": "struct Structs.VM",
          "name": "vm",
          "type": "tuple"
        },
        {
          "internalType": "bool",
          "name": "valid",
          "type": "bool"
        },
        {
          "internalType": "string",
          "name": "reason",
          "type": "string"
        }
      ],
      "stateMutability": "view",
      "type": "function"
    },
    {
      "inputs": [
        {
          "internalType": "bytes",
          "name": "encodedVM",
          "type": "bytes"
        }
      ],
      "name": "parseBatchVM",
      "outputs": [
        {
          "components": [
            {
              "internalType": "uint8",
              "name": "version",
              "type": "uint8"
            },
            {
              "internalType": "uint32",
              "name": "guardianSetIndex",
              "type": "uint32"
            },
            {
              "components": [
                {
                  "internalType": "bytes32",
                  "name": "r",
                  "type": "bytes32"
                },
                {
                  "internalType": "bytes32",
                  "name": "s",
                  "type": "bytes32"
                },
                {
                  "internalType": "uint8",
                  "name": "v",
                  "type": "uint8"
                },
                {
                  "internalType": "uint8",
                  "name": "guardianIndex",
                  "type": "uint8"
                }
              ],
              "internalType": "struct Structs.Signature[]",
              "name": "signatures",
              "type": "tuple[]"
            },
            {
              "internalType": "bytes32[]",
              "name": "hashes",
              "type": "bytes32[]"
            },
            {
              "internalType": "bytes32",
              "name": "hash",
              "type": "bytes32"
            },
            {
              "components": [
                {
                  "internalType": "uint8",
                  "name": "index",
                  "type": "uint8"
                },
                {
                  "internalType": "bytes",
                  "name": "observation",
                  "type": "bytes"
                }
              ],
              "internalType": "struct Structs.IndexedObservation[]",
              "name": "indexedObservations",
              "type": "tuple[]"
            }
          ],
          "internalType": "struct Structs.VM2",
          "name": "vm",
          "type": "tuple"
        }
      ],
      "stateMutability": "pure",
      "type": "function"
    },
    {
      "inputs": [
        {
          "internalType": "bytes",
          "name": "encodedVM",
          "type": "bytes"
        }
      ],
      "name": "parseVM",
      "outputs": [
        {
          "components": [
            {
              "internalType": "uint8",
              "name": "version",
              "type": "uint8"
            },
            {
              "internalType": "uint32",
              "name": "timestamp",
              "type": "uint32"
            },
            {
              "internalType": "uint32",
              "name": "nonce",
              "type": "uint32"
            },
            {
              "internalType": "uint16",
              "name": "emitterChainId",
              "type": "uint16"
            },
            {
              "internalType": "bytes32",
              "name": "emitterAddress",
              "type": "bytes32"
            },
            {
              "internalType": "uint64",
              "name": "sequence",
              "type": "uint64"
            },
            {
              "internalType": "uint8",
              "name": "consistencyLevel",
              "type": "uint8"
            },
            {
              "internalType": "bytes",
              "name": "payload",
              "type": "bytes"
            },
            {
              "internalType": "uint32",
              "name": "guardianSetIndex",
              "type": "uint32"
            },
            {
              "components": [
                {
                  "internalType": "bytes32",
                  "name": "r",
                  "type": "bytes32"
                },
                {
                  "internalType": "bytes32",
                  "name": "s",
                  "type": "bytes32"
                },
                {
                  "internalType": "uint8",
                  "name": "v",
                  "type": "uint8"
                },
                {
                  "internalType": "uint8",
                  "name": "guardianIndex",
                  "type": "uint8"
                }
              ],
              "internalType": "struct Structs.Signature[]",
              "name": "signatures",
              "type": "tuple[]"
            },
            {
              "internalType": "bytes32",
              "name": "hash",
              "type": "bytes32"
            }
          ],
          "internalType": "struct Structs.VM",
          "name": "vm",
          "type": "tuple"
        }
      ],
      "stateMutability": "pure",
      "type": "function"
    },
    {
      "inputs": [
        {
          "internalType": "uint256",
          "name": "numGuardians",
          "type": "uint256"
        }
      ],
      "name": "quorum",
      "outputs": [
        {
          "internalType": "uint256",
          "name": "numSignaturesRequiredForQuorum",
          "type": "uint256"
        }
      ],
      "stateMutability": "pure",
      "type": "function"
    },
    {
      "inputs": [
        {
          "internalType": "bytes32",
          "name": "hash",
          "type": "bytes32"
        }
      ],
      "name": "verifiedHashCached",
      "outputs": [
        {
          "internalType": "bool",
          "name": "",
          "type": "bool"
        }
      ],
      "stateMutability": "view",
      "type": "function"
    },
    {
      "inputs": [
        {
          "components": [
            {
              "internalType": "uint8",
              "name": "version",
              "type": "uint8"
            },
            {
              "internalType": "uint32",
              "name": "guardianSetIndex",
              "type": "uint32"
            },
            {
              "components": [
                {
                  "internalType": "bytes32",
                  "name": "r",
                  "type": "bytes32"
                },
                {
                  "internalType": "bytes32",
                  "name": "s",
                  "type": "bytes32"
                },
                {
                  "internalType": "uint8",
                  "name": "v",
                  "type": "uint8"
                },
                {
                  "internalType": "uint8",
                  "name": "guardianIndex",
                  "type": "uint8"
                }
              ],
              "internalType": "struct Structs.Signature[]",
              "name": "signatures",
              "type": "tuple[]"
            },
            {
              "internalType": "bytes32[]",
              "name": "hashes",
              "type": "bytes32[]"
            },
            {
              "internalType": "bytes32",
              "name": "hash",
              "type": "bytes32"
            },
            {
              "components": [
                {
                  "internalType": "uint8",
                  "name": "index",
                  "type": "uint8"
                },
                {
                  "internalType": "bytes",
                  "name": "observation",
                  "type": "bytes"
                }
              ],
              "internalType": "struct Structs.IndexedObservation[]",
              "name": "indexedObservations",
              "type": "tuple[]"
            }
          ],
          "internalType": "struct Structs.VM2",
          "name": "vm",
          "type": "tuple"
        },
        {
          "internalType": "bool",
          "name": "cache",
          "type": "bool"
        }
      ],
      "name": "verifyBatchVM",
      "outputs": [
        {
          "internalType": "bool",
          "name": "valid",
          "type": "bool"
        },
        {
          "internalType": "string",
          "name": "reason",
          "type": "string"
        }
      ],
      "stateMutability": "nonpayable",
      "type": "function"
    },
    {
      "inputs": [
        {
          "internalType": "bytes32",
          "name": "hash",
          "type": "bytes32"
        },
        {
          "components": [
            {
              "internalType": "bytes32",
              "name": "r",
              "type": "bytes32"
            },
            {
              "internalType": "bytes32",
              "name": "s",
              "type": "bytes32"
            },
            {
              "internalType": "uint8",
              "name": "v",
              "type": "uint8"
            },
            {
              "internalType": "uint8",
              "name": "guardianIndex",
              "type": "uint8"
            }
          ],
          "internalType": "struct Structs.Signature[]",
          "name": "signatures",
          "type": "tuple[]"
        },
        {
          "components": [
            {
              "internalType": "address[]",
              "name": "keys",
              "type": "address[]"
            },
            {
              "internalType": "uint32",
              "name": "expirationTime",
              "type": "uint32"
            }
          ],
          "internalType": "struct Structs.GuardianSet",
          "name": "guardianSet",
          "type": "tuple"
        }
      ],
      "name": "verifySignatures",
      "outputs": [
        {
          "internalType": "bool",
          "name": "valid",
          "type": "bool"
        },
        {
          "internalType": "string",
          "name": "reason",
          "type": "string"
        }
      ],
      "stateMutability": "pure",
      "type": "function"
    },
    {
      "inputs": [
        {
          "components": [
            {
              "internalType": "uint8",
              "name": "version",
              "type": "uint8"
            },
            {
              "internalType": "uint32",
              "name": "timestamp",
              "type": "uint32"
            },
            {
              "internalType": "uint32",
              "name": "nonce",
              "type": "uint32"
            },
            {
              "internalType": "uint16",
              "name": "emitterChainId",
              "type": "uint16"
            },
            {
              "internalType": "bytes32",
              "name": "emitterAddress",
              "type": "bytes32"
            },
            {
              "internalType": "uint64",
              "name": "sequence",
              "type": "uint64"
            },
            {
              "internalType": "uint8",
              "name": "consistencyLevel",
              "type": "uint8"
            },
            {
              "internalType": "bytes",
              "name": "payload",
              "type": "bytes"
            },
            {
              "internalType": "uint32",
              "name": "guardianSetIndex",
              "type": "uint32"
            },
            {
              "components": [
                {
                  "internalType": "bytes32",
                  "name": "r",
                  "type": "bytes32"
                },
                {
                  "internalType": "bytes32",
                  "name": "s",
                  "type": "bytes32"
                },
                {
                  "internalType": "uint8",
                  "name": "v",
                  "type": "uint8"
                },
                {
                  "internalType": "uint8",
                  "name": "guardianIndex",
                  "type": "uint8"
                }
              ],
              "internalType": "struct Structs.Signature[]",
              "name": "signatures",
              "type": "tuple[]"
            },
            {
              "internalType": "bytes32",
              "name": "hash",
              "type": "bytes32"
            }
          ],
          "internalType": "struct Structs.VM",
          "name": "vm",
          "type": "tuple"
        }
      ],
      "name": "verifyVM",
      "outputs": [
        {
          "internalType": "bool",
          "name": "valid",
          "type": "bool"
        },
        {
          "internalType": "string",
          "name": "reason",
          "type": "string"
        }
      ],
      "stateMutability": "view",
      "type": "function"
    }
  ],
  "bytecode": {
    "object": "0x608060405234801561001057600080fd5b50612961806100206000396000f3fe608060405234801561001057600080fd5b506004361061012c5760003560e01c8063a9e11893116100ad578063e8d0df2511610071578063e8d0df2514610321578063eb8d3f1214610336578063f8ce560a1461034c578063f951975a1461035f578063fbe3c2cd1461037f57600080fd5b8063a9e1189314610298578063ab2bc3bf146102b8578063b172b222146102cb578063c0fd8bde146102d3578063d60b347f146102f557600080fd5b8063851bf956116100f4578063851bf95614610204578063875be02a1461022657806396cfc86d146102475780639a8a05921461026a578063a0cce1b31461028557600080fd5b80631a90a219146101315780631cfe7951146101485780632c3c02a4146101675780634cf842b51461019a5780636700a05a146101e4575b600080fd5b6007545b6040519081526020015b60405180910390f35b60035463ffffffff165b60405163ffffffff909116815260200161013f565b61018a610175366004611f52565b60009081526005602052604090205460ff1690565b604051901515815260200161013f565b6101cc6101a8366004611ef7565b6001600160a01b03166000908152600460205260409020546001600160401b031690565b6040516001600160401b03909116815260200161013f565b6101f76101f2366004612101565b610391565b60405161013f91906126cf565b6102176102123660046120b0565b6107c1565b60405161013f939291906126e2565b61023961023436600461221f565b610850565b60405161013f929190612612565b61018a610255366004611f52565b60009081526008602052604090205460ff1690565b60005461ffff165b60405161ffff909116815260200161013f565b610239610293366004611f6a565b6108bf565b6102ab6102a6366004612101565b610af3565b60405161013f9190612719565b6102396102c6366004612133565b610b7a565b600154610135565b6102e66102e1366004612071565b610ec2565b60405161013f9392919061272c565b61018a610303366004611ef7565b6001600160a01b031660009081526006602052604090205460ff1690565b61033461032f366004611f18565b610f24565b005b600354640100000000900463ffffffff16610152565b61013561035a366004611f52565b610f85565b61037261036d36600461233e565b610ff5565b60405161013f9190612664565b60005462010000900461ffff16610272565b6040805160c0810182526000808252602082018190526060928201839052828201839052608082015260a081019190915260006103ce8382611094565b60ff1682526103de600182612821565b9050816000015160ff166002146104105760405162461bcd60e51b81526004016104079061262d565b60405180910390fd5b61041a83826110f0565b63ffffffff166020830152610430600482612821565b9050600061043e8483611094565b60ff16905061044e600183612821565b915061045b82828661114d565b604084015261046b81604261287e565b6104759083612821565b915060006104838584611094565b60ff169050610493600184612821565b925060006104ae846104a684602061287e565b889190611328565b905080805190602001206040516020016104ca91815260200190565b60408051601f1981840301815291905280516020909101206080860152816001600160401b0381111561050d57634e487b7160e01b600052604160045260246000fd5b604051908082528060200260200182016040528015610536578160200160208202803683370190505b50606086015260005b828160ff16101561059e576105548786611435565b86606001518260ff168151811061057b57634e487b7160e01b600052603260045260246000fd5b6020026020010181815250506020856105949190612821565b945060010161053f565b5060006105ab8786611094565b90506105b8600186612821565b9450828160ff16111580156105d0575060008160ff16115b61061c5760405162461bcd60e51b815260206004820152601e60248201527f696e76616c6964206e756d626572206f66206f62736572766174696f6e7300006044820152606401610407565b8060ff166001600160401b0381111561064557634e487b7160e01b600052604160045260246000fd5b60405190808252806020026020018201604052801561068b57816020015b6040805180820190915260008152606060208201528152602001906001900390816106635790505b5060a0870152600080805b8360ff168160ff161015610776576106ae8a89611094565b92506106bb600189612821565b97506106c78a896110f0565b91506106d4600489612821565b975060405180604001604052808460ff16815260200160036107078b8663ffffffff168f6113289092919063ffffffff16565b6040516020016107189291906125e3565b6040516020818303038152906040528152508960a001518260ff168151811061075157634e487b7160e01b600052603260045260246000fd5b602090810291909101015261076c63ffffffff831689612821565b9750600101610696565b50868951146107b55760405162461bcd60e51b815260206004820152600b60248201526a34b73b30b634b2102b269960a91b6044820152606401610407565b50505050505050919050565b6040805160c0810182526000808252602082018190526060928201839052828201839052608082015260a08101919091526000606061083586868080601f01602080910402602001604051908101604052809392919081815260200183838082843760009201919091525061039192505050565b92506108418385610b7a565b93979096509294509192505050565b60006060826000015160ff16600114156108765761086d83611493565b91509150915091565b826000015160ff166003141561088f5761086d836114e4565b505060408051808201909152600f81526e24b73b30b634b2103b32b939b4b7b760891b6020820152600092909150565b8051518251600091606091839190825b81811015610ad05760008882815181106108f957634e487b7160e01b600052603260045260246000fd5b60200260200101519050816000148061091b57508460ff16816060015160ff16115b6109735760405162461bcd60e51b815260206004820152602360248201527f7369676e617475726520696e6469636573206d75737420626520617363656e64604482015262696e6760e81b6064820152608401610407565b6060810151945060ff851684116109cc5760405162461bcd60e51b815260206004820152601c60248201527f677561726469616e20696e646578206f7574206f6620626f756e6473000000006044820152606401610407565b8760000151816060015160ff16815181106109f757634e487b7160e01b600052603260045260246000fd5b60200260200101516001600160a01b031660018b83604001518460000151856020015160405160008152602001604052604051610a50949392919093845260ff9290921660208401526040830152606082015260800190565b6020604051602081039080840390855afa158015610a72573d6000803e3d6000fd5b505050602060405103516001600160a01b031614610ac7576000604051806040016040528060148152602001731593481cda59db985d1d5c99481a5b9d985b1a5960621b815250965096505050505050610aeb565b506001016108cf565b50600160405180602001604052806000815250945094505050505b935093915050565b610afb611ba4565b6000610b078382611094565b90508060ff1660011415610b2557610b1e8361155b565b9150610b74565b8060ff1660031415610b3a57610b1e836116f2565b60405162461bcd60e51b815260206004820152600f60248201526e24b73b30b634b2103b32b939b4b7b760891b6044820152606401610407565b50919050565b6040805160608082018352600080835260208084018381528486018381529188015163ffffffff16855294870151909452608086015190935290610bbd8161181f565b90935091508215610eb95760608501515160a08601515160009190825b81811015610eb457828960a001518281518110610c0757634e487b7160e01b600052603260045260246000fd5b60200260200101516000015160ff1610610c635760405162461bcd60e51b815260206004820152601f60248201527f6f62736572766174696f6e20696e646578206f7574206f6620626f756e6473006044820152606401610407565b801580610ca457508360ff168960a001518281518110610c9357634e487b7160e01b600052603260045260246000fd5b60200260200101516000015160ff16115b610cfe5760405162461bcd60e51b815260206004820152602560248201527f6f62736572766174696f6e20696e6469636573206d75737420626520617363656044820152646e64696e6760d81b6064820152608401610407565b8860a001518181518110610d2257634e487b7160e01b600052603260045260246000fd5b60200260200101516000015193506000610db26001808c60a001518581518110610d5c57634e487b7160e01b600052603260045260246000fd5b60200260200101516020015151610d73919061289d565b8c60a001518581518110610d9757634e487b7160e01b600052603260045260246000fd5b6020026020010151602001516113289092919063ffffffff16565b905060008180519060200120604051602001610dd091815260200190565b6040516020818303038152906040528051906020012090508a606001518b60a001518481518110610e1157634e487b7160e01b600052603260045260246000fd5b60200260200101516000015160ff1681518110610e3e57634e487b7160e01b600052603260045260246000fd5b60200260200101518114610e8a5760006040518060400160405280601381526020017234b73b30b634b21037b139b2b93b30ba34b7b760691b8152509850985050505050505050610ebb565b8915610eaa576000818152600860205260409020805460ff191660011790555b5050600101610bda565b505050505b505b9250929050565b610eca611ba4565b60006060610f0d85858080601f016020809104026020016040519081016040528093929190818152602001838380828437600092019190915250610af392505050565b9250610f1883610850565b93969095509293505050565b805160005b81811015610f8057610f78838281518110610f5457634e487b7160e01b600052603260045260246000fd5b6020908102919091018101516000908152600890915260409020805460ff19169055565b600101610f29565b505050565b60006101008210610fcd5760405162461bcd60e51b8152602060048201526012602482015271746f6f206d616e7920677561726469616e7360701b6044820152606401610407565b6003610fda83600261287e565b610fe4919061285e565b610fef906001612821565b92915050565b60408051808201825260608082526000602080840182905263ffffffff8616825260028152908490208451815492830281018401865294850182815293949390928492849184018282801561107357602002820191906000526020600020905b81546001600160a01b03168152600190910190602001808311611055575b50505091835250506001919091015463ffffffff1660209091015292915050565b60006110a1826001612821565b835110156110e75760405162461bcd60e51b8152602060048201526013602482015272746f55696e74385f6f75744f66426f756e647360681b6044820152606401610407565b50016001015190565b60006110fd826004612821565b835110156111445760405162461bcd60e51b8152602060048201526014602482015273746f55696e7433325f6f75744f66426f756e647360601b6044820152606401610407565b50016004015190565b606083836001600160401b0381111561117657634e487b7160e01b600052604160045260246000fd5b6040519080825280602002602001820160405280156111c857816020015b6040805160808101825260008082526020808301829052928201819052606082015282526000199092019101816111945790505b50915060005b8481101561131f576111e08483611094565b83828151811061120057634e487b7160e01b600052603260045260246000fd5b602090810291909101015160ff909116606090910152611221600183612821565b915061122d8483611435565b83828151811061124d57634e487b7160e01b600052603260045260246000fd5b6020026020010151600001818152505060208261126a9190612821565b91506112768483611435565b83828151811061129657634e487b7160e01b600052603260045260246000fd5b602002602001015160200181815250506020826112b39190612821565b91506112bf8483611094565b6112ca90601b612839565b8382815181106112ea57634e487b7160e01b600052603260045260246000fd5b602090810291909101015160ff90911660409091015261130b600183612821565b915080611317816128e4565b9150506111ce565b50509392505050565b60608161133681601f612821565b10156113755760405162461bcd60e51b815260206004820152600e60248201526d736c6963655f6f766572666c6f7760901b6044820152606401610407565b61137f8284612821565b845110156113c35760405162461bcd60e51b8152602060048201526011602482015270736c6963655f6f75744f66426f756e647360781b6044820152606401610407565b6060821580156113e2576040519150600082526020820160405261142c565b6040519150601f8416801560200281840101858101878315602002848b0101015b8183101561141b578051835260209283019201611403565b5050858452601f01601f1916604052505b50949350505050565b6000611442826020612821565b8351101561148a5760405162461bcd60e51b8152602060048201526015602482015274746f427974657333325f6f75744f66426f756e647360581b6044820152606401610407565b50016020015190565b604080516060808201835260008083526020830182815293830181815261010086015163ffffffff168452610120860151909452610140850151909352906114da8161181f565b9250925050915091565b61014081015160009081526008602052604081205460609060ff161561151d575050604080516020810190915260008152600192909150565b505060408051808201909152601c81527f436f756c64206e6f742066696e64206861736820696e206361636865000000006020820152600092909150565b611563611ba4565b600061156f8382611094565b60ff16825261157f600182612821565b9050816000015160ff166001146115a85760405162461bcd60e51b81526004016104079061262d565b6115b283826110f0565b63ffffffff166101008301526115c9600482612821565b905060006115d78483611094565b60ff1690506115e7600183612821565b91506115f482828661114d565b61012084015261160581604261287e565b61160f9083612821565b9150600061162c83848751611624919061289d565b879190611328565b9050808051906020012060405160200161164891815260200190565b604051602081830303815290604052805190602001208461014001818152505060006116818485885161167b919061289d565b88611972565b805163ffffffff9081166020808901919091528201511660408088019190915281015161ffff166060808801919091528101516080808801919091528101516001600160401b031660a08088019190915281015160ff1660c080880191909152015160e08601525092949350505050565b6116fa611ba4565b60006117068382611094565b60ff168252611716600182612821565b9050816000015160ff1660031461173f5760405162461bcd60e51b81526004016104079061262d565b600061175a82838651611752919061289d565b869190611328565b9050808051906020012060405160200161177691815260200190565b604051602081830303815290604052805190602001208361014001818152505060006117af838487516117a9919061289d565b87611972565b805163ffffffff9081166020808801919091528201511660408087019190915281015161ffff166060808701919091528101516080808701919091528101516001600160401b031660a08087019190915281015160ff1660c080870191909152015160e085015250919392505050565b6000606060006118328460000151610ff5565b805151909150611875576000604051806040016040528060148152602001731a5b9d985b1a590819dd585c991a585b881cd95d60621b8152509250925050915091565b600354845163ffffffff90811691161480159061189b575042816020015163ffffffff16105b156118e25760006040518060400160405280601881526020017f677561726469616e2073657420686173206578706972656400000000000000008152509250925050915091565b8051516118ee90610f85565b8460200151511015611928576000604051806040016040528060098152602001686e6f2071756f72756d60b81b8152509250925050915091565b60008061193e86604001518760200151856108bf565b9150915081611954576000969095509350505050565b60016040518060200160405280600081525094509450505050915091565b6040805160e08101825260008082526020820181905291810182905260608082018390526080820183905260a082019290925260c0810191909152836119b883826110f0565b63ffffffff1682526119cb600482612821565b90506119d783826110f0565b63ffffffff1660208301526119ed600482612821565b90506119f98382611aea565b61ffff166040830152611a0d600282612821565b9050611a198382611435565b6060830152611a29602082612821565b9050611a358382611b47565b6001600160401b03166080830152611a4e600882612821565b9050611a5a8382611094565b60ff1660a0830152611a6d600182612821565b90506000611a7b868361289d565b905080851015611acd5760405162461bcd60e51b815260206004820152601f60248201527f496e73756666696369656e74206f62736572766174696f6e206c656e677468006044820152606401610407565b611adb82611752838861289d565b60c08401525090949350505050565b6000611af7826002612821565b83511015611b3e5760405162461bcd60e51b8152602060048201526014602482015273746f55696e7431365f6f75744f66426f756e647360601b6044820152606401610407565b50016002015190565b6000611b54826008612821565b83511015611b9b5760405162461bcd60e51b8152602060048201526014602482015273746f55696e7436345f6f75744f66426f756e647360601b6044820152606401610407565b50016008015190565b604080516101608101825260008082526020820181905291810182905260608082018390526080820183905260a0820183905260c0820183905260e08201819052610100820183905261012082015261014081019190915290565b80356001600160a01b0381168114611c1657600080fd5b919050565b600082601f830112611c2b578081fd5b81356020611c40611c3b836127fe565b6127ce565b80838252828201915082860187848660051b8901011115611c5f578586fd5b855b85811015611c7d57813584529284019290840190600101611c61565b5090979650505050505050565b600082601f830112611c9a578081fd5b81356020611caa611c3b836127fe565b80838252828201915082860187848660051b8901011115611cc9578586fd5b855b85811015611c7d5781356001600160401b0380821115611ce9578889fd5b908901906040828c03601f1901811315611d0157898afd5b611d0961273f565b611d14898501611ee6565b8152908301359082821115611d27578a8bfd5b611d358d8a84870101611e3f565b818a015287525050509284019290840190600101611ccb565b600082601f830112611d5e578081fd5b81356020611d6e611c3b836127fe565b80838252828201915082860187848660071b8901011115611d8d578586fd5b855b85811015611c7d57608080838b031215611da7578788fd5b611daf612767565b8335815286840135878201526040611dc8818601611ee6565b908201526060611dd9858201611ee6565b908201528552938501939190910190600101611d8f565b80358015158114611c1657600080fd5b60008083601f840112611e11578182fd5b5081356001600160401b03811115611e27578182fd5b602083019150836020828501011115610ebb57600080fd5b600082601f830112611e4f578081fd5b81356001600160401b03811115611e6857611e68612915565b611e7b601f8201601f19166020016127ce565b818152846020838601011115611e8f578283fd5b816020850160208301379081016020019190915292915050565b803561ffff81168114611c1657600080fd5b803563ffffffff81168114611c1657600080fd5b80356001600160401b0381168114611c1657600080fd5b803560ff81168114611c1657600080fd5b600060208284031215611f08578081fd5b611f1182611bff565b9392505050565b600060208284031215611f29578081fd5b81356001600160401b03811115611f3e578182fd5b611f4a84828501611c1b565b949350505050565b600060208284031215611f63578081fd5b5035919050565b600080600060608486031215611f7e578182fd5b833592506020808501356001600160401b0380821115611f9c578485fd5b611fa888838901611d4e565b94506040870135915080821115611fbd578384fd5b9086019060408289031215611fd0578384fd5b611fd861273f565b823582811115611fe6578586fd5b83019150601f82018913611ff8578485fd5b8135612006611c3b826127fe565b8082825286820191508685018c888560051b8801011115612025578889fd5b8895505b8386101561204e5761203a81611bff565b835260019590950194918701918701612029565b5083525061205f9050838501611ebb565b84820152809450505050509250925092565b60008060208385031215612083578182fd5b82356001600160401b03811115612098578283fd5b6120a485828601611e00565b90969095509350505050565b6000806000604084860312156120c4578081fd5b83356001600160401b038111156120d9578182fd5b6120e586828701611e00565b90945092506120f8905060208501611df0565b90509250925092565b600060208284031215612112578081fd5b81356001600160401b03811115612127578182fd5b611f4a84828501611e3f565b60008060408385031215612145578182fd5b82356001600160401b038082111561215b578384fd5b9084019060c0828703121561216e578384fd5b612176612789565b61217f83611ee6565b815261218d60208401611ebb565b60208201526040830135828111156121a3578586fd5b6121af88828601611d4e565b6040830152506060830135828111156121c6578586fd5b6121d288828601611c1b565b6060830152506080830135608082015260a0830135828111156121f3578586fd5b6121ff88828601611c8a565b60a083015250935061221691505060208401611df0565b90509250929050565b600060208284031215612230578081fd5b81356001600160401b0380821115612246578283fd5b90830190610160828603121561225a578283fd5b6122626127ab565b61226b83611ee6565b815261227960208401611ebb565b602082015261228a60408401611ebb565b604082015261229b60608401611ea9565b6060820152608083013560808201526122b660a08401611ecf565b60a08201526122c760c08401611ee6565b60c082015260e0830135828111156122dd578485fd5b6122e987828601611e3f565b60e0830152506101006122fd818501611ebb565b908201526101208381013583811115612314578586fd5b61232088828701611d4e565b91830191909152506101409283013592810192909252509392505050565b60006020828403121561234f578081fd5b611f1182611ebb565b600081518084526020808501808196508360051b81019150828601855b858110156123b65782840389528151805160ff16855285015160408686018190526123a281870183612426565b9a87019a9550505090840190600101612375565b5091979650505050505050565b6000815180845260208085019450808401835b8381101561241b57815180518852838101518489015260408082015160ff908116918a01919091526060918201511690880152608090960195908201906001016123d6565b509495945050505050565b6000815180845261243e8160208601602086016128b4565b601f01601f19169290920160200192915050565b60ff81511682526000602063ffffffff818401511681850152604083015160c0604086015261248460c08601826123c3565b606085810151878303918801919091528051808352908401925084918401905b808310156124c457835182529284019260019290920191908401906124a4565b506080860151608088015260a0860151935086810360a08801526124e88185612358565b979650505050505050565b805160ff16825260006101606020830151612516602086018263ffffffff169052565b50604083015161252e604086018263ffffffff169052565b506060830151612544606086018261ffff169052565b506080830151608085015260a083015161256960a08601826001600160401b03169052565b5060c083015161257e60c086018260ff169052565b5060e08301518160e086015261259682860182612426565b915050610100808401516125b18287018263ffffffff169052565b505061012080840151858303828701526125cb83826123c3565b61014095860151969095019590955250919392505050565b60ff60f81b8360f81b168152600082516126048160018501602087016128b4565b919091016001019392505050565b8215158152604060208201526000611f4a6040830184612426565b60208082526017908201527f564d2076657273696f6e20696e636f6d70617469626c65000000000000000000604082015260600190565b6020808252825160408383015280516060840181905260009291820190839060808601905b808310156126b25783516001600160a01b03168252928401926001929092019190840190612689565b5063ffffffff848801511660408701528094505050505092915050565b602081526000611f116020830184612452565b6060815260006126f56060830186612452565b8415156020840152828103604084015261270f8185612426565b9695505050505050565b602081526000611f1160208301846124f3565b6060815260006126f560608301866124f3565b604080519081016001600160401b038111828210171561276157612761612915565b60405290565b604051608081016001600160401b038111828210171561276157612761612915565b60405160c081016001600160401b038111828210171561276157612761612915565b60405161016081016001600160401b038111828210171561276157612761612915565b604051601f8201601f191681016001600160401b03811182821017156127f6576127f6612915565b604052919050565b60006001600160401b0382111561281757612817612915565b5060051b60200190565b60008219821115612834576128346128ff565b500190565b600060ff821660ff84168060ff03821115612856576128566128ff565b019392505050565b60008261287957634e487b7160e01b81526012600452602481fd5b500490565b6000816000190483118215151615612898576128986128ff565b500290565b6000828210156128af576128af6128ff565b500390565b60005b838110156128cf5781810151838201526020016128b7565b838111156128de576000848401525b50505050565b60006000198214156128f8576128f86128ff565b5060010190565b634e487b7160e01b600052601160045260246000fd5b634e487b7160e01b600052604160045260246000fdfea2646970667358221220a61e933c4d6058b8d52d3577b06ba70ff8fa58542b332b69027116ad82f9dc0864736f6c63430008040033",
    "linkReferences": {}
  },
  "methodIdentifiers": {
    "chainId()": "9a8a0592",
    "clearBatchCache(bytes32[])": "e8d0df25",
    "getCurrentGuardianSetIndex()": "1cfe7951",
    "getGuardianSet(uint32)": "f951975a",
    "getGuardianSetExpiry()": "eb8d3f12",
    "governanceActionIsConsumed(bytes32)": "2c3c02a4",
    "governanceChainId()": "fbe3c2cd",
    "governanceContract()": "b172b222",
    "isInitialized(address)": "d60b347f",
    "messageFee()": "1a90a219",
    "nextSequence(address)": "4cf842b5",
    "parseAndVerifyBatchVM(bytes,bool)": "851bf956",
    "parseAndVerifyVM(bytes)": "c0fd8bde",
    "parseBatchVM(bytes)": "6700a05a",
    "parseVM(bytes)": "a9e11893",
    "quorum(uint256)": "f8ce560a",
    "verifiedHashCached(bytes32)": "96cfc86d",
    "verifyBatchVM((uint8,uint32,(bytes32,bytes32,uint8,uint8)[],bytes32[],bytes32,(uint8,bytes)[]),bool)": "ab2bc3bf",
    "verifySignatures(bytes32,(bytes32,bytes32,uint8,uint8)[],(address[],uint32))": "a0cce1b3",
    "verifyVM((uint8,uint32,uint32,uint16,bytes32,uint64,uint8,bytes,uint32,(bytes32,bytes32,uint8,uint8)[],bytes32))": "875be02a"
  },
  "id": 4
}