{
  "contractName": "BridgeImplementation",
  "abi": [
    {
      "anonymous": false,
      "inputs": [
        {
          "indexed": false,
          "internalType": "address",
          "name": "previousAdmin",
          "type": "address"
        },
        {
          "indexed": false,
          "internalType": "address",
          "name": "newAdmin",
          "type": "address"
        }
      ],
      "name": "AdminChanged",
      "type": "event"
    },
    {
      "anonymous": false,
      "inputs": [
        {
          "indexed": true,
          "internalType": "address",
          "name": "beacon",
          "type": "address"
        }
      ],
      "name": "BeaconUpgraded",
      "type": "event"
    },
    {
      "anonymous": false,
      "inputs": [
        {
          "indexed": true,
          "internalType": "address",
          "name": "oldContract",
          "type": "address"
        },
        {
          "indexed": true,
          "internalType": "address",
          "name": "newContract",
          "type": "address"
        }
      ],
      "name": "ContractUpgraded",
      "type": "event"
    },
    {
      "anonymous": false,
      "inputs": [
        {
          "indexed": true,
          "internalType": "address",
          "name": "implementation",
          "type": "address"
        }
      ],
      "name": "Upgraded",
      "type": "event"
    },
    {
      "inputs": [],
      "name": "WETH",
      "outputs": [
        {
          "internalType": "contract IWETH",
          "name": "",
          "type": "address"
        }
      ],
      "stateMutability": "view",
      "type": "function"
    },
    {
      "inputs": [
        {
          "internalType": "bytes",
          "name": "encoded",
          "type": "bytes"
        }
      ],
      "name": "_parseTransferCommon",
      "outputs": [
        {
          "components": [
            {
              "internalType": "uint8",
              "name": "payloadID",
              "type": "uint8"
            },
            {
              "internalType": "uint256",
              "name": "amount",
              "type": "uint256"
            },
            {
              "internalType": "bytes32",
              "name": "tokenAddress",
              "type": "bytes32"
            },
            {
              "internalType": "uint16",
              "name": "tokenChain",
              "type": "uint16"
            },
            {
              "internalType": "bytes32",
              "name": "to",
              "type": "bytes32"
            },
            {
              "internalType": "uint16",
              "name": "toChain",
              "type": "uint16"
            },
            {
              "internalType": "uint256",
              "name": "fee",
              "type": "uint256"
            }
          ],
          "internalType": "struct BridgeStructs.Transfer",
          "name": "transfer",
          "type": "tuple"
        }
      ],
      "stateMutability": "pure",
      "type": "function"
    },
    {
      "inputs": [
        {
          "internalType": "address",
          "name": "tokenAddress",
          "type": "address"
        },
        {
          "internalType": "uint32",
          "name": "nonce",
          "type": "uint32"
        }
      ],
      "name": "attestToken",
      "outputs": [
        {
          "internalType": "uint64",
          "name": "sequence",
          "type": "uint64"
        }
      ],
      "stateMutability": "payable",
      "type": "function"
    },
    {
      "inputs": [
        {
          "internalType": "uint16",
          "name": "chainId_",
          "type": "uint16"
        }
      ],
      "name": "bridgeContracts",
      "outputs": [
        {
          "internalType": "bytes32",
          "name": "",
          "type": "bytes32"
        }
      ],
      "stateMutability": "view",
      "type": "function"
    },
    {
      "inputs": [],
      "name": "chainId",
      "outputs": [
        {
          "internalType": "uint16",
          "name": "",
          "type": "uint16"
        }
      ],
      "stateMutability": "view",
      "type": "function"
    },
    {
      "inputs": [
        {
          "internalType": "bytes",
          "name": "encodedVm",
          "type": "bytes"
        }
      ],
      "name": "completeTransfer",
      "outputs": [],
      "stateMutability": "nonpayable",
      "type": "function"
    },
    {
      "inputs": [
        {
          "internalType": "bytes",
          "name": "encodedVm",
          "type": "bytes"
        }
      ],
      "name": "completeTransferAndUnwrapETH",
      "outputs": [],
      "stateMutability": "nonpayable",
      "type": "function"
    },
    {
      "inputs": [
        {
          "internalType": "bytes",
          "name": "encodedVm",
          "type": "bytes"
        }
      ],
      "name": "completeTransferAndUnwrapETHWithPayload",
      "outputs": [
        {
          "internalType": "bytes",
          "name": "",
          "type": "bytes"
        }
      ],
      "stateMutability": "nonpayable",
      "type": "function"
    },
    {
      "inputs": [
        {
          "internalType": "bytes",
          "name": "encodedVm",
          "type": "bytes"
        }
      ],
      "name": "completeTransferWithPayload",
      "outputs": [
        {
          "internalType": "bytes",
          "name": "",
          "type": "bytes"
        }
      ],
      "stateMutability": "nonpayable",
      "type": "function"
    },
    {
      "inputs": [
        {
          "internalType": "bytes",
          "name": "encodedVm",
          "type": "bytes"
        }
      ],
      "name": "createWrapped",
      "outputs": [
        {
          "internalType": "address",
          "name": "token",
          "type": "address"
        }
      ],
      "stateMutability": "nonpayable",
      "type": "function"
    },
    {
      "inputs": [
        {
          "components": [
            {
              "internalType": "uint8",
              "name": "payloadID",
              "type": "uint8"
            },
            {
              "internalType": "bytes32",
              "name": "tokenAddress",
              "type": "bytes32"
            },
            {
              "internalType": "uint16",
              "name": "tokenChain",
              "type": "uint16"
            },
            {
              "internalType": "uint8",
              "name": "decimals",
              "type": "uint8"
            },
            {
              "internalType": "bytes32",
              "name": "symbol",
              "type": "bytes32"
            },
            {
              "internalType": "bytes32",
              "name": "name",
              "type": "bytes32"
            }
          ],
          "internalType": "struct BridgeStructs.AssetMeta",
          "name": "meta",
          "type": "tuple"
        }
      ],
      "name": "encodeAssetMeta",
      "outputs": [
        {
          "internalType": "bytes",
          "name": "encoded",
          "type": "bytes"
        }
      ],
      "stateMutability": "pure",
      "type": "function"
    },
    {
      "inputs": [
        {
          "components": [
            {
              "internalType": "uint8",
              "name": "payloadID",
              "type": "uint8"
            },
            {
              "internalType": "uint256",
              "name": "amount",
              "type": "uint256"
            },
            {
              "internalType": "bytes32",
              "name": "tokenAddress",
              "type": "bytes32"
            },
            {
              "internalType": "uint16",
              "name": "tokenChain",
              "type": "uint16"
            },
            {
              "internalType": "bytes32",
              "name": "to",
              "type": "bytes32"
            },
            {
              "internalType": "uint16",
              "name": "toChain",
              "type": "uint16"
            },
            {
              "internalType": "uint256",
              "name": "fee",
              "type": "uint256"
            }
          ],
          "internalType": "struct BridgeStructs.Transfer",
          "name": "transfer",
          "type": "tuple"
        }
      ],
      "name": "encodeTransfer",
      "outputs": [
        {
          "internalType": "bytes",
          "name": "encoded",
          "type": "bytes"
        }
      ],
      "stateMutability": "pure",
      "type": "function"
    },
    {
      "inputs": [
        {
          "components": [
            {
              "internalType": "uint8",
              "name": "payloadID",
              "type": "uint8"
            },
            {
              "internalType": "uint256",
              "name": "amount",
              "type": "uint256"
            },
            {
              "internalType": "bytes32",
              "name": "tokenAddress",
              "type": "bytes32"
            },
            {
              "internalType": "uint16",
              "name": "tokenChain",
              "type": "uint16"
            },
            {
              "internalType": "bytes32",
              "name": "to",
              "type": "bytes32"
            },
            {
              "internalType": "uint16",
              "name": "toChain",
              "type": "uint16"
            },
            {
              "internalType": "bytes32",
              "name": "fromAddress",
              "type": "bytes32"
            },
            {
              "internalType": "bytes",
              "name": "payload",
              "type": "bytes"
            }
          ],
          "internalType": "struct BridgeStructs.TransferWithPayload",
          "name": "transfer",
          "type": "tuple"
        }
      ],
      "name": "encodeTransferWithPayload",
      "outputs": [
        {
          "internalType": "bytes",
          "name": "encoded",
          "type": "bytes"
        }
      ],
      "stateMutability": "pure",
      "type": "function"
    },
    {
      "inputs": [],
      "name": "finality",
      "outputs": [
        {
          "internalType": "uint8",
          "name": "",
          "type": "uint8"
        }
      ],
      "stateMutability": "view",
      "type": "function"
    },
    {
      "inputs": [
        {
          "internalType": "bytes32",
          "name": "hash",
          "type": "bytes32"
        }
      ],
      "name": "governanceActionIsConsumed",
      "outputs": [
        {
          "internalType": "bool",
          "name": "",
          "type": "bool"
        }
      ],
      "stateMutability": "view",
      "type": "function"
    },
    {
      "inputs": [],
      "name": "governanceChainId",
      "outputs": [
        {
          "internalType": "uint16",
          "name": "",
          "type": "uint16"
        }
      ],
      "stateMutability": "view",
      "type": "function"
    },
    {
      "inputs": [],
      "name": "governanceContract",
      "outputs": [
        {
          "internalType": "bytes32",
          "name": "",
          "type": "bytes32"
        }
      ],
      "stateMutability": "view",
      "type": "function"
    },
    {
      "inputs": [
        {
          "internalType": "address",
          "name": "impl",
          "type": "address"
        }
      ],
      "name": "isInitialized",
      "outputs": [
        {
          "internalType": "bool",
          "name": "",
          "type": "bool"
        }
      ],
      "stateMutability": "view",
      "type": "function"
    },
    {
      "inputs": [
        {
          "internalType": "bytes32",
          "name": "hash",
          "type": "bytes32"
        }
      ],
      "name": "isTransferCompleted",
      "outputs": [
        {
          "internalType": "bool",
          "name": "",
          "type": "bool"
        }
      ],
      "stateMutability": "view",
      "type": "function"
    },
    {
      "inputs": [
        {
          "internalType": "address",
          "name": "token",
          "type": "address"
        }
      ],
      "name": "isWrappedAsset",
      "outputs": [
        {
          "internalType": "bool",
          "name": "",
          "type": "bool"
        }
      ],
      "stateMutability": "view",
      "type": "function"
    },
    {
      "inputs": [
        {
          "internalType": "address",
          "name": "token",
          "type": "address"
        }
      ],
      "name": "outstandingBridged",
      "outputs": [
        {
          "internalType": "uint256",
          "name": "",
          "type": "uint256"
        }
      ],
      "stateMutability": "view",
      "type": "function"
    },
    {
      "inputs": [
        {
          "internalType": "bytes",
          "name": "encoded",
          "type": "bytes"
        }
      ],
      "name": "parseAssetMeta",
      "outputs": [
        {
          "components": [
            {
              "internalType": "uint8",
              "name": "payloadID",
              "type": "uint8"
            },
            {
              "internalType": "bytes32",
              "name": "tokenAddress",
              "type": "bytes32"
            },
            {
              "internalType": "uint16",
              "name": "tokenChain",
              "type": "uint16"
            },
            {
              "internalType": "uint8",
              "name": "decimals",
              "type": "uint8"
            },
            {
              "internalType": "bytes32",
              "name": "symbol",
              "type": "bytes32"
            },
            {
              "internalType": "bytes32",
              "name": "name",
              "type": "bytes32"
            }
          ],
          "internalType": "struct BridgeStructs.AssetMeta",
          "name": "meta",
          "type": "tuple"
        }
      ],
      "stateMutability": "pure",
      "type": "function"
    },
    {
      "inputs": [
        {
          "internalType": "bytes",
          "name": "encoded",
          "type": "bytes"
        }
      ],
      "name": "parsePayloadID",
      "outputs": [
        {
          "internalType": "uint8",
          "name": "payloadID",
          "type": "uint8"
        }
      ],
      "stateMutability": "pure",
      "type": "function"
    },
    {
      "inputs": [
        {
          "internalType": "bytes",
          "name": "encoded",
          "type": "bytes"
        }
      ],
      "name": "parseRegisterChain",
      "outputs": [
        {
          "components": [
            {
              "internalType": "bytes32",
              "name": "module",
              "type": "bytes32"
            },
            {
              "internalType": "uint8",
              "name": "action",
              "type": "uint8"
            },
            {
              "internalType": "uint16",
              "name": "chainId",
              "type": "uint16"
            },
            {
              "internalType": "uint16",
              "name": "emitterChainID",
              "type": "uint16"
            },
            {
              "internalType": "bytes32",
              "name": "emitterAddress",
              "type": "bytes32"
            }
          ],
          "internalType": "struct BridgeStructs.RegisterChain",
          "name": "chain",
          "type": "tuple"
        }
      ],
      "stateMutability": "pure",
      "type": "function"
    },
    {
      "inputs": [
        {
          "internalType": "bytes",
          "name": "encoded",
          "type": "bytes"
        }
      ],
      "name": "parseTransfer",
      "outputs": [
        {
          "components": [
            {
              "internalType": "uint8",
              "name": "payloadID",
              "type": "uint8"
            },
            {
              "internalType": "uint256",
              "name": "amount",
              "type": "uint256"
            },
            {
              "internalType": "bytes32",
              "name": "tokenAddress",
              "type": "bytes32"
            },
            {
              "internalType": "uint16",
              "name": "tokenChain",
              "type": "uint16"
            },
            {
              "internalType": "bytes32",
              "name": "to",
              "type": "bytes32"
            },
            {
              "internalType": "uint16",
              "name": "toChain",
              "type": "uint16"
            },
            {
              "internalType": "uint256",
              "name": "fee",
              "type": "uint256"
            }
          ],
          "internalType": "struct BridgeStructs.Transfer",
          "name": "transfer",
          "type": "tuple"
        }
      ],
      "stateMutability": "pure",
      "type": "function"
    },
    {
      "inputs": [
        {
          "internalType": "bytes",
          "name": "encoded",
          "type": "bytes"
        }
      ],
      "name": "parseTransferWithPayload",
      "outputs": [
        {
          "components": [
            {
              "internalType": "uint8",
              "name": "payloadID",
              "type": "uint8"
            },
            {
              "internalType": "uint256",
              "name": "amount",
              "type": "uint256"
            },
            {
              "internalType": "bytes32",
              "name": "tokenAddress",
              "type": "bytes32"
            },
            {
              "internalType": "uint16",
              "name": "tokenChain",
              "type": "uint16"
            },
            {
              "internalType": "bytes32",
              "name": "to",
              "type": "bytes32"
            },
            {
              "internalType": "uint16",
              "name": "toChain",
              "type": "uint16"
            },
            {
              "internalType": "bytes32",
              "name": "fromAddress",
              "type": "bytes32"
            },
            {
              "internalType": "bytes",
              "name": "payload",
              "type": "bytes"
            }
          ],
          "internalType": "struct BridgeStructs.TransferWithPayload",
          "name": "transfer",
          "type": "tuple"
        }
      ],
      "stateMutability": "pure",
      "type": "function"
    },
    {
      "inputs": [
        {
          "internalType": "bytes",
          "name": "encoded",
          "type": "bytes"
        }
      ],
      "name": "parseUpgrade",
      "outputs": [
        {
          "components": [
            {
              "internalType": "bytes32",
              "name": "module",
              "type": "bytes32"
            },
            {
              "internalType": "uint8",
              "name": "action",
              "type": "uint8"
            },
            {
              "internalType": "uint16",
              "name": "chainId",
              "type": "uint16"
            },
            {
              "internalType": "bytes32",
              "name": "newContract",
              "type": "bytes32"
            }
          ],
          "internalType": "struct BridgeStructs.UpgradeContract",
          "name": "chain",
          "type": "tuple"
        }
      ],
      "stateMutability": "pure",
      "type": "function"
    },
    {
      "inputs": [
        {
          "internalType": "bytes",
          "name": "encodedVM",
          "type": "bytes"
        }
      ],
      "name": "registerChain",
      "outputs": [],
      "stateMutability": "nonpayable",
      "type": "function"
    },
    {
      "inputs": [],
      "name": "tokenImplementation",
      "outputs": [
        {
          "internalType": "address",
          "name": "",
          "type": "address"
        }
      ],
      "stateMutability": "view",
      "type": "function"
    },
    {
      "inputs": [
        {
          "internalType": "address",
          "name": "token",
          "type": "address"
        },
        {
          "internalType": "uint256",
          "name": "amount",
          "type": "uint256"
        },
        {
          "internalType": "uint16",
          "name": "recipientChain",
          "type": "uint16"
        },
        {
          "internalType": "bytes32",
          "name": "recipient",
          "type": "bytes32"
        },
        {
          "internalType": "uint256",
          "name": "arbiterFee",
          "type": "uint256"
        },
        {
          "internalType": "uint32",
          "name": "nonce",
          "type": "uint32"
        }
      ],
      "name": "transferTokens",
      "outputs": [
        {
          "internalType": "uint64",
          "name": "sequence",
          "type": "uint64"
        }
      ],
      "stateMutability": "payable",
      "type": "function"
    },
    {
      "inputs": [
        {
          "internalType": "address",
          "name": "token",
          "type": "address"
        },
        {
          "internalType": "uint256",
          "name": "amount",
          "type": "uint256"
        },
        {
          "internalType": "uint16",
          "name": "recipientChain",
          "type": "uint16"
        },
        {
          "internalType": "bytes32",
          "name": "recipient",
          "type": "bytes32"
        },
        {
          "internalType": "uint32",
          "name": "nonce",
          "type": "uint32"
        },
        {
          "internalType": "bytes",
          "name": "payload",
          "type": "bytes"
        }
      ],
      "name": "transferTokensWithPayload",
      "outputs": [
        {
          "internalType": "uint64",
          "name": "sequence",
          "type": "uint64"
        }
      ],
      "stateMutability": "payable",
      "type": "function"
    },
    {
      "inputs": [
        {
          "internalType": "bytes",
          "name": "encodedVm",
          "type": "bytes"
        }
      ],
      "name": "updateWrapped",
      "outputs": [
        {
          "internalType": "address",
          "name": "token",
          "type": "address"
        }
      ],
      "stateMutability": "nonpayable",
      "type": "function"
    },
    {
      "inputs": [
        {
          "internalType": "bytes",
          "name": "encodedVM",
          "type": "bytes"
        }
      ],
      "name": "upgrade",
      "outputs": [],
      "stateMutability": "nonpayable",
      "type": "function"
    },
    {
      "inputs": [],
      "name": "wormhole",
      "outputs": [
        {
          "internalType": "contract IWormhole",
          "name": "",
          "type": "address"
        }
      ],
      "stateMutability": "view",
      "type": "function"
    },
    {
      "inputs": [
        {
          "internalType": "uint16",
          "name": "recipientChain",
          "type": "uint16"
        },
        {
          "internalType": "bytes32",
          "name": "recipient",
          "type": "bytes32"
        },
        {
          "internalType": "uint256",
          "name": "arbiterFee",
          "type": "uint256"
        },
        {
          "internalType": "uint32",
          "name": "nonce",
          "type": "uint32"
        }
      ],
      "name": "wrapAndTransferETH",
      "outputs": [
        {
          "internalType": "uint64",
          "name": "sequence",
          "type": "uint64"
        }
      ],
      "stateMutability": "payable",
      "type": "function"
    },
    {
      "inputs": [
        {
          "internalType": "uint16",
          "name": "recipientChain",
          "type": "uint16"
        },
        {
          "internalType": "bytes32",
          "name": "recipient",
          "type": "bytes32"
        },
        {
          "internalType": "uint32",
          "name": "nonce",
          "type": "uint32"
        },
        {
          "internalType": "bytes",
          "name": "payload",
          "type": "bytes"
        }
      ],
      "name": "wrapAndTransferETHWithPayload",
      "outputs": [
        {
          "internalType": "uint64",
          "name": "sequence",
          "type": "uint64"
        }
      ],
      "stateMutability": "payable",
      "type": "function"
    },
    {
      "inputs": [
        {
          "internalType": "uint16",
          "name": "tokenChainId",
          "type": "uint16"
        },
        {
          "internalType": "bytes32",
          "name": "tokenAddress",
          "type": "bytes32"
        }
      ],
      "name": "wrappedAsset",
      "outputs": [
        {
          "internalType": "address",
          "name": "",
          "type": "address"
        }
      ],
      "stateMutability": "view",
      "type": "function"
    },
    {
      "stateMutability": "payable",
      "type": "receive"
    },
    {
      "inputs": [],
      "name": "implementation",
      "outputs": [
        {
          "internalType": "address",
          "name": "",
          "type": "address"
        }
      ],
      "stateMutability": "view",
      "type": "function"
    },
    {
      "inputs": [],
      "name": "initialize",
      "outputs": [],
      "stateMutability": "nonpayable",
      "type": "function"
    }
  ],
  "bytecode": "0x608060405234801561001057600080fd5b506001600c55615c0180620000266000396000f3fe608060405260043610620002635760003560e01c8063aa4efa5b1162000147578063c687851911620000b9578063ea63738d1162000078578063ea63738d14620008dc578063f768441f1462000910578063fbe3c2cd1462000935578063fbeeacd91462000956578063ff200cde14620009b657600080fd5b8063c6878519146200080b578063d56e2e241462000830578063d60b347f1462000855578063e80598101462000892578063e89bc40114620008b757600080fd5b8063b96c7e4d1162000106578063b96c7e4d1462000767578063bee9cdfc14620007a1578063c3f511c114620007b8578063c48fa11514620007dd578063c5a5ebda14620007f457600080fd5b8063aa4efa5b1462000693578063ad5c464814620006c7578063ad66a5f114620006e7578063b046223b146200072b578063b172b222146200075057600080fd5b80632c3c02a411620001e15780638129fc1c11620001a05780638129fc1c14620005f557806384acd1bb146200060d5780639981509f146200062d5780639a8a05921462000644578063a5799f93146200066e57600080fd5b80632c3c02a414620005425780632f3a3d5d14620005765780635c60da1b14620005965780635f85426614620005ae578063739fc8d114620005d357600080fd5b80631a2be4da116200022e5780631a2be4da14620003d25780631c8475e414620004205780631ff1e28614620004545780632539464514620004925780632b51137514620004b957600080fd5b806301f53255146200027057806307dfd8fb14620002ee5780630f509008146200036a5780630f5287b014620003a257600080fd5b366200026b57005b600080fd5b3480156200027d57600080fd5b50620002956200028f366004620046c1565b620009db565b604051620002e59190600060a0820190508251825260ff6020840151166020830152604083015161ffff808216604085015280606086015116606085015250506080830151608083015292915050565b60405180910390f35b348015620002fb57600080fd5b50620003136200030d366004620046c1565b62000be5565b604051620002e59190600060c08201905060ff83511682526020830151602083015261ffff604084015116604083015260ff60608401511660608301526080830151608083015260a083015160a083015292915050565b3480156200037757600080fd5b506200038f62000389366004620046c1565b62000d74565b60405160ff9091168152602001620002e5565b620003b9620003b336600462004540565b62000d88565b6040516001600160401b039091168152602001620002e5565b348015620003df57600080fd5b506200040f620003f136600462004523565b6001600160a01b031660009081526009602052604090205460ff1690565b6040519015158152602001620002e5565b3480156200042d57600080fd5b50620004456200043f366004620046c1565b62000e2c565b604051620002e5919062004d25565b3480156200046157600080fd5b50620004796200047336600462004aeb565b62000e3b565b6040516001600160a01b039091168152602001620002e5565b3480156200049f57600080fd5b50620004b7620004b1366004620046c1565b62000e67565b005b348015620004c657600080fd5b50620004de620004d8366004620046c1565b62000f4b565b604051620002e59190600060e08201905060ff83511682526020830151602083015260408301516040830152606083015161ffff8082166060850152608085015160808501528060a08601511660a0850152505060c083015160c083015292915050565b3480156200054f57600080fd5b506200040f620005613660046200468f565b60009081526005602052604090205460ff1690565b3480156200058357600080fd5b506001546001600160a01b031662000479565b348015620005a357600080fd5b5062000479620010bc565b348015620005bb57600080fd5b5062000445620005cd36600462004899565b620010d6565b348015620005e057600080fd5b50600254640100000000900460ff166200038f565b3480156200060257600080fd5b50620004b76200116b565b3480156200061a57600080fd5b506000546001600160a01b031662000479565b620003b96200063e36600462004b19565b62001455565b3480156200065157600080fd5b5060025461ffff165b60405161ffff9091168152602001620002e5565b3480156200067b57600080fd5b50620004b76200068d366004620046c1565b62001495565b348015620006a057600080fd5b506200040f620006b23660046200468f565b60009081526006602052604090205460ff1690565b348015620006d457600080fd5b506004546001600160a01b031662000479565b348015620006f457600080fd5b506200071c6200070636600462004aad565b61ffff166000908152600b602052604090205490565b604051908152602001620002e5565b3480156200073857600080fd5b50620004456200074a3660046200472d565b62001602565b3480156200075d57600080fd5b506003546200071c565b3480156200077457600080fd5b506200071c6200078636600462004523565b6001600160a01b03166000908152600a602052604090205490565b620003b9620007b236600462004b67565b6200167b565b348015620007c557600080fd5b5062000445620007d7366004620046c1565b620016ae565b620003b9620007ee36600462004637565b620016bd565b620003b962000805366004620045ab565b620019e2565b3480156200081857600080fd5b50620004b76200082a366004620046c1565b62001a71565b3480156200083d57600080fd5b50620004456200084f366004620047c7565b62001a82565b3480156200086257600080fd5b506200040f6200087436600462004523565b6001600160a01b031660009081526007602052604090205460ff1690565b3480156200089f57600080fd5b5062000479620008b1366004620046c1565b62001ac5565b348015620008c457600080fd5b50620004de620008d6366004620046c1565b62001bda565b348015620008e957600080fd5b5062000901620008fb366004620046c1565b62001ce6565b604051620002e5919062004e3d565b3480156200091d57600080fd5b50620004796200092f366004620046c1565b62001e63565b3480156200094257600080fd5b5060025462010000900461ffff166200065a565b3480156200096357600080fd5b506200097b62000975366004620046c1565b62001f78565b604051620002e591908151815260208083015160ff169082015260408083015161ffff16908201526060918201519181019190915260800190565b348015620009c357600080fd5b50620004b7620009d5366004620046c1565b62002153565b6040805160a08101825260008082526020820181905291810182905260608101829052608081018290529062000a12838262002160565b825262000a2160208262004fc0565b82519091506a546f6b656e4272696467651462000a915760405162461bcd60e51b815260206004820152602360248201527f696e76616c6964205265676973746572436861696e3a2077726f6e67206d6f64604482015262756c6560e81b60648201526084015b60405180910390fd5b62000a9d8382620021c2565b60ff16602083015262000ab260018262004fc0565b9050816020015160ff1660011462000b195760405162461bcd60e51b815260206004820152602360248201527f696e76616c6964205265676973746572436861696e3a2077726f6e672061637460448201526234b7b760e91b606482015260840162000a88565b62000b25838262002222565b61ffff16604083015262000b3b60028262004fc0565b905062000b49838262002222565b61ffff16606083015262000b5f60028262004fc0565b905062000b6d838262002160565b608083015262000b7f60208262004fc0565b90508083511462000bdf5760405162461bcd60e51b815260206004820152602360248201527f696e76616c6964205265676973746572436861696e3a2077726f6e67206c656e6044820152620cee8d60eb1b606482015260840162000a88565b50919050565b6040805160c081018252600080825260208201819052918101829052606081018290526080810182905260a081018290529062000c238382620021c2565b60ff16825262000c3560018262004fc0565b9050816000015160ff1660021462000c845760405162461bcd60e51b8152602060048201526011602482015270696e76616c69642041737365744d65746160781b604482015260640162000a88565b62000c90838262002160565b60208084019190915262000ca5908262004fc0565b905062000cb3838262002222565b61ffff16604083015262000cc960028262004fc0565b905062000cd78382620021c2565b60ff16606083015262000cec60018262004fc0565b905062000cfa838262002160565b608083015262000d0c60208262004fc0565b905062000d1a838262002160565b60a083015262000d2c60208262004fc0565b90508083511462000bdf5760405162461bcd60e51b8152602060048201526011602482015270696e76616c69642041737365744d65746160781b604482015260640162000a88565b600062000d828282620021c2565b92915050565b60006002600c54141562000ddf5760405162461bcd60e51b815260206004820152601f60248201527f5265656e7472616e637947756172643a207265656e7472616e742063616c6c00604482015260640162000a88565b6002600c55600062000df388888662002283565b905062000e1b8160000151826020015183604001518989866060015187608001518a62002733565b6001600c5598975050505050505050565b606062000d8282600162002885565b61ffff91909116600090815260086020908152604080832093835292905220546001600160a01b031690565b600080600062000e778462002ff8565b92509250925081819062000ea05760405162461bcd60e51b815260040162000a88919062004d25565b5062000ec68361014001516000908152600560205260409020805460ff19166001179055565b600062000ed78460e0015162001f78565b905062000ee760025461ffff1690565b61ffff16816040015161ffff161462000f345760405162461bcd60e51b815260206004820152600e60248201526d1ddc9bdb99c818da185a5b881a5960921b604482015260640162000a88565b606081015162000f449062003227565b5050505050565b6040805160e081018252600080825260208201819052918101829052606081018290526080810182905260a0810182905260c081018290529062000f908382620021c2565b60ff16825262000fa260018262004fc0565b9050816000015160ff1660011462000fce5760405162461bcd60e51b815260040162000a889062004e13565b62000fda83826200335e565b60208084019190915262000fef908262004fc0565b905062000ffd838262002160565b60408301526200100f60208262004fc0565b90506200101d838262002222565b61ffff1660608301526200103360028262004fc0565b905062001041838262002160565b60808301526200105360208262004fc0565b905062001061838262002222565b61ffff1660a08301526200107760028262004fc0565b90506200108583826200335e565b60c08301526200109760208262004fc0565b90508083511462000bdf5760405162461bcd60e51b815260040162000a889062004e13565b6000620010d16001546001600160a01b031690565b905090565b8051602080830151604080850151606080870151608088015160a089015160c08a0151955160f89990991b6001600160f81b031916978901979097526021880195909552604187019290925260f091821b6001600160f01b03199081166061880152606387019490945293901b909116608384015260858301529060a5015b6040516020818303038152906040529050919050565b60006200119f7f360894a13ba1a3210667c828492db98dca3e2076cc3735a920a3ca505d382bbc546001600160a01b031690565b9050620011c4816001600160a01b031660009081526007602052604090205460ff1690565b15620012095760405162461bcd60e51b8152602060048201526013602482015272185b1c9958591e481a5b9a5d1a585b1a5e9959606a1b604482015260640162000a88565b62001232816001600160a01b03166000908152600760205260409020805460ff19166001179055565b6000806200124360025461ffff1690565b90508061ffff166002141562001270577344bd47a8bc18398227d6f40e1693cf897bb9855e915062001430565b8061ffff16600414156200129b57731877a83023a87849d89a076466531b6a5dea7eb2915062001430565b8061ffff1660051415620012c65773b9a1c8873a7a36c2eb6d8c1a19702106cdae6edd915062001430565b8061ffff1660061415620012f15773276a65900c97a3726319742e74f75bc4f56a0bfd915062001430565b8061ffff16600714156200131c577395beddfba786aa1a5b3294aa6166cb125b961e34915062001430565b8061ffff16600914156200134757731cd0b07dc82482f057b3cf19775e8453309c5356915062001430565b8061ffff16600a141562001372577340d0a808241cafd9d70700963d205fea9c0b1c9d915062001430565b8061ffff16600b14156200139d57739002933919aa83c38d01bdfbd788a9dff42f3880915062001430565b8061ffff16600d1415620013c85773a7601785478622e720d41454cb390852cd2b9788915062001430565b8061ffff16600e1415620013f35773ade06bc75dc1fc3fb7442e0cfb8ca544b23af789915062001430565b60405162461bcd60e51b81526020600482015260116024820152702ab735b737bbb71031b430b4b71034b21760791b604482015260640162000a88565b600180546001600160a01b0319166001600160a01b038416179055505050565b505050565b6000806200146384620033b7565b90506200148b8160000151826020015183604001518989866060015187608001518a62002733565b9695505050505050565b6000806000620014a58462002ff8565b925092509250818190620014ce5760405162461bcd60e51b815260040162000a88919062004d25565b50620014f48361014001516000908152600560205260409020805460ff19166001179055565b6000620015058460e00151620009db565b90506200151560025461ffff1690565b61ffff16816040015161ffff161480620015355750604081015161ffff16155b620015765760405162461bcd60e51b815260206004820152601060248201526f1a5b9d985b1a590818da185a5b881a5960821b604482015260640162000a88565b606081015161ffff166000908152600b602052604081205414620015dd5760405162461bcd60e51b815260206004820152601860248201527f636861696e20616c726561647920726567697374657265640000000000000000604482015260640162000a88565b62000f448160600151826080015161ffff9091166000908152600b6020526040902055565b8051602080830151604080850151606080870151608088015160a0890151945160f898891b6001600160f81b031990811698820198909852602181019690965260f09390931b6001600160f01b031916604186015290951b90931660438301526044820192909252606481019190915260840162001155565b6000806200168a6000620033b7565b90506200148b816000015182602001518360400151898986608001518a8a62003691565b606062000d8282600062002885565b60408051600481526024810182526020810180516001600160e01b031663313ce56760e01b179052905160009182916001600160a01b03861691620017029162004c42565b600060405180830381855afa9150503d80600081146200173f576040519150601f19603f3d011682016040523d82523d6000602084013e62001744565b606091505b5060408051600481526024810182526020810180516001600160e01b03166395d89b4160e01b1790529051919350600092506001600160a01b038716916200178d919062004c42565b600060405180830381855afa9150503d8060008114620017ca576040519150601f19603f3d011682016040523d82523d6000602084013e620017cf565b606091505b5060408051600481526024810182526020810180516001600160e01b03166306fdde0360e01b1790529051919350600092506001600160a01b0388169162001818919062004c42565b600060405180830381855afa9150503d806000811462001855576040519150601f19603f3d011682016040523d82523d6000602084013e6200185a565b606091505b5091505060008380602001905181019062001876919062004bf5565b9050600083806020019051810190620018909190620046f7565b9050600083806020019051810190620018aa9190620046f7565b9050600080602084015191506020830151905060006040518060c00160405280600260ff1681526020018d6001600160a01b031660001b8152602001620018f460025461ffff1690565b61ffff1681526020018760ff16815260200184815260200183815250905060006200191f8262001602565b9050620019346000546001600160a01b031690565b6001600160a01b031663b19a437e348e846200195b60025460ff6401000000009091041690565b6040518563ffffffff1660e01b81526004016200197b9392919062004eb8565b6020604051808303818588803b1580156200199557600080fd5b505af1158015620019aa573d6000803e3d6000fd5b50505050506040513d601f19601f82011682018060405250810190620019d1919062004bd8565b9d9c50505050505050505050505050565b60006002600c54141562001a395760405162461bcd60e51b815260206004820152601f60248201527f5265656e7472616e637947756172643a207265656e7472616e742063616c6c00604482015260640162000a88565b6002600c55600062001a4d88888362002283565b905062000e1b816000015182602001518360400151898986608001518a8a62003691565b62001a7e81600062002885565b5050565b6060816000015182602001518360400151846060015185608001518660a001518760c001518860e001516040516020016200115598979695949392919062004c93565b60008060008062001ade6000546001600160a01b031690565b6001600160a01b031663c0fd8bde866040518263ffffffff1660e01b815260040162001b0b919062004d25565b60006040518083038186803b15801562001b2457600080fd5b505afa15801562001b39573d6000803e3d6000fd5b505050506040513d6000823e601f3d908101601f1916820160405262001b6391908101906200493e565b92509250925081819062001b8c5760405162461bcd60e51b815260040162000a88919062004d25565b5062001b98836200371e565b62001bb75760405162461bcd60e51b815260040162000a889062004dea565b600062001bc88460e0015162000be5565b90506200148b818560a001516200375b565b6040805160e081018252600080825260208201819052918101829052606081018290526080810182905260a0810182905260c081018290529062001c1e8362000d74565b90508060ff166001141562001c405762001c388362000f4b565b915062000bdf565b8060ff166003141562001ca857600062001c5a8462001ce6565b60038452602080820151908501526040808201519085015260608082015161ffff908116918601919091526080808301519086015260a091820151169084015250600060c083015262000bdf565b60405162461bcd60e51b8152602060048201526012602482015271125b9d985b1a59081c185e5b1bd859081a5960721b604482015260640162000a88565b604080516101008101825260008082526020820181905291810182905260608082018390526080820183905260a0820183905260c0820183905260e08201529062001d328382620021c2565b60ff16825262001d4460018262004fc0565b9050816000015160ff1660031462001d705760405162461bcd60e51b815260040162000a889062004e13565b62001d7c83826200335e565b60208084019190915262001d91908262004fc0565b905062001d9f838262002160565b604083015262001db160208262004fc0565b905062001dbf838262002222565b61ffff16606083015262001dd560028262004fc0565b905062001de3838262002160565b608083015262001df560208262004fc0565b905062001e03838262002222565b61ffff1660a083015262001e1960028262004fc0565b905062001e27838262002160565b60c083015262001e3960208262004fc0565b905062001e588182855162001e4f919062005126565b85919062003a0c565b60e083015250919050565b60008060008062001e7c6000546001600160a01b031690565b6001600160a01b031663c0fd8bde866040518263ffffffff1660e01b815260040162001ea9919062004d25565b60006040518083038186803b15801562001ec257600080fd5b505afa15801562001ed7573d6000803e3d6000fd5b505050506040513d6000823e601f3d908101601f1916820160405262001f0191908101906200493e565b92509250925081819062001f2a5760405162461bcd60e51b815260040162000a88919062004d25565b5062001f36836200371e565b62001f555760405162461bcd60e51b815260040162000a889062004dea565b600062001f668460e0015162000be5565b90506200148b818560a0015162003b27565b60408051608081018252600080825260208201819052918101829052606081018290529062001fa8838262002160565b825262001fb760208262004fc0565b82519091506a546f6b656e42726964676514620020255760405162461bcd60e51b815260206004820152602560248201527f696e76616c69642055706772616465436f6e74726163743a2077726f6e67206d6044820152646f64756c6560d81b606482015260840162000a88565b620020318382620021c2565b60ff1660208301526200204660018262004fc0565b9050816020015160ff16600214620020af5760405162461bcd60e51b815260206004820152602560248201527f696e76616c69642055706772616465436f6e74726163743a2077726f6e67206160448201526431ba34b7b760d91b606482015260840162000a88565b620020bb838262002222565b61ffff166040830152620020d160028262004fc0565b9050620020df838262002160565b6060830152620020f160208262004fc0565b90508083511462000bdf5760405162461bcd60e51b815260206004820152602560248201527f696e76616c69642055706772616465436f6e74726163743a2077726f6e67206c6044820152640cadccee8d60db1b606482015260840162000a88565b62001a7e81600162002885565b60006200216f82602062004fc0565b83511015620021b95760405162461bcd60e51b8152602060048201526015602482015274746f427974657333325f6f75744f66426f756e647360581b604482015260640162000a88565b50016020015190565b6000620021d182600162004fc0565b83511015620022195760405162461bcd60e51b8152602060048201526013602482015272746f55696e74385f6f75744f66426f756e647360681b604482015260640162000a88565b50016001015190565b60006200223182600262004fc0565b835110156200227a5760405162461bcd60e51b8152602060048201526014602482015273746f55696e7431365f6f75744f66426f756e647360601b604482015260640162000a88565b50016002015190565b6040805160a0810182526000808252602082018190529181018290526060810182905260808101919091526001600160a01b038416600090815260096020526040812054819060ff1615620023c657856001600160a01b0316639a8a05926040518163ffffffff1660e01b815260040160206040518083038186803b1580156200230c57600080fd5b505afa15801562002321573d6000803e3d6000fd5b505050506040513d601f19601f8201168201806040525081019062002347919062004acc565b9150856001600160a01b0316633d6c043b6040518163ffffffff1660e01b815260040160206040518083038186803b1580156200238357600080fd5b505afa15801562002398573d6000803e3d6000fd5b505050506040513d601f19601f82011682018060405250810190620023be9190620046a8565b9050620023da565b505060025461ffff166001600160a01b0385165b60408051600481526024810182526020810180516001600160e01b031663313ce56760e01b17905290516000916001600160a01b038916916200241e919062004c42565b600060405180830381855afa9150503d80600081146200245b576040519150601f19603f3d011682016040523d82523d6000602084013e62002460565b606091505b509150506000818060200190518101906200247c919062004bf5565b9050620024956200248e888362003c22565b8262003c61565b9650620024a560025461ffff1690565b61ffff168461ffff1614156200264557604080513060248083019190915282518083039091018152604490910182526020810180516001600160e01b03166370a0823160e01b17905290516000916001600160a01b038b16916200250a919062004c42565b600060405180830381855afa9150503d806000811462002547576040519150601f19603f3d011682016040523d82523d6000602084013e6200254c565b606091505b50915050600081806020019051810190620025689190620046a8565b9050620025788a33308c62003c96565b604080513060248083019190915282518083039091018152604490910182526020810180516001600160e01b03166370a0823160e01b17905290516000916001600160a01b038d1691620025cd919062004c42565b600060405180830381855afa9150503d80600081146200260a576040519150601f19603f3d011682016040523d82523d6000602084013e6200260f565b606091505b509150506000818060200190518101906200262b9190620046a8565b905062002639838262005126565b9a5050505050620026b6565b620026538833308a62003c96565b604051632770a7eb60e21b8152306004820152602481018890526001600160a01b03891690639dc29fac90604401600060405180830381600087803b1580156200269c57600080fd5b505af1158015620026b1573d6000803e3d6000fd5b505050505b6000620026c4888362003c22565b90506000620026d4888462003c22565b9050620026e460025461ffff1690565b61ffff168661ffff1614156200270057620027008a8362003d09565b6040805160a08101825261ffff909716875260208701959095529385015250506060820152346080820152949350505050565b6000868411156200277c5760405162461bcd60e51b815260206004820152601260248201527119995948195e18d959591cc8185b5bdd5b9d60721b604482015260640162000a88565b6040805160e081018252600181526020810189905290810189905261ffff808b16606083015260808201879052871660a082015260c081018590526000620027c482620010d6565b9050620027d96000546001600160a01b031690565b6001600160a01b031663b19a437e8686846200280060025460ff6401000000009091041690565b6040518563ffffffff1660e01b8152600401620028209392919062004eb8565b6020604051808303818588803b1580156200283a57600080fd5b505af11580156200284f573d6000803e3d6000fd5b50505050506040513d601f19601f8201168201806040525081019062002876919062004bd8565b9b9a5050505050505050505050565b606060008060006200289f6000546001600160a01b031690565b6001600160a01b031663c0fd8bde876040518263ffffffff1660e01b8152600401620028cc919062004d25565b60006040518083038186803b158015620028e557600080fd5b505afa158015620028fa573d6000803e3d6000fd5b505050506040513d6000823e601f3d908101601f191682016040526200292491908101906200493e565b9250925092508181906200294d5760405162461bcd60e51b815260040162000a88919062004d25565b5062002959836200371e565b620029785760405162461bcd60e51b815260040162000a889062004dea565b6000620029898460e0015162001bda565b905060006200299c826080015162003dd1565b9050816000015160ff1660031415620029fa57336001600160a01b03821614620029fa5760405162461bcd60e51b815260206004820152600e60248201526d34b73b30b634b21039b2b73232b960911b604482015260640162000a88565b61014085015160009081526006602052604090205460ff161562002a615760405162461bcd60e51b815260206004820152601a60248201527f7472616e7366657220616c726561647920636f6d706c65746564000000000000604482015260640162000a88565b62002a868561014001516000908152600660205260409020805460ff19166001179055565b60025461ffff1661ffff168260a0015161ffff161462002ae05760405162461bcd60e51b815260206004820152601460248201527334b73b30b634b2103a30b933b2ba1031b430b4b760611b604482015260640162000a88565b600062002af060025461ffff1690565b61ffff16836060015161ffff16141562002b2b5762002b13836040015162003dd1565b905062002b2581846020015162003e27565b62002bac565b600062002b418460600151856040015162000e3b565b90506001600160a01b03811662002ba95760405162461bcd60e51b815260206004820152602560248201527f6e6f207772617070657220666f72207468697320746f6b656e2063726561746560448201526419081e595d60da1b606482015260840162000a88565b90505b87158062002bc757506004546001600160a01b038281169116145b62002c215760405162461bcd60e51b815260206004820152602360248201527f696e76616c696420746f6b656e2c2063616e206f6e6c7920756e77726170205760448201526208aa8960eb1b606482015260840162000a88565b60408051600481526024810182526020810180516001600160e01b031663313ce56760e01b17905290516000916001600160a01b0384169162002c65919062004c42565b600060405180830381855afa9150503d806000811462002ca2576040519150601f19603f3d011682016040523d82523d6000602084013e62002ca7565b606091505b5091505060008180602001905181019062002cc3919062004bf5565b9050600062002cd786602001518362003c61565b9050600062002ceb8760c001518462003c61565b905060008111801562002d0757506001600160a01b0386163314155b1562002e99578181111562002d6a5760405162461bcd60e51b815260206004820152602260248201527f66656520686967686572207468616e207472616e7366657272656420616d6f756044820152611b9d60f21b606482015260840162000a88565b8b1562002e045760048054604051632e1a7d4d60e01b81529182018390526001600160a01b031690632e1a7d4d90602401600060405180830381600087803b15801562002db657600080fd5b505af115801562002dcb573d6000803e3d6000fd5b505060405133925083156108fc02915083906000818181858888f1935050505015801562002dfd573d6000803e3d6000fd5b5062002e9d565b60025461ffff1661ffff16876060015161ffff161462002e86576040516340c10f1960e01b8152336004820152602481018290526001600160a01b038616906340c10f1990604401600060405180830381600087803b15801562002e6757600080fd5b505af115801562002e7c573d6000803e3d6000fd5b5050505062002e9d565b62002e9385338362003e59565b62002e9d565b5060005b600062002eab828462005126565b90508c1562002f505760048054604051632e1a7d4d60e01b81529182018390526001600160a01b031690632e1a7d4d90602401600060405180830381600087803b15801562002ef957600080fd5b505af115801562002f0e573d6000803e3d6000fd5b50506040516001600160a01b038a16925083156108fc02915083906000818181858888f1935050505015801562002f49573d6000803e3d6000fd5b5062002fe1565b60025461ffff1661ffff16886060015161ffff161462002fd4576040516340c10f1960e01b81526001600160a01b038881166004830152602482018390528716906340c10f1990604401600060405180830381600087803b15801562002fb557600080fd5b505af115801562002fca573d6000803e3d6000fd5b5050505062002fe1565b62002fe186888362003e59565b50505060e0909701519a9950505050505050505050565b604080516101608101825260008082526020820181905291810182905260608082018390526080820183905260a0820183905260c0820183905260e0820181905261010082018390526101208201526101408101919091526000606060008060006200306c6000546001600160a01b031690565b6001600160a01b031663c0fd8bde886040518263ffffffff1660e01b815260040162003099919062004d25565b60006040518083038186803b158015620030b257600080fd5b505afa158015620030c7573d6000803e3d6000fd5b505050506040513d6000823e601f3d908101601f19168201604052620030f191908101906200493e565b925092509250816200310a579194509250905062003220565b60025462010000900461ffff1661ffff16836060015161ffff1614620031685750506040805180820190915260168152753bb937b7339033b7bb32b93730b731b29031b430b4b760511b602082015290935060009250905062003220565b600354836080015114620031bb57505060408051808201909152601981527f77726f6e6720676f7665726e616e636520636f6e747261637400000000000000602082015290935060009250905062003220565b61014083015160009081526005602052604090205460ff1615620032055782600060405180606001604052806022815260200162005baa6022913995509550955050505062003220565b50506040805160208101909152600081529093506001925090505b9193909250565b60006200325b7f360894a13ba1a3210667c828492db98dca3e2076cc3735a920a3ca505d382bbc546001600160a01b031690565b9050620032688262003e8b565b60408051600481526024810182526020810180516001600160e01b031663204a7f0760e21b179052905160009182916001600160a01b03861691620032ad9162004c42565b600060405180830381855af49150503d8060008114620032ea576040519150601f19603f3d011682016040523d82523d6000602084013e620032ef565b606091505b5091509150818190620033175760405162461bcd60e51b815260040162000a88919062004d25565b50836001600160a01b0316836001600160a01b03167f2e4cc16c100f0b55e2df82ab0b1a7e294aa9cbd01b48fbaf622683fbc0507a4960405160405180910390a350505050565b60006200336d82602062004fc0565b83511015620021b95760405162461bcd60e51b8152602060048201526015602482015274746f55696e743235365f6f75744f66426f756e647360581b604482015260640162000a88565b6040805160a081018252600080825260208201819052918101829052606081018290526080810191909152600080546001600160a01b03166001600160a01b0316631a90a2196040518163ffffffff1660e01b815260040160206040518083038186803b1580156200342857600080fd5b505afa1580156200343d573d6000803e3d6000fd5b505050506040513d601f19601f82011682018060405250810190620034639190620046a8565b9050348110620034c15760405162461bcd60e51b815260206004820152602260248201527f76616c756520697320736d616c6c6572207468616e20776f726d686f6c652066604482015261656560f01b606482015260840162000a88565b6000620034cf823462005126565b905080841115620035385760405162461bcd60e51b815260206004820152602c60248201527f66656520697320626967676572207468616e20616d6f756e74206d696e75732060448201526b776f726d686f6c652066656560a01b606482015260840162000a88565b60006200354782601262003c22565b905060006200355886601262003c22565b905060006200356983601262003c61565b62003575908562005126565b90508015620035ae57604051339082156108fc029083906000818181858888f19350505050158015620035ac573d6000803e3d6000fd5b505b6004546001600160a01b031663d0e30db0620035cb838762005126565b6040518263ffffffff1660e01b81526004016000604051808303818588803b158015620035f757600080fd5b505af11580156200360c573d6000803e3d6000fd5b50505050506200362f620036286004546001600160a01b031690565b8462003d09565b6040518060a001604052806200364860025461ffff1690565b61ffff168152602001620036646004546001600160a01b031690565b6001600160a01b031660001b81526020018481526020018381526020018681525095505050505050919050565b6040805161010081018252600381526020810188905290810188905261ffff808a16606083015260808201869052861660a08201523360c082015260e0810182905260009081620036e28262001a82565b9050620036f76000546001600160a01b031690565b6001600160a01b031663b19a437e8787846200280060025460ff6401000000009091041690565b6000816080015162003744836060015161ffff166000908152600b602052604090205490565b14156200375357506001919050565b506000919050565b60006200376b60025461ffff1690565b61ffff16836040015161ffff161415620037d95760405162461bcd60e51b815260206004820152602860248201527f63616e206f6e6c79207772617020746f6b656e732066726f6d20666f726569676044820152676e20636861696e7360c01b606482015260840162000a88565b60006001600160a01b0316620037f88460400151856020015162000e3b565b6001600160a01b031614620038505760405162461bcd60e51b815260206004820152601c60248201527f7772617070656420617373657420616c72656164792065786973747300000000604482015260640162000a88565b600063c71f461560e01b620038698560a0015162003ecd565b62003878866080015162003ecd565b8660600151863089604001518a60200151604051602401620038a1979695949392919062004d7d565b60408051601f19818403018152918152602080830180516001600160e01b03166001600160e01b03199095169490941790935251909250600091620038eb91309185910162004cff565b6040516020818303038152906040529050600060405180602001620039109062004311565b601f1982820381018352601f909101166040819052620039369190849060200162004c60565b60405160208183030381529060405290506000866040015187602001516040516020016200397d92919060f09290921b6001600160f01b0319168252600282015260220190565b604051602081830303815290604052805190602001209050808251602084016000f59450843b620039ad57600080fd5b6040808801516020808a015161ffff90921660009081526008825283812092815291815282822080546001600160a01b0319166001600160a01b038a1690811790915582526009905220805460ff191660011790555050505092915050565b60608162003a1c81601f62004fc0565b101562003a5d5760405162461bcd60e51b815260206004820152600e60248201526d736c6963655f6f766572666c6f7760901b604482015260640162000a88565b62003a69828462004fc0565b8451101562003aaf5760405162461bcd60e51b8152602060048201526011602482015270736c6963655f6f75744f66426f756e647360781b604482015260640162000a88565b60608215801562003ad0576040519150600082526020820160405262003b1c565b6040519150601f8416801560200281840101858101878315602002848b0101015b8183101562003b0b57805183526020928301920162003af1565b5050858452601f01601f1916604052505b5090505b9392505050565b60008062003b3e8460400151856020015162000e3b565b90506001600160a01b03811662003b985760405162461bcd60e51b815260206004820152601d60248201527f7772617070656420617373657420646f6573206e6f7420657869737473000000604482015260640162000a88565b806001600160a01b031663a18cd7c662003bb68660a0015162003ecd565b62003bc5876080015162003ecd565b866040518463ffffffff1660e01b815260040162003be69392919062004d3a565b600060405180830381600087803b15801562003c0157600080fd5b505af115801562003c16573d6000803e3d6000fd5b50929695505050505050565b600060088260ff16111562003c5a5762003c3e60088362005140565b62003c4b90600a62005045565b62003c57908462004fdb565b92505b5090919050565b600060088260ff16111562003c5a5762003c7d60088362005140565b62003c8a90600a62005045565b62003c57908462005104565b6040516001600160a01b038085166024830152831660448201526064810182905262003d039085906323b872dd60e01b906084015b60408051601f198184030181529190526020810180516001600160e01b03166001600160e01b03199093169290921790915262004008565b50505050565b6001600160a01b0382166000908152600a60205260409020546001600160401b0362003d36838362004fc0565b111562003da45760405162461bcd60e51b815260206004820152603560248201527f7472616e736665722065786365656473206d6178206f75747374616e64696e6760448201527408189c9a5919d959081d1bdad95b88185b5bdd5b9d605a1b606482015260840162000a88565b620014508362003db5848462004fc0565b6001600160a01b039091166000908152600a6020526040902055565b60006001600160a01b031982161562003e235760405162461bcd60e51b8152602060048201526013602482015272696e76616c69642045564d206164647265737360681b604482015260640162000a88565b5090565b62001a7e828262003e4d856001600160a01b03166000908152600a602052604090205490565b62003db5919062005126565b6040516001600160a01b0383166024820152604481018290526200145090849063a9059cbb60e01b9060640162003ccb565b62003e9681620040e1565b6040516001600160a01b038216907fbc7cd75a20ee27fd9adebab32041f755214dbc6bffa90cc0225b39da2e5c2d3b90600090a250565b606060005b60208110801562003f10575082816020811062003eff57634e487b7160e01b600052603260045260246000fd5b1a60f81b6001600160f81b03191615155b1562003f2b578062003f228162005195565b91505062003ed2565b6000816001600160401b0381111562003f5457634e487b7160e01b600052604160045260246000fd5b6040519080825280601f01601f19166020018201604052801562003f7f576020820181803683370190505b50905060005b82811015620040005784816020811062003faf57634e487b7160e01b600052603260045260246000fd5b1a60f81b82828151811062003fd457634e487b7160e01b600052603260045260246000fd5b60200101906001600160f81b031916908160001a9053508062003ff78162005195565b91505062003f85565b509392505050565b60006200405f826040518060400160405280602081526020017f5361666545524332303a206c6f772d6c6576656c2063616c6c206661696c6564815250856001600160a01b0316620041889092919063ffffffff16565b80519091501562001450578080602001905181019062004080919062004672565b620014505760405162461bcd60e51b815260206004820152602a60248201527f5361666545524332303a204552433230206f7065726174696f6e20646964206e6044820152691bdd081cdd58d8d9595960b21b606482015260840162000a88565b803b620041475760405162461bcd60e51b815260206004820152602d60248201527f455243313936373a206e657720696d706c656d656e746174696f6e206973206e60448201526c1bdd08184818dbdb9d1c9858dd609a1b606482015260840162000a88565b7f360894a13ba1a3210667c828492db98dca3e2076cc3735a920a3ca505d382bbc80546001600160a01b0319166001600160a01b0392909216919091179055565b6060620041998484600085620041a1565b949350505050565b606082471015620042045760405162461bcd60e51b815260206004820152602660248201527f416464726573733a20696e73756666696369656e742062616c616e636520666f6044820152651c8818d85b1b60d21b606482015260840162000a88565b843b620042545760405162461bcd60e51b815260206004820152601d60248201527f416464726573733a2063616c6c20746f206e6f6e2d636f6e7472616374000000604482015260640162000a88565b600080866001600160a01b0316858760405162004272919062004c42565b60006040518083038185875af1925050503d8060008114620042b1576040519150601f19603f3d011682016040523d82523d6000602084013e620042b6565b606091505b5091509150620042c8828286620042d3565b979650505050505050565b60608315620042e457508162003b20565b825115620042f55782518084602001fd5b8160405162461bcd60e51b815260040162000a88919062004d25565b610993806200521783390190565b80356001600160a01b03811681146200433757600080fd5b919050565b600082601f8301126200434d578081fd5b815160206001600160401b038211156200436b576200436b620051c9565b6200437b818360051b0162004f63565b80838252828201915082860187848660071b89010111156200439b578586fd5b855b858110156200440b57608080838b031215620043b7578788fd5b620043c162004eec565b835181528684015187820152604080850151620043de8162005206565b90820152606084810151620043f38162005206565b9082015285529385019391909101906001016200439d565b5090979650505050505050565b805180151581146200433757600080fd5b600082601f8301126200443a578081fd5b8135620044516200444b8262004f96565b62004f63565b81815284602083860101111562004466578283fd5b816020850160208301379081016020019190915292915050565b600082601f83011262004491578081fd5b8151620044a26200444b8262004f96565b818152846020838601011115620044b7578283fd5b6200419982602083016020870162005166565b80356200433781620051df565b80516200433781620051df565b80516200433781620051f3565b80516001600160401b03811681146200433757600080fd5b8035620043378162005206565b8051620043378162005206565b60006020828403121562004535578081fd5b62003b20826200431f565b60008060008060008060c0878903121562004559578182fd5b62004564876200431f565b95506020870135945060408701356200457d81620051df565b9350606087013592506080870135915060a08701356200459d81620051f3565b809150509295509295509295565b60008060008060008060c08789031215620045c4578384fd5b620045cf876200431f565b9550602087013594506040870135620045e881620051df565b93506060870135925060808701356200460181620051f3565b915060a08701356001600160401b038111156200461c578182fd5b6200462a89828a0162004429565b9150509295509295509295565b600080604083850312156200464a578182fd5b62004655836200431f565b915060208301356200466781620051f3565b809150509250929050565b60006020828403121562004684578081fd5b62003b208262004418565b600060208284031215620046a1578081fd5b5035919050565b600060208284031215620046ba578081fd5b5051919050565b600060208284031215620046d3578081fd5b81356001600160401b03811115620046e9578182fd5b620041998482850162004429565b60006020828403121562004709578081fd5b81516001600160401b038111156200471f578182fd5b620041998482850162004480565b600060c082840312156200473f578081fd5b60405160c081018181106001600160401b0382111715620047645762004764620051c9565b6040528235620047748162005206565b81526020838101359082015260408301356200479081620051df565b60408201526060830135620047a58162005206565b60608201526080838101359082015260a0928301359281019290925250919050565b600060208284031215620047d9578081fd5b81356001600160401b0380821115620047f0578283fd5b90830190610100828603121562004805578283fd5b6200480f62004f17565b6200481a8362004509565b815260208301356020820152604083013560408201526200483e60608401620044ca565b6060820152608083013560808201526200485b60a08401620044ca565b60a082015260c083013560c082015260e0830135828111156200487c578485fd5b6200488a8782860162004429565b60e08301525095945050505050565b600060e08284031215620048ab578081fd5b60405160e081018181106001600160401b0382111715620048d057620048d0620051c9565b6040528235620048e08162005206565b80825250602083013560208201526040830135604082015260608301356200490881620051df565b6060820152608083810135908201526200492560a08401620044ca565b60a082015260c083013560c08201528091505092915050565b60008060006060848603121562004953578081fd5b83516001600160401b03808211156200496a578283fd5b9085019061016082880312156200497f578283fd5b6200498962004f3d565b620049948362004516565b8152620049a460208401620044e4565b6020820152620049b760408401620044e4565b6040820152620049ca60608401620044d7565b606082015260808301516080820152620049e760a08401620044f1565b60a0820152620049fa60c0840162004516565b60c082015260e08301518281111562004a11578485fd5b62004a1f8982860162004480565b60e08301525061010062004a35818501620044e4565b90820152610120838101518381111562004a4d578586fd5b62004a5b8a8287016200433c565b91830191909152506101408381015190820152945062004a7e6020870162004418565b9350604086015191508082111562004a94578283fd5b5062004aa38682870162004480565b9150509250925092565b60006020828403121562004abf578081fd5b813562003b2081620051df565b60006020828403121562004ade578081fd5b815162003b2081620051df565b6000806040838503121562004afe578182fd5b823562004b0b81620051df565b946020939093013593505050565b6000806000806080858703121562004b2f578182fd5b843562004b3c81620051df565b93506020850135925060408501359150606085013562004b5c81620051f3565b939692955090935050565b6000806000806080858703121562004b7d578182fd5b843562004b8a81620051df565b935060208501359250604085013562004ba381620051f3565b915060608501356001600160401b0381111562004bbe578182fd5b62004bcc8782880162004429565b91505092959194509250565b60006020828403121562004bea578081fd5b62003b2082620044f1565b60006020828403121562004c07578081fd5b815162003b208162005206565b6000815180845262004c2e81602086016020860162005166565b601f01601f19169290920160200192915050565b6000825162004c5681846020870162005166565b9190910192915050565b6000835162004c7481846020880162005166565b83519083019062004c8a81836020880162005166565b01949350505050565b60ff60f81b8960f81b168152876001820152866021820152600061ffff60f01b808860f01b166041840152866043840152808660f01b16606384015250836065830152825162004ceb81608585016020870162005166565b919091016085019998505050505050505050565b6001600160a01b0383168152604060208201819052600090620041999083018462004c14565b60208152600062003b20602083018462004c14565b60608152600062004d4f606083018662004c14565b828103602084015262004d63818662004c14565b9150506001600160401b0383166040830152949350505050565b60e08152600062004d9260e083018a62004c14565b828103602084015262004da6818a62004c14565b60ff98909816604084015250506001600160401b039490941660608501526001600160a01b0392909216608084015261ffff1660a083015260c09091015292915050565b6020808252600f908201526e34b73b30b634b21032b6b4ba3a32b960891b604082015260600190565b60208082526010908201526f34b73b30b634b2102a3930b739b332b960811b604082015260600190565b6020815260ff8251166020820152602082015160408201526040820151606082015261ffff6060830151166080820152608082015160a0820152600060a083015162004e8f60c084018261ffff169052565b5060c083015160e083015260e08301516101008081850152506200419961012084018262004c14565b63ffffffff8416815260606020820152600062004ed9606083018562004c14565b905060ff83166040830152949350505050565b604051608081016001600160401b038111828210171562004f115762004f11620051c9565b60405290565b60405161010081016001600160401b038111828210171562004f115762004f11620051c9565b60405161016081016001600160401b038111828210171562004f115762004f11620051c9565b604051601f8201601f191681016001600160401b038111828210171562004f8e5762004f8e620051c9565b604052919050565b60006001600160401b0382111562004fb25762004fb2620051c9565b50601f01601f191660200190565b6000821982111562004fd65762004fd6620051b3565b500190565b60008262004ff757634e487b7160e01b81526012600452602481fd5b500490565b600181815b808511156200503d578160001904821115620050215762005021620051b3565b808516156200502f57918102915b93841c939080029062005001565b509250929050565b600062003b2060ff841683600082620050615750600162000d82565b81620050705750600062000d82565b81600181146200508957600281146200509457620050b4565b600191505062000d82565b60ff841115620050a857620050a8620051b3565b50506001821b62000d82565b5060208310610133831016604e8410600b8410161715620050d9575081810a62000d82565b620050e5838362004ffc565b8060001904821115620050fc57620050fc620051b3565b029392505050565b6000816000190483118215151615620051215762005121620051b3565b500290565b6000828210156200513b576200513b620051b3565b500390565b600060ff821660ff8416808210156200515d576200515d620051b3565b90039392505050565b60005b838110156200518357818101518382015260200162005169565b8381111562003d035750506000910152565b6000600019821415620051ac57620051ac620051b3565b5060010190565b634e487b7160e01b600052601160045260246000fd5b634e487b7160e01b600052604160045260246000fd5b61ffff81168114620051f057600080fd5b50565b63ffffffff81168114620051f057600080fd5b60ff81168114620051f057600080fdfe608060405234801561001057600080fd5b5060405161099338038061099383398101604081905261002f9161048e565b818161005c60017fa3f0ad74e5423aebfd80d3ef4346578335a9a72aeaee59ff6cb3582b35133d51610599565b60008051602061094c8339815191521461008657634e487b7160e01b600052600160045260246000fd5b6100928282600061009b565b505050506105fe565b6100a483610175565b6040516001600160a01b038416907f1cf3b03a6cf19fa2baba4df148e9dcabedea7f8a5c07840e207e5c089be95d3e90600090a26000825111806100e55750805b156101705761016e836001600160a01b0316635c60da1b6040518163ffffffff1660e01b815260040160206040518083038186803b15801561012657600080fd5b505afa15801561013a573d6000803e3d6000fd5b505050506040513d601f19601f8201168201806040525081019061015e9190610474565b8361031560201b6100291760201c565b505b505050565b6101888161034160201b6100551760201c565b6101e75760405162461bcd60e51b815260206004820152602560248201527f455243313936373a206e657720626561636f6e206973206e6f74206120636f6e6044820152641d1c9858dd60da1b60648201526084015b60405180910390fd5b61026a816001600160a01b0316635c60da1b6040518163ffffffff1660e01b815260040160206040518083038186803b15801561022357600080fd5b505afa158015610237573d6000803e3d6000fd5b505050506040513d601f19601f8201168201806040525081019061025b9190610474565b61034160201b6100551760201c565b6102cf5760405162461bcd60e51b815260206004820152603060248201527f455243313936373a20626561636f6e20696d706c656d656e746174696f6e206960448201526f1cc81b9bdd08184818dbdb9d1c9858dd60821b60648201526084016101de565b806102f460008051602061094c83398151915260001b61034760201b61005b1760201c565b80546001600160a01b0319166001600160a01b039290921691909117905550565b606061033a838360405180606001604052806027815260200161096c6027913961034a565b9392505050565b3b151590565b90565b6060833b6103a95760405162461bcd60e51b815260206004820152602660248201527f416464726573733a2064656c65676174652063616c6c20746f206e6f6e2d636f6044820152651b9d1c9858dd60d21b60648201526084016101de565b600080856001600160a01b0316856040516103c4919061054a565b600060405180830381855af49150503d80600081146103ff576040519150601f19603f3d011682016040523d82523d6000602084013e610404565b606091505b50909250905061041582828661041f565b9695505050505050565b6060831561042e57508161033a565b82511561043e5782518084602001fd5b8160405162461bcd60e51b81526004016101de9190610566565b80516001600160a01b038116811461046f57600080fd5b919050565b600060208284031215610485578081fd5b61033a82610458565b600080604083850312156104a0578081fd5b6104a983610458565b60208401519092506001600160401b03808211156104c5578283fd5b818501915085601f8301126104d8578283fd5b8151818111156104ea576104ea6105e8565b604051601f8201601f19908116603f01168101908382118183101715610512576105126105e8565b8160405282815288602084870101111561052a578586fd5b61053b8360208301602088016105bc565b80955050505050509250929050565b6000825161055c8184602087016105bc565b9190910192915050565b60208152600082518060208401526105858160408501602087016105bc565b601f01601f19169190910160400192915050565b6000828210156105b757634e487b7160e01b81526011600452602481fd5b500390565b60005b838110156105d75781810151838201526020016105bf565b8381111561016e5750506000910152565b634e487b7160e01b600052604160045260246000fd5b61033f8061060d6000396000f3fe60806040523661001357610011610017565b005b6100115b61002761002261005e565b610106565b565b606061004e83836040518060600160405280602781526020016102e36027913961012a565b9392505050565b3b151590565b90565b60006100917fa3f0ad74e5423aebfd80d3ef4346578335a9a72aeaee59ff6cb3582b35133d50546001600160a01b031690565b6001600160a01b0316635c60da1b6040518163ffffffff1660e01b815260040160206040518083038186803b1580156100c957600080fd5b505afa1580156100dd573d6000803e3d6000fd5b505050506040513d601f19601f82011682018060405250810190610101919061023c565b905090565b3660008037600080366000845af43d6000803e808015610125573d6000f35b3d6000fd5b6060833b61018e5760405162461bcd60e51b815260206004820152602660248201527f416464726573733a2064656c65676174652063616c6c20746f206e6f6e2d636f6044820152651b9d1c9858dd60d21b60648201526084015b60405180910390fd5b600080856001600160a01b0316856040516101a99190610263565b600060405180830381855af49150503d80600081146101e4576040519150601f19603f3d011682016040523d82523d6000602084013e6101e9565b606091505b50915091506101f9828286610203565b9695505050505050565b6060831561021257508161004e565b8251156102225782518084602001fd5b8160405162461bcd60e51b8152600401610185919061027f565b60006020828403121561024d578081fd5b81516001600160a01b038116811461004e578182fd5b600082516102758184602087016102b2565b9190910192915050565b602081526000825180602084015261029e8160408501602087016102b2565b601f01601f19169190910160400192915050565b60005b838110156102cd5781810151838201526020016102b5565b838111156102dc576000848401525b5050505056fe416464726573733a206c6f772d6c6576656c2064656c65676174652063616c6c206661696c6564a26469706673582212203e23ac4f79a95247999f8e0df94ea5bd5e38561ccfd051b0ea50ba9aea59b8f164736f6c63430008040033a3f0ad74e5423aebfd80d3ef4346578335a9a72aeaee59ff6cb3582b35133d50416464726573733a206c6f772d6c6576656c2064656c65676174652063616c6c206661696c6564676f7665726e616e636520616374696f6e20616c726561647920636f6e73756d6564a2646970667358221220098c5be257e64cde7cbcdc3566caeb934cd77b73198806f8f372d0c8dcf3e46564736f6c63430008040033",
  "immutableReferences": {},
  "source": "// contracts/Implementation.sol\n// SPDX-License-Identifier: Apache 2\n\npragma solidity ^0.8.0;\npragma experimental ABIEncoderV2;\n\nimport \"@openzeppelin/contracts/proxy/ERC1967/ERC1967Upgrade.sol\";\n\nimport \"./Bridge.sol\";\n\n\ncontract BridgeImplementation is Bridge {\n    // Beacon getter for the token contracts\n    function implementation() public view returns (address) {\n        return tokenImplementation();\n    }\n\n    function initialize() initializer public virtual {\n        // this function needs to be exposed for an upgrade to pass\n        address tokenContract;\n        uint16 chain = chainId();\n\n        // Wormhole chain ids explicitly enumerated\n        if        (chain == 2)  { tokenContract = 0x44bD47a8Bc18398227d6f40E1693Cf897bb9855E; // ethereum\n        } else if (chain == 4)  { tokenContract = 0x1877a83023A87849D89a076466531b6a5DEa7eb2; // bsc\n        } else if (chain == 5)  { tokenContract = 0xB9A1c8873a7a36c2Eb6D8c1A19702106CdAE6edd; // polygon\n        } else if (chain == 6)  { tokenContract = 0x276a65900C97A3726319742e74F75bC4f56A0BfD; // avalanche\n        } else if (chain == 7)  { tokenContract = 0x95BeDdFba786Aa1A5b3294aa6166cB125B961e34; // oasis\n        } else if (chain == 9)  { tokenContract = 0x1Cd0b07Dc82482f057b3cf19775e8453309c5356; // aurora\n        } else if (chain == 10) { tokenContract = 0x40D0A808241cafd9D70700963d205FeA9c0B1C9D; // fantom\n        } else if (chain == 11) { tokenContract = 0x9002933919Aa83c38D01bDfBd788A9dfF42f3880; // karura\n        // Acala EVM was down at the time of this migration\n        // } else if (chain == 12) { tokenContract = 0x0000000000000000000000000000000000000000; // acala\n        } else if (chain == 13) { tokenContract = 0xA7601785478622E720d41454CB390852cd2B9788; // klaytn\n        } else if (chain == 14) { tokenContract = 0xADE06bc75Dc1FC3fB7442e0CFb8Ca544B23aF789; // celo\n        } else {\n            revert(\"Unknown chain id.\");\n        }\n\n        setTokenImplementation(tokenContract);\n    }\n\n    modifier initializer() {\n        address impl = ERC1967Upgrade._getImplementation();\n\n        require(\n            !isInitialized(impl),\n            \"already initialized\"\n        );\n\n        setInitialized(impl);\n\n        _;\n    }\n}\n",
  "sourcePath": "/home/asterioti/generic-relayer/ethereum/contracts/bridge/BridgeImplementation.sol",
  "compiler": {
    "name": "solc",
    "version": "0.8.4+commit.c7e474f2.Emscripten.clang"
  },
  "schemaVersion": "3.4.1",
  "updatedAt": "2022-09-09T01:32:04.576Z",
  "devdoc": {
    "kind": "dev",
    "methods": {},
    "version": 1
  },
  "userdoc": {
    "kind": "user",
    "methods": {},
    "version": 1
  }
}