{
  "contractName": "Bridge",
  "abi": [
    {
      "anonymous": false,
      "inputs": [
        {
          "indexed": false,
          "internalType": "address",
          "name": "previousAdmin",
          "type": "address"
        },
        {
          "indexed": false,
          "internalType": "address",
          "name": "newAdmin",
          "type": "address"
        }
      ],
      "name": "AdminChanged",
      "type": "event"
    },
    {
      "anonymous": false,
      "inputs": [
        {
          "indexed": true,
          "internalType": "address",
          "name": "beacon",
          "type": "address"
        }
      ],
      "name": "BeaconUpgraded",
      "type": "event"
    },
    {
      "anonymous": false,
      "inputs": [
        {
          "indexed": true,
          "internalType": "address",
          "name": "oldContract",
          "type": "address"
        },
        {
          "indexed": true,
          "internalType": "address",
          "name": "newContract",
          "type": "address"
        }
      ],
      "name": "ContractUpgraded",
      "type": "event"
    },
    {
      "anonymous": false,
      "inputs": [
        {
          "indexed": true,
          "internalType": "address",
          "name": "implementation",
          "type": "address"
        }
      ],
      "name": "Upgraded",
      "type": "event"
    },
    {
      "inputs": [],
      "name": "WETH",
      "outputs": [
        {
          "internalType": "contract IWETH",
          "name": "",
          "type": "address"
        }
      ],
      "stateMutability": "view",
      "type": "function"
    },
    {
      "inputs": [
        {
          "internalType": "uint16",
          "name": "chainId_",
          "type": "uint16"
        }
      ],
      "name": "bridgeContracts",
      "outputs": [
        {
          "internalType": "bytes32",
          "name": "",
          "type": "bytes32"
        }
      ],
      "stateMutability": "view",
      "type": "function"
    },
    {
      "inputs": [],
      "name": "chainId",
      "outputs": [
        {
          "internalType": "uint16",
          "name": "",
          "type": "uint16"
        }
      ],
      "stateMutability": "view",
      "type": "function"
    },
    {
      "inputs": [],
      "name": "finality",
      "outputs": [
        {
          "internalType": "uint8",
          "name": "",
          "type": "uint8"
        }
      ],
      "stateMutability": "view",
      "type": "function"
    },
    {
      "inputs": [
        {
          "internalType": "bytes32",
          "name": "hash",
          "type": "bytes32"
        }
      ],
      "name": "governanceActionIsConsumed",
      "outputs": [
        {
          "internalType": "bool",
          "name": "",
          "type": "bool"
        }
      ],
      "stateMutability": "view",
      "type": "function"
    },
    {
      "inputs": [],
      "name": "governanceChainId",
      "outputs": [
        {
          "internalType": "uint16",
          "name": "",
          "type": "uint16"
        }
      ],
      "stateMutability": "view",
      "type": "function"
    },
    {
      "inputs": [],
      "name": "governanceContract",
      "outputs": [
        {
          "internalType": "bytes32",
          "name": "",
          "type": "bytes32"
        }
      ],
      "stateMutability": "view",
      "type": "function"
    },
    {
      "inputs": [
        {
          "internalType": "address",
          "name": "impl",
          "type": "address"
        }
      ],
      "name": "isInitialized",
      "outputs": [
        {
          "internalType": "bool",
          "name": "",
          "type": "bool"
        }
      ],
      "stateMutability": "view",
      "type": "function"
    },
    {
      "inputs": [
        {
          "internalType": "bytes32",
          "name": "hash",
          "type": "bytes32"
        }
      ],
      "name": "isTransferCompleted",
      "outputs": [
        {
          "internalType": "bool",
          "name": "",
          "type": "bool"
        }
      ],
      "stateMutability": "view",
      "type": "function"
    },
    {
      "inputs": [
        {
          "internalType": "address",
          "name": "token",
          "type": "address"
        }
      ],
      "name": "isWrappedAsset",
      "outputs": [
        {
          "internalType": "bool",
          "name": "",
          "type": "bool"
        }
      ],
      "stateMutability": "view",
      "type": "function"
    },
    {
      "inputs": [
        {
          "internalType": "address",
          "name": "token",
          "type": "address"
        }
      ],
      "name": "outstandingBridged",
      "outputs": [
        {
          "internalType": "uint256",
          "name": "",
          "type": "uint256"
        }
      ],
      "stateMutability": "view",
      "type": "function"
    },
    {
      "inputs": [
        {
          "internalType": "bytes",
          "name": "encoded",
          "type": "bytes"
        }
      ],
      "name": "parseRegisterChain",
      "outputs": [
        {
          "components": [
            {
              "internalType": "bytes32",
              "name": "module",
              "type": "bytes32"
            },
            {
              "internalType": "uint8",
              "name": "action",
              "type": "uint8"
            },
            {
              "internalType": "uint16",
              "name": "chainId",
              "type": "uint16"
            },
            {
              "internalType": "uint16",
              "name": "emitterChainID",
              "type": "uint16"
            },
            {
              "internalType": "bytes32",
              "name": "emitterAddress",
              "type": "bytes32"
            }
          ],
          "internalType": "struct BridgeStructs.RegisterChain",
          "name": "chain",
          "type": "tuple"
        }
      ],
      "stateMutability": "pure",
      "type": "function"
    },
    {
      "inputs": [
        {
          "internalType": "bytes",
          "name": "encoded",
          "type": "bytes"
        }
      ],
      "name": "parseUpgrade",
      "outputs": [
        {
          "components": [
            {
              "internalType": "bytes32",
              "name": "module",
              "type": "bytes32"
            },
            {
              "internalType": "uint8",
              "name": "action",
              "type": "uint8"
            },
            {
              "internalType": "uint16",
              "name": "chainId",
              "type": "uint16"
            },
            {
              "internalType": "bytes32",
              "name": "newContract",
              "type": "bytes32"
            }
          ],
          "internalType": "struct BridgeStructs.UpgradeContract",
          "name": "chain",
          "type": "tuple"
        }
      ],
      "stateMutability": "pure",
      "type": "function"
    },
    {
      "inputs": [
        {
          "internalType": "bytes",
          "name": "encodedVM",
          "type": "bytes"
        }
      ],
      "name": "registerChain",
      "outputs": [],
      "stateMutability": "nonpayable",
      "type": "function"
    },
    {
      "inputs": [],
      "name": "tokenImplementation",
      "outputs": [
        {
          "internalType": "address",
          "name": "",
          "type": "address"
        }
      ],
      "stateMutability": "view",
      "type": "function"
    },
    {
      "inputs": [
        {
          "internalType": "bytes",
          "name": "encodedVM",
          "type": "bytes"
        }
      ],
      "name": "upgrade",
      "outputs": [],
      "stateMutability": "nonpayable",
      "type": "function"
    },
    {
      "inputs": [],
      "name": "wormhole",
      "outputs": [
        {
          "internalType": "contract IWormhole",
          "name": "",
          "type": "address"
        }
      ],
      "stateMutability": "view",
      "type": "function"
    },
    {
      "inputs": [
        {
          "internalType": "uint16",
          "name": "tokenChainId",
          "type": "uint16"
        },
        {
          "internalType": "bytes32",
          "name": "tokenAddress",
          "type": "bytes32"
        }
      ],
      "name": "wrappedAsset",
      "outputs": [
        {
          "internalType": "address",
          "name": "",
          "type": "address"
        }
      ],
      "stateMutability": "view",
      "type": "function"
    },
    {
      "stateMutability": "payable",
      "type": "receive"
    },
    {
      "inputs": [
        {
          "internalType": "address",
          "name": "tokenAddress",
          "type": "address"
        },
        {
          "internalType": "uint32",
          "name": "nonce",
          "type": "uint32"
        }
      ],
      "name": "attestToken",
      "outputs": [
        {
          "internalType": "uint64",
          "name": "sequence",
          "type": "uint64"
        }
      ],
      "stateMutability": "payable",
      "type": "function"
    },
    {
      "inputs": [
        {
          "internalType": "uint16",
          "name": "recipientChain",
          "type": "uint16"
        },
        {
          "internalType": "bytes32",
          "name": "recipient",
          "type": "bytes32"
        },
        {
          "internalType": "uint256",
          "name": "arbiterFee",
          "type": "uint256"
        },
        {
          "internalType": "uint32",
          "name": "nonce",
          "type": "uint32"
        }
      ],
      "name": "wrapAndTransferETH",
      "outputs": [
        {
          "internalType": "uint64",
          "name": "sequence",
          "type": "uint64"
        }
      ],
      "stateMutability": "payable",
      "type": "function"
    },
    {
      "inputs": [
        {
          "internalType": "uint16",
          "name": "recipientChain",
          "type": "uint16"
        },
        {
          "internalType": "bytes32",
          "name": "recipient",
          "type": "bytes32"
        },
        {
          "internalType": "uint32",
          "name": "nonce",
          "type": "uint32"
        },
        {
          "internalType": "bytes",
          "name": "payload",
          "type": "bytes"
        }
      ],
      "name": "wrapAndTransferETHWithPayload",
      "outputs": [
        {
          "internalType": "uint64",
          "name": "sequence",
          "type": "uint64"
        }
      ],
      "stateMutability": "payable",
      "type": "function"
    },
    {
      "inputs": [
        {
          "internalType": "address",
          "name": "token",
          "type": "address"
        },
        {
          "internalType": "uint256",
          "name": "amount",
          "type": "uint256"
        },
        {
          "internalType": "uint16",
          "name": "recipientChain",
          "type": "uint16"
        },
        {
          "internalType": "bytes32",
          "name": "recipient",
          "type": "bytes32"
        },
        {
          "internalType": "uint256",
          "name": "arbiterFee",
          "type": "uint256"
        },
        {
          "internalType": "uint32",
          "name": "nonce",
          "type": "uint32"
        }
      ],
      "name": "transferTokens",
      "outputs": [
        {
          "internalType": "uint64",
          "name": "sequence",
          "type": "uint64"
        }
      ],
      "stateMutability": "payable",
      "type": "function"
    },
    {
      "inputs": [
        {
          "internalType": "address",
          "name": "token",
          "type": "address"
        },
        {
          "internalType": "uint256",
          "name": "amount",
          "type": "uint256"
        },
        {
          "internalType": "uint16",
          "name": "recipientChain",
          "type": "uint16"
        },
        {
          "internalType": "bytes32",
          "name": "recipient",
          "type": "bytes32"
        },
        {
          "internalType": "uint32",
          "name": "nonce",
          "type": "uint32"
        },
        {
          "internalType": "bytes",
          "name": "payload",
          "type": "bytes"
        }
      ],
      "name": "transferTokensWithPayload",
      "outputs": [
        {
          "internalType": "uint64",
          "name": "sequence",
          "type": "uint64"
        }
      ],
      "stateMutability": "payable",
      "type": "function"
    },
    {
      "inputs": [
        {
          "internalType": "bytes",
          "name": "encodedVm",
          "type": "bytes"
        }
      ],
      "name": "updateWrapped",
      "outputs": [
        {
          "internalType": "address",
          "name": "token",
          "type": "address"
        }
      ],
      "stateMutability": "nonpayable",
      "type": "function"
    },
    {
      "inputs": [
        {
          "internalType": "bytes",
          "name": "encodedVm",
          "type": "bytes"
        }
      ],
      "name": "createWrapped",
      "outputs": [
        {
          "internalType": "address",
          "name": "token",
          "type": "address"
        }
      ],
      "stateMutability": "nonpayable",
      "type": "function"
    },
    {
      "inputs": [
        {
          "internalType": "bytes",
          "name": "encodedVm",
          "type": "bytes"
        }
      ],
      "name": "completeTransferWithPayload",
      "outputs": [
        {
          "internalType": "bytes",
          "name": "",
          "type": "bytes"
        }
      ],
      "stateMutability": "nonpayable",
      "type": "function"
    },
    {
      "inputs": [
        {
          "internalType": "bytes",
          "name": "encodedVm",
          "type": "bytes"
        }
      ],
      "name": "completeTransferAndUnwrapETHWithPayload",
      "outputs": [
        {
          "internalType": "bytes",
          "name": "",
          "type": "bytes"
        }
      ],
      "stateMutability": "nonpayable",
      "type": "function"
    },
    {
      "inputs": [
        {
          "internalType": "bytes",
          "name": "encodedVm",
          "type": "bytes"
        }
      ],
      "name": "completeTransfer",
      "outputs": [],
      "stateMutability": "nonpayable",
      "type": "function"
    },
    {
      "inputs": [
        {
          "internalType": "bytes",
          "name": "encodedVm",
          "type": "bytes"
        }
      ],
      "name": "completeTransferAndUnwrapETH",
      "outputs": [],
      "stateMutability": "nonpayable",
      "type": "function"
    },
    {
      "inputs": [
        {
          "components": [
            {
              "internalType": "uint8",
              "name": "payloadID",
              "type": "uint8"
            },
            {
              "internalType": "bytes32",
              "name": "tokenAddress",
              "type": "bytes32"
            },
            {
              "internalType": "uint16",
              "name": "tokenChain",
              "type": "uint16"
            },
            {
              "internalType": "uint8",
              "name": "decimals",
              "type": "uint8"
            },
            {
              "internalType": "bytes32",
              "name": "symbol",
              "type": "bytes32"
            },
            {
              "internalType": "bytes32",
              "name": "name",
              "type": "bytes32"
            }
          ],
          "internalType": "struct BridgeStructs.AssetMeta",
          "name": "meta",
          "type": "tuple"
        }
      ],
      "name": "encodeAssetMeta",
      "outputs": [
        {
          "internalType": "bytes",
          "name": "encoded",
          "type": "bytes"
        }
      ],
      "stateMutability": "pure",
      "type": "function"
    },
    {
      "inputs": [
        {
          "components": [
            {
              "internalType": "uint8",
              "name": "payloadID",
              "type": "uint8"
            },
            {
              "internalType": "uint256",
              "name": "amount",
              "type": "uint256"
            },
            {
              "internalType": "bytes32",
              "name": "tokenAddress",
              "type": "bytes32"
            },
            {
              "internalType": "uint16",
              "name": "tokenChain",
              "type": "uint16"
            },
            {
              "internalType": "bytes32",
              "name": "to",
              "type": "bytes32"
            },
            {
              "internalType": "uint16",
              "name": "toChain",
              "type": "uint16"
            },
            {
              "internalType": "uint256",
              "name": "fee",
              "type": "uint256"
            }
          ],
          "internalType": "struct BridgeStructs.Transfer",
          "name": "transfer",
          "type": "tuple"
        }
      ],
      "name": "encodeTransfer",
      "outputs": [
        {
          "internalType": "bytes",
          "name": "encoded",
          "type": "bytes"
        }
      ],
      "stateMutability": "pure",
      "type": "function"
    },
    {
      "inputs": [
        {
          "components": [
            {
              "internalType": "uint8",
              "name": "payloadID",
              "type": "uint8"
            },
            {
              "internalType": "uint256",
              "name": "amount",
              "type": "uint256"
            },
            {
              "internalType": "bytes32",
              "name": "tokenAddress",
              "type": "bytes32"
            },
            {
              "internalType": "uint16",
              "name": "tokenChain",
              "type": "uint16"
            },
            {
              "internalType": "bytes32",
              "name": "to",
              "type": "bytes32"
            },
            {
              "internalType": "uint16",
              "name": "toChain",
              "type": "uint16"
            },
            {
              "internalType": "bytes32",
              "name": "fromAddress",
              "type": "bytes32"
            },
            {
              "internalType": "bytes",
              "name": "payload",
              "type": "bytes"
            }
          ],
          "internalType": "struct BridgeStructs.TransferWithPayload",
          "name": "transfer",
          "type": "tuple"
        }
      ],
      "name": "encodeTransferWithPayload",
      "outputs": [
        {
          "internalType": "bytes",
          "name": "encoded",
          "type": "bytes"
        }
      ],
      "stateMutability": "pure",
      "type": "function"
    },
    {
      "inputs": [
        {
          "internalType": "bytes",
          "name": "encoded",
          "type": "bytes"
        }
      ],
      "name": "parsePayloadID",
      "outputs": [
        {
          "internalType": "uint8",
          "name": "payloadID",
          "type": "uint8"
        }
      ],
      "stateMutability": "pure",
      "type": "function"
    },
    {
      "inputs": [
        {
          "internalType": "bytes",
          "name": "encoded",
          "type": "bytes"
        }
      ],
      "name": "parseAssetMeta",
      "outputs": [
        {
          "components": [
            {
              "internalType": "uint8",
              "name": "payloadID",
              "type": "uint8"
            },
            {
              "internalType": "bytes32",
              "name": "tokenAddress",
              "type": "bytes32"
            },
            {
              "internalType": "uint16",
              "name": "tokenChain",
              "type": "uint16"
            },
            {
              "internalType": "uint8",
              "name": "decimals",
              "type": "uint8"
            },
            {
              "internalType": "bytes32",
              "name": "symbol",
              "type": "bytes32"
            },
            {
              "internalType": "bytes32",
              "name": "name",
              "type": "bytes32"
            }
          ],
          "internalType": "struct BridgeStructs.AssetMeta",
          "name": "meta",
          "type": "tuple"
        }
      ],
      "stateMutability": "pure",
      "type": "function"
    },
    {
      "inputs": [
        {
          "internalType": "bytes",
          "name": "encoded",
          "type": "bytes"
        }
      ],
      "name": "parseTransfer",
      "outputs": [
        {
          "components": [
            {
              "internalType": "uint8",
              "name": "payloadID",
              "type": "uint8"
            },
            {
              "internalType": "uint256",
              "name": "amount",
              "type": "uint256"
            },
            {
              "internalType": "bytes32",
              "name": "tokenAddress",
              "type": "bytes32"
            },
            {
              "internalType": "uint16",
              "name": "tokenChain",
              "type": "uint16"
            },
            {
              "internalType": "bytes32",
              "name": "to",
              "type": "bytes32"
            },
            {
              "internalType": "uint16",
              "name": "toChain",
              "type": "uint16"
            },
            {
              "internalType": "uint256",
              "name": "fee",
              "type": "uint256"
            }
          ],
          "internalType": "struct BridgeStructs.Transfer",
          "name": "transfer",
          "type": "tuple"
        }
      ],
      "stateMutability": "pure",
      "type": "function"
    },
    {
      "inputs": [
        {
          "internalType": "bytes",
          "name": "encoded",
          "type": "bytes"
        }
      ],
      "name": "parseTransferWithPayload",
      "outputs": [
        {
          "components": [
            {
              "internalType": "uint8",
              "name": "payloadID",
              "type": "uint8"
            },
            {
              "internalType": "uint256",
              "name": "amount",
              "type": "uint256"
            },
            {
              "internalType": "bytes32",
              "name": "tokenAddress",
              "type": "bytes32"
            },
            {
              "internalType": "uint16",
              "name": "tokenChain",
              "type": "uint16"
            },
            {
              "internalType": "bytes32",
              "name": "to",
              "type": "bytes32"
            },
            {
              "internalType": "uint16",
              "name": "toChain",
              "type": "uint16"
            },
            {
              "internalType": "bytes32",
              "name": "fromAddress",
              "type": "bytes32"
            },
            {
              "internalType": "bytes",
              "name": "payload",
              "type": "bytes"
            }
          ],
          "internalType": "struct BridgeStructs.TransferWithPayload",
          "name": "transfer",
          "type": "tuple"
        }
      ],
      "stateMutability": "pure",
      "type": "function"
    },
    {
      "inputs": [
        {
          "internalType": "bytes",
          "name": "encoded",
          "type": "bytes"
        }
      ],
      "name": "_parseTransferCommon",
      "outputs": [
        {
          "components": [
            {
              "internalType": "uint8",
              "name": "payloadID",
              "type": "uint8"
            },
            {
              "internalType": "uint256",
              "name": "amount",
              "type": "uint256"
            },
            {
              "internalType": "bytes32",
              "name": "tokenAddress",
              "type": "bytes32"
            },
            {
              "internalType": "uint16",
              "name": "tokenChain",
              "type": "uint16"
            },
            {
              "internalType": "bytes32",
              "name": "to",
              "type": "bytes32"
            },
            {
              "internalType": "uint16",
              "name": "toChain",
              "type": "uint16"
            },
            {
              "internalType": "uint256",
              "name": "fee",
              "type": "uint256"
            }
          ],
          "internalType": "struct BridgeStructs.Transfer",
          "name": "transfer",
          "type": "tuple"
        }
      ],
      "stateMutability": "pure",
      "type": "function"
    }
  ],
  "bytecode": "0x608060405234801561001057600080fd5b506001600c556158ba806100256000396000f3fe6080604052600436106200024b5760003560e01c8063ad5c4648116200013b578063c687851911620000b9578063ea63738d1162000078578063ea63738d1462000894578063f768441f14620008c8578063fbe3c2cd14620008ed578063fbeeacd9146200090e578063ff200cde146200096e57600080fd5b8063c687851914620007c3578063d56e2e2414620007e8578063d60b347f146200080d578063e8059810146200084a578063e89bc401146200086f57600080fd5b8063b96c7e4d1162000106578063b96c7e4d146200071f578063bee9cdfc1462000759578063c3f511c11462000770578063c48fa1151462000795578063c5a5ebda14620007ac57600080fd5b8063ad5c4648146200067f578063ad66a5f1146200069f578063b046223b14620006e3578063b172b222146200070857600080fd5b80632c3c02a411620001c957806384acd1bb116200019457806384acd1bb14620005c55780639981509f14620005e55780639a8a059214620005fc578063a5799f931462000626578063aa4efa5b146200064b57600080fd5b80632c3c02a4146200052a5780632f3a3d5d146200055e5780635f854266146200057e578063739fc8d114620005a357600080fd5b80631a2be4da11620002165780631a2be4da14620003ba5780631c8475e414620004085780631ff1e286146200043c57806325394645146200047a5780632b51137514620004a157600080fd5b806301f53255146200025857806307dfd8fb14620002d65780630f50900814620003525780630f5287b0146200038a57600080fd5b366200025357005b600080fd5b3480156200026557600080fd5b506200027d620002773660046200437a565b62000993565b604051620002cd9190600060a0820190508251825260ff6020840151166020830152604083015161ffff808216604085015280606086015116606085015250506080830151608083015292915050565b60405180910390f35b348015620002e357600080fd5b50620002fb620002f53660046200437a565b62000b9d565b604051620002cd9190600060c08201905060ff83511682526020830151602083015261ffff604084015116604083015260ff60608401511660608301526080830151608083015260a083015160a083015292915050565b3480156200035f57600080fd5b5062000377620003713660046200437a565b62000d2c565b60405160ff9091168152602001620002cd565b620003a16200039b366004620041f9565b62000d40565b6040516001600160401b039091168152602001620002cd565b348015620003c757600080fd5b50620003f7620003d9366004620041dc565b6001600160a01b031660009081526009602052604090205460ff1690565b6040519015158152602001620002cd565b3480156200041557600080fd5b506200042d620004273660046200437a565b62000de4565b604051620002cd9190620049de565b3480156200044957600080fd5b50620004616200045b366004620047a4565b62000df3565b6040516001600160a01b039091168152602001620002cd565b3480156200048757600080fd5b506200049f620004993660046200437a565b62000e1f565b005b348015620004ae57600080fd5b50620004c6620004c03660046200437a565b62000f03565b604051620002cd9190600060e08201905060ff83511682526020830151602083015260408301516040830152606083015161ffff8082166060850152608085015160808501528060a08601511660a0850152505060c083015160c083015292915050565b3480156200053757600080fd5b50620003f76200054936600462004348565b60009081526005602052604090205460ff1690565b3480156200056b57600080fd5b506001546001600160a01b031662000461565b3480156200058b57600080fd5b506200042d6200059d36600462004552565b62001074565b348015620005b057600080fd5b50600254640100000000900460ff1662000377565b348015620005d257600080fd5b506000546001600160a01b031662000461565b620003a1620005f6366004620047d2565b62001109565b3480156200060957600080fd5b5060025461ffff165b60405161ffff9091168152602001620002cd565b3480156200063357600080fd5b506200049f620006453660046200437a565b62001149565b3480156200065857600080fd5b50620003f76200066a36600462004348565b60009081526006602052604090205460ff1690565b3480156200068c57600080fd5b506004546001600160a01b031662000461565b348015620006ac57600080fd5b50620006d4620006be36600462004766565b61ffff166000908152600b602052604090205490565b604051908152602001620002cd565b348015620006f057600080fd5b506200042d62000702366004620043e6565b620012b6565b3480156200071557600080fd5b50600354620006d4565b3480156200072c57600080fd5b50620006d46200073e366004620041dc565b6001600160a01b03166000908152600a602052604090205490565b620003a16200076a36600462004820565b6200132f565b3480156200077d57600080fd5b506200042d6200078f3660046200437a565b62001362565b620003a1620007a6366004620042f0565b62001371565b620003a1620007bd36600462004264565b62001696565b348015620007d057600080fd5b506200049f620007e23660046200437a565b62001725565b348015620007f557600080fd5b506200042d6200080736600462004480565b62001736565b3480156200081a57600080fd5b50620003f76200082c366004620041dc565b6001600160a01b031660009081526007602052604090205460ff1690565b3480156200085757600080fd5b5062000461620008693660046200437a565b62001779565b3480156200087c57600080fd5b50620004c66200088e3660046200437a565b6200188e565b348015620008a157600080fd5b50620008b9620008b33660046200437a565b6200199a565b604051620002cd919062004af6565b348015620008d557600080fd5b5062000461620008e73660046200437a565b62001b17565b348015620008fa57600080fd5b5060025462010000900461ffff1662000612565b3480156200091b57600080fd5b50620009336200092d3660046200437a565b62001c2c565b604051620002cd91908151815260208083015160ff169082015260408083015161ffff16908201526060918201519181019190915260800190565b3480156200097b57600080fd5b506200049f6200098d3660046200437a565b62001e07565b6040805160a081018252600080825260208201819052918101829052606081018290526080810182905290620009ca838262001e14565b8252620009d960208262004c79565b82519091506a546f6b656e4272696467651462000a495760405162461bcd60e51b815260206004820152602360248201527f696e76616c6964205265676973746572436861696e3a2077726f6e67206d6f64604482015262756c6560e81b60648201526084015b60405180910390fd5b62000a55838262001e76565b60ff16602083015262000a6a60018262004c79565b9050816020015160ff1660011462000ad15760405162461bcd60e51b815260206004820152602360248201527f696e76616c6964205265676973746572436861696e3a2077726f6e672061637460448201526234b7b760e91b606482015260840162000a40565b62000add838262001ed6565b61ffff16604083015262000af360028262004c79565b905062000b01838262001ed6565b61ffff16606083015262000b1760028262004c79565b905062000b25838262001e14565b608083015262000b3760208262004c79565b90508083511462000b975760405162461bcd60e51b815260206004820152602360248201527f696e76616c6964205265676973746572436861696e3a2077726f6e67206c656e6044820152620cee8d60eb1b606482015260840162000a40565b50919050565b6040805160c081018252600080825260208201819052918101829052606081018290526080810182905260a081018290529062000bdb838262001e76565b60ff16825262000bed60018262004c79565b9050816000015160ff1660021462000c3c5760405162461bcd60e51b8152602060048201526011602482015270696e76616c69642041737365744d65746160781b604482015260640162000a40565b62000c48838262001e14565b60208084019190915262000c5d908262004c79565b905062000c6b838262001ed6565b61ffff16604083015262000c8160028262004c79565b905062000c8f838262001e76565b60ff16606083015262000ca460018262004c79565b905062000cb2838262001e14565b608083015262000cc460208262004c79565b905062000cd2838262001e14565b60a083015262000ce460208262004c79565b90508083511462000b975760405162461bcd60e51b8152602060048201526011602482015270696e76616c69642041737365744d65746160781b604482015260640162000a40565b600062000d3a828262001e76565b92915050565b60006002600c54141562000d975760405162461bcd60e51b815260206004820152601f60248201527f5265656e7472616e637947756172643a207265656e7472616e742063616c6c00604482015260640162000a40565b6002600c55600062000dab88888662001f37565b905062000dd38160000151826020015183604001518989866060015187608001518a620023e7565b6001600c5598975050505050505050565b606062000d3a82600162002539565b61ffff91909116600090815260086020908152604080832093835292905220546001600160a01b031690565b600080600062000e2f8462002cac565b92509250925081819062000e585760405162461bcd60e51b815260040162000a409190620049de565b5062000e7e8361014001516000908152600560205260409020805460ff19166001179055565b600062000e8f8460e0015162001c2c565b905062000e9f60025461ffff1690565b61ffff16816040015161ffff161462000eec5760405162461bcd60e51b815260206004820152600e60248201526d1ddc9bdb99c818da185a5b881a5960921b604482015260640162000a40565b606081015162000efc9062002edb565b5050505050565b6040805160e081018252600080825260208201819052918101829052606081018290526080810182905260a0810182905260c081018290529062000f48838262001e76565b60ff16825262000f5a60018262004c79565b9050816000015160ff1660011462000f865760405162461bcd60e51b815260040162000a409062004acc565b62000f92838262003012565b60208084019190915262000fa7908262004c79565b905062000fb5838262001e14565b604083015262000fc760208262004c79565b905062000fd5838262001ed6565b61ffff16606083015262000feb60028262004c79565b905062000ff9838262001e14565b60808301526200100b60208262004c79565b905062001019838262001ed6565b61ffff1660a08301526200102f60028262004c79565b90506200103d838262003012565b60c08301526200104f60208262004c79565b90508083511462000b975760405162461bcd60e51b815260040162000a409062004acc565b8051602080830151604080850151606080870151608088015160a089015160c08a0151955160f89990991b6001600160f81b031916978901979097526021880195909552604187019290925260f091821b6001600160f01b03199081166061880152606387019490945293901b909116608384015260858301529060a5015b6040516020818303038152906040529050919050565b60008062001117846200306b565b90506200113f8160000151826020015183604001518989866060015187608001518a620023e7565b9695505050505050565b6000806000620011598462002cac565b925092509250818190620011825760405162461bcd60e51b815260040162000a409190620049de565b50620011a88361014001516000908152600560205260409020805460ff19166001179055565b6000620011b98460e0015162000993565b9050620011c960025461ffff1690565b61ffff16816040015161ffff161480620011e95750604081015161ffff16155b6200122a5760405162461bcd60e51b815260206004820152601060248201526f1a5b9d985b1a590818da185a5b881a5960821b604482015260640162000a40565b606081015161ffff166000908152600b602052604081205414620012915760405162461bcd60e51b815260206004820152601860248201527f636861696e20616c726561647920726567697374657265640000000000000000604482015260640162000a40565b62000efc8160600151826080015161ffff9091166000908152600b6020526040902055565b8051602080830151604080850151606080870151608088015160a0890151945160f898891b6001600160f81b031990811698820198909852602181019690965260f09390931b6001600160f01b031916604186015290951b909316604383015260448201929092526064810191909152608401620010f3565b6000806200133e60006200306b565b90506200113f816000015182602001518360400151898986608001518a8a62003345565b606062000d3a82600062002539565b60408051600481526024810182526020810180516001600160e01b031663313ce56760e01b179052905160009182916001600160a01b03861691620013b691620048fb565b600060405180830381855afa9150503d8060008114620013f3576040519150601f19603f3d011682016040523d82523d6000602084013e620013f8565b606091505b5060408051600481526024810182526020810180516001600160e01b03166395d89b4160e01b1790529051919350600092506001600160a01b03871691620014419190620048fb565b600060405180830381855afa9150503d80600081146200147e576040519150601f19603f3d011682016040523d82523d6000602084013e62001483565b606091505b5060408051600481526024810182526020810180516001600160e01b03166306fdde0360e01b1790529051919350600092506001600160a01b03881691620014cc9190620048fb565b600060405180830381855afa9150503d806000811462001509576040519150601f19603f3d011682016040523d82523d6000602084013e6200150e565b606091505b509150506000838060200190518101906200152a9190620048ae565b9050600083806020019051810190620015449190620043b0565b90506000838060200190518101906200155e9190620043b0565b9050600080602084015191506020830151905060006040518060c00160405280600260ff1681526020018d6001600160a01b031660001b8152602001620015a860025461ffff1690565b61ffff1681526020018760ff1681526020018481526020018381525090506000620015d382620012b6565b9050620015e86000546001600160a01b031690565b6001600160a01b031663b19a437e348e846200160f60025460ff6401000000009091041690565b6040518563ffffffff1660e01b81526004016200162f9392919062004b71565b6020604051808303818588803b1580156200164957600080fd5b505af11580156200165e573d6000803e3d6000fd5b50505050506040513d601f19601f8201168201806040525081019062001685919062004891565b9d9c50505050505050505050505050565b60006002600c541415620016ed5760405162461bcd60e51b815260206004820152601f60248201527f5265656e7472616e637947756172643a207265656e7472616e742063616c6c00604482015260640162000a40565b6002600c5560006200170188888362001f37565b905062000dd3816000015182602001518360400151898986608001518a8a62003345565b6200173281600062002539565b5050565b6060816000015182602001518360400151846060015185608001518660a001518760c001518860e00151604051602001620010f39897969594939291906200494c565b600080600080620017926000546001600160a01b031690565b6001600160a01b031663c0fd8bde866040518263ffffffff1660e01b8152600401620017bf9190620049de565b60006040518083038186803b158015620017d857600080fd5b505afa158015620017ed573d6000803e3d6000fd5b505050506040513d6000823e601f3d908101601f19168201604052620018179190810190620045f7565b925092509250818190620018405760405162461bcd60e51b815260040162000a409190620049de565b506200184c83620033d2565b6200186b5760405162461bcd60e51b815260040162000a409062004aa3565b60006200187c8460e0015162000b9d565b90506200113f818560a001516200340f565b6040805160e081018252600080825260208201819052918101829052606081018290526080810182905260a0810182905260c0810182905290620018d28362000d2c565b90508060ff1660011415620018f457620018ec8362000f03565b915062000b97565b8060ff16600314156200195c5760006200190e846200199a565b60038452602080820151908501526040808201519085015260608082015161ffff908116918601919091526080808301519086015260a091820151169084015250600060c083015262000b97565b60405162461bcd60e51b8152602060048201526012602482015271125b9d985b1a59081c185e5b1bd859081a5960721b604482015260640162000a40565b604080516101008101825260008082526020820181905291810182905260608082018390526080820183905260a0820183905260c0820183905260e082015290620019e6838262001e76565b60ff168252620019f860018262004c79565b9050816000015160ff1660031462001a245760405162461bcd60e51b815260040162000a409062004acc565b62001a30838262003012565b60208084019190915262001a45908262004c79565b905062001a53838262001e14565b604083015262001a6560208262004c79565b905062001a73838262001ed6565b61ffff16606083015262001a8960028262004c79565b905062001a97838262001e14565b608083015262001aa960208262004c79565b905062001ab7838262001ed6565b61ffff1660a083015262001acd60028262004c79565b905062001adb838262001e14565b60c083015262001aed60208262004c79565b905062001b0c8182855162001b03919062004ddf565b859190620036c0565b60e083015250919050565b60008060008062001b306000546001600160a01b031690565b6001600160a01b031663c0fd8bde866040518263ffffffff1660e01b815260040162001b5d9190620049de565b60006040518083038186803b15801562001b7657600080fd5b505afa15801562001b8b573d6000803e3d6000fd5b505050506040513d6000823e601f3d908101601f1916820160405262001bb59190810190620045f7565b92509250925081819062001bde5760405162461bcd60e51b815260040162000a409190620049de565b5062001bea83620033d2565b62001c095760405162461bcd60e51b815260040162000a409062004aa3565b600062001c1a8460e0015162000b9d565b90506200113f818560a00151620037db565b60408051608081018252600080825260208201819052918101829052606081018290529062001c5c838262001e14565b825262001c6b60208262004c79565b82519091506a546f6b656e4272696467651462001cd95760405162461bcd60e51b815260206004820152602560248201527f696e76616c69642055706772616465436f6e74726163743a2077726f6e67206d6044820152646f64756c6560d81b606482015260840162000a40565b62001ce5838262001e76565b60ff16602083015262001cfa60018262004c79565b9050816020015160ff1660021462001d635760405162461bcd60e51b815260206004820152602560248201527f696e76616c69642055706772616465436f6e74726163743a2077726f6e67206160448201526431ba34b7b760d91b606482015260840162000a40565b62001d6f838262001ed6565b61ffff16604083015262001d8560028262004c79565b905062001d93838262001e14565b606083015262001da560208262004c79565b90508083511462000b975760405162461bcd60e51b815260206004820152602560248201527f696e76616c69642055706772616465436f6e74726163743a2077726f6e67206c6044820152640cadccee8d60db1b606482015260840162000a40565b6200173281600162002539565b600062001e2382602062004c79565b8351101562001e6d5760405162461bcd60e51b8152602060048201526015602482015274746f427974657333325f6f75744f66426f756e647360581b604482015260640162000a40565b50016020015190565b600062001e8582600162004c79565b8351101562001ecd5760405162461bcd60e51b8152602060048201526013602482015272746f55696e74385f6f75744f66426f756e647360681b604482015260640162000a40565b50016001015190565b600062001ee582600262004c79565b8351101562001f2e5760405162461bcd60e51b8152602060048201526014602482015273746f55696e7431365f6f75744f66426f756e647360601b604482015260640162000a40565b50016002015190565b6040805160a0810182526000808252602082018190529181018290526060810182905260808101919091526001600160a01b038416600090815260096020526040812054819060ff16156200207a57856001600160a01b0316639a8a05926040518163ffffffff1660e01b815260040160206040518083038186803b15801562001fc057600080fd5b505afa15801562001fd5573d6000803e3d6000fd5b505050506040513d601f19601f8201168201806040525081019062001ffb919062004785565b9150856001600160a01b0316633d6c043b6040518163ffffffff1660e01b815260040160206040518083038186803b1580156200203757600080fd5b505afa1580156200204c573d6000803e3d6000fd5b505050506040513d601f19601f8201168201806040525081019062002072919062004361565b90506200208e565b505060025461ffff166001600160a01b0385165b60408051600481526024810182526020810180516001600160e01b031663313ce56760e01b17905290516000916001600160a01b03891691620020d29190620048fb565b600060405180830381855afa9150503d80600081146200210f576040519150601f19603f3d011682016040523d82523d6000602084013e62002114565b606091505b50915050600081806020019051810190620021309190620048ae565b905062002149620021428883620038d6565b8262003915565b96506200215960025461ffff1690565b61ffff168461ffff161415620022f957604080513060248083019190915282518083039091018152604490910182526020810180516001600160e01b03166370a0823160e01b17905290516000916001600160a01b038b1691620021be9190620048fb565b600060405180830381855afa9150503d8060008114620021fb576040519150601f19603f3d011682016040523d82523d6000602084013e62002200565b606091505b509150506000818060200190518101906200221c919062004361565b90506200222c8a33308c6200394a565b604080513060248083019190915282518083039091018152604490910182526020810180516001600160e01b03166370a0823160e01b17905290516000916001600160a01b038d1691620022819190620048fb565b600060405180830381855afa9150503d8060008114620022be576040519150601f19603f3d011682016040523d82523d6000602084013e620022c3565b606091505b50915050600081806020019051810190620022df919062004361565b9050620022ed838262004ddf565b9a50505050506200236a565b620023078833308a6200394a565b604051632770a7eb60e21b8152306004820152602481018890526001600160a01b03891690639dc29fac90604401600060405180830381600087803b1580156200235057600080fd5b505af115801562002365573d6000803e3d6000fd5b505050505b6000620023788883620038d6565b90506000620023888884620038d6565b90506200239860025461ffff1690565b61ffff168661ffff161415620023b457620023b48a83620039bd565b6040805160a08101825261ffff909716875260208701959095529385015250506060820152346080820152949350505050565b600086841115620024305760405162461bcd60e51b815260206004820152601260248201527119995948195e18d959591cc8185b5bdd5b9d60721b604482015260640162000a40565b6040805160e081018252600181526020810189905290810189905261ffff808b16606083015260808201879052871660a082015260c081018590526000620024788262001074565b90506200248d6000546001600160a01b031690565b6001600160a01b031663b19a437e868684620024b460025460ff6401000000009091041690565b6040518563ffffffff1660e01b8152600401620024d49392919062004b71565b6020604051808303818588803b158015620024ee57600080fd5b505af115801562002503573d6000803e3d6000fd5b50505050506040513d601f19601f820116820180604052508101906200252a919062004891565b9b9a5050505050505050505050565b60606000806000620025536000546001600160a01b031690565b6001600160a01b031663c0fd8bde876040518263ffffffff1660e01b8152600401620025809190620049de565b60006040518083038186803b1580156200259957600080fd5b505afa158015620025ae573d6000803e3d6000fd5b505050506040513d6000823e601f3d908101601f19168201604052620025d89190810190620045f7565b925092509250818190620026015760405162461bcd60e51b815260040162000a409190620049de565b506200260d83620033d2565b6200262c5760405162461bcd60e51b815260040162000a409062004aa3565b60006200263d8460e001516200188e565b9050600062002650826080015162003a8a565b9050816000015160ff1660031415620026ae57336001600160a01b03821614620026ae5760405162461bcd60e51b815260206004820152600e60248201526d34b73b30b634b21039b2b73232b960911b604482015260640162000a40565b61014085015160009081526006602052604090205460ff1615620027155760405162461bcd60e51b815260206004820152601a60248201527f7472616e7366657220616c726561647920636f6d706c65746564000000000000604482015260640162000a40565b6200273a8561014001516000908152600660205260409020805460ff19166001179055565b60025461ffff1661ffff168260a0015161ffff1614620027945760405162461bcd60e51b815260206004820152601460248201527334b73b30b634b2103a30b933b2ba1031b430b4b760611b604482015260640162000a40565b6000620027a460025461ffff1690565b61ffff16836060015161ffff161415620027df57620027c7836040015162003a8a565b9050620027d981846020015162003ae0565b62002860565b6000620027f58460600151856040015162000df3565b90506001600160a01b0381166200285d5760405162461bcd60e51b815260206004820152602560248201527f6e6f207772617070657220666f72207468697320746f6b656e2063726561746560448201526419081e595d60da1b606482015260840162000a40565b90505b8715806200287b57506004546001600160a01b038281169116145b620028d55760405162461bcd60e51b815260206004820152602360248201527f696e76616c696420746f6b656e2c2063616e206f6e6c7920756e77726170205760448201526208aa8960eb1b606482015260840162000a40565b60408051600481526024810182526020810180516001600160e01b031663313ce56760e01b17905290516000916001600160a01b03841691620029199190620048fb565b600060405180830381855afa9150503d806000811462002956576040519150601f19603f3d011682016040523d82523d6000602084013e6200295b565b606091505b50915050600081806020019051810190620029779190620048ae565b905060006200298b86602001518362003915565b905060006200299f8760c001518462003915565b9050600081118015620029bb57506001600160a01b0386163314155b1562002b4d578181111562002a1e5760405162461bcd60e51b815260206004820152602260248201527f66656520686967686572207468616e207472616e7366657272656420616d6f756044820152611b9d60f21b606482015260840162000a40565b8b1562002ab85760048054604051632e1a7d4d60e01b81529182018390526001600160a01b031690632e1a7d4d90602401600060405180830381600087803b15801562002a6a57600080fd5b505af115801562002a7f573d6000803e3d6000fd5b505060405133925083156108fc02915083906000818181858888f1935050505015801562002ab1573d6000803e3d6000fd5b5062002b51565b60025461ffff1661ffff16876060015161ffff161462002b3a576040516340c10f1960e01b8152336004820152602481018290526001600160a01b038616906340c10f1990604401600060405180830381600087803b15801562002b1b57600080fd5b505af115801562002b30573d6000803e3d6000fd5b5050505062002b51565b62002b4785338362003b12565b62002b51565b5060005b600062002b5f828462004ddf565b90508c1562002c045760048054604051632e1a7d4d60e01b81529182018390526001600160a01b031690632e1a7d4d90602401600060405180830381600087803b15801562002bad57600080fd5b505af115801562002bc2573d6000803e3d6000fd5b50506040516001600160a01b038a16925083156108fc02915083906000818181858888f1935050505015801562002bfd573d6000803e3d6000fd5b5062002c95565b60025461ffff1661ffff16886060015161ffff161462002c88576040516340c10f1960e01b81526001600160a01b038881166004830152602482018390528716906340c10f1990604401600060405180830381600087803b15801562002c6957600080fd5b505af115801562002c7e573d6000803e3d6000fd5b5050505062002c95565b62002c9586888362003b12565b50505060e0909701519a9950505050505050505050565b604080516101608101825260008082526020820181905291810182905260608082018390526080820183905260a0820183905260c0820183905260e08201819052610100820183905261012082015261014081019190915260006060600080600062002d206000546001600160a01b031690565b6001600160a01b031663c0fd8bde886040518263ffffffff1660e01b815260040162002d4d9190620049de565b60006040518083038186803b15801562002d6657600080fd5b505afa15801562002d7b573d6000803e3d6000fd5b505050506040513d6000823e601f3d908101601f1916820160405262002da59190810190620045f7565b9250925092508162002dbe579194509250905062002ed4565b60025462010000900461ffff1661ffff16836060015161ffff161462002e1c5750506040805180820190915260168152753bb937b7339033b7bb32b93730b731b29031b430b4b760511b602082015290935060009250905062002ed4565b60035483608001511462002e6f57505060408051808201909152601981527f77726f6e6720676f7665726e616e636520636f6e747261637400000000000000602082015290935060009250905062002ed4565b61014083015160009081526005602052604090205460ff161562002eb957826000604051806060016040528060228152602001620058636022913995509550955050505062002ed4565b50506040805160208101909152600081529093506001925090505b9193909250565b600062002f0f7f360894a13ba1a3210667c828492db98dca3e2076cc3735a920a3ca505d382bbc546001600160a01b031690565b905062002f1c8262003b44565b60408051600481526024810182526020810180516001600160e01b031663204a7f0760e21b179052905160009182916001600160a01b0386169162002f6191620048fb565b600060405180830381855af49150503d806000811462002f9e576040519150601f19603f3d011682016040523d82523d6000602084013e62002fa3565b606091505b509150915081819062002fcb5760405162461bcd60e51b815260040162000a409190620049de565b50836001600160a01b0316836001600160a01b03167f2e4cc16c100f0b55e2df82ab0b1a7e294aa9cbd01b48fbaf622683fbc0507a4960405160405180910390a350505050565b60006200302182602062004c79565b8351101562001e6d5760405162461bcd60e51b8152602060048201526015602482015274746f55696e743235365f6f75744f66426f756e647360581b604482015260640162000a40565b6040805160a081018252600080825260208201819052918101829052606081018290526080810191909152600080546001600160a01b03166001600160a01b0316631a90a2196040518163ffffffff1660e01b815260040160206040518083038186803b158015620030dc57600080fd5b505afa158015620030f1573d6000803e3d6000fd5b505050506040513d601f19601f8201168201806040525081019062003117919062004361565b9050348110620031755760405162461bcd60e51b815260206004820152602260248201527f76616c756520697320736d616c6c6572207468616e20776f726d686f6c652066604482015261656560f01b606482015260840162000a40565b600062003183823462004ddf565b905080841115620031ec5760405162461bcd60e51b815260206004820152602c60248201527f66656520697320626967676572207468616e20616d6f756e74206d696e75732060448201526b776f726d686f6c652066656560a01b606482015260840162000a40565b6000620031fb826012620038d6565b905060006200320c866012620038d6565b905060006200321d83601262003915565b62003229908562004ddf565b905080156200326257604051339082156108fc029083906000818181858888f1935050505015801562003260573d6000803e3d6000fd5b505b6004546001600160a01b031663d0e30db06200327f838762004ddf565b6040518263ffffffff1660e01b81526004016000604051808303818588803b158015620032ab57600080fd5b505af1158015620032c0573d6000803e3d6000fd5b5050505050620032e3620032dc6004546001600160a01b031690565b84620039bd565b6040518060a00160405280620032fc60025461ffff1690565b61ffff168152602001620033186004546001600160a01b031690565b6001600160a01b031660001b81526020018481526020018381526020018681525095505050505050919050565b6040805161010081018252600381526020810188905290810188905261ffff808a16606083015260808201869052861660a08201523360c082015260e0810182905260009081620033968262001736565b9050620033ab6000546001600160a01b031690565b6001600160a01b031663b19a437e878784620024b460025460ff6401000000009091041690565b60008160800151620033f8836060015161ffff166000908152600b602052604090205490565b14156200340757506001919050565b506000919050565b60006200341f60025461ffff1690565b61ffff16836040015161ffff1614156200348d5760405162461bcd60e51b815260206004820152602860248201527f63616e206f6e6c79207772617020746f6b656e732066726f6d20666f726569676044820152676e20636861696e7360c01b606482015260840162000a40565b60006001600160a01b0316620034ac8460400151856020015162000df3565b6001600160a01b031614620035045760405162461bcd60e51b815260206004820152601c60248201527f7772617070656420617373657420616c72656164792065786973747300000000604482015260640162000a40565b600063c71f461560e01b6200351d8560a0015162003b86565b6200352c866080015162003b86565b8660600151863089604001518a6020015160405160240162003555979695949392919062004a36565b60408051601f19818403018152918152602080830180516001600160e01b03166001600160e01b031990951694909417909352519092506000916200359f913091859101620049b8565b6040516020818303038152906040529050600060405180602001620035c49062003fca565b601f1982820381018352601f909101166040819052620035ea9190849060200162004919565b60405160208183030381529060405290506000866040015187602001516040516020016200363192919060f09290921b6001600160f01b0319168252600282015260220190565b604051602081830303815290604052805190602001209050808251602084016000f59450843b6200366157600080fd5b6040808801516020808a015161ffff90921660009081526008825283812092815291815282822080546001600160a01b0319166001600160a01b038a1690811790915582526009905220805460ff191660011790555050505092915050565b606081620036d081601f62004c79565b1015620037115760405162461bcd60e51b815260206004820152600e60248201526d736c6963655f6f766572666c6f7760901b604482015260640162000a40565b6200371d828462004c79565b84511015620037635760405162461bcd60e51b8152602060048201526011602482015270736c6963655f6f75744f66426f756e647360781b604482015260640162000a40565b606082158015620037845760405191506000825260208201604052620037d0565b6040519150601f8416801560200281840101858101878315602002848b0101015b81831015620037bf578051835260209283019201620037a5565b5050858452601f01601f1916604052505b5090505b9392505050565b600080620037f28460400151856020015162000df3565b90506001600160a01b0381166200384c5760405162461bcd60e51b815260206004820152601d60248201527f7772617070656420617373657420646f6573206e6f7420657869737473000000604482015260640162000a40565b806001600160a01b031663a18cd7c66200386a8660a0015162003b86565b62003879876080015162003b86565b866040518463ffffffff1660e01b81526004016200389a93929190620049f3565b600060405180830381600087803b158015620038b557600080fd5b505af1158015620038ca573d6000803e3d6000fd5b50929695505050505050565b600060088260ff1611156200390e57620038f260088362004df9565b620038ff90600a62004cfe565b6200390b908462004c94565b92505b5090919050565b600060088260ff1611156200390e576200393160088362004df9565b6200393e90600a62004cfe565b6200390b908462004dbd565b6040516001600160a01b0380851660248301528316604482015260648101829052620039b79085906323b872dd60e01b906084015b60408051601f198184030181529190526020810180516001600160e01b03166001600160e01b03199093169290921790915262003cc1565b50505050565b6001600160a01b0382166000908152600a60205260409020546001600160401b03620039ea838362004c79565b111562003a585760405162461bcd60e51b815260206004820152603560248201527f7472616e736665722065786365656473206d6178206f75747374616e64696e6760448201527408189c9a5919d959081d1bdad95b88185b5bdd5b9d605a1b606482015260840162000a40565b62003a858362003a69848462004c79565b6001600160a01b039091166000908152600a6020526040902055565b505050565b60006001600160a01b031982161562003adc5760405162461bcd60e51b8152602060048201526013602482015272696e76616c69642045564d206164647265737360681b604482015260640162000a40565b5090565b62001732828262003b06856001600160a01b03166000908152600a602052604090205490565b62003a69919062004ddf565b6040516001600160a01b03831660248201526044810182905262003a8590849063a9059cbb60e01b906064016200397f565b62003b4f8162003d9a565b6040516001600160a01b038216907fbc7cd75a20ee27fd9adebab32041f755214dbc6bffa90cc0225b39da2e5c2d3b90600090a250565b606060005b60208110801562003bc9575082816020811062003bb857634e487b7160e01b600052603260045260246000fd5b1a60f81b6001600160f81b03191615155b1562003be4578062003bdb8162004e4e565b91505062003b8b565b6000816001600160401b0381111562003c0d57634e487b7160e01b600052604160045260246000fd5b6040519080825280601f01601f19166020018201604052801562003c38576020820181803683370190505b50905060005b8281101562003cb95784816020811062003c6857634e487b7160e01b600052603260045260246000fd5b1a60f81b82828151811062003c8d57634e487b7160e01b600052603260045260246000fd5b60200101906001600160f81b031916908160001a9053508062003cb08162004e4e565b91505062003c3e565b509392505050565b600062003d18826040518060400160405280602081526020017f5361666545524332303a206c6f772d6c6576656c2063616c6c206661696c6564815250856001600160a01b031662003e419092919063ffffffff16565b80519091501562003a85578080602001905181019062003d3991906200432b565b62003a855760405162461bcd60e51b815260206004820152602a60248201527f5361666545524332303a204552433230206f7065726174696f6e20646964206e6044820152691bdd081cdd58d8d9595960b21b606482015260840162000a40565b803b62003e005760405162461bcd60e51b815260206004820152602d60248201527f455243313936373a206e657720696d706c656d656e746174696f6e206973206e60448201526c1bdd08184818dbdb9d1c9858dd609a1b606482015260840162000a40565b7f360894a13ba1a3210667c828492db98dca3e2076cc3735a920a3ca505d382bbc80546001600160a01b0319166001600160a01b0392909216919091179055565b606062003e52848460008562003e5a565b949350505050565b60608247101562003ebd5760405162461bcd60e51b815260206004820152602660248201527f416464726573733a20696e73756666696369656e742062616c616e636520666f6044820152651c8818d85b1b60d21b606482015260840162000a40565b843b62003f0d5760405162461bcd60e51b815260206004820152601d60248201527f416464726573733a2063616c6c20746f206e6f6e2d636f6e7472616374000000604482015260640162000a40565b600080866001600160a01b0316858760405162003f2b9190620048fb565b60006040518083038185875af1925050503d806000811462003f6a576040519150601f19603f3d011682016040523d82523d6000602084013e62003f6f565b606091505b509150915062003f8182828662003f8c565b979650505050505050565b6060831562003f9d575081620037d4565b82511562003fae5782518084602001fd5b8160405162461bcd60e51b815260040162000a409190620049de565b6109938062004ed083390190565b80356001600160a01b038116811462003ff057600080fd5b919050565b600082601f83011262004006578081fd5b815160206001600160401b0382111562004024576200402462004e82565b62004034818360051b0162004c1c565b80838252828201915082860187848660071b890101111562004054578586fd5b855b85811015620040c457608080838b03121562004070578788fd5b6200407a62004ba5565b835181528684015187820152604080850151620040978162004ebf565b90820152606084810151620040ac8162004ebf565b90820152855293850193919091019060010162004056565b5090979650505050505050565b8051801515811462003ff057600080fd5b600082601f830112620040f3578081fd5b81356200410a620041048262004c4f565b62004c1c565b8181528460208386010111156200411f578283fd5b816020850160208301379081016020019190915292915050565b600082601f8301126200414a578081fd5b81516200415b620041048262004c4f565b81815284602083860101111562004170578283fd5b62003e5282602083016020870162004e1f565b803562003ff08162004e98565b805162003ff08162004e98565b805162003ff08162004eac565b80516001600160401b038116811462003ff057600080fd5b803562003ff08162004ebf565b805162003ff08162004ebf565b600060208284031215620041ee578081fd5b620037d48262003fd8565b60008060008060008060c0878903121562004212578182fd5b6200421d8762003fd8565b9550602087013594506040870135620042368162004e98565b9350606087013592506080870135915060a0870135620042568162004eac565b809150509295509295509295565b60008060008060008060c087890312156200427d578384fd5b620042888762003fd8565b9550602087013594506040870135620042a18162004e98565b9350606087013592506080870135620042ba8162004eac565b915060a08701356001600160401b03811115620042d5578182fd5b620042e389828a01620040e2565b9150509295509295509295565b6000806040838503121562004303578182fd5b6200430e8362003fd8565b91506020830135620043208162004eac565b809150509250929050565b6000602082840312156200433d578081fd5b620037d482620040d1565b6000602082840312156200435a578081fd5b5035919050565b60006020828403121562004373578081fd5b5051919050565b6000602082840312156200438c578081fd5b81356001600160401b03811115620043a2578182fd5b62003e5284828501620040e2565b600060208284031215620043c2578081fd5b81516001600160401b03811115620043d8578182fd5b62003e528482850162004139565b600060c08284031215620043f8578081fd5b60405160c081018181106001600160401b03821117156200441d576200441d62004e82565b60405282356200442d8162004ebf565b8152602083810135908201526040830135620044498162004e98565b604082015260608301356200445e8162004ebf565b60608201526080838101359082015260a0928301359281019290925250919050565b60006020828403121562004492578081fd5b81356001600160401b0380821115620044a9578283fd5b908301906101008286031215620044be578283fd5b620044c862004bd0565b620044d383620041c2565b81526020830135602082015260408301356040820152620044f76060840162004183565b6060820152608083013560808201526200451460a0840162004183565b60a082015260c083013560c082015260e08301358281111562004535578485fd5b6200454387828601620040e2565b60e08301525095945050505050565b600060e0828403121562004564578081fd5b60405160e081018181106001600160401b038211171562004589576200458962004e82565b6040528235620045998162004ebf565b8082525060208301356020820152604083013560408201526060830135620045c18162004e98565b606082015260808381013590820152620045de60a0840162004183565b60a082015260c083013560c08201528091505092915050565b6000806000606084860312156200460c578081fd5b83516001600160401b038082111562004623578283fd5b90850190610160828803121562004638578283fd5b6200464262004bf6565b6200464d83620041cf565b81526200465d602084016200419d565b602082015262004670604084016200419d565b6040820152620046836060840162004190565b606082015260808301516080820152620046a060a08401620041aa565b60a0820152620046b360c08401620041cf565b60c082015260e083015182811115620046ca578485fd5b620046d88982860162004139565b60e083015250610100620046ee8185016200419d565b90820152610120838101518381111562004706578586fd5b620047148a82870162003ff5565b9183019190915250610140838101519082015294506200473760208701620040d1565b935060408601519150808211156200474d578283fd5b506200475c8682870162004139565b9150509250925092565b60006020828403121562004778578081fd5b8135620037d48162004e98565b60006020828403121562004797578081fd5b8151620037d48162004e98565b60008060408385031215620047b7578182fd5b8235620047c48162004e98565b946020939093013593505050565b60008060008060808587031215620047e8578182fd5b8435620047f58162004e98565b935060208501359250604085013591506060850135620048158162004eac565b939692955090935050565b6000806000806080858703121562004836578182fd5b8435620048438162004e98565b93506020850135925060408501356200485c8162004eac565b915060608501356001600160401b0381111562004877578182fd5b6200488587828801620040e2565b91505092959194509250565b600060208284031215620048a3578081fd5b620037d482620041aa565b600060208284031215620048c0578081fd5b8151620037d48162004ebf565b60008151808452620048e781602086016020860162004e1f565b601f01601f19169290920160200192915050565b600082516200490f81846020870162004e1f565b9190910192915050565b600083516200492d81846020880162004e1f565b8351908301906200494381836020880162004e1f565b01949350505050565b60ff60f81b8960f81b168152876001820152866021820152600061ffff60f01b808860f01b166041840152866043840152808660f01b166063840152508360658301528251620049a481608585016020870162004e1f565b919091016085019998505050505050505050565b6001600160a01b038316815260406020820181905260009062003e5290830184620048cd565b602081526000620037d46020830184620048cd565b60608152600062004a086060830186620048cd565b828103602084015262004a1c8186620048cd565b9150506001600160401b0383166040830152949350505050565b60e08152600062004a4b60e083018a620048cd565b828103602084015262004a5f818a620048cd565b60ff98909816604084015250506001600160401b039490941660608501526001600160a01b0392909216608084015261ffff1660a083015260c09091015292915050565b6020808252600f908201526e34b73b30b634b21032b6b4ba3a32b960891b604082015260600190565b60208082526010908201526f34b73b30b634b2102a3930b739b332b960811b604082015260600190565b6020815260ff8251166020820152602082015160408201526040820151606082015261ffff6060830151166080820152608082015160a0820152600060a083015162004b4860c084018261ffff169052565b5060c083015160e083015260e083015161010080818501525062003e52610120840182620048cd565b63ffffffff8416815260606020820152600062004b926060830185620048cd565b905060ff83166040830152949350505050565b604051608081016001600160401b038111828210171562004bca5762004bca62004e82565b60405290565b60405161010081016001600160401b038111828210171562004bca5762004bca62004e82565b60405161016081016001600160401b038111828210171562004bca5762004bca62004e82565b604051601f8201601f191681016001600160401b038111828210171562004c475762004c4762004e82565b604052919050565b60006001600160401b0382111562004c6b5762004c6b62004e82565b50601f01601f191660200190565b6000821982111562004c8f5762004c8f62004e6c565b500190565b60008262004cb057634e487b7160e01b81526012600452602481fd5b500490565b600181815b8085111562004cf657816000190482111562004cda5762004cda62004e6c565b8085161562004ce857918102915b93841c939080029062004cba565b509250929050565b6000620037d460ff84168360008262004d1a5750600162000d3a565b8162004d295750600062000d3a565b816001811462004d42576002811462004d4d5762004d6d565b600191505062000d3a565b60ff84111562004d615762004d6162004e6c565b50506001821b62000d3a565b5060208310610133831016604e8410600b841016171562004d92575081810a62000d3a565b62004d9e838362004cb5565b806000190482111562004db55762004db562004e6c565b029392505050565b600081600019048311821515161562004dda5762004dda62004e6c565b500290565b60008282101562004df45762004df462004e6c565b500390565b600060ff821660ff84168082101562004e165762004e1662004e6c565b90039392505050565b60005b8381101562004e3c57818101518382015260200162004e22565b83811115620039b75750506000910152565b600060001982141562004e655762004e6562004e6c565b5060010190565b634e487b7160e01b600052601160045260246000fd5b634e487b7160e01b600052604160045260246000fd5b61ffff8116811462004ea957600080fd5b50565b63ffffffff8116811462004ea957600080fd5b60ff8116811462004ea957600080fdfe608060405234801561001057600080fd5b5060405161099338038061099383398101604081905261002f9161048e565b818161005c60017fa3f0ad74e5423aebfd80d3ef4346578335a9a72aeaee59ff6cb3582b35133d51610599565b60008051602061094c8339815191521461008657634e487b7160e01b600052600160045260246000fd5b6100928282600061009b565b505050506105fe565b6100a483610175565b6040516001600160a01b038416907f1cf3b03a6cf19fa2baba4df148e9dcabedea7f8a5c07840e207e5c089be95d3e90600090a26000825111806100e55750805b156101705761016e836001600160a01b0316635c60da1b6040518163ffffffff1660e01b815260040160206040518083038186803b15801561012657600080fd5b505afa15801561013a573d6000803e3d6000fd5b505050506040513d601f19601f8201168201806040525081019061015e9190610474565b8361031560201b6100291760201c565b505b505050565b6101888161034160201b6100551760201c565b6101e75760405162461bcd60e51b815260206004820152602560248201527f455243313936373a206e657720626561636f6e206973206e6f74206120636f6e6044820152641d1c9858dd60da1b60648201526084015b60405180910390fd5b61026a816001600160a01b0316635c60da1b6040518163ffffffff1660e01b815260040160206040518083038186803b15801561022357600080fd5b505afa158015610237573d6000803e3d6000fd5b505050506040513d601f19601f8201168201806040525081019061025b9190610474565b61034160201b6100551760201c565b6102cf5760405162461bcd60e51b815260206004820152603060248201527f455243313936373a20626561636f6e20696d706c656d656e746174696f6e206960448201526f1cc81b9bdd08184818dbdb9d1c9858dd60821b60648201526084016101de565b806102f460008051602061094c83398151915260001b61034760201b61005b1760201c565b80546001600160a01b0319166001600160a01b039290921691909117905550565b606061033a838360405180606001604052806027815260200161096c6027913961034a565b9392505050565b3b151590565b90565b6060833b6103a95760405162461bcd60e51b815260206004820152602660248201527f416464726573733a2064656c65676174652063616c6c20746f206e6f6e2d636f6044820152651b9d1c9858dd60d21b60648201526084016101de565b600080856001600160a01b0316856040516103c4919061054a565b600060405180830381855af49150503d80600081146103ff576040519150601f19603f3d011682016040523d82523d6000602084013e610404565b606091505b50909250905061041582828661041f565b9695505050505050565b6060831561042e57508161033a565b82511561043e5782518084602001fd5b8160405162461bcd60e51b81526004016101de9190610566565b80516001600160a01b038116811461046f57600080fd5b919050565b600060208284031215610485578081fd5b61033a82610458565b600080604083850312156104a0578081fd5b6104a983610458565b60208401519092506001600160401b03808211156104c5578283fd5b818501915085601f8301126104d8578283fd5b8151818111156104ea576104ea6105e8565b604051601f8201601f19908116603f01168101908382118183101715610512576105126105e8565b8160405282815288602084870101111561052a578586fd5b61053b8360208301602088016105bc565b80955050505050509250929050565b6000825161055c8184602087016105bc565b9190910192915050565b60208152600082518060208401526105858160408501602087016105bc565b601f01601f19169190910160400192915050565b6000828210156105b757634e487b7160e01b81526011600452602481fd5b500390565b60005b838110156105d75781810151838201526020016105bf565b8381111561016e5750506000910152565b634e487b7160e01b600052604160045260246000fd5b61033f8061060d6000396000f3fe60806040523661001357610011610017565b005b6100115b61002761002261005e565b610106565b565b606061004e83836040518060600160405280602781526020016102e36027913961012a565b9392505050565b3b151590565b90565b60006100917fa3f0ad74e5423aebfd80d3ef4346578335a9a72aeaee59ff6cb3582b35133d50546001600160a01b031690565b6001600160a01b0316635c60da1b6040518163ffffffff1660e01b815260040160206040518083038186803b1580156100c957600080fd5b505afa1580156100dd573d6000803e3d6000fd5b505050506040513d601f19601f82011682018060405250810190610101919061023c565b905090565b3660008037600080366000845af43d6000803e808015610125573d6000f35b3d6000fd5b6060833b61018e5760405162461bcd60e51b815260206004820152602660248201527f416464726573733a2064656c65676174652063616c6c20746f206e6f6e2d636f6044820152651b9d1c9858dd60d21b60648201526084015b60405180910390fd5b600080856001600160a01b0316856040516101a99190610263565b600060405180830381855af49150503d80600081146101e4576040519150601f19603f3d011682016040523d82523d6000602084013e6101e9565b606091505b50915091506101f9828286610203565b9695505050505050565b6060831561021257508161004e565b8251156102225782518084602001fd5b8160405162461bcd60e51b8152600401610185919061027f565b60006020828403121561024d578081fd5b81516001600160a01b038116811461004e578182fd5b600082516102758184602087016102b2565b9190910192915050565b602081526000825180602084015261029e8160408501602087016102b2565b601f01601f19169190910160400192915050565b60005b838110156102cd5781810151838201526020016102b5565b838111156102dc576000848401525b5050505056fe416464726573733a206c6f772d6c6576656c2064656c65676174652063616c6c206661696c6564a26469706673582212203e23ac4f79a95247999f8e0df94ea5bd5e38561ccfd051b0ea50ba9aea59b8f164736f6c63430008040033a3f0ad74e5423aebfd80d3ef4346578335a9a72aeaee59ff6cb3582b35133d50416464726573733a206c6f772d6c6576656c2064656c65676174652063616c6c206661696c6564676f7665726e616e636520616374696f6e20616c726561647920636f6e73756d6564a2646970667358221220e3aa8b734d4cb3d694736c5bbbbf83c3c972bb39e473583804611efdc843b02e64736f6c63430008040033",
  "immutableReferences": {},
  "source": "// contracts/Bridge.sol\n// SPDX-License-Identifier: Apache 2\n\npragma solidity ^0.8.0;\n\nimport \"@openzeppelin/contracts/security/ReentrancyGuard.sol\";\nimport \"@openzeppelin/contracts/token/ERC20/IERC20.sol\";\nimport \"@openzeppelin/contracts/token/ERC20/utils/SafeERC20.sol\";\n\nimport \"../libraries/external/BytesLib.sol\";\n\nimport \"./BridgeGetters.sol\";\nimport \"./BridgeSetters.sol\";\nimport \"./BridgeStructs.sol\";\nimport \"./BridgeGovernance.sol\";\n\nimport \"./token/Token.sol\";\nimport \"./token/TokenImplementation.sol\";\n\ncontract Bridge is BridgeGovernance, ReentrancyGuard {\n    using BytesLib for bytes;\n\n    /*\n     *  @dev Produce a AssetMeta message for a given token\n     */\n    function attestToken(address tokenAddress, uint32 nonce) public payable returns (uint64 sequence) {\n        // decimals, symbol & token are not part of the core ERC20 token standard, so we need to support contracts that dont implement them\n        (,bytes memory queriedDecimals) = tokenAddress.staticcall(abi.encodeWithSignature(\"decimals()\"));\n        (,bytes memory queriedSymbol) = tokenAddress.staticcall(abi.encodeWithSignature(\"symbol()\"));\n        (,bytes memory queriedName) = tokenAddress.staticcall(abi.encodeWithSignature(\"name()\"));\n\n        uint8 decimals = abi.decode(queriedDecimals, (uint8));\n\n        string memory symbolString = abi.decode(queriedSymbol, (string));\n        string memory nameString = abi.decode(queriedName, (string));\n\n        bytes32 symbol;\n        bytes32 name;\n        assembly {\n            // first 32 bytes hold string length\n            symbol := mload(add(symbolString, 32))\n            name := mload(add(nameString, 32))\n        }\n\n        BridgeStructs.AssetMeta memory meta = BridgeStructs.AssetMeta({\n        payloadID : 2,\n        tokenAddress : bytes32(uint256(uint160(tokenAddress))), // Address of the token. Left-zero-padded if shorter than 32 bytes\n        tokenChain : chainId(), // Chain ID of the token\n        decimals : decimals, // Number of decimals of the token (big-endian uint8)\n        symbol : symbol, // Symbol of the token (UTF-8)\n        name : name // Name of the token (UTF-8)\n        });\n\n        bytes memory encoded = encodeAssetMeta(meta);\n\n        sequence = wormhole().publishMessage{\n            value : msg.value\n        }(nonce, encoded, finality());\n    }\n\n    /*\n     *  @notice Send eth through portal by first wrapping it to WETH.\n     */\n    function wrapAndTransferETH(\n        uint16 recipientChain,\n        bytes32 recipient,\n        uint256 arbiterFee,\n        uint32 nonce\n    ) public payable returns (uint64 sequence) {\n        BridgeStructs.TransferResult\n            memory transferResult = _wrapAndTransferETH(arbiterFee);\n        sequence = logTransfer(\n            transferResult.tokenChain,\n            transferResult.tokenAddress,\n            transferResult.normalizedAmount,\n            recipientChain,\n            recipient,\n            transferResult.normalizedArbiterFee,\n            transferResult.wormholeFee,\n            nonce\n        );\n    }\n\n    /*\n     *  @notice Send eth through portal by first wrapping it.\n     *\n     *  @dev This type of transfer is called a \"contract-controlled transfer\".\n     *  There are three differences from a regular token transfer:\n     *  1) Additional arbitrary payload can be attached to the message\n     *  2) Only the recipient (typically a contract) can redeem the transaction\n     *  3) The sender's address (msg.sender) is also included in the transaction payload\n     *\n     *  With these three additional components, xDapps can implement cross-chain\n     *  composable interactions.\n     */\n    function wrapAndTransferETHWithPayload(\n        uint16 recipientChain,\n        bytes32 recipient,\n        uint32 nonce,\n        bytes memory payload\n    ) public payable returns (uint64 sequence) {\n        BridgeStructs.TransferResult\n            memory transferResult = _wrapAndTransferETH(0);\n        sequence = logTransferWithPayload(\n            transferResult.tokenChain,\n            transferResult.tokenAddress,\n            transferResult.normalizedAmount,\n            recipientChain,\n            recipient,\n            transferResult.wormholeFee,\n            nonce,\n            payload\n        );\n    }\n\n    function _wrapAndTransferETH(uint256 arbiterFee) internal returns (BridgeStructs.TransferResult memory transferResult) {\n        uint wormholeFee = wormhole().messageFee();\n\n        require(wormholeFee < msg.value, \"value is smaller than wormhole fee\");\n\n        uint amount = msg.value - wormholeFee;\n\n        require(arbiterFee <= amount, \"fee is bigger than amount minus wormhole fee\");\n\n        uint normalizedAmount = normalizeAmount(amount, 18);\n        uint normalizedArbiterFee = normalizeAmount(arbiterFee, 18);\n\n        // refund dust\n        uint dust = amount - deNormalizeAmount(normalizedAmount, 18);\n        if (dust > 0) {\n            payable(msg.sender).transfer(dust);\n        }\n\n        // deposit into WETH\n        WETH().deposit{\n            value : amount - dust\n        }();\n\n        // track and check outstanding token amounts\n        bridgeOut(address(WETH()), normalizedAmount);\n\n        transferResult = BridgeStructs.TransferResult({\n            tokenChain : chainId(),\n            tokenAddress : bytes32(uint256(uint160(address(WETH())))),\n            normalizedAmount : normalizedAmount,\n            normalizedArbiterFee : normalizedArbiterFee,\n            wormholeFee : wormholeFee\n        });\n    }\n\n    /*\n     *  @notice Send ERC20 token through portal.\n     */\n    function transferTokens(\n        address token,\n        uint256 amount,\n        uint16 recipientChain,\n        bytes32 recipient,\n        uint256 arbiterFee,\n        uint32 nonce\n    ) public payable nonReentrant returns (uint64 sequence) {\n        BridgeStructs.TransferResult memory transferResult = _transferTokens(\n            token,\n            amount,\n            arbiterFee\n        );\n        sequence = logTransfer(\n            transferResult.tokenChain,\n            transferResult.tokenAddress,\n            transferResult.normalizedAmount,\n            recipientChain,\n            recipient,\n            transferResult.normalizedArbiterFee,\n            transferResult.wormholeFee,\n            nonce\n        );\n    }\n\n    /*\n     *  @notice Send ERC20 token through portal.\n     *\n     *  @dev This type of transfer is called a \"contract-controlled transfer\".\n     *  There are three differences from a regular token transfer:\n     *  1) Additional arbitrary payload can be attached to the message\n     *  2) Only the recipient (typically a contract) can redeem the transaction\n     *  3) The sender's address (msg.sender) is also included in the transaction payload\n     *\n     *  With these three additional components, xDapps can implement cross-chain\n     *  composable interactions.\n     */\n    function transferTokensWithPayload(\n        address token,\n        uint256 amount,\n        uint16 recipientChain,\n        bytes32 recipient,\n        uint32 nonce,\n        bytes memory payload\n    ) public payable nonReentrant returns (uint64 sequence) {\n        BridgeStructs.TransferResult memory transferResult = _transferTokens(\n            token,\n            amount,\n            0\n        );\n        sequence = logTransferWithPayload(\n            transferResult.tokenChain,\n            transferResult.tokenAddress,\n            transferResult.normalizedAmount,\n            recipientChain,\n            recipient,\n            transferResult.wormholeFee,\n            nonce,\n            payload\n        );\n    }\n\n    /*\n     *  @notice Initiate a transfer\n     */\n    function _transferTokens(address token, uint256 amount, uint256 arbiterFee) internal returns (BridgeStructs.TransferResult memory transferResult) {\n        // determine token parameters\n        uint16 tokenChain;\n        bytes32 tokenAddress;\n        if (isWrappedAsset(token)) {\n            tokenChain = TokenImplementation(token).chainId();\n            tokenAddress = TokenImplementation(token).nativeContract();\n        } else {\n            tokenChain = chainId();\n            tokenAddress = bytes32(uint256(uint160(token)));\n        }\n\n        // query tokens decimals\n        (,bytes memory queriedDecimals) = token.staticcall(abi.encodeWithSignature(\"decimals()\"));\n        uint8 decimals = abi.decode(queriedDecimals, (uint8));\n\n        // don't deposit dust that can not be bridged due to the decimal shift\n        amount = deNormalizeAmount(normalizeAmount(amount, decimals), decimals);\n\n        if (tokenChain == chainId()) {\n            // query own token balance before transfer\n            (,bytes memory queriedBalanceBefore) = token.staticcall(abi.encodeWithSelector(IERC20.balanceOf.selector, address(this)));\n            uint256 balanceBefore = abi.decode(queriedBalanceBefore, (uint256));\n\n            // transfer tokens\n            SafeERC20.safeTransferFrom(IERC20(token), msg.sender, address(this), amount);\n\n            // query own token balance after transfer\n            (,bytes memory queriedBalanceAfter) = token.staticcall(abi.encodeWithSelector(IERC20.balanceOf.selector, address(this)));\n            uint256 balanceAfter = abi.decode(queriedBalanceAfter, (uint256));\n\n            // correct amount for potential transfer fees\n            amount = balanceAfter - balanceBefore;\n        } else {\n            SafeERC20.safeTransferFrom(IERC20(token), msg.sender, address(this), amount);\n\n            TokenImplementation(token).burn(address(this), amount);\n        }\n\n        // normalize amounts decimals\n        uint256 normalizedAmount = normalizeAmount(amount, decimals);\n        uint256 normalizedArbiterFee = normalizeAmount(arbiterFee, decimals);\n\n        // track and check outstanding token amounts\n        if (tokenChain == chainId()) {\n            bridgeOut(token, normalizedAmount);\n        }\n\n        transferResult = BridgeStructs.TransferResult({\n            tokenChain : tokenChain,\n            tokenAddress : tokenAddress,\n            normalizedAmount : normalizedAmount,\n            normalizedArbiterFee : normalizedArbiterFee,\n            wormholeFee : msg.value\n        });\n    }\n\n    function normalizeAmount(uint256 amount, uint8 decimals) internal pure returns(uint256){\n        if (decimals > 8) {\n            amount /= 10 ** (decimals - 8);\n        }\n        return amount;\n    }\n\n    function deNormalizeAmount(uint256 amount, uint8 decimals) internal pure returns(uint256){\n        if (decimals > 8) {\n            amount *= 10 ** (decimals - 8);\n        }\n        return amount;\n    }\n\n    function logTransfer(\n        uint16 tokenChain,\n        bytes32 tokenAddress,\n        uint256 amount,\n        uint16 recipientChain,\n        bytes32 recipient,\n        uint256 fee,\n        uint256 callValue,\n        uint32 nonce\n    ) internal returns (uint64 sequence) {\n        require(fee <= amount, \"fee exceeds amount\");\n\n        BridgeStructs.Transfer memory transfer = BridgeStructs.Transfer({\n            payloadID: 1,\n            amount: amount,\n            tokenAddress: tokenAddress,\n            tokenChain: tokenChain,\n            to: recipient,\n            toChain: recipientChain,\n            fee: fee\n        });\n\n        bytes memory encoded = encodeTransfer(transfer);\n\n        sequence = wormhole().publishMessage{value: callValue}(\n            nonce,\n            encoded,\n            finality()\n        );\n    }\n\n    /*\n     * @dev Publish a token transfer message with payload.\n     *\n     * @return The sequence number of the published message.\n     */\n    function logTransferWithPayload(\n        uint16 tokenChain,\n        bytes32 tokenAddress,\n        uint256 amount,\n        uint16 recipientChain,\n        bytes32 recipient,\n        uint256 callValue,\n        uint32 nonce,\n        bytes memory payload\n    ) internal returns (uint64 sequence) {\n\n        BridgeStructs.TransferWithPayload memory transfer = BridgeStructs\n            .TransferWithPayload({\n                payloadID: 3,\n                amount: amount,\n                tokenAddress: tokenAddress,\n                tokenChain: tokenChain,\n                to: recipient,\n                toChain: recipientChain,\n                fromAddress : bytes32(uint256(uint160(msg.sender))),\n                payload: payload\n            });\n\n        bytes memory encoded = encodeTransferWithPayload(transfer);\n\n        sequence = wormhole().publishMessage{value: callValue}(\n            nonce,\n            encoded,\n            finality()\n        );\n    }\n    function updateWrapped(bytes memory encodedVm) external returns (address token) {\n        (IWormhole.VM memory vm, bool valid, string memory reason) = wormhole().parseAndVerifyVM(encodedVm);\n\n        require(valid, reason);\n        require(verifyBridgeVM(vm), \"invalid emitter\");\n\n        BridgeStructs.AssetMeta memory meta = parseAssetMeta(vm.payload);\n        return _updateWrapped(meta, vm.sequence);\n    }\n\n    function _updateWrapped(BridgeStructs.AssetMeta memory meta, uint64 sequence) internal returns (address token) {\n        address wrapped = wrappedAsset(meta.tokenChain, meta.tokenAddress);\n        require(wrapped != address(0), \"wrapped asset does not exists\");\n\n        // Update metadata\n        TokenImplementation(wrapped).updateDetails(bytes32ToString(meta.name), bytes32ToString(meta.symbol), sequence);\n\n        return wrapped;\n    }\n\n    function createWrapped(bytes memory encodedVm) external returns (address token) {\n        (IWormhole.VM memory vm, bool valid, string memory reason) = wormhole().parseAndVerifyVM(encodedVm);\n\n        require(valid, reason);\n        require(verifyBridgeVM(vm), \"invalid emitter\");\n\n        BridgeStructs.AssetMeta memory meta = parseAssetMeta(vm.payload);\n        return _createWrapped(meta, vm.sequence);\n    }\n\n    // Creates a wrapped asset using AssetMeta\n    function _createWrapped(BridgeStructs.AssetMeta memory meta, uint64 sequence) internal returns (address token) {\n        require(meta.tokenChain != chainId(), \"can only wrap tokens from foreign chains\");\n        require(wrappedAsset(meta.tokenChain, meta.tokenAddress) == address(0), \"wrapped asset already exists\");\n\n        // initialize the TokenImplementation\n        bytes memory initialisationArgs = abi.encodeWithSelector(\n            TokenImplementation.initialize.selector,\n            bytes32ToString(meta.name),\n            bytes32ToString(meta.symbol),\n            meta.decimals,\n            sequence,\n\n            address(this),\n\n            meta.tokenChain,\n            meta.tokenAddress\n        );\n\n        // initialize the BeaconProxy\n        bytes memory constructorArgs = abi.encode(address(this), initialisationArgs);\n\n        // deployment code\n        bytes memory bytecode = abi.encodePacked(type(BridgeToken).creationCode, constructorArgs);\n\n        bytes32 salt = keccak256(abi.encodePacked(meta.tokenChain, meta.tokenAddress));\n\n        assembly {\n            token := create2(0, add(bytecode, 0x20), mload(bytecode), salt)\n\n            if iszero(extcodesize(token)) {\n                revert(0, 0)\n            }\n        }\n\n        setWrappedAsset(meta.tokenChain, meta.tokenAddress, token);\n    }\n\n    /*\n     * @notice Complete a contract-controlled transfer of an ERC20 token.\n     *\n     * @dev The transaction can only be redeemed by the recipient, typically a\n     * contract.\n     *\n     * @param encodedVm    A byte array containing a VAA signed by the guardians.\n     *\n     * @return The byte array representing a BridgeStructs.TransferWithPayload.\n     */\n    function completeTransferWithPayload(bytes memory encodedVm) public returns (bytes memory) {\n        return _completeTransfer(encodedVm, false);\n    }\n\n    /*\n     * @notice Complete a contract-controlled transfer of WETH, and unwrap to ETH.\n     *\n     * @dev The transaction can only be redeemed by the recipient, typically a\n     * contract.\n     *\n     * @param encodedVm    A byte array containing a VAA signed by the guardians.\n     *\n     * @return The byte array representing a BridgeStructs.TransferWithPayload.\n     */\n    function completeTransferAndUnwrapETHWithPayload(bytes memory encodedVm) public returns (bytes memory) {\n        return _completeTransfer(encodedVm, true);\n    }\n\n    /*\n     * @notice Complete a transfer of an ERC20 token.\n     *\n     * @dev The msg.sender gets paid the associated fee.\n     *\n     * @param encodedVm A byte array containing a VAA signed by the guardians.\n     */\n    function completeTransfer(bytes memory encodedVm) public {\n        _completeTransfer(encodedVm, false);\n    }\n\n    /*\n     * @notice Complete a transfer of WETH and unwrap to eth.\n     *\n     * @dev The msg.sender gets paid the associated fee.\n     *\n     * @param encodedVm A byte array containing a VAA signed by the guardians.\n     */\n    function completeTransferAndUnwrapETH(bytes memory encodedVm) public {\n        _completeTransfer(encodedVm, true);\n    }\n\n    /*\n     * @dev Truncate a 32 byte array to a 20 byte address.\n     *      Reverts if the array contains non-0 bytes in the first 12 bytes.\n     *\n     * @param bytes32 bytes The 32 byte array to be converted.\n     */\n    function _truncateAddress(bytes32 b) internal pure returns (address) {\n        require(bytes12(b) == 0, \"invalid EVM address\");\n        return address(uint160(uint256(b)));\n    }\n\n    // Execute a Transfer message\n    function _completeTransfer(bytes memory encodedVm, bool unwrapWETH) internal returns (bytes memory) {\n        (IWormhole.VM memory vm, bool valid, string memory reason) = wormhole().parseAndVerifyVM(encodedVm);\n\n        require(valid, reason);\n        require(verifyBridgeVM(vm), \"invalid emitter\");\n\n        BridgeStructs.Transfer memory transfer = _parseTransferCommon(vm.payload);\n\n        // payload 3 must be redeemed by the designated proxy contract\n        address transferRecipient = _truncateAddress(transfer.to);\n        if (transfer.payloadID == 3) {\n            require(msg.sender == transferRecipient, \"invalid sender\");\n        }\n\n        require(!isTransferCompleted(vm.hash), \"transfer already completed\");\n        setTransferCompleted(vm.hash);\n\n        require(transfer.toChain == chainId(), \"invalid target chain\");\n\n        IERC20 transferToken;\n        if (transfer.tokenChain == chainId()) {\n            transferToken = IERC20(_truncateAddress(transfer.tokenAddress));\n\n            // track outstanding token amounts\n            bridgedIn(address(transferToken), transfer.amount);\n        } else {\n            address wrapped = wrappedAsset(transfer.tokenChain, transfer.tokenAddress);\n            require(wrapped != address(0), \"no wrapper for this token created yet\");\n\n            transferToken = IERC20(wrapped);\n        }\n\n        require(unwrapWETH == false || address(transferToken) == address(WETH()), \"invalid token, can only unwrap WETH\");\n\n        // query decimals\n        (,bytes memory queriedDecimals) = address(transferToken).staticcall(abi.encodeWithSignature(\"decimals()\"));\n        uint8 decimals = abi.decode(queriedDecimals, (uint8));\n\n        // adjust decimals\n        uint256 nativeAmount = deNormalizeAmount(transfer.amount, decimals);\n        uint256 nativeFee = deNormalizeAmount(transfer.fee, decimals);\n\n        // transfer fee to arbiter\n        if (nativeFee > 0 && transferRecipient != msg.sender) {\n            require(nativeFee <= nativeAmount, \"fee higher than transferred amount\");\n\n            if (unwrapWETH) {\n                WETH().withdraw(nativeFee);\n\n                payable(msg.sender).transfer(nativeFee);\n            } else {\n                if (transfer.tokenChain != chainId()) {\n                    // mint wrapped asset\n                    TokenImplementation(address(transferToken)).mint(msg.sender, nativeFee);\n                } else {\n                    SafeERC20.safeTransfer(transferToken, msg.sender, nativeFee);\n                }\n            }\n        } else {\n            // set fee to zero in case transferRecipient == feeRecipient\n            nativeFee = 0;\n        }\n\n        // transfer bridged amount to recipient\n        uint transferAmount = nativeAmount - nativeFee;\n\n        if (unwrapWETH) {\n            WETH().withdraw(transferAmount);\n\n            payable(transferRecipient).transfer(transferAmount);\n        } else {\n            if (transfer.tokenChain != chainId()) {\n                // mint wrapped asset\n                TokenImplementation(address(transferToken)).mint(transferRecipient, transferAmount);\n            } else {\n                SafeERC20.safeTransfer(transferToken, transferRecipient, transferAmount);\n            }\n        }\n\n        return vm.payload;\n    }\n\n    function bridgeOut(address token, uint normalizedAmount) internal {\n        uint outstanding = outstandingBridged(token);\n        require(outstanding + normalizedAmount <= type(uint64).max, \"transfer exceeds max outstanding bridged token amount\");\n        setOutstandingBridged(token, outstanding + normalizedAmount);\n    }\n\n    function bridgedIn(address token, uint normalizedAmount) internal {\n        setOutstandingBridged(token, outstandingBridged(token) - normalizedAmount);\n    }\n\n    function verifyBridgeVM(IWormhole.VM memory vm) internal view returns (bool){\n        if (bridgeContracts(vm.emitterChainId) == vm.emitterAddress) {\n            return true;\n        }\n\n        return false;\n    }\n\n    function encodeAssetMeta(BridgeStructs.AssetMeta memory meta) public pure returns (bytes memory encoded) {\n        encoded = abi.encodePacked(\n            meta.payloadID,\n            meta.tokenAddress,\n            meta.tokenChain,\n            meta.decimals,\n            meta.symbol,\n            meta.name\n        );\n    }\n\n    function encodeTransfer(BridgeStructs.Transfer memory transfer) public pure returns (bytes memory encoded) {\n        encoded = abi.encodePacked(\n            transfer.payloadID,\n            transfer.amount,\n            transfer.tokenAddress,\n            transfer.tokenChain,\n            transfer.to,\n            transfer.toChain,\n            transfer.fee\n        );\n    }\n\n    function encodeTransferWithPayload(BridgeStructs.TransferWithPayload memory transfer) public pure returns (bytes memory encoded) {\n        encoded = abi.encodePacked(\n            transfer.payloadID,\n            transfer.amount,\n            transfer.tokenAddress,\n            transfer.tokenChain,\n            transfer.to,\n            transfer.toChain,\n            transfer.fromAddress,\n            transfer.payload\n        );\n    }\n\n    function parsePayloadID(bytes memory encoded) public pure returns (uint8 payloadID) {\n        payloadID = encoded.toUint8(0);\n    }\n\n    /*\n     * @dev Parse a token metadata attestation (payload id 2)\n     */\n    function parseAssetMeta(bytes memory encoded) public pure returns (BridgeStructs.AssetMeta memory meta) {\n        uint index = 0;\n\n        meta.payloadID = encoded.toUint8(index);\n        index += 1;\n\n        require(meta.payloadID == 2, \"invalid AssetMeta\");\n\n        meta.tokenAddress = encoded.toBytes32(index);\n        index += 32;\n\n        meta.tokenChain = encoded.toUint16(index);\n        index += 2;\n\n        meta.decimals = encoded.toUint8(index);\n        index += 1;\n\n        meta.symbol = encoded.toBytes32(index);\n        index += 32;\n\n        meta.name = encoded.toBytes32(index);\n        index += 32;\n\n        require(encoded.length == index, \"invalid AssetMeta\");\n    }\n\n    /*\n     * @dev Parse a token transfer (payload id 1).\n     *\n     * @params encoded The byte array corresponding to the token transfer (not\n     *                 the whole VAA, only the payload)\n     */\n    function parseTransfer(bytes memory encoded) public pure returns (BridgeStructs.Transfer memory transfer) {\n        uint index = 0;\n\n        transfer.payloadID = encoded.toUint8(index);\n        index += 1;\n\n        require(transfer.payloadID == 1, \"invalid Transfer\");\n\n        transfer.amount = encoded.toUint256(index);\n        index += 32;\n\n        transfer.tokenAddress = encoded.toBytes32(index);\n        index += 32;\n\n        transfer.tokenChain = encoded.toUint16(index);\n        index += 2;\n\n        transfer.to = encoded.toBytes32(index);\n        index += 32;\n\n        transfer.toChain = encoded.toUint16(index);\n        index += 2;\n\n        transfer.fee = encoded.toUint256(index);\n        index += 32;\n\n        require(encoded.length == index, \"invalid Transfer\");\n    }\n\n    /*\n     * @dev Parse a token transfer with payload (payload id 3).\n     *\n     * @params encoded The byte array corresponding to the token transfer (not\n     *                 the whole VAA, only the payload)\n     */\n    function parseTransferWithPayload(bytes memory encoded) public pure returns (BridgeStructs.TransferWithPayload memory transfer) {\n        uint index = 0;\n\n        transfer.payloadID = encoded.toUint8(index);\n        index += 1;\n\n        require(transfer.payloadID == 3, \"invalid Transfer\");\n\n        transfer.amount = encoded.toUint256(index);\n        index += 32;\n\n        transfer.tokenAddress = encoded.toBytes32(index);\n        index += 32;\n\n        transfer.tokenChain = encoded.toUint16(index);\n        index += 2;\n\n        transfer.to = encoded.toBytes32(index);\n        index += 32;\n\n        transfer.toChain = encoded.toUint16(index);\n        index += 2;\n\n        transfer.fromAddress = encoded.toBytes32(index);\n        index += 32;\n\n        transfer.payload = encoded.slice(index, encoded.length - index);\n    }\n\n    /*\n     * @dev Parses either a type 1 transfer or a type 3 transfer (\"transfer with\n     *      payload\") as a Transfer struct. The fee is set to 0 for type 3\n     *      transfers, since they have no fees associated with them.\n     *\n     *      The sole purpose of this function is to get around the local\n     *      variable count limitation in _completeTransfer.\n     */\n    function _parseTransferCommon(bytes memory encoded) public pure returns (BridgeStructs.Transfer memory transfer) {\n        uint8 payloadID = parsePayloadID(encoded);\n\n        if (payloadID == 1) {\n            transfer = parseTransfer(encoded);\n        } else if (payloadID == 3) {\n            BridgeStructs.TransferWithPayload memory t = parseTransferWithPayload(encoded);\n            transfer.payloadID = 3;\n            transfer.amount = t.amount;\n            transfer.tokenAddress = t.tokenAddress;\n            transfer.tokenChain = t.tokenChain;\n            transfer.to = t.to;\n            transfer.toChain = t.toChain;\n            // Type 3 payloads don't have fees.\n            transfer.fee = 0;\n        } else {\n            revert(\"Invalid payload id\");\n        }\n    }\n\n    function bytes32ToString(bytes32 input) internal pure returns (string memory) {\n        uint256 i;\n        while (i < 32 && input[i] != 0) {\n            i++;\n        }\n        bytes memory array = new bytes(i);\n        for (uint c = 0; c < i; c++) {\n            array[c] = input[c];\n        }\n        return string(array);\n    }\n\n    // we need to accept ETH sends to unwrap WETH\n    receive() external payable {}\n}\n",
  "sourcePath": "/home/asterioti/generic-relayer/ethereum/contracts/bridge/Bridge.sol",
  "compiler": {
    "name": "solc",
    "version": "0.8.4+commit.c7e474f2.Emscripten.clang"
  },
  "schemaVersion": "3.4.1",
  "updatedAt": "2022-09-09T01:32:04.479Z",
  "devdoc": {
    "kind": "dev",
    "methods": {},
    "version": 1
  },
  "userdoc": {
    "kind": "user",
    "methods": {},
    "version": 1
  }
}