{
  "contractName": "BridgeGetters",
  "abi": [
    {
      "inputs": [
        {
          "internalType": "bytes32",
          "name": "hash",
          "type": "bytes32"
        }
      ],
      "name": "governanceActionIsConsumed",
      "outputs": [
        {
          "internalType": "bool",
          "name": "",
          "type": "bool"
        }
      ],
      "stateMutability": "view",
      "type": "function"
    },
    {
      "inputs": [
        {
          "internalType": "address",
          "name": "impl",
          "type": "address"
        }
      ],
      "name": "isInitialized",
      "outputs": [
        {
          "internalType": "bool",
          "name": "",
          "type": "bool"
        }
      ],
      "stateMutability": "view",
      "type": "function"
    },
    {
      "inputs": [
        {
          "internalType": "bytes32",
          "name": "hash",
          "type": "bytes32"
        }
      ],
      "name": "isTransferCompleted",
      "outputs": [
        {
          "internalType": "bool",
          "name": "",
          "type": "bool"
        }
      ],
      "stateMutability": "view",
      "type": "function"
    },
    {
      "inputs": [],
      "name": "wormhole",
      "outputs": [
        {
          "internalType": "contract IWormhole",
          "name": "",
          "type": "address"
        }
      ],
      "stateMutability": "view",
      "type": "function"
    },
    {
      "inputs": [],
      "name": "chainId",
      "outputs": [
        {
          "internalType": "uint16",
          "name": "",
          "type": "uint16"
        }
      ],
      "stateMutability": "view",
      "type": "function"
    },
    {
      "inputs": [],
      "name": "governanceChainId",
      "outputs": [
        {
          "internalType": "uint16",
          "name": "",
          "type": "uint16"
        }
      ],
      "stateMutability": "view",
      "type": "function"
    },
    {
      "inputs": [],
      "name": "governanceContract",
      "outputs": [
        {
          "internalType": "bytes32",
          "name": "",
          "type": "bytes32"
        }
      ],
      "stateMutability": "view",
      "type": "function"
    },
    {
      "inputs": [
        {
          "internalType": "uint16",
          "name": "tokenChainId",
          "type": "uint16"
        },
        {
          "internalType": "bytes32",
          "name": "tokenAddress",
          "type": "bytes32"
        }
      ],
      "name": "wrappedAsset",
      "outputs": [
        {
          "internalType": "address",
          "name": "",
          "type": "address"
        }
      ],
      "stateMutability": "view",
      "type": "function"
    },
    {
      "inputs": [
        {
          "internalType": "uint16",
          "name": "chainId_",
          "type": "uint16"
        }
      ],
      "name": "bridgeContracts",
      "outputs": [
        {
          "internalType": "bytes32",
          "name": "",
          "type": "bytes32"
        }
      ],
      "stateMutability": "view",
      "type": "function"
    },
    {
      "inputs": [],
      "name": "tokenImplementation",
      "outputs": [
        {
          "internalType": "address",
          "name": "",
          "type": "address"
        }
      ],
      "stateMutability": "view",
      "type": "function"
    },
    {
      "inputs": [],
      "name": "WETH",
      "outputs": [
        {
          "internalType": "contract IWETH",
          "name": "",
          "type": "address"
        }
      ],
      "stateMutability": "view",
      "type": "function"
    },
    {
      "inputs": [
        {
          "internalType": "address",
          "name": "token",
          "type": "address"
        }
      ],
      "name": "outstandingBridged",
      "outputs": [
        {
          "internalType": "uint256",
          "name": "",
          "type": "uint256"
        }
      ],
      "stateMutability": "view",
      "type": "function"
    },
    {
      "inputs": [
        {
          "internalType": "address",
          "name": "token",
          "type": "address"
        }
      ],
      "name": "isWrappedAsset",
      "outputs": [
        {
          "internalType": "bool",
          "name": "",
          "type": "bool"
        }
      ],
      "stateMutability": "view",
      "type": "function"
    },
    {
      "inputs": [],
      "name": "finality",
      "outputs": [
        {
          "internalType": "uint8",
          "name": "",
          "type": "uint8"
        }
      ],
      "stateMutability": "view",
      "type": "function"
    }
  ],
  "bytecode": "0x608060405234801561001057600080fd5b506103ad806100206000396000f3fe608060405234801561001057600080fd5b50600436106100ea5760003560e01c8063aa4efa5b1161008c578063b172b22211610066578063b172b22214610268578063b96c7e4d14610270578063d60b347f14610299578063fbe3c2cd146102c557600080fd5b8063aa4efa5b14610202578063ad5c464814610225578063ad66a5f11461023657600080fd5b80632f3a3d5d116100c85780632f3a3d5d146101a5578063739fc8d1146101b657806384acd1bb146101d65780639a8a0592146101e757600080fd5b80631a2be4da146100ef5780631ff1e286146101305780632c3c02a414610182575b600080fd5b61011b6100fd3660046102ee565b6001600160a01b031660009081526009602052604090205460ff1690565b60405190151581526020015b60405180910390f35b61016a61013e36600461034e565b61ffff91909116600090815260086020908152604080832093835292905220546001600160a01b031690565b6040516001600160a01b039091168152602001610127565b61011b61019036600461031c565b60009081526005602052604090205460ff1690565b6001546001600160a01b031661016a565b600254640100000000900460ff1660405160ff9091168152602001610127565b6000546001600160a01b031661016a565b60025461ffff165b60405161ffff9091168152602001610127565b61011b61021036600461031c565b60009081526006602052604090205460ff1690565b6004546001600160a01b031661016a565b61025a610244366004610334565b61ffff166000908152600b602052604090205490565b604051908152602001610127565b60035461025a565b61025a61027e3660046102ee565b6001600160a01b03166000908152600a602052604090205490565b61011b6102a73660046102ee565b6001600160a01b031660009081526007602052604090205460ff1690565b60025462010000900461ffff166101ef565b803561ffff811681146102e957600080fd5b919050565b6000602082840312156102ff578081fd5b81356001600160a01b0381168114610315578182fd5b9392505050565b60006020828403121561032d578081fd5b5035919050565b600060208284031215610345578081fd5b610315826102d7565b60008060408385031215610360578081fd5b610369836102d7565b94602093909301359350505056fea264697066735822122088ddf43b6465999af2bbb26122763de74602875dac8ca5fd29879ff9eaa3b3dc64736f6c63430008040033",
  "immutableReferences": {},
  "source": "// contracts/Getters.sol\n// SPDX-License-Identifier: Apache 2\n\npragma solidity ^0.8.0;\n\nimport \"@openzeppelin/contracts/token/ERC20/IERC20.sol\";\n\nimport \"../interfaces/IWormhole.sol\";\n\nimport \"./BridgeState.sol\";\n\ncontract BridgeGetters is BridgeState {\n    function governanceActionIsConsumed(bytes32 hash) public view returns (bool) {\n        return _state.consumedGovernanceActions[hash];\n    }\n\n    function isInitialized(address impl) public view returns (bool) {\n        return _state.initializedImplementations[impl];\n    }\n\n    function isTransferCompleted(bytes32 hash) public view returns (bool) {\n        return _state.completedTransfers[hash];\n    }\n\n    function wormhole() public view returns (IWormhole) {\n        return IWormhole(_state.wormhole);\n    }\n\n    function chainId() public view returns (uint16){\n        return _state.provider.chainId;\n    }\n\n    function governanceChainId() public view returns (uint16){\n        return _state.provider.governanceChainId;\n    }\n\n    function governanceContract() public view returns (bytes32){\n        return _state.provider.governanceContract;\n    }\n\n    function wrappedAsset(uint16 tokenChainId, bytes32 tokenAddress) public view returns (address){\n        return _state.wrappedAssets[tokenChainId][tokenAddress];\n    }\n\n    function bridgeContracts(uint16 chainId_) public view returns (bytes32){\n        return _state.bridgeImplementations[chainId_];\n    }\n\n    function tokenImplementation() public view returns (address){\n        return _state.tokenImplementation;\n    }\n\n    function WETH() public view returns (IWETH){\n        return IWETH(_state.provider.WETH);\n    }\n\n    function outstandingBridged(address token) public view returns (uint256){\n        return _state.outstandingBridged[token];\n    }\n\n    function isWrappedAsset(address token) public view returns (bool){\n        return _state.isWrappedAsset[token];\n    }\n\n    function finality() public view returns (uint8) {\n        return _state.provider.finality;\n    }\n}\n\ninterface IWETH is IERC20 {\n    function deposit() external payable;\n\n    function withdraw(uint amount) external;\n}\n",
  "sourcePath": "/home/asterioti/generic-relayer/ethereum/contracts/bridge/BridgeGetters.sol",
  "compiler": {
    "name": "solc",
    "version": "0.8.4+commit.c7e474f2.Emscripten.clang"
  },
  "schemaVersion": "3.4.1",
  "updatedAt": "2022-09-09T01:32:04.533Z",
  "devdoc": {
    "kind": "dev",
    "methods": {},
    "version": 1
  },
  "userdoc": {
    "kind": "user",
    "methods": {},
    "version": 1
  }
}