{
  "contractName": "Getters",
  "abi": [
    {
      "inputs": [
        {
          "internalType": "uint32",
          "name": "index",
          "type": "uint32"
        }
      ],
      "name": "getGuardianSet",
      "outputs": [
        {
          "components": [
            {
              "internalType": "address[]",
              "name": "keys",
              "type": "address[]"
            },
            {
              "internalType": "uint32",
              "name": "expirationTime",
              "type": "uint32"
            }
          ],
          "internalType": "struct Structs.GuardianSet",
          "name": "",
          "type": "tuple"
        }
      ],
      "stateMutability": "view",
      "type": "function"
    },
    {
      "inputs": [],
      "name": "getCurrentGuardianSetIndex",
      "outputs": [
        {
          "internalType": "uint32",
          "name": "",
          "type": "uint32"
        }
      ],
      "stateMutability": "view",
      "type": "function"
    },
    {
      "inputs": [],
      "name": "getGuardianSetExpiry",
      "outputs": [
        {
          "internalType": "uint32",
          "name": "",
          "type": "uint32"
        }
      ],
      "stateMutability": "view",
      "type": "function"
    },
    {
      "inputs": [
        {
          "internalType": "bytes32",
          "name": "hash",
          "type": "bytes32"
        }
      ],
      "name": "governanceActionIsConsumed",
      "outputs": [
        {
          "internalType": "bool",
          "name": "",
          "type": "bool"
        }
      ],
      "stateMutability": "view",
      "type": "function"
    },
    {
      "inputs": [
        {
          "internalType": "bytes32",
          "name": "hash",
          "type": "bytes32"
        }
      ],
      "name": "verifiedHashCached",
      "outputs": [
        {
          "internalType": "bool",
          "name": "",
          "type": "bool"
        }
      ],
      "stateMutability": "view",
      "type": "function"
    },
    {
      "inputs": [
        {
          "internalType": "address",
          "name": "impl",
          "type": "address"
        }
      ],
      "name": "isInitialized",
      "outputs": [
        {
          "internalType": "bool",
          "name": "",
          "type": "bool"
        }
      ],
      "stateMutability": "view",
      "type": "function"
    },
    {
      "inputs": [],
      "name": "chainId",
      "outputs": [
        {
          "internalType": "uint16",
          "name": "",
          "type": "uint16"
        }
      ],
      "stateMutability": "view",
      "type": "function"
    },
    {
      "inputs": [],
      "name": "governanceChainId",
      "outputs": [
        {
          "internalType": "uint16",
          "name": "",
          "type": "uint16"
        }
      ],
      "stateMutability": "view",
      "type": "function"
    },
    {
      "inputs": [],
      "name": "governanceContract",
      "outputs": [
        {
          "internalType": "bytes32",
          "name": "",
          "type": "bytes32"
        }
      ],
      "stateMutability": "view",
      "type": "function"
    },
    {
      "inputs": [],
      "name": "messageFee",
      "outputs": [
        {
          "internalType": "uint256",
          "name": "",
          "type": "uint256"
        }
      ],
      "stateMutability": "view",
      "type": "function"
    },
    {
      "inputs": [
        {
          "internalType": "address",
          "name": "emitter",
          "type": "address"
        }
      ],
      "name": "nextSequence",
      "outputs": [
        {
          "internalType": "uint64",
          "name": "",
          "type": "uint64"
        }
      ],
      "stateMutability": "view",
      "type": "function"
    }
  ],
  "bytecode": "0x608060405234801561001057600080fd5b506103c7806100206000396000f3fe608060405234801561001057600080fd5b50600436106100a95760003560e01c80639a8a0592116100715780639a8a059214610186578063b172b222146101a1578063d60b347f146101a9578063eb8d3f12146101d5578063f951975a146101eb578063fbe3c2cd1461020b57600080fd5b80631a90a219146100ae5780631cfe7951146100c55780632c3c02a4146100e45780634cf842b51461011757806396cfc86d14610163575b600080fd5b6007545b6040519081526020015b60405180910390f35b60035463ffffffff165b60405163ffffffff90911681526020016100bc565b6101076100f23660046102ea565b60009081526005602052604090205460ff1690565b60405190151581526020016100bc565b61014a6101253660046102bc565b6001600160a01b031660009081526004602052604090205467ffffffffffffffff1690565b60405167ffffffffffffffff90911681526020016100bc565b6101076101713660046102ea565b60009081526008602052604090205460ff1690565b60005461ffff165b60405161ffff90911681526020016100bc565b6001546100b2565b6101076101b73660046102bc565b6001600160a01b031660009081526006602052604090205460ff1690565b600354640100000000900463ffffffff166100cf565b6101fe6101f9366004610302565b61021d565b6040516100bc9190610326565b60005462010000900461ffff1661018e565b60408051808201825260608082526000602080840182905263ffffffff8616825260028152908490208451815492830281018401865294850182815293949390928492849184018282801561029b57602002820191906000526020600020905b81546001600160a01b0316815260019091019060200180831161027d575b50505091835250506001919091015463ffffffff1660209091015292915050565b6000602082840312156102cd578081fd5b81356001600160a01b03811681146102e3578182fd5b9392505050565b6000602082840312156102fb578081fd5b5035919050565b600060208284031215610313578081fd5b813563ffffffff811681146102e3578182fd5b6020808252825160408383015280516060840181905260009291820190839060808601905b808310156103745783516001600160a01b0316825292840192600192909201919084019061034b565b5063ffffffff84880151166040870152809450505050509291505056fea2646970667358221220f58061c35a772481f560a1d01c311bbd0b60cf3dda35a91a8d0c3de95f63ffd764736f6c63430008040033",
  "immutableReferences": {},
  "source": "// contracts/Getters.sol\n// SPDX-License-Identifier: Apache 2\n\npragma solidity ^0.8.0;\n\nimport \"./State.sol\";\n\ncontract Getters is State {\n    function getGuardianSet(uint32 index) public view returns (Structs.GuardianSet memory) {\n        return _state.guardianSets[index];\n    }\n\n    function getCurrentGuardianSetIndex() public view returns (uint32) {\n        return _state.guardianSetIndex;\n    }\n\n    function getGuardianSetExpiry() public view returns (uint32) {\n        return _state.guardianSetExpiry;\n    }\n\n    function governanceActionIsConsumed(bytes32 hash) public view returns (bool) {\n        return _state.consumedGovernanceActions[hash];\n    }\n\n    function verifiedHashCached(bytes32 hash) public view returns (bool) {\n        return _state.verifiedHashCache[hash];\n    }\n\n    function isInitialized(address impl) public view returns (bool) {\n        return _state.initializedImplementations[impl];\n    }\n\n    function chainId() public view returns (uint16) {\n        return _state.provider.chainId;\n    }\n\n    function governanceChainId() public view returns (uint16){\n        return _state.provider.governanceChainId;\n    }\n\n    function governanceContract() public view returns (bytes32){\n        return _state.provider.governanceContract;\n    }\n\n    function messageFee() public view returns (uint256) {\n        return _state.messageFee;\n    }\n\n    function nextSequence(address emitter) public view returns (uint64) {\n        return _state.sequences[emitter];\n    }\n}\n",
  "sourcePath": "/home/asterioti/generic-relayer/ethereum/contracts/Getters.sol",
  "compiler": {
    "name": "solc",
    "version": "0.8.4+commit.c7e474f2.Emscripten.clang"
  },
  "schemaVersion": "3.4.1",
  "updatedAt": "2022-09-09T01:32:04.345Z",
  "devdoc": {
    "kind": "dev",
    "methods": {},
    "version": 1
  },
  "userdoc": {
    "kind": "user",
    "methods": {},
    "version": 1
  }
}