{
  "contractName": "MockBatchedVAASender",
  "abi": [
    {
      "inputs": [
        {
          "internalType": "uint32",
          "name": "nonce",
          "type": "uint32"
        },
        {
          "internalType": "bytes[]",
          "name": "payload",
          "type": "bytes[]"
        },
        {
          "internalType": "uint8[]",
          "name": "consistencyLevel",
          "type": "uint8[]"
        }
      ],
      "name": "sendMultipleMessages",
      "outputs": [
        {
          "internalType": "uint256[]",
          "name": "",
          "type": "uint256[]"
        }
      ],
      "stateMutability": "payable",
      "type": "function"
    },
    {
      "inputs": [
        {
          "internalType": "bytes",
          "name": "encodedVm2",
          "type": "bytes"
        }
      ],
      "name": "consumeBatchVAA",
      "outputs": [],
      "stateMutability": "nonpayable",
      "type": "function"
    },
    {
      "inputs": [
        {
          "internalType": "bytes",
          "name": "encodedVm",
          "type": "bytes"
        }
      ],
      "name": "consumeSingleVAA",
      "outputs": [],
      "stateMutability": "nonpayable",
      "type": "function"
    },
    {
      "inputs": [
        {
          "internalType": "bytes32",
          "name": "hash",
          "type": "bytes32"
        }
      ],
      "name": "getPayload",
      "outputs": [
        {
          "internalType": "bytes",
          "name": "",
          "type": "bytes"
        }
      ],
      "stateMutability": "view",
      "type": "function"
    },
    {
      "inputs": [
        {
          "internalType": "bytes32",
          "name": "hash",
          "type": "bytes32"
        }
      ],
      "name": "clearPayload",
      "outputs": [],
      "stateMutability": "nonpayable",
      "type": "function"
    },
    {
      "inputs": [
        {
          "internalType": "bytes",
          "name": "encodedVm",
          "type": "bytes"
        },
        {
          "internalType": "bool",
          "name": "cacheObservations",
          "type": "bool"
        }
      ],
      "name": "parseAndVerifyBatchVM",
      "outputs": [
        {
          "components": [
            {
              "internalType": "uint8",
              "name": "version",
              "type": "uint8"
            },
            {
              "internalType": "uint32",
              "name": "guardianSetIndex",
              "type": "uint32"
            },
            {
              "components": [
                {
                  "internalType": "bytes32",
                  "name": "r",
                  "type": "bytes32"
                },
                {
                  "internalType": "bytes32",
                  "name": "s",
                  "type": "bytes32"
                },
                {
                  "internalType": "uint8",
                  "name": "v",
                  "type": "uint8"
                },
                {
                  "internalType": "uint8",
                  "name": "guardianIndex",
                  "type": "uint8"
                }
              ],
              "internalType": "struct Structs.Signature[]",
              "name": "signatures",
              "type": "tuple[]"
            },
            {
              "internalType": "bytes32[]",
              "name": "hashes",
              "type": "bytes32[]"
            },
            {
              "internalType": "bytes32",
              "name": "hash",
              "type": "bytes32"
            },
            {
              "components": [
                {
                  "internalType": "uint8",
                  "name": "index",
                  "type": "uint8"
                },
                {
                  "internalType": "bytes",
                  "name": "observation",
                  "type": "bytes"
                }
              ],
              "internalType": "struct Structs.IndexedObservation[]",
              "name": "indexedObservations",
              "type": "tuple[]"
            }
          ],
          "internalType": "struct Structs.VM2",
          "name": "",
          "type": "tuple"
        }
      ],
      "stateMutability": "nonpayable",
      "type": "function"
    },
    {
      "inputs": [
        {
          "internalType": "bytes",
          "name": "encodedVm",
          "type": "bytes"
        }
      ],
      "name": "parseBatchVM",
      "outputs": [
        {
          "components": [
            {
              "internalType": "uint8",
              "name": "version",
              "type": "uint8"
            },
            {
              "internalType": "uint32",
              "name": "guardianSetIndex",
              "type": "uint32"
            },
            {
              "components": [
                {
                  "internalType": "bytes32",
                  "name": "r",
                  "type": "bytes32"
                },
                {
                  "internalType": "bytes32",
                  "name": "s",
                  "type": "bytes32"
                },
                {
                  "internalType": "uint8",
                  "name": "v",
                  "type": "uint8"
                },
                {
                  "internalType": "uint8",
                  "name": "guardianIndex",
                  "type": "uint8"
                }
              ],
              "internalType": "struct Structs.Signature[]",
              "name": "signatures",
              "type": "tuple[]"
            },
            {
              "internalType": "bytes32[]",
              "name": "hashes",
              "type": "bytes32[]"
            },
            {
              "internalType": "bytes32",
              "name": "hash",
              "type": "bytes32"
            },
            {
              "components": [
                {
                  "internalType": "uint8",
                  "name": "index",
                  "type": "uint8"
                },
                {
                  "internalType": "bytes",
                  "name": "observation",
                  "type": "bytes"
                }
              ],
              "internalType": "struct Structs.IndexedObservation[]",
              "name": "indexedObservations",
              "type": "tuple[]"
            }
          ],
          "internalType": "struct Structs.VM2",
          "name": "",
          "type": "tuple"
        }
      ],
      "stateMutability": "view",
      "type": "function"
    },
    {
      "inputs": [
        {
          "internalType": "bytes",
          "name": "encodedVm",
          "type": "bytes"
        }
      ],
      "name": "parseVM",
      "outputs": [
        {
          "components": [
            {
              "internalType": "uint8",
              "name": "version",
              "type": "uint8"
            },
            {
              "internalType": "uint32",
              "name": "timestamp",
              "type": "uint32"
            },
            {
              "internalType": "uint32",
              "name": "nonce",
              "type": "uint32"
            },
            {
              "internalType": "uint16",
              "name": "emitterChainId",
              "type": "uint16"
            },
            {
              "internalType": "bytes32",
              "name": "emitterAddress",
              "type": "bytes32"
            },
            {
              "internalType": "uint64",
              "name": "sequence",
              "type": "uint64"
            },
            {
              "internalType": "uint8",
              "name": "consistencyLevel",
              "type": "uint8"
            },
            {
              "internalType": "bytes",
              "name": "payload",
              "type": "bytes"
            },
            {
              "internalType": "uint32",
              "name": "guardianSetIndex",
              "type": "uint32"
            },
            {
              "components": [
                {
                  "internalType": "bytes32",
                  "name": "r",
                  "type": "bytes32"
                },
                {
                  "internalType": "bytes32",
                  "name": "s",
                  "type": "bytes32"
                },
                {
                  "internalType": "uint8",
                  "name": "v",
                  "type": "uint8"
                },
                {
                  "internalType": "uint8",
                  "name": "guardianIndex",
                  "type": "uint8"
                }
              ],
              "internalType": "struct Structs.Signature[]",
              "name": "signatures",
              "type": "tuple[]"
            },
            {
              "internalType": "bytes32",
              "name": "hash",
              "type": "bytes32"
            }
          ],
          "internalType": "struct Structs.VM",
          "name": "",
          "type": "tuple"
        }
      ],
      "stateMutability": "view",
      "type": "function"
    },
    {
      "inputs": [
        {
          "internalType": "address",
          "name": "_wormholeCore",
          "type": "address"
        }
      ],
      "name": "setup",
      "outputs": [],
      "stateMutability": "nonpayable",
      "type": "function"
    }
  ],
  "bytecode": "0x608060405234801561001057600080fd5b50611a05806100206000396000f3fe6080604052600436106100865760003560e01c8063851bf95611610059578063851bf95614610140578063a9e1189314610160578063b48fd0fe1461018d578063f86a779f146101ba578063f885bbdd146101da57600080fd5b80631699f8c41461008b57806366d38203146100ad5780636700a05a146100ea57806368f780eb14610120575b600080fd5b34801561009757600080fd5b506100ab6100a6366004611140565b6101fa565b005b3480156100b957600080fd5b506100ab6100c83660046110fa565b600080546001600160a01b0319166001600160a01b0392909216919091179055565b3480156100f657600080fd5b5061010a610105366004611140565b6103b0565b604051610117919061156e565b60405180910390f35b34801561012c57600080fd5b506100ab61013b366004611140565b610467565b34801561014c57600080fd5b5061010a61015b366004611172565b6105d5565b34801561016c57600080fd5b5061018061017b366004611140565b61071d565b604051610117919061164e565b34801561019957600080fd5b506101ad6101a8366004611128565b6107f5565b6040516101179190611537565b3480156101c657600080fd5b506100ab6101d5366004611128565b610897565b6101ed6101e83660046112e6565b6108b1565b60405161011791906114f3565b60006102078260016105d5565b905060008160a00151516001600160401b0381111561023657634e487b7160e01b600052604160045260246000fd5b60405190808252806020026020018201604052801561025f578160200160208202803683370190505b5060a08301515190915060005b81811015610347576102ac8460a00151828151811061029b57634e487b7160e01b600052603260045260246000fd5b602002602001015160200151610467565b83606001518460a0015182815181106102d557634e487b7160e01b600052603260045260246000fd5b60200260200101516000015160ff168151811061030257634e487b7160e01b600052603260045260246000fd5b602002602001015183828151811061032a57634e487b7160e01b600052603260045260246000fd5b60209081029190910101528061033f81611959565b91505061026c565b5060005460405163e8d0df2560e01b81526001600160a01b039091169063e8d0df25906103789085906004016114e0565b600060405180830381600087803b15801561039257600080fd5b505af11580156103a6573d6000803e3d6000fd5b5050505050505050565b6040805160c08101825260008082526020820181905260608284018190528083018190526080830182905260a0830152549151633380502d60e11b815290916001600160a01b031690636700a05a9061040d908590600401611537565b60006040518083038186803b15801561042557600080fd5b505afa158015610439573d6000803e3d6000fd5b505050506040513d6000823e601f3d908101601f1916820160405261046191908101906111c1565b92915050565b600080600061047e6000546001600160a01b031690565b6001600160a01b031663c0fd8bde856040518263ffffffff1660e01b81526004016104a99190611537565b60006040518083038186803b1580156104c157600080fd5b505afa1580156104d5573d6000803e3d6000fd5b505050506040513d6000823e601f3d908101601f191682016040526104fd9190810190611298565b92509250925081819061052c5760405162461bcd60e51b81526004016105239190611537565b60405180910390fd5b506020808401516040808601516060870151608088015160a089015160c08a015160e08b0151955160009861056398979101611459565b60405160208183030381529060405290506000818051906020012060405160200161059091815260200190565b60408051601f19818403018152918152815160209283012060e08801516000828152600185529290922082519194506105cc9390920190610b6e565b50505050505050565b6040805160c0810182526000808252602082018190526060928201839052828201839052608082015260a0810191909152600080600061061d6000546001600160a01b031690565b6001600160a01b031663851bf95687876040518363ffffffff1660e01b815260040161064a92919061154a565b600060405180830381600087803b15801561066457600080fd5b505af1158015610678573d6000803e3d6000fd5b505050506040513d6000823e601f3d908101601f191682016040526106a091908101906111f3565b9250925092508181906106c65760405162461bcd60e51b81526004016105239190611537565b50826000015160ff166002146107135760405162461bcd60e51b815260206004820152601260248201527177726f6e672076657273696f6e207479706560701b6044820152606401610523565b5090949350505050565b604080516101608101825260008082526020820181905281830181905260608083018290526080830182905260a0830182905260c0830182905260e083018190526101008301829052610120830152610140820181905254915163a9e1189360e01b815290916001600160a01b03169063a9e11893906107a1908590600401611537565b60006040518083038186803b1580156107b957600080fd5b505afa1580156107cd573d6000803e3d6000fd5b505050506040513d6000823e601f3d908101601f191682016040526104619190810190611266565b60008181526001602052604090208054606091906108129061191e565b80601f016020809104026020016040519081016040528092919081815260200182805461083e9061191e565b801561088b5780601f106108605761010080835404028352916020019161088b565b820191906000526020600020905b81548152906001019060200180831161086e57829003601f168201915b50505050509050919050565b60008181526001602052604081206108ae91610bf2565b50565b60608382146109025760405162461bcd60e51b815260206004820152601860248201527f696e76616c696420696e70757420706172616d657465727300000000000000006044820152606401610523565b600080546001600160a01b031690506000816001600160a01b0316631a90a2196040518163ffffffff1660e01b815260040160206040518083038186803b15801561094c57600080fd5b505afa158015610960573d6000803e3d6000fd5b505050506040513d601f19601f8201168201806040525081019061098491906112ce565b90508561099181836118cf565b34146109d45760405162461bcd60e51b8152602060048201526012602482015271696e73756666696369656e742076616c756560701b6044820152606401610523565b6000816001600160401b038111156109fc57634e487b7160e01b600052604160045260246000fd5b604051908082528060200260200182016040528015610a25578160200160208202803683370190505b50905060005b82811015610b6057846001600160a01b031663b19a437e858d8d8d86818110610a6457634e487b7160e01b600052603260045260246000fd5b9050602002810190610a769190611782565b8d8d88818110610a9657634e487b7160e01b600052603260045260246000fd5b9050602002016020810190610aab919061137f565b6040518663ffffffff1660e01b8152600401610aca949392919061173a565b6020604051808303818588803b158015610ae357600080fd5b505af1158015610af7573d6000803e3d6000fd5b50505050506040513d601f19601f82011682018060405250810190610b1c9190611365565b6001600160401b0316828281518110610b4557634e487b7160e01b600052603260045260246000fd5b6020908102919091010152610b5981611959565b9050610a2b565b509998505050505050505050565b828054610b7a9061191e565b90600052602060002090601f016020900481019282610b9c5760008555610be2565b82601f10610bb557805160ff1916838001178555610be2565b82800160010185558215610be2579182015b82811115610be2578251825591602001919060010190610bc7565b50610bee929150610c28565b5090565b508054610bfe9061191e565b6000825580601f10610c0e575050565b601f0160209004906000526020600020908101906108ae91905b5b80821115610bee5760008155600101610c29565b600082601f830112610c4d578081fd5b81516020610c62610c5d83611885565b611855565b80838252828201915082860187848660051b8901011115610c81578586fd5b855b85811015610c9f57815184529284019290840190600101610c83565b5090979650505050505050565b60008083601f840112610cbd578182fd5b5081356001600160401b03811115610cd3578182fd5b6020830191508360208260051b8501011115610cee57600080fd5b9250929050565b600082601f830112610d05578081fd5b81516020610d15610c5d83611885565b80838252828201915082860187848660051b8901011115610d34578586fd5b855b85811015610c9f5781516001600160401b0380821115610d54578889fd5b908901906040828c03601f1901811315610d6c57898afd5b610d746117c6565b88840151610d81816119c0565b8152908301519082821115610d94578a8bfd5b610da28d8a84870101610ead565b818a015287525050509284019290840190600101610d36565b600082601f830112610dcb578081fd5b81516020610ddb610c5d83611885565b80838252828201915082860187848660071b8901011115610dfa578586fd5b855b85811015610c9f57608080838b031215610e14578788fd5b610e1c6117ee565b835181528684015187820152604080850151610e37816119c0565b90820152606084810151610e4a816119c0565b908201528552938501939190910190600101610dfc565b600082601f830112610e71578081fd5b8135610e7f610c5d826118a8565b818152846020838601011115610e93578283fd5b816020850160208301379081016020019190915292915050565b600082601f830112610ebd578081fd5b8151610ecb610c5d826118a8565b818152846020838601011115610edf578283fd5b610ef08260208301602087016118ee565b949350505050565b600060c08284031215610f09578081fd5b610f11611810565b9050610f1c826110ef565b8152610f2a602083016110cd565b602082015260408201516001600160401b0380821115610f4957600080fd5b610f5585838601610dbb565b60408401526060840151915080821115610f6e57600080fd5b610f7a85838601610c3d565b60608401526080840151608084015260a0840151915080821115610f9d57600080fd5b50610faa84828501610cf5565b60a08301525092915050565b60006101608284031215610fc8578081fd5b610fd0611832565b9050610fdb826110ef565b8152610fe9602083016110cd565b6020820152610ffa604083016110cd565b604082015261100b606083016110b6565b60608201526080820151608082015261102660a083016110d8565b60a082015261103760c083016110ef565b60c082015260e08201516001600160401b038082111561105657600080fd5b61106285838601610ead565b60e084015261010091506110778285016110cd565b828401526101209150818401518181111561109157600080fd5b61109d86828701610dbb565b8385015250505061014080830151818301525092915050565b805161ffff811681146110c857600080fd5b919050565b80516110c8816119ae565b80516001600160401b03811681146110c857600080fd5b80516110c8816119c0565b60006020828403121561110b578081fd5b81356001600160a01b0381168114611121578182fd5b9392505050565b600060208284031215611139578081fd5b5035919050565b600060208284031215611151578081fd5b81356001600160401b03811115611166578182fd5b610ef084828501610e61565b60008060408385031215611184578081fd5b82356001600160401b03811115611199578182fd5b6111a585828601610e61565b92505060208301356111b6816119a0565b809150509250929050565b6000602082840312156111d2578081fd5b81516001600160401b038111156111e7578182fd5b610ef084828501610ef8565b600080600060608486031215611207578081fd5b83516001600160401b038082111561121d578283fd5b61122987838801610ef8565b94506020860151915061123b826119a0565b60408601519193508082111561124f578283fd5b5061125c86828701610ead565b9150509250925092565b600060208284031215611277578081fd5b81516001600160401b0381111561128c578182fd5b610ef084828501610fb6565b6000806000606084860312156112ac578081fd5b83516001600160401b03808211156112c2578283fd5b61122987838801610fb6565b6000602082840312156112df578081fd5b5051919050565b6000806000806000606086880312156112fd578283fd5b8535611308816119ae565b945060208601356001600160401b0380821115611323578485fd5b61132f89838a01610cac565b90965094506040880135915080821115611347578283fd5b5061135488828901610cac565b969995985093965092949392505050565b600060208284031215611376578081fd5b611121826110d8565b600060208284031215611390578081fd5b8135611121816119c0565b6000815180845260208085019450808401835b838110156113ca578151875295820195908201906001016113ae565b509495945050505050565b6000815180845260208085019450808401835b838110156113ca57815180518852838101518489015260408082015160ff908116918a01919091526060918201511690880152608090960195908201906001016113e8565b600081518084526114458160208601602086016118ee565b601f01601f19169290920160200192915050565b6001600160e01b031960e089811b8216835288901b1660048201526001600160f01b031960f087901b166008820152600a81018590526001600160c01b031960c085901b16602a8201526001600160f81b031960f884901b16603282015281516000906114cd8160338501602087016118ee565b9190910160330198975050505050505050565b602081526000611121602083018461139b565b6020808252825182820181905260009190848201906040850190845b8181101561152b5783518352928401929184019160010161150f565b50909695505050505050565b602081526000611121602083018461142d565b60408152600061155d604083018561142d565b905082151560208301529392505050565b6000602080835260ff808551168285015281850151604063ffffffff82168187015280870151915060c060608701526115aa60e08701836113d5565b91506060870151601f19808885030160808901526115c8848361139b565b9350608089015160a089015260a08901519150808885030160c08901528382518086528786019150878160051b8701018885019450895b8281101561163e5787820385018452855180518a1683528a01518a830188905261162b8884018261142d565b968b0196948b01949250506001016115ff565b509b9a5050505050505050505050565b6020815261166260208201835160ff169052565b6000602083015161167b604084018263ffffffff169052565b50604083015163ffffffff8116606084015250606083015161ffff8116608084015250608083015160a083015260a08301516116c260c08401826001600160401b03169052565b5060c083015160ff811660e08401525060e083015161016061010081818601526116f061018086018461142d565b9086015190925061012061170b8682018363ffffffff169052565b80870151915050610140601f19868503018187015261172a84836113d5565b9601519190940152509192915050565b63ffffffff851681526060602082015282606082015282846080830137600080608085840101526080601f19601f860116830101905060ff8316604083015295945050505050565b6000808335601e19843603018112611798578283fd5b8301803591506001600160401b038211156117b1578283fd5b602001915036819003821315610cee57600080fd5b604080519081016001600160401b03811182821017156117e8576117e861198a565b60405290565b604051608081016001600160401b03811182821017156117e8576117e861198a565b60405160c081016001600160401b03811182821017156117e8576117e861198a565b60405161016081016001600160401b03811182821017156117e8576117e861198a565b604051601f8201601f191681016001600160401b038111828210171561187d5761187d61198a565b604052919050565b60006001600160401b0382111561189e5761189e61198a565b5060051b60200190565b60006001600160401b038211156118c1576118c161198a565b50601f01601f191660200190565b60008160001904831182151516156118e9576118e9611974565b500290565b60005b838110156119095781810151838201526020016118f1565b83811115611918576000848401525b50505050565b600181811c9082168061193257607f821691505b6020821081141561195357634e487b7160e01b600052602260045260246000fd5b50919050565b600060001982141561196d5761196d611974565b5060010190565b634e487b7160e01b600052601160045260246000fd5b634e487b7160e01b600052604160045260246000fd5b80151581146108ae57600080fd5b63ffffffff811681146108ae57600080fd5b60ff811681146108ae57600080fdfea2646970667358221220857945a7ad251b0faf75101fcab103237b45052ad23b628729e24dbb4fb52c2064736f6c63430008040033",
  "immutableReferences": {},
  "source": "// contracts/mock/MockBatchedVAASender.sol\n// SPDX-License-Identifier: Apache 2\n\npragma solidity ^0.8.0;\n\nimport \"../libraries/external/BytesLib.sol\";\nimport \"../interfaces/IWormhole.sol\";\n\ncontract MockBatchedVAASender {\n    using BytesLib for bytes;\n\n    address wormholeCoreAddress;\n    mapping(bytes32 => bytes) verifiedPayloads;\n\n    function sendMultipleMessages(\n        uint32 nonce,\n        bytes[] calldata payload,\n        uint8[] calldata consistencyLevel\n    ) public payable returns (uint256[] memory) {\n        require(payload.length == consistencyLevel.length, \"invalid input parameters\");\n\n        // cache wormhole instance and payload length to save on gas\n        IWormhole wormhole = wormholeCore();\n        uint256 wormholeFee = wormhole.messageFee();\n        uint256 numPayloads = payload.length;\n\n        // confirm msg.value can cover messaging fees\n        require(msg.value == wormholeFee * numPayloads, \"insufficient value\");\n\n        // send each wormhole message and save the message sequence\n        uint256[] memory messageSequences = new uint256[](numPayloads);\n        for (uint256 i = 0; i < numPayloads; ++i) {\n            messageSequences[i] = wormhole.publishMessage{value: wormholeFee}(\n                nonce,\n                payload[i],\n                consistencyLevel[i]\n            );\n        }\n        return messageSequences;\n    }\n\n    function consumeBatchVAA(bytes memory encodedVm2) public {\n        // parse and verify a batch VAA\n        IWormhole.VM2 memory vm = parseAndVerifyBatchVM(encodedVm2, true);\n\n        // save each hash in the batch\n        bytes32[] memory cachedHashes = new bytes32[](vm.indexedObservations.length);\n\n        // consume individual VAAs in the batch\n        uint256 observationsLen = vm.indexedObservations.length;\n        for (uint256 i = 0; i < observationsLen; i++) {\n            consumeSingleVAA(vm.indexedObservations[i].observation);\n            cachedHashes[i] = vm.hashes[vm.indexedObservations[i].index];\n        }\n\n        // clear the batch cache\n        wormholeCore().clearBatchCache(cachedHashes);\n    }\n\n    function consumeSingleVAA(bytes memory encodedVm) public {\n        (IWormhole.VM memory vm, bool valid, string memory reason) = wormholeCore().parseAndVerifyVM(encodedVm);\n        require(valid, reason);\n\n        // encode the observation\n        bytes memory encodedObservation = abi.encodePacked(\n            vm.timestamp,\n            vm.nonce,\n            vm.emitterChainId,\n            vm.emitterAddress,\n            vm.sequence,\n            vm.consistencyLevel,\n            vm.payload\n        );\n\n        // save each payload in the verifiedPayloads map\n        bytes32 observationHash = keccak256(abi.encodePacked(keccak256(encodedObservation)));\n        verifiedPayloads[observationHash] = vm.payload;\n    }\n\n    function getPayload(bytes32 hash) public view returns (bytes memory) {\n        return verifiedPayloads[hash];\n    }\n\n    function clearPayload(bytes32 hash) public {\n        delete verifiedPayloads[hash];\n    }\n\n    function parseAndVerifyBatchVM(bytes memory encodedVm, bool cacheObservations) public returns (IWormhole.VM2 memory) {\n        // parse and verify a batch VAA\n        (IWormhole.VM2 memory vm, bool valid, string memory reason) = wormholeCore().parseAndVerifyBatchVM(encodedVm, cacheObservations);\n        require(valid, reason);\n        require(vm.version == 2, \"wrong version type\");\n        return vm;\n    }\n\n    function parseBatchVM(bytes memory encodedVm) public view returns (IWormhole.VM2 memory) {\n        return wormholeCore().parseBatchVM(encodedVm);\n    }\n\n    function parseVM(bytes memory encodedVm) public view returns (IWormhole.VM memory) {\n        return wormholeCore().parseVM(encodedVm);\n    }\n\n    function wormholeCore() private view returns (IWormhole) {\n        return IWormhole(wormholeCoreAddress);\n    }\n\n    function setup(address _wormholeCore) public {\n        wormholeCoreAddress = _wormholeCore;\n    }\n}\n",
  "sourcePath": "/home/asterioti/generic-relayer/ethereum/contracts/mock/MockBatchedVAASender.sol",
  "compiler": {
    "name": "solc",
    "version": "0.8.4+commit.c7e474f2.Emscripten.clang"
  },
  "schemaVersion": "3.4.1",
  "updatedAt": "2022-09-09T01:32:04.846Z",
  "devdoc": {
    "kind": "dev",
    "methods": {},
    "version": 1
  },
  "userdoc": {
    "kind": "user",
    "methods": {},
    "version": 1
  }
}