{
  "contractName": "NFTBridgeSetup",
  "abi": [
    {
      "anonymous": false,
      "inputs": [
        {
          "indexed": false,
          "internalType": "address",
          "name": "previousAdmin",
          "type": "address"
        },
        {
          "indexed": false,
          "internalType": "address",
          "name": "newAdmin",
          "type": "address"
        }
      ],
      "name": "AdminChanged",
      "type": "event"
    },
    {
      "anonymous": false,
      "inputs": [
        {
          "indexed": true,
          "internalType": "address",
          "name": "beacon",
          "type": "address"
        }
      ],
      "name": "BeaconUpgraded",
      "type": "event"
    },
    {
      "anonymous": false,
      "inputs": [
        {
          "indexed": true,
          "internalType": "address",
          "name": "implementation",
          "type": "address"
        }
      ],
      "name": "Upgraded",
      "type": "event"
    },
    {
      "inputs": [
        {
          "internalType": "address",
          "name": "implementation",
          "type": "address"
        },
        {
          "internalType": "uint16",
          "name": "chainId",
          "type": "uint16"
        },
        {
          "internalType": "address",
          "name": "wormhole",
          "type": "address"
        },
        {
          "internalType": "uint16",
          "name": "governanceChainId",
          "type": "uint16"
        },
        {
          "internalType": "bytes32",
          "name": "governanceContract",
          "type": "bytes32"
        },
        {
          "internalType": "address",
          "name": "tokenImplementation",
          "type": "address"
        },
        {
          "internalType": "uint8",
          "name": "finality",
          "type": "uint8"
        }
      ],
      "name": "setup",
      "outputs": [],
      "stateMutability": "nonpayable",
      "type": "function"
    }
  ],
  "bytecode": "0x608060405234801561001057600080fd5b506102a1806100206000396000f3fe608060405234801561001057600080fd5b506004361061002b5760003560e01c8063cda4108214610030575b600080fd5b61004361003e3660046101e4565b610045565b005b60028054600080546001600160a01b0389166001600160a01b031990911617905561ffff868116620100000263ffffffff19909216908916171790556003839055600180546001600160a01b0319166001600160a01b0384161790556002805464ff00000000191664010000000060ff8416021790556100c4876100cd565b50505050505050565b6100d68161010d565b6040516001600160a01b038216907fbc7cd75a20ee27fd9adebab32041f755214dbc6bffa90cc0225b39da2e5c2d3b90600090a250565b803b6101755760405162461bcd60e51b815260206004820152602d60248201527f455243313936373a206e657720696d706c656d656e746174696f6e206973206e60448201526c1bdd08184818dbdb9d1c9858dd609a1b606482015260840160405180910390fd5b7f360894a13ba1a3210667c828492db98dca3e2076cc3735a920a3ca505d382bbc80546001600160a01b0319166001600160a01b0392909216919091179055565b80356001600160a01b03811681146101cd57600080fd5b919050565b803561ffff811681146101cd57600080fd5b600080600080600080600060e0888a0312156101fe578283fd5b610207886101b6565b9650610215602089016101d2565b9550610223604089016101b6565b9450610231606089016101d2565b93506080880135925061024660a089016101b6565b915060c088013560ff8116811461025b578182fd5b809150509295989194975092955056fea2646970667358221220d49a37a289564e056a3beb07d5c1f6474372ecea0c701d5c572785f19f299c6564736f6c63430008040033",
  "immutableReferences": {},
  "source": "// contracts/BridgeSetup.sol\n// SPDX-License-Identifier: Apache 2\n\npragma solidity ^0.8.0;\npragma experimental ABIEncoderV2;\n\nimport \"./NFTBridgeGovernance.sol\";\n\nimport \"@openzeppelin/contracts/proxy/ERC1967/ERC1967Upgrade.sol\";\n\ncontract NFTBridgeSetup is NFTBridgeSetters, ERC1967Upgrade {\n    function setup(\n        address implementation,\n        uint16 chainId,\n        address wormhole,\n        uint16 governanceChainId,\n        bytes32 governanceContract,\n        address tokenImplementation,\n        uint8 finality\n    ) public {\n        setChainId(chainId);\n\n        setWormhole(wormhole);\n\n        setGovernanceChainId(governanceChainId);\n        setGovernanceContract(governanceContract);\n\n        setTokenImplementation(tokenImplementation);\n\n        setFinality(finality);\n\n        _upgradeTo(implementation);\n    }\n}\n",
  "sourcePath": "/home/asterioti/generic-relayer/ethereum/contracts/nft/NFTBridgeSetup.sol",
  "compiler": {
    "name": "solc",
    "version": "0.8.4+commit.c7e474f2.Emscripten.clang"
  },
  "schemaVersion": "3.4.1",
  "updatedAt": "2022-09-09T01:32:05.052Z",
  "devdoc": {
    "kind": "dev",
    "methods": {},
    "version": 1
  },
  "userdoc": {
    "kind": "user",
    "methods": {},
    "version": 1
  }
}