{
  "contractName": "NFTBridgeGetters",
  "abi": [
    {
      "inputs": [
        {
          "internalType": "bytes32",
          "name": "hash",
          "type": "bytes32"
        }
      ],
      "name": "governanceActionIsConsumed",
      "outputs": [
        {
          "internalType": "bool",
          "name": "",
          "type": "bool"
        }
      ],
      "stateMutability": "view",
      "type": "function"
    },
    {
      "inputs": [
        {
          "internalType": "address",
          "name": "impl",
          "type": "address"
        }
      ],
      "name": "isInitialized",
      "outputs": [
        {
          "internalType": "bool",
          "name": "",
          "type": "bool"
        }
      ],
      "stateMutability": "view",
      "type": "function"
    },
    {
      "inputs": [
        {
          "internalType": "bytes32",
          "name": "hash",
          "type": "bytes32"
        }
      ],
      "name": "isTransferCompleted",
      "outputs": [
        {
          "internalType": "bool",
          "name": "",
          "type": "bool"
        }
      ],
      "stateMutability": "view",
      "type": "function"
    },
    {
      "inputs": [],
      "name": "wormhole",
      "outputs": [
        {
          "internalType": "contract IWormhole",
          "name": "",
          "type": "address"
        }
      ],
      "stateMutability": "view",
      "type": "function"
    },
    {
      "inputs": [],
      "name": "chainId",
      "outputs": [
        {
          "internalType": "uint16",
          "name": "",
          "type": "uint16"
        }
      ],
      "stateMutability": "view",
      "type": "function"
    },
    {
      "inputs": [],
      "name": "governanceChainId",
      "outputs": [
        {
          "internalType": "uint16",
          "name": "",
          "type": "uint16"
        }
      ],
      "stateMutability": "view",
      "type": "function"
    },
    {
      "inputs": [],
      "name": "governanceContract",
      "outputs": [
        {
          "internalType": "bytes32",
          "name": "",
          "type": "bytes32"
        }
      ],
      "stateMutability": "view",
      "type": "function"
    },
    {
      "inputs": [
        {
          "internalType": "uint16",
          "name": "tokenChainId",
          "type": "uint16"
        },
        {
          "internalType": "bytes32",
          "name": "tokenAddress",
          "type": "bytes32"
        }
      ],
      "name": "wrappedAsset",
      "outputs": [
        {
          "internalType": "address",
          "name": "",
          "type": "address"
        }
      ],
      "stateMutability": "view",
      "type": "function"
    },
    {
      "inputs": [
        {
          "internalType": "uint16",
          "name": "chainId_",
          "type": "uint16"
        }
      ],
      "name": "bridgeContracts",
      "outputs": [
        {
          "internalType": "bytes32",
          "name": "",
          "type": "bytes32"
        }
      ],
      "stateMutability": "view",
      "type": "function"
    },
    {
      "inputs": [],
      "name": "tokenImplementation",
      "outputs": [
        {
          "internalType": "address",
          "name": "",
          "type": "address"
        }
      ],
      "stateMutability": "view",
      "type": "function"
    },
    {
      "inputs": [
        {
          "internalType": "address",
          "name": "token",
          "type": "address"
        }
      ],
      "name": "isWrappedAsset",
      "outputs": [
        {
          "internalType": "bool",
          "name": "",
          "type": "bool"
        }
      ],
      "stateMutability": "view",
      "type": "function"
    },
    {
      "inputs": [
        {
          "internalType": "uint256",
          "name": "tokenId",
          "type": "uint256"
        }
      ],
      "name": "splCache",
      "outputs": [
        {
          "components": [
            {
              "internalType": "bytes32",
              "name": "name",
              "type": "bytes32"
            },
            {
              "internalType": "bytes32",
              "name": "symbol",
              "type": "bytes32"
            }
          ],
          "internalType": "struct NFTBridgeStorage.SPLCache",
          "name": "",
          "type": "tuple"
        }
      ],
      "stateMutability": "view",
      "type": "function"
    },
    {
      "inputs": [],
      "name": "finality",
      "outputs": [
        {
          "internalType": "uint8",
          "name": "",
          "type": "uint8"
        }
      ],
      "stateMutability": "view",
      "type": "function"
    }
  ],
  "bytecode": "0x608060405234801561001057600080fd5b506103bf806100206000396000f3fe608060405234801561001057600080fd5b50600436106100cf5760003560e01c806384acd1bb1161008c578063ad66a5f111610066578063ad66a5f114610271578063b172b222146102a3578063d60b347f146102ab578063fbe3c2cd146102d757600080fd5b806384acd1bb146102225780639a8a059214610233578063aa4efa5b1461024e57600080fd5b80631a2be4da146100d45780631ff1e286146101155780632c3c02a4146101675780632f3a3d5d1461018a5780633ca648261461019b578063739fc8d114610202575b600080fd5b6101006100e2366004610300565b6001600160a01b031660009081526008602052604090205460ff1690565b60405190151581526020015b60405180910390f35b61014f610123366004610360565b61ffff91909116600090815260076020908152604080832093835292905220546001600160a01b031690565b6040516001600160a01b03909116815260200161010c565b61010061017536600461032e565b60009081526004602052604090205460ff1690565b6001546001600160a01b031661014f565b6101e76101a936600461032e565b6040805180820190915260008082526020820152506000908152600a6020908152604091829020825180840190935280548352600101549082015290565b6040805182518152602092830151928101929092520161010c565b600254640100000000900460ff1660405160ff909116815260200161010c565b6000546001600160a01b031661014f565b60025461ffff165b60405161ffff909116815260200161010c565b61010061025c36600461032e565b60009081526005602052604090205460ff1690565b61029561027f366004610346565b61ffff1660009081526009602052604090205490565b60405190815260200161010c565b600354610295565b6101006102b9366004610300565b6001600160a01b031660009081526006602052604090205460ff1690565b60025462010000900461ffff1661023b565b803561ffff811681146102fb57600080fd5b919050565b600060208284031215610311578081fd5b81356001600160a01b0381168114610327578182fd5b9392505050565b60006020828403121561033f578081fd5b5035919050565b600060208284031215610357578081fd5b610327826102e9565b60008060408385031215610372578081fd5b61037b836102e9565b94602093909301359350505056fea2646970667358221220e3f3795950ba0796901aa8b39e9a812951b3283f6f8c9b0563c342f04e58ac9464736f6c63430008040033",
  "immutableReferences": {},
  "source": "// contracts/Getters.sol\n// SPDX-License-Identifier: Apache 2\n\npragma solidity ^0.8.0;\n\nimport \"@openzeppelin/contracts/token/ERC20/IERC20.sol\";\n\nimport \"../interfaces/IWormhole.sol\";\n\nimport \"./NFTBridgeState.sol\";\n\ncontract NFTBridgeGetters is NFTBridgeState {\n    function governanceActionIsConsumed(bytes32 hash) public view returns (bool) {\n        return _state.consumedGovernanceActions[hash];\n    }\n\n    function isInitialized(address impl) public view returns (bool) {\n        return _state.initializedImplementations[impl];\n    }\n\n    function isTransferCompleted(bytes32 hash) public view returns (bool) {\n        return _state.completedTransfers[hash];\n    }\n\n    function wormhole() public view returns (IWormhole) {\n        return IWormhole(_state.wormhole);\n    }\n\n    function chainId() public view returns (uint16){\n        return _state.provider.chainId;\n    }\n\n    function governanceChainId() public view returns (uint16){\n        return _state.provider.governanceChainId;\n    }\n\n    function governanceContract() public view returns (bytes32){\n        return _state.provider.governanceContract;\n    }\n\n    function wrappedAsset(uint16 tokenChainId, bytes32 tokenAddress) public view returns (address){\n        return _state.wrappedAssets[tokenChainId][tokenAddress];\n    }\n\n    function bridgeContracts(uint16 chainId_) public view returns (bytes32){\n        return _state.bridgeImplementations[chainId_];\n    }\n\n    function tokenImplementation() public view returns (address){\n        return _state.tokenImplementation;\n    }\n\n    function isWrappedAsset(address token) public view returns (bool){\n        return _state.isWrappedAsset[token];\n    }\n\n    function splCache(uint256 tokenId) public view returns (NFTBridgeStorage.SPLCache memory) {\n        return _state.splCache[tokenId];\n    }\n\n    function finality() public view returns (uint8) {\n        return _state.provider.finality;\n    }\n}\n",
  "sourcePath": "/home/asterioti/generic-relayer/ethereum/contracts/nft/NFTBridgeGetters.sol",
  "compiler": {
    "name": "solc",
    "version": "0.8.4+commit.c7e474f2.Emscripten.clang"
  },
  "schemaVersion": "3.4.1",
  "updatedAt": "2022-09-09T01:32:04.962Z",
  "devdoc": {
    "kind": "dev",
    "methods": {},
    "version": 1
  },
  "userdoc": {
    "kind": "user",
    "methods": {},
    "version": 1
  }
}