{
  "contractName": "TokenImplementation",
  "abi": [
    {
      "anonymous": false,
      "inputs": [
        {
          "indexed": true,
          "internalType": "address",
          "name": "owner",
          "type": "address"
        },
        {
          "indexed": true,
          "internalType": "address",
          "name": "spender",
          "type": "address"
        },
        {
          "indexed": false,
          "internalType": "uint256",
          "name": "value",
          "type": "uint256"
        }
      ],
      "name": "Approval",
      "type": "event"
    },
    {
      "anonymous": false,
      "inputs": [
        {
          "indexed": true,
          "internalType": "address",
          "name": "from",
          "type": "address"
        },
        {
          "indexed": true,
          "internalType": "address",
          "name": "to",
          "type": "address"
        },
        {
          "indexed": false,
          "internalType": "uint256",
          "name": "value",
          "type": "uint256"
        }
      ],
      "name": "Transfer",
      "type": "event"
    },
    {
      "inputs": [
        {
          "internalType": "string",
          "name": "name_",
          "type": "string"
        },
        {
          "internalType": "string",
          "name": "symbol_",
          "type": "string"
        },
        {
          "internalType": "uint8",
          "name": "decimals_",
          "type": "uint8"
        },
        {
          "internalType": "uint64",
          "name": "sequence_",
          "type": "uint64"
        },
        {
          "internalType": "address",
          "name": "owner_",
          "type": "address"
        },
        {
          "internalType": "uint16",
          "name": "chainId_",
          "type": "uint16"
        },
        {
          "internalType": "bytes32",
          "name": "nativeContract_",
          "type": "bytes32"
        }
      ],
      "name": "initialize",
      "outputs": [],
      "stateMutability": "nonpayable",
      "type": "function"
    },
    {
      "inputs": [],
      "name": "name",
      "outputs": [
        {
          "internalType": "string",
          "name": "",
          "type": "string"
        }
      ],
      "stateMutability": "view",
      "type": "function"
    },
    {
      "inputs": [],
      "name": "symbol",
      "outputs": [
        {
          "internalType": "string",
          "name": "",
          "type": "string"
        }
      ],
      "stateMutability": "view",
      "type": "function"
    },
    {
      "inputs": [],
      "name": "owner",
      "outputs": [
        {
          "internalType": "address",
          "name": "",
          "type": "address"
        }
      ],
      "stateMutability": "view",
      "type": "function"
    },
    {
      "inputs": [],
      "name": "decimals",
      "outputs": [
        {
          "internalType": "uint8",
          "name": "",
          "type": "uint8"
        }
      ],
      "stateMutability": "view",
      "type": "function"
    },
    {
      "inputs": [],
      "name": "totalSupply",
      "outputs": [
        {
          "internalType": "uint256",
          "name": "",
          "type": "uint256"
        }
      ],
      "stateMutability": "view",
      "type": "function"
    },
    {
      "inputs": [],
      "name": "chainId",
      "outputs": [
        {
          "internalType": "uint16",
          "name": "",
          "type": "uint16"
        }
      ],
      "stateMutability": "view",
      "type": "function"
    },
    {
      "inputs": [],
      "name": "nativeContract",
      "outputs": [
        {
          "internalType": "bytes32",
          "name": "",
          "type": "bytes32"
        }
      ],
      "stateMutability": "view",
      "type": "function"
    },
    {
      "inputs": [
        {
          "internalType": "address",
          "name": "account_",
          "type": "address"
        }
      ],
      "name": "balanceOf",
      "outputs": [
        {
          "internalType": "uint256",
          "name": "",
          "type": "uint256"
        }
      ],
      "stateMutability": "view",
      "type": "function"
    },
    {
      "inputs": [
        {
          "internalType": "address",
          "name": "recipient_",
          "type": "address"
        },
        {
          "internalType": "uint256",
          "name": "amount_",
          "type": "uint256"
        }
      ],
      "name": "transfer",
      "outputs": [
        {
          "internalType": "bool",
          "name": "",
          "type": "bool"
        }
      ],
      "stateMutability": "nonpayable",
      "type": "function"
    },
    {
      "inputs": [
        {
          "internalType": "address",
          "name": "owner_",
          "type": "address"
        },
        {
          "internalType": "address",
          "name": "spender_",
          "type": "address"
        }
      ],
      "name": "allowance",
      "outputs": [
        {
          "internalType": "uint256",
          "name": "",
          "type": "uint256"
        }
      ],
      "stateMutability": "view",
      "type": "function"
    },
    {
      "inputs": [
        {
          "internalType": "address",
          "name": "spender_",
          "type": "address"
        },
        {
          "internalType": "uint256",
          "name": "amount_",
          "type": "uint256"
        }
      ],
      "name": "approve",
      "outputs": [
        {
          "internalType": "bool",
          "name": "",
          "type": "bool"
        }
      ],
      "stateMutability": "nonpayable",
      "type": "function"
    },
    {
      "inputs": [
        {
          "internalType": "address",
          "name": "sender_",
          "type": "address"
        },
        {
          "internalType": "address",
          "name": "recipient_",
          "type": "address"
        },
        {
          "internalType": "uint256",
          "name": "amount_",
          "type": "uint256"
        }
      ],
      "name": "transferFrom",
      "outputs": [
        {
          "internalType": "bool",
          "name": "",
          "type": "bool"
        }
      ],
      "stateMutability": "nonpayable",
      "type": "function"
    },
    {
      "inputs": [
        {
          "internalType": "address",
          "name": "spender_",
          "type": "address"
        },
        {
          "internalType": "uint256",
          "name": "addedValue_",
          "type": "uint256"
        }
      ],
      "name": "increaseAllowance",
      "outputs": [
        {
          "internalType": "bool",
          "name": "",
          "type": "bool"
        }
      ],
      "stateMutability": "nonpayable",
      "type": "function"
    },
    {
      "inputs": [
        {
          "internalType": "address",
          "name": "spender_",
          "type": "address"
        },
        {
          "internalType": "uint256",
          "name": "subtractedValue_",
          "type": "uint256"
        }
      ],
      "name": "decreaseAllowance",
      "outputs": [
        {
          "internalType": "bool",
          "name": "",
          "type": "bool"
        }
      ],
      "stateMutability": "nonpayable",
      "type": "function"
    },
    {
      "inputs": [
        {
          "internalType": "address",
          "name": "account_",
          "type": "address"
        },
        {
          "internalType": "uint256",
          "name": "amount_",
          "type": "uint256"
        }
      ],
      "name": "mint",
      "outputs": [],
      "stateMutability": "nonpayable",
      "type": "function"
    },
    {
      "inputs": [
        {
          "internalType": "address",
          "name": "account_",
          "type": "address"
        },
        {
          "internalType": "uint256",
          "name": "amount_",
          "type": "uint256"
        }
      ],
      "name": "burn",
      "outputs": [],
      "stateMutability": "nonpayable",
      "type": "function"
    },
    {
      "inputs": [
        {
          "internalType": "string",
          "name": "name_",
          "type": "string"
        },
        {
          "internalType": "string",
          "name": "symbol_",
          "type": "string"
        },
        {
          "internalType": "uint64",
          "name": "sequence_",
          "type": "uint64"
        }
      ],
      "name": "updateDetails",
      "outputs": [],
      "stateMutability": "nonpayable",
      "type": "function"
    }
  ],
  "bytecode": "0x608060405234801561001057600080fd5b506111ce806100206000396000f3fe608060405234801561001057600080fd5b50600436106101165760003560e01c80638da5cb5b116100a2578063a18cd7c611610071578063a18cd7c614610246578063a457c2d714610259578063a9059cbb1461026c578063c71f46151461027f578063dd62ed3e1461029257600080fd5b80638da5cb5b146101ef57806395d89b411461020a5780639a8a0592146102125780639dc29fac1461023357600080fd5b8063313ce567116100e9578063313ce5671461018157806339509351146101965780633d6c043b146101a957806340c10f19146101b157806370a08231146101c657600080fd5b806306fdde031461011b578063095ea7b31461013957806318160ddd1461015c57806323b872dd1461016e575b600080fd5b6101236102cb565b6040516101309190611078565b60405180910390f35b61014c610147366004610e85565b6102f4565b6040519015158152602001610130565b6003545b604051908152602001610130565b61014c61017c366004610e4a565b61030a565b60045460405160ff9091168152602001610130565b61014c6101a4366004610e85565b6103c0565b600854610160565b6101c46101bf366004610e85565b6103f7565b005b6101606101d4366004610df7565b6001600160a01b031660009081526005602052604090205490565b6007546040516001600160a01b039091168152602001610130565b61012361042f565b600754600160a81b900461ffff1660405161ffff9091168152602001610130565b6101c4610241366004610e85565b6104c4565b6101c4610254366004610eae565b6104f8565b61014c610267366004610e85565b6105ce565b61014c61027a366004610e85565b610669565b6101c461028d366004610f1f565b610676565b6101606102a0366004610e18565b6001600160a01b03918216600090815260066020908152604080832093909416825291909152205490565b6040516060906102e090600090602001610fdd565b604051602081830303815290604052905090565b6000610301338484610775565b50600192915050565b600061031784848461089a565b6001600160a01b0384166000908152600660209081526040808320338452909152902054828110156103a15760405162461bcd60e51b815260206004820152602860248201527f45524332303a207472616e7366657220616d6f756e74206578636565647320616044820152676c6c6f77616e636560c01b60648201526084015b60405180910390fd5b6103b585336103b0868561111a565b610775565b506001949350505050565b3360008181526006602090815260408083206001600160a01b038716845290915281205490916103019185906103b0908690611102565b6007546001600160a01b031633146104215760405162461bcd60e51b8152600401610398906110cb565b61042b8282610a72565b5050565b60606000600101805461044190611131565b80601f016020809104026020016040519081016040528092919081815260200182805461046d90611131565b80156104ba5780601f1061048f576101008083540402835291602001916104ba565b820191906000526020600020905b81548152906001019060200180831161049d57829003601f168201915b5050505050905090565b6007546001600160a01b031633146104ee5760405162461bcd60e51b8152600401610398906110cb565b61042b8282610b54565b6007546001600160a01b031633146105225760405162461bcd60e51b8152600401610398906110cb565b60025467ffffffffffffffff8083169116106105805760405162461bcd60e51b815260206004820152601e60248201527f63757272656e74206d6574616461746120697320757020746f206461746500006044820152606401610398565b8251610593906000906020860190610ca3565b5081516105a7906001906020850190610ca3565b506002805467ffffffffffffffff191667ffffffffffffffff929092169190911790555050565b3360009081526006602090815260408083206001600160a01b0386168452909152812054828110156106505760405162461bcd60e51b815260206004820152602560248201527f45524332303a2064656372656173656420616c6c6f77616e63652062656c6f77604482015264207a65726f60d81b6064820152608401610398565b61065f33856103b0868561111a565b5060019392505050565b600061030133848461089a565b600754600160a01b900460ff16156106c65760405162461bcd60e51b8152602060048201526013602482015272105b1c9958591e481a5b9a5d1a585b1a5e9959606a1b6044820152606401610398565b6007805460ff60a01b1916600160a01b17905586516106ec9060009060208a0190610ca3565b508551610700906001906020890190610ca3565b506004805460ff90961660ff19909616959095179094556002805467ffffffffffffffff90941667ffffffffffffffff19909416939093179092556007805461ffff909316600160a81b02600162ffff0160a01b03199093166001600160a01b03909216919091179190911790556008555050565b6001600160a01b0383166107d75760405162461bcd60e51b8152602060048201526024808201527f45524332303a20617070726f76652066726f6d20746865207a65726f206164646044820152637265737360e01b6064820152608401610398565b6001600160a01b0382166108385760405162461bcd60e51b815260206004820152602260248201527f45524332303a20617070726f766520746f20746865207a65726f206164647265604482015261737360f01b6064820152608401610398565b6001600160a01b0383811660008181526006602090815260408083209487168084529482529182902085905590518481527f8c5be1e5ebec7d5bd14f71427d1e84f3dd0314c0f7b2291e5b200ac8c7c3b92591015b60405180910390a3505050565b6001600160a01b0383166108fe5760405162461bcd60e51b815260206004820152602560248201527f45524332303a207472616e736665722066726f6d20746865207a65726f206164604482015264647265737360d81b6064820152608401610398565b6001600160a01b0382166109605760405162461bcd60e51b815260206004820152602360248201527f45524332303a207472616e7366657220746f20746865207a65726f206164647260448201526265737360e81b6064820152608401610398565b6001600160a01b038316600090815260056020526040902054818110156109d85760405162461bcd60e51b815260206004820152602660248201527f45524332303a207472616e7366657220616d6f756e7420657863656564732062604482015265616c616e636560d01b6064820152608401610398565b6109e2828261111a565b6001600160a01b038086166000908152600560205260408082209390935590851681529081208054849290610a18908490611102565b92505081905550826001600160a01b0316846001600160a01b03167fddf252ad1be2c89b69c2b068fc378daa952ba7f163c4a11628f55a4df523b3ef84604051610a6491815260200190565b60405180910390a350505050565b6001600160a01b038216610ac85760405162461bcd60e51b815260206004820152601f60248201527f45524332303a206d696e7420746f20746865207a65726f2061646472657373006044820152606401610398565b8060006003016000828254610add9190611102565b90915550506001600160a01b03821660009081526005602052604081208054839290610b0a908490611102565b90915550506040518181526001600160a01b038316906000907fddf252ad1be2c89b69c2b068fc378daa952ba7f163c4a11628f55a4df523b3ef9060200160405180910390a35050565b6001600160a01b038216610bb45760405162461bcd60e51b815260206004820152602160248201527f45524332303a206275726e2066726f6d20746865207a65726f206164647265736044820152607360f81b6064820152608401610398565b6001600160a01b03821660009081526005602052604090205481811015610c285760405162461bcd60e51b815260206004820152602260248201527f45524332303a206275726e20616d6f756e7420657863656564732062616c616e604482015261636560f01b6064820152608401610398565b610c32828261111a565b6001600160a01b03841660009081526005602052604081209190915560038054849290610c6090849061111a565b90915550506040518281526000906001600160a01b038516907fddf252ad1be2c89b69c2b068fc378daa952ba7f163c4a11628f55a4df523b3ef9060200161088d565b828054610caf90611131565b90600052602060002090601f016020900481019282610cd15760008555610d17565b82601f10610cea57805160ff1916838001178555610d17565b82800160010185558215610d17579182015b82811115610d17578251825591602001919060010190610cfc565b50610d23929150610d27565b5090565b5b80821115610d235760008155600101610d28565b80356001600160a01b0381168114610d5357600080fd5b919050565b600082601f830112610d68578081fd5b813567ffffffffffffffff80821115610d8357610d83611182565b604051601f8301601f19908116603f01168101908282118183101715610dab57610dab611182565b81604052838152866020858801011115610dc3578485fd5b8360208701602083013792830160200193909352509392505050565b803567ffffffffffffffff81168114610d5357600080fd5b600060208284031215610e08578081fd5b610e1182610d3c565b9392505050565b60008060408385031215610e2a578081fd5b610e3383610d3c565b9150610e4160208401610d3c565b90509250929050565b600080600060608486031215610e5e578081fd5b610e6784610d3c565b9250610e7560208501610d3c565b9150604084013590509250925092565b60008060408385031215610e97578182fd5b610ea083610d3c565b946020939093013593505050565b600080600060608486031215610ec2578283fd5b833567ffffffffffffffff80821115610ed9578485fd5b610ee587838801610d58565b94506020860135915080821115610efa578384fd5b50610f0786828701610d58565b925050610f1660408501610ddf565b90509250925092565b600080600080600080600060e0888a031215610f39578283fd5b873567ffffffffffffffff80821115610f50578485fd5b610f5c8b838c01610d58565b985060208a0135915080821115610f71578485fd5b50610f7e8a828b01610d58565b965050604088013560ff81168114610f94578384fd5b9450610fa260608901610ddf565b9350610fb060808901610d3c565b925060a088013561ffff81168114610fc6578283fd5b8092505060c0880135905092959891949750929550565b600080835482600182811c915080831680610ff957607f831692505b602080841082141561101957634e487b7160e01b87526022600452602487fd5b81801561102d576001811461103e5761106a565b60ff1986168952848901965061106a565b60008a815260209020885b868110156110625781548b820152908501908301611049565b505084890196505b509498975050505050505050565b6000602080835283518082850152825b818110156110a457858101830151858201604001528201611088565b818111156110b55783604083870101525b50601f01601f1916929092016040019392505050565b60208082526017908201527f63616c6c6572206973206e6f7420746865206f776e6572000000000000000000604082015260600190565b600082198211156111155761111561116c565b500190565b60008282101561112c5761112c61116c565b500390565b600181811c9082168061114557607f821691505b6020821081141561116657634e487b7160e01b600052602260045260246000fd5b50919050565b634e487b7160e01b600052601160045260246000fd5b634e487b7160e01b600052604160045260246000fdfea2646970667358221220335012cc530b6405b8a816dce22290755211798311161f1d6f2eb6a1d847e8f064736f6c63430008040033",
  "immutableReferences": {},
  "source": "// contracts/TokenImplementation.sol\n// SPDX-License-Identifier: Apache 2\n\npragma solidity ^0.8.0;\n\nimport \"./TokenState.sol\";\nimport \"@openzeppelin/contracts/access/Ownable.sol\";\nimport \"@openzeppelin/contracts/utils/Context.sol\";\nimport \"@openzeppelin/contracts/proxy/beacon/BeaconProxy.sol\";\n\n// Based on the OpenZepplin ERC20 implementation, licensed under MIT\ncontract TokenImplementation is TokenState, Context {\n    event Transfer(address indexed from, address indexed to, uint256 value);\n    event Approval(address indexed owner, address indexed spender, uint256 value);\n\n    function initialize(\n        string memory name_,\n        string memory symbol_,\n        uint8 decimals_,\n        uint64 sequence_,\n\n        address owner_,\n\n        uint16 chainId_,\n        bytes32 nativeContract_\n    ) initializer public {\n        _state.name = name_;\n        _state.symbol = symbol_;\n        _state.decimals = decimals_;\n        _state.metaLastUpdatedSequence = sequence_;\n\n        _state.owner = owner_;\n\n        _state.chainId = chainId_;\n        _state.nativeContract = nativeContract_;\n    }\n\n    function name() public view returns (string memory) {\n        return string(abi.encodePacked(_state.name));\n    }\n\n    function symbol() public view returns (string memory) {\n        return _state.symbol;\n    }\n\n    function owner() public view returns (address) {\n        return _state.owner;\n    }\n\n    function decimals() public view returns (uint8) {\n        return _state.decimals;\n    }\n\n    function totalSupply() public view returns (uint256) {\n        return _state.totalSupply;\n    }\n\n    function chainId() public view returns (uint16) {\n        return _state.chainId;\n    }\n\n    function nativeContract() public view returns (bytes32) {\n        return _state.nativeContract;\n    }\n\n    function balanceOf(address account_) public view returns (uint256) {\n        return _state.balances[account_];\n    }\n\n    function transfer(address recipient_, uint256 amount_) public returns (bool) {\n        _transfer(_msgSender(), recipient_, amount_);\n        return true;\n    }\n\n    function allowance(address owner_, address spender_) public view returns (uint256) {\n        return _state.allowances[owner_][spender_];\n    }\n\n    function approve(address spender_, uint256 amount_) public returns (bool) {\n        _approve(_msgSender(), spender_, amount_);\n        return true;\n    }\n\n    function transferFrom(address sender_, address recipient_, uint256 amount_) public returns (bool) {\n        _transfer(sender_, recipient_, amount_);\n\n        uint256 currentAllowance = _state.allowances[sender_][_msgSender()];\n        require(currentAllowance >= amount_, \"ERC20: transfer amount exceeds allowance\");\n        _approve(sender_, _msgSender(), currentAllowance - amount_);\n\n        return true;\n    }\n\n    function increaseAllowance(address spender_, uint256 addedValue_) public returns (bool) {\n        _approve(_msgSender(), spender_, _state.allowances[_msgSender()][spender_] + addedValue_);\n        return true;\n    }\n\n    function decreaseAllowance(address spender_, uint256 subtractedValue_) public returns (bool) {\n        uint256 currentAllowance = _state.allowances[_msgSender()][spender_];\n        require(currentAllowance >= subtractedValue_, \"ERC20: decreased allowance below zero\");\n        _approve(_msgSender(), spender_, currentAllowance - subtractedValue_);\n\n        return true;\n    }\n\n    function _transfer(address sender_, address recipient_, uint256 amount_) internal {\n        require(sender_ != address(0), \"ERC20: transfer from the zero address\");\n        require(recipient_ != address(0), \"ERC20: transfer to the zero address\");\n\n        uint256 senderBalance = _state.balances[sender_];\n        require(senderBalance >= amount_, \"ERC20: transfer amount exceeds balance\");\n        _state.balances[sender_] = senderBalance - amount_;\n        _state.balances[recipient_] += amount_;\n\n        emit Transfer(sender_, recipient_, amount_);\n    }\n\n    function mint(address account_, uint256 amount_) public onlyOwner {\n        _mint(account_, amount_);\n    }\n\n    function _mint(address account_, uint256 amount_) internal {\n        require(account_ != address(0), \"ERC20: mint to the zero address\");\n\n        _state.totalSupply += amount_;\n        _state.balances[account_] += amount_;\n        emit Transfer(address(0), account_, amount_);\n    }\n\n    function burn(address account_, uint256 amount_) public onlyOwner {\n        _burn(account_, amount_);\n    }\n\n    function _burn(address account_, uint256 amount_) internal {\n        require(account_ != address(0), \"ERC20: burn from the zero address\");\n\n        uint256 accountBalance = _state.balances[account_];\n        require(accountBalance >= amount_, \"ERC20: burn amount exceeds balance\");\n        _state.balances[account_] = accountBalance - amount_;\n        _state.totalSupply -= amount_;\n\n        emit Transfer(account_, address(0), amount_);\n    }\n\n    function _approve(address owner_, address spender_, uint256 amount_) internal virtual {\n        require(owner_ != address(0), \"ERC20: approve from the zero address\");\n        require(spender_ != address(0), \"ERC20: approve to the zero address\");\n\n        _state.allowances[owner_][spender_] = amount_;\n        emit Approval(owner_, spender_, amount_);\n    }\n\n    function updateDetails(string memory name_, string memory symbol_, uint64 sequence_) public onlyOwner {\n        require(_state.metaLastUpdatedSequence < sequence_, \"current metadata is up to date\");\n\n        _state.name = name_;\n        _state.symbol = symbol_;\n        _state.metaLastUpdatedSequence = sequence_;\n    }\n\n    modifier onlyOwner() {\n        require(owner() == _msgSender(), \"caller is not the owner\");\n        _;\n    }\n\n    modifier initializer() {\n        require(\n            !_state.initialized,\n            \"Already initialized\"\n        );\n\n        _state.initialized = true;\n\n        _;\n    }\n}\n",
  "sourcePath": "/home/asterioti/generic-relayer/ethereum/contracts/bridge/token/TokenImplementation.sol",
  "compiler": {
    "name": "solc",
    "version": "0.8.4+commit.c7e474f2.Emscripten.clang"
  },
  "schemaVersion": "3.4.1",
  "updatedAt": "2022-09-09T01:32:04.757Z",
  "devdoc": {
    "kind": "dev",
    "methods": {},
    "version": 1
  },
  "userdoc": {
    "kind": "user",
    "methods": {},
    "version": 1
  }
}