{
  "abi": [
    {
      "anonymous": false,
      "inputs": [
        {
          "indexed": false,
          "internalType": "address",
          "name": "previousAdmin",
          "type": "address"
        },
        {
          "indexed": false,
          "internalType": "address",
          "name": "newAdmin",
          "type": "address"
        }
      ],
      "name": "AdminChanged",
      "type": "event"
    },
    {
      "anonymous": false,
      "inputs": [
        {
          "indexed": true,
          "internalType": "address",
          "name": "beacon",
          "type": "address"
        }
      ],
      "name": "BeaconUpgraded",
      "type": "event"
    },
    {
      "anonymous": false,
      "inputs": [
        {
          "indexed": true,
          "internalType": "address",
          "name": "oldContract",
          "type": "address"
        },
        {
          "indexed": true,
          "internalType": "address",
          "name": "newContract",
          "type": "address"
        }
      ],
      "name": "ContractUpgraded",
      "type": "event"
    },
    {
      "anonymous": false,
      "inputs": [
        {
          "indexed": true,
          "internalType": "address",
          "name": "implementation",
          "type": "address"
        }
      ],
      "name": "Upgraded",
      "type": "event"
    },
    {
      "inputs": [
        {
          "internalType": "uint16",
          "name": "chainId_",
          "type": "uint16"
        }
      ],
      "name": "bridgeContracts",
      "outputs": [
        {
          "internalType": "bytes32",
          "name": "",
          "type": "bytes32"
        }
      ],
      "stateMutability": "view",
      "type": "function"
    },
    {
      "inputs": [],
      "name": "chainId",
      "outputs": [
        {
          "internalType": "uint16",
          "name": "",
          "type": "uint16"
        }
      ],
      "stateMutability": "view",
      "type": "function"
    },
    {
      "inputs": [],
      "name": "finality",
      "outputs": [
        {
          "internalType": "uint8",
          "name": "",
          "type": "uint8"
        }
      ],
      "stateMutability": "view",
      "type": "function"
    },
    {
      "inputs": [
        {
          "internalType": "bytes32",
          "name": "hash",
          "type": "bytes32"
        }
      ],
      "name": "governanceActionIsConsumed",
      "outputs": [
        {
          "internalType": "bool",
          "name": "",
          "type": "bool"
        }
      ],
      "stateMutability": "view",
      "type": "function"
    },
    {
      "inputs": [],
      "name": "governanceChainId",
      "outputs": [
        {
          "internalType": "uint16",
          "name": "",
          "type": "uint16"
        }
      ],
      "stateMutability": "view",
      "type": "function"
    },
    {
      "inputs": [],
      "name": "governanceContract",
      "outputs": [
        {
          "internalType": "bytes32",
          "name": "",
          "type": "bytes32"
        }
      ],
      "stateMutability": "view",
      "type": "function"
    },
    {
      "inputs": [
        {
          "internalType": "address",
          "name": "impl",
          "type": "address"
        }
      ],
      "name": "isInitialized",
      "outputs": [
        {
          "internalType": "bool",
          "name": "",
          "type": "bool"
        }
      ],
      "stateMutability": "view",
      "type": "function"
    },
    {
      "inputs": [
        {
          "internalType": "bytes32",
          "name": "hash",
          "type": "bytes32"
        }
      ],
      "name": "isTransferCompleted",
      "outputs": [
        {
          "internalType": "bool",
          "name": "",
          "type": "bool"
        }
      ],
      "stateMutability": "view",
      "type": "function"
    },
    {
      "inputs": [
        {
          "internalType": "address",
          "name": "token",
          "type": "address"
        }
      ],
      "name": "isWrappedAsset",
      "outputs": [
        {
          "internalType": "bool",
          "name": "",
          "type": "bool"
        }
      ],
      "stateMutability": "view",
      "type": "function"
    },
    {
      "inputs": [
        {
          "internalType": "bytes",
          "name": "encoded",
          "type": "bytes"
        }
      ],
      "name": "parseRegisterChain",
      "outputs": [
        {
          "components": [
            {
              "internalType": "bytes32",
              "name": "module",
              "type": "bytes32"
            },
            {
              "internalType": "uint8",
              "name": "action",
              "type": "uint8"
            },
            {
              "internalType": "uint16",
              "name": "chainId",
              "type": "uint16"
            },
            {
              "internalType": "uint16",
              "name": "emitterChainID",
              "type": "uint16"
            },
            {
              "internalType": "bytes32",
              "name": "emitterAddress",
              "type": "bytes32"
            }
          ],
          "internalType": "struct NFTBridgeStructs.RegisterChain",
          "name": "chain",
          "type": "tuple"
        }
      ],
      "stateMutability": "pure",
      "type": "function"
    },
    {
      "inputs": [
        {
          "internalType": "bytes",
          "name": "encoded",
          "type": "bytes"
        }
      ],
      "name": "parseUpgrade",
      "outputs": [
        {
          "components": [
            {
              "internalType": "bytes32",
              "name": "module",
              "type": "bytes32"
            },
            {
              "internalType": "uint8",
              "name": "action",
              "type": "uint8"
            },
            {
              "internalType": "uint16",
              "name": "chainId",
              "type": "uint16"
            },
            {
              "internalType": "bytes32",
              "name": "newContract",
              "type": "bytes32"
            }
          ],
          "internalType": "struct NFTBridgeStructs.UpgradeContract",
          "name": "chain",
          "type": "tuple"
        }
      ],
      "stateMutability": "pure",
      "type": "function"
    },
    {
      "inputs": [
        {
          "internalType": "bytes",
          "name": "encodedVM",
          "type": "bytes"
        }
      ],
      "name": "registerChain",
      "outputs": [],
      "stateMutability": "nonpayable",
      "type": "function"
    },
    {
      "inputs": [
        {
          "internalType": "uint256",
          "name": "tokenId",
          "type": "uint256"
        }
      ],
      "name": "splCache",
      "outputs": [
        {
          "components": [
            {
              "internalType": "bytes32",
              "name": "name",
              "type": "bytes32"
            },
            {
              "internalType": "bytes32",
              "name": "symbol",
              "type": "bytes32"
            }
          ],
          "internalType": "struct NFTBridgeStorage.SPLCache",
          "name": "",
          "type": "tuple"
        }
      ],
      "stateMutability": "view",
      "type": "function"
    },
    {
      "inputs": [],
      "name": "tokenImplementation",
      "outputs": [
        {
          "internalType": "address",
          "name": "",
          "type": "address"
        }
      ],
      "stateMutability": "view",
      "type": "function"
    },
    {
      "inputs": [
        {
          "internalType": "bytes",
          "name": "encodedVM",
          "type": "bytes"
        }
      ],
      "name": "upgrade",
      "outputs": [],
      "stateMutability": "nonpayable",
      "type": "function"
    },
    {
      "inputs": [],
      "name": "wormhole",
      "outputs": [
        {
          "internalType": "contract IWormhole",
          "name": "",
          "type": "address"
        }
      ],
      "stateMutability": "view",
      "type": "function"
    },
    {
      "inputs": [
        {
          "internalType": "uint16",
          "name": "tokenChainId",
          "type": "uint16"
        },
        {
          "internalType": "bytes32",
          "name": "tokenAddress",
          "type": "bytes32"
        }
      ],
      "name": "wrappedAsset",
      "outputs": [
        {
          "internalType": "address",
          "name": "",
          "type": "address"
        }
      ],
      "stateMutability": "view",
      "type": "function"
    }
  ],
  "bytecode": {
    "object": "0x608060405234801561001057600080fd5b50611469806100206000396000f3fe608060405234801561001057600080fd5b506004361061010b5760003560e01c806384acd1bb116100a2578063ad66a5f111610071578063ad66a5f11461033b578063b172b2221461036d578063d60b347f14610375578063fbe3c2cd146103a1578063fbeeacd9146103b357600080fd5b806384acd1bb146102d95780639a8a0592146102ea578063a5799f9314610305578063aa4efa5b1461031857600080fd5b80632c3c02a4116100de5780632c3c02a41461021e5780632f3a3d5d146102415780633ca6482614610252578063739fc8d1146102b957600080fd5b806301f53255146101105780631a2be4da1461017b5780631ff1e286146101b75780632539464514610209575b600080fd5b61012361011e366004611086565b610400565b6040516101729190600060a0820190508251825260ff6020840151166020830152604083015161ffff808216604085015280606086015116606085015250506080830151608083015292915050565b60405180910390f35b6101a7610189366004611040565b6001600160a01b031660009081526008602052604090205460ff1690565b6040519015158152602001610172565b6101f16101c5366004611268565b61ffff91909116600090815260076020908152604080832093835292905220546001600160a01b031690565b6040516001600160a01b039091168152602001610172565b61021c610217366004611086565b6105ef565b005b6101a761022c36600461106e565b60009081526004602052604090205460ff1690565b6001546001600160a01b03166101f1565b61029e61026036600461106e565b6040805180820190915260008082526020820152506000908152600a6020908152604091829020825180840190935280548352600101549082015290565b60408051825181526020928301519281019290925201610172565b600254640100000000900460ff1660405160ff9091168152602001610172565b6000546001600160a01b03166101f1565b60025461ffff165b60405161ffff9091168152602001610172565b61021c610313366004611086565b6106c6565b6101a761032636600461106e565b60009081526005602052604090205460ff1690565b61035f61034936600461124c565b61ffff1660009081526009602052604090205490565b604051908152602001610172565b60035461035f565b6101a7610383366004611040565b6001600160a01b031660009081526006602052604090205460ff1690565b60025462010000900461ffff166102f2565b6103c66103c1366004611086565b6107bf565b60405161017291908151815260208083015160ff169082015260408083015161ffff16908201526060918201519181019190915260800190565b6040805160a0810182526000808252602082018190529181018290526060810182905260808101829052906104358382610982565b8252610442602082611394565b8251909150684e4654427269646765146104af5760405162461bcd60e51b815260206004820152602360248201527f696e76616c6964205265676973746572436861696e3a2077726f6e67206d6f64604482015262756c6560e81b60648201526084015b60405180910390fd5b6104b983826109e0565b60ff1660208301526104cc600182611394565b9050816020015160ff166001146105315760405162461bcd60e51b815260206004820152602360248201527f696e76616c6964205265676973746572436861696e3a2077726f6e672061637460448201526234b7b760e91b60648201526084016104a6565b61053b8382610a3c565b61ffff16604083015261054f600282611394565b905061055b8382610a3c565b61ffff16606083015261056f600282611394565b905061057b8382610982565b608083015261058b602082611394565b9050808351146105e95760405162461bcd60e51b815260206004820152602360248201527f696e76616c6964205265676973746572436861696e3a2077726f6e67206c656e6044820152620cee8d60eb1b60648201526084016104a6565b50919050565b60008060006105fd84610a99565b9250925092508181906106235760405162461bcd60e51b81526004016104a691906112db565b506106488361014001516000908152600460205260409020805460ff19166001179055565b60006106578460e001516107bf565b905061066660025461ffff1690565b61ffff16816040015161ffff16146106b15760405162461bcd60e51b815260206004820152600e60248201526d1ddc9bdb99c818da185a5b881a5960921b60448201526064016104a6565b60608101516106bf90610cb8565b5050505050565b60008060006106d484610a99565b9250925092508181906106fa5760405162461bcd60e51b81526004016104a691906112db565b5061071f8361014001516000908152600460205260409020805460ff19166001179055565b600061072e8460e00151610400565b905061073d60025461ffff1690565b61ffff16816040015161ffff16148061075c5750604081015161ffff16155b61079b5760405162461bcd60e51b815260206004820152601060248201526f1a5b9d985b1a590818da185a5b881a5960821b60448201526064016104a6565b6106bf8160600151826080015161ffff909116600090815260096020526040902055565b6040805160808101825260008082526020820181905291810182905260608101829052906107ed8382610982565b82526107fa602082611394565b8251909150684e4654427269646765146108645760405162461bcd60e51b815260206004820152602560248201527f696e76616c69642055706772616465436f6e74726163743a2077726f6e67206d6044820152646f64756c6560d81b60648201526084016104a6565b61086e83826109e0565b60ff166020830152610881600182611394565b9050816020015160ff166002146108e85760405162461bcd60e51b815260206004820152602560248201527f696e76616c69642055706772616465436f6e74726163743a2077726f6e67206160448201526431ba34b7b760d91b60648201526084016104a6565b6108f28382610a3c565b61ffff166040830152610906600282611394565b90506109128382610982565b6060830152610922602082611394565b9050808351146105e95760405162461bcd60e51b815260206004820152602560248201527f696e76616c69642055706772616465436f6e74726163743a2077726f6e67206c6044820152640cadccee8d60db1b60648201526084016104a6565b600061098f826020611394565b835110156109d75760405162461bcd60e51b8152602060048201526015602482015274746f427974657333325f6f75744f66426f756e647360581b60448201526064016104a6565b50016020015190565b60006109ed826001611394565b83511015610a335760405162461bcd60e51b8152602060048201526013602482015272746f55696e74385f6f75744f66426f756e647360681b60448201526064016104a6565b50016001015190565b6000610a49826002611394565b83511015610a905760405162461bcd60e51b8152602060048201526014602482015273746f55696e7431365f6f75744f66426f756e647360601b60448201526064016104a6565b50016002015190565b604080516101608101825260008082526020820181905291810182905260608082018390526080820183905260a0820183905260c0820183905260e082018190526101008201839052610120820152610140810191909152600060606000806000610b0c6000546001600160a01b031690565b6001600160a01b031663c0fd8bde886040518263ffffffff1660e01b8152600401610b3791906112db565b60006040518083038186803b158015610b4f57600080fd5b505afa158015610b63573d6000803e3d6000fd5b505050506040513d6000823e601f3d908101601f19168201604052610b8b91908101906110fa565b92509250925081610ba25791945092509050610cb1565b60025462010000900461ffff1661ffff16836060015161ffff1614610bfe5750506040805180820190915260168152753bb937b7339033b7bb32b93730b731b29031b430b4b760511b6020820152909350600092509050610cb1565b600354836080015114610c4f57505060408051808201909152601981527f77726f6e6720676f7665726e616e636520636f6e7472616374000000000000006020820152909350600092509050610cb1565b61014083015160009081526004602052604090205460ff1615610c965782600060405180606001604052806022815260200161141260229139955095509550505050610cb1565b50506040805160208101909152600081529093506001925090505b9193909250565b6000610ceb7f360894a13ba1a3210667c828492db98dca3e2076cc3735a920a3ca505d382bbc546001600160a01b031690565b9050610cf682610de5565b60408051600481526024810182526020810180516001600160e01b031663204a7f0760e21b179052905160009182916001600160a01b03861691610d39916112bf565b600060405180830381855af49150503d8060008114610d74576040519150601f19603f3d011682016040523d82523d6000602084013e610d79565b606091505b5091509150818190610d9e5760405162461bcd60e51b81526004016104a691906112db565b50836001600160a01b0316836001600160a01b03167f2e4cc16c100f0b55e2df82ab0b1a7e294aa9cbd01b48fbaf622683fbc0507a4960405160405180910390a350505050565b610dee81610e25565b6040516001600160a01b038216907fbc7cd75a20ee27fd9adebab32041f755214dbc6bffa90cc0225b39da2e5c2d3b90600090a250565b803b610e895760405162461bcd60e51b815260206004820152602d60248201527f455243313936373a206e657720696d706c656d656e746174696f6e206973206e60448201526c1bdd08184818dbdb9d1c9858dd609a1b60648201526084016104a6565b7f360894a13ba1a3210667c828492db98dca3e2076cc3735a920a3ca505d382bbc80546001600160a01b0319166001600160a01b0392909216919091179055565b600082601f830112610eda578081fd5b8151602067ffffffffffffffff821115610ef657610ef66113e8565b610f04818360051b0161133b565b80838252828201915082860187848660071b8901011115610f23578586fd5b855b85811015610f8657608080838b031215610f3d578788fd5b610f456112ee565b8351815286840151878201526040610f5e81860161102f565b908201526060610f6f85820161102f565b908201528552938501939190910190600101610f25565b5090979650505050505050565b80518015158114610fa357600080fd5b919050565b600082601f830112610fb8578081fd5b8151610fcb610fc68261136c565b61133b565b818152846020838601011115610fdf578283fd5b610ff08260208301602087016113b8565b949350505050565b8051610fa3816113fe565b805163ffffffff81168114610fa357600080fd5b805167ffffffffffffffff81168114610fa357600080fd5b805160ff81168114610fa357600080fd5b600060208284031215611051578081fd5b81356001600160a01b0381168114611067578182fd5b9392505050565b60006020828403121561107f578081fd5b5035919050565b600060208284031215611097578081fd5b813567ffffffffffffffff8111156110ad578182fd5b8201601f810184136110bd578182fd5b80356110cb610fc68261136c565b8181528560208385010111156110df578384fd5b81602084016020830137908101602001929092525092915050565b60008060006060848603121561110e578182fd5b835167ffffffffffffffff80821115611125578384fd5b908501906101608288031215611139578384fd5b611141611317565b61114a8361102f565b815261115860208401611003565b602082015261116960408401611003565b604082015261117a60608401610ff8565b60608201526080830151608082015261119560a08401611017565b60a08201526111a660c0840161102f565b60c082015260e0830151828111156111bc578586fd5b6111c889828601610fa8565b60e0830152506101006111dc818501611003565b9082015261012083810151838111156111f3578687fd5b6111ff8a828701610eca565b91830191909152506101408381015190820152945061122060208701610f93565b93506040860151915080821115611235578283fd5b5061124286828701610fa8565b9150509250925092565b60006020828403121561125d578081fd5b8135611067816113fe565b6000806040838503121561127a578182fd5b8235611285816113fe565b946020939093013593505050565b600081518084526112ab8160208601602086016113b8565b601f01601f19169290920160200192915050565b600082516112d18184602087016113b8565b9190910192915050565b6020815260006110676020830184611293565b6040516080810167ffffffffffffffff81118282101715611311576113116113e8565b60405290565b604051610160810167ffffffffffffffff81118282101715611311576113116113e8565b604051601f8201601f1916810167ffffffffffffffff81118282101715611364576113646113e8565b604052919050565b600067ffffffffffffffff821115611386576113866113e8565b50601f01601f191660200190565b600082198211156113b357634e487b7160e01b81526011600452602481fd5b500190565b60005b838110156113d35781810151838201526020016113bb565b838111156113e2576000848401525b50505050565b634e487b7160e01b600052604160045260246000fd5b61ffff8116811461140e57600080fd5b5056fe676f7665726e616e636520616374696f6e20616c726561647920636f6e73756d6564a2646970667358221220d672140700e72ca3c5f4f724059809d455cbe02926b9cf992254edf8f2c09fc564736f6c63430008040033",
    "linkReferences": {}
  },
  "methodIdentifiers": {
    "bridgeContracts(uint16)": "ad66a5f1",
    "chainId()": "9a8a0592",
    "finality()": "739fc8d1",
    "governanceActionIsConsumed(bytes32)": "2c3c02a4",
    "governanceChainId()": "fbe3c2cd",
    "governanceContract()": "b172b222",
    "isInitialized(address)": "d60b347f",
    "isTransferCompleted(bytes32)": "aa4efa5b",
    "isWrappedAsset(address)": "1a2be4da",
    "parseRegisterChain(bytes)": "01f53255",
    "parseUpgrade(bytes)": "fbeeacd9",
    "registerChain(bytes)": "a5799f93",
    "splCache(uint256)": "3ca64826",
    "tokenImplementation()": "2f3a3d5d",
    "upgrade(bytes)": "25394645",
    "wormhole()": "84acd1bb",
    "wrappedAsset(uint16,bytes32)": "1ff1e286"
  },
  "id": 28
}