{
  "abi": [
    {
      "anonymous": false,
      "inputs": [
        {
          "indexed": false,
          "internalType": "address",
          "name": "previousAdmin",
          "type": "address"
        },
        {
          "indexed": false,
          "internalType": "address",
          "name": "newAdmin",
          "type": "address"
        }
      ],
      "name": "AdminChanged",
      "type": "event"
    },
    {
      "anonymous": false,
      "inputs": [
        {
          "indexed": true,
          "internalType": "address",
          "name": "beacon",
          "type": "address"
        }
      ],
      "name": "BeaconUpgraded",
      "type": "event"
    },
    {
      "anonymous": false,
      "inputs": [
        {
          "indexed": true,
          "internalType": "address",
          "name": "implementation",
          "type": "address"
        }
      ],
      "name": "Upgraded",
      "type": "event"
    },
    {
      "inputs": [
        {
          "internalType": "address",
          "name": "implementation",
          "type": "address"
        },
        {
          "internalType": "uint16",
          "name": "chainId",
          "type": "uint16"
        },
        {
          "internalType": "address",
          "name": "wormhole",
          "type": "address"
        },
        {
          "internalType": "uint16",
          "name": "governanceChainId",
          "type": "uint16"
        },
        {
          "internalType": "bytes32",
          "name": "governanceContract",
          "type": "bytes32"
        },
        {
          "internalType": "address",
          "name": "tokenImplementation",
          "type": "address"
        },
        {
          "internalType": "address",
          "name": "WETH",
          "type": "address"
        },
        {
          "internalType": "uint8",
          "name": "finality",
          "type": "uint8"
        }
      ],
      "name": "setup",
      "outputs": [],
      "stateMutability": "nonpayable",
      "type": "function"
    }
  ],
  "bytecode": {
    "object": "0x608060405234801561001057600080fd5b506102ce806100206000396000f3fe608060405234801561001057600080fd5b506004361061002b5760003560e01c806307d4339a14610030575b600080fd5b61004361003e366004610200565b610045565b005b60028054600080546001600160a01b038a166001600160a01b031990911617905561ffff878116620100000263ffffffff19909216908a16171790556003849055600180546001600160a01b0319166001600160a01b038516179055600480546001600160a01b0319166001600160a01b0384161790556002805464ff00000000191664010000000060ff8416021790556100df886100e9565b5050505050505050565b6100f281610129565b6040516001600160a01b038216907fbc7cd75a20ee27fd9adebab32041f755214dbc6bffa90cc0225b39da2e5c2d3b90600090a250565b803b6101915760405162461bcd60e51b815260206004820152602d60248201527f455243313936373a206e657720696d706c656d656e746174696f6e206973206e60448201526c1bdd08184818dbdb9d1c9858dd609a1b606482015260840160405180910390fd5b7f360894a13ba1a3210667c828492db98dca3e2076cc3735a920a3ca505d382bbc80546001600160a01b0319166001600160a01b0392909216919091179055565b80356001600160a01b03811681146101e957600080fd5b919050565b803561ffff811681146101e957600080fd5b600080600080600080600080610100898b03121561021c578384fd5b610225896101d2565b975061023360208a016101ee565b965061024160408a016101d2565b955061024f60608a016101ee565b94506080890135935061026460a08a016101d2565b925061027260c08a016101d2565b915060e089013560ff81168114610287578182fd5b80915050929598509295989093965056fea264697066735822122002df712cac8c185be54fd2053833688740be0797b24928b3dba8984568136dcf64736f6c63430008040033",
    "linkReferences": {}
  },
  "methodIdentifiers": {
    "setup(address,uint16,address,uint16,bytes32,address,address,uint8)": "07d4339a"
  },
  "id": 14
}