{
  "abi": [
    {
      "anonymous": false,
      "inputs": [
        {
          "indexed": false,
          "internalType": "address",
          "name": "previousAdmin",
          "type": "address"
        },
        {
          "indexed": false,
          "internalType": "address",
          "name": "newAdmin",
          "type": "address"
        }
      ],
      "name": "AdminChanged",
      "type": "event"
    },
    {
      "anonymous": false,
      "inputs": [
        {
          "indexed": true,
          "internalType": "address",
          "name": "beacon",
          "type": "address"
        }
      ],
      "name": "BeaconUpgraded",
      "type": "event"
    },
    {
      "anonymous": false,
      "inputs": [
        {
          "indexed": true,
          "internalType": "address",
          "name": "oldContract",
          "type": "address"
        },
        {
          "indexed": true,
          "internalType": "address",
          "name": "newContract",
          "type": "address"
        }
      ],
      "name": "ContractUpgraded",
      "type": "event"
    },
    {
      "anonymous": false,
      "inputs": [
        {
          "indexed": true,
          "internalType": "address",
          "name": "implementation",
          "type": "address"
        }
      ],
      "name": "Upgraded",
      "type": "event"
    },
    {
      "inputs": [
        {
          "internalType": "uint16",
          "name": "chainId_",
          "type": "uint16"
        }
      ],
      "name": "bridgeContracts",
      "outputs": [
        {
          "internalType": "bytes32",
          "name": "",
          "type": "bytes32"
        }
      ],
      "stateMutability": "view",
      "type": "function"
    },
    {
      "inputs": [],
      "name": "chainId",
      "outputs": [
        {
          "internalType": "uint16",
          "name": "",
          "type": "uint16"
        }
      ],
      "stateMutability": "view",
      "type": "function"
    },
    {
      "inputs": [
        {
          "internalType": "bytes",
          "name": "encodedVm",
          "type": "bytes"
        }
      ],
      "name": "completeTransfer",
      "outputs": [],
      "stateMutability": "nonpayable",
      "type": "function"
    },
    {
      "inputs": [
        {
          "components": [
            {
              "internalType": "bytes32",
              "name": "tokenAddress",
              "type": "bytes32"
            },
            {
              "internalType": "uint16",
              "name": "tokenChain",
              "type": "uint16"
            },
            {
              "internalType": "bytes32",
              "name": "symbol",
              "type": "bytes32"
            },
            {
              "internalType": "bytes32",
              "name": "name",
              "type": "bytes32"
            },
            {
              "internalType": "uint256",
              "name": "tokenID",
              "type": "uint256"
            },
            {
              "internalType": "string",
              "name": "uri",
              "type": "string"
            },
            {
              "internalType": "bytes32",
              "name": "to",
              "type": "bytes32"
            },
            {
              "internalType": "uint16",
              "name": "toChain",
              "type": "uint16"
            }
          ],
          "internalType": "struct NFTBridgeStructs.Transfer",
          "name": "transfer",
          "type": "tuple"
        }
      ],
      "name": "encodeTransfer",
      "outputs": [
        {
          "internalType": "bytes",
          "name": "encoded",
          "type": "bytes"
        }
      ],
      "stateMutability": "pure",
      "type": "function"
    },
    {
      "inputs": [],
      "name": "finality",
      "outputs": [
        {
          "internalType": "uint8",
          "name": "",
          "type": "uint8"
        }
      ],
      "stateMutability": "view",
      "type": "function"
    },
    {
      "inputs": [
        {
          "internalType": "bytes32",
          "name": "hash",
          "type": "bytes32"
        }
      ],
      "name": "governanceActionIsConsumed",
      "outputs": [
        {
          "internalType": "bool",
          "name": "",
          "type": "bool"
        }
      ],
      "stateMutability": "view",
      "type": "function"
    },
    {
      "inputs": [],
      "name": "governanceChainId",
      "outputs": [
        {
          "internalType": "uint16",
          "name": "",
          "type": "uint16"
        }
      ],
      "stateMutability": "view",
      "type": "function"
    },
    {
      "inputs": [],
      "name": "governanceContract",
      "outputs": [
        {
          "internalType": "bytes32",
          "name": "",
          "type": "bytes32"
        }
      ],
      "stateMutability": "view",
      "type": "function"
    },
    {
      "inputs": [
        {
          "internalType": "address",
          "name": "impl",
          "type": "address"
        }
      ],
      "name": "isInitialized",
      "outputs": [
        {
          "internalType": "bool",
          "name": "",
          "type": "bool"
        }
      ],
      "stateMutability": "view",
      "type": "function"
    },
    {
      "inputs": [
        {
          "internalType": "bytes32",
          "name": "hash",
          "type": "bytes32"
        }
      ],
      "name": "isTransferCompleted",
      "outputs": [
        {
          "internalType": "bool",
          "name": "",
          "type": "bool"
        }
      ],
      "stateMutability": "view",
      "type": "function"
    },
    {
      "inputs": [
        {
          "internalType": "address",
          "name": "token",
          "type": "address"
        }
      ],
      "name": "isWrappedAsset",
      "outputs": [
        {
          "internalType": "bool",
          "name": "",
          "type": "bool"
        }
      ],
      "stateMutability": "view",
      "type": "function"
    },
    {
      "inputs": [
        {
          "internalType": "address",
          "name": "operator",
          "type": "address"
        },
        {
          "internalType": "address",
          "name": "",
          "type": "address"
        },
        {
          "internalType": "uint256",
          "name": "",
          "type": "uint256"
        },
        {
          "internalType": "bytes",
          "name": "",
          "type": "bytes"
        }
      ],
      "name": "onERC721Received",
      "outputs": [
        {
          "internalType": "bytes4",
          "name": "",
          "type": "bytes4"
        }
      ],
      "stateMutability": "view",
      "type": "function"
    },
    {
      "inputs": [
        {
          "internalType": "bytes",
          "name": "encoded",
          "type": "bytes"
        }
      ],
      "name": "parseRegisterChain",
      "outputs": [
        {
          "components": [
            {
              "internalType": "bytes32",
              "name": "module",
              "type": "bytes32"
            },
            {
              "internalType": "uint8",
              "name": "action",
              "type": "uint8"
            },
            {
              "internalType": "uint16",
              "name": "chainId",
              "type": "uint16"
            },
            {
              "internalType": "uint16",
              "name": "emitterChainID",
              "type": "uint16"
            },
            {
              "internalType": "bytes32",
              "name": "emitterAddress",
              "type": "bytes32"
            }
          ],
          "internalType": "struct NFTBridgeStructs.RegisterChain",
          "name": "chain",
          "type": "tuple"
        }
      ],
      "stateMutability": "pure",
      "type": "function"
    },
    {
      "inputs": [
        {
          "internalType": "bytes",
          "name": "encoded",
          "type": "bytes"
        }
      ],
      "name": "parseTransfer",
      "outputs": [
        {
          "components": [
            {
              "internalType": "bytes32",
              "name": "tokenAddress",
              "type": "bytes32"
            },
            {
              "internalType": "uint16",
              "name": "tokenChain",
              "type": "uint16"
            },
            {
              "internalType": "bytes32",
              "name": "symbol",
              "type": "bytes32"
            },
            {
              "internalType": "bytes32",
              "name": "name",
              "type": "bytes32"
            },
            {
              "internalType": "uint256",
              "name": "tokenID",
              "type": "uint256"
            },
            {
              "internalType": "string",
              "name": "uri",
              "type": "string"
            },
            {
              "internalType": "bytes32",
              "name": "to",
              "type": "bytes32"
            },
            {
              "internalType": "uint16",
              "name": "toChain",
              "type": "uint16"
            }
          ],
          "internalType": "struct NFTBridgeStructs.Transfer",
          "name": "transfer",
          "type": "tuple"
        }
      ],
      "stateMutability": "pure",
      "type": "function"
    },
    {
      "inputs": [
        {
          "internalType": "bytes",
          "name": "encoded",
          "type": "bytes"
        }
      ],
      "name": "parseUpgrade",
      "outputs": [
        {
          "components": [
            {
              "internalType": "bytes32",
              "name": "module",
              "type": "bytes32"
            },
            {
              "internalType": "uint8",
              "name": "action",
              "type": "uint8"
            },
            {
              "internalType": "uint16",
              "name": "chainId",
              "type": "uint16"
            },
            {
              "internalType": "bytes32",
              "name": "newContract",
              "type": "bytes32"
            }
          ],
          "internalType": "struct NFTBridgeStructs.UpgradeContract",
          "name": "chain",
          "type": "tuple"
        }
      ],
      "stateMutability": "pure",
      "type": "function"
    },
    {
      "inputs": [
        {
          "internalType": "bytes",
          "name": "encodedVM",
          "type": "bytes"
        }
      ],
      "name": "registerChain",
      "outputs": [],
      "stateMutability": "nonpayable",
      "type": "function"
    },
    {
      "inputs": [
        {
          "internalType": "uint256",
          "name": "tokenId",
          "type": "uint256"
        }
      ],
      "name": "splCache",
      "outputs": [
        {
          "components": [
            {
              "internalType": "bytes32",
              "name": "name",
              "type": "bytes32"
            },
            {
              "internalType": "bytes32",
              "name": "symbol",
              "type": "bytes32"
            }
          ],
          "internalType": "struct NFTBridgeStorage.SPLCache",
          "name": "",
          "type": "tuple"
        }
      ],
      "stateMutability": "view",
      "type": "function"
    },
    {
      "inputs": [],
      "name": "tokenImplementation",
      "outputs": [
        {
          "internalType": "address",
          "name": "",
          "type": "address"
        }
      ],
      "stateMutability": "view",
      "type": "function"
    },
    {
      "inputs": [
        {
          "internalType": "address",
          "name": "token",
          "type": "address"
        },
        {
          "internalType": "uint256",
          "name": "tokenID",
          "type": "uint256"
        },
        {
          "internalType": "uint16",
          "name": "recipientChain",
          "type": "uint16"
        },
        {
          "internalType": "bytes32",
          "name": "recipient",
          "type": "bytes32"
        },
        {
          "internalType": "uint32",
          "name": "nonce",
          "type": "uint32"
        }
      ],
      "name": "transferNFT",
      "outputs": [
        {
          "internalType": "uint64",
          "name": "sequence",
          "type": "uint64"
        }
      ],
      "stateMutability": "payable",
      "type": "function"
    },
    {
      "inputs": [
        {
          "internalType": "bytes",
          "name": "encodedVM",
          "type": "bytes"
        }
      ],
      "name": "upgrade",
      "outputs": [],
      "stateMutability": "nonpayable",
      "type": "function"
    },
    {
      "inputs": [],
      "name": "wormhole",
      "outputs": [
        {
          "internalType": "contract IWormhole",
          "name": "",
          "type": "address"
        }
      ],
      "stateMutability": "view",
      "type": "function"
    },
    {
      "inputs": [
        {
          "internalType": "uint16",
          "name": "tokenChainId",
          "type": "uint16"
        },
        {
          "internalType": "bytes32",
          "name": "tokenAddress",
          "type": "bytes32"
        }
      ],
      "name": "wrappedAsset",
      "outputs": [
        {
          "internalType": "address",
          "name": "",
          "type": "address"
        }
      ],
      "stateMutability": "view",
      "type": "function"
    }
  ],
  "bytecode": {
    "object": "0x608060405234801561001057600080fd5b50613a9d806100206000396000f3fe6080604052600436106200014f5760003560e01c80639a8a059211620000b9578063c68785191162000078578063c687851914620004f2578063c96616e11462000517578063d60b347f1462000547578063e6a853e01462000584578063fbe3c2cd14620005b8578063fbeeacd914620005d957600080fd5b80639a8a05921462000414578063a5799f93146200043e578063aa4efa5b1462000463578063ad66a5f11462000497578063b172b22214620004db57600080fd5b80632b51137511620001125780632b51137514620002c45780632c3c02a414620002f85780632f3a3d5d146200032c5780633ca64826146200034c578063739fc8d114620003c557806384acd1bb14620003f457600080fd5b806301f532551462000154578063150b7a0214620001d25780631a2be4da14620002115780631ff1e286146200025f57806325394645146200029d575b600080fd5b3480156200016157600080fd5b5062000179620001733660046200295e565b62000639565b604051620001c99190600060a0820190508251825260ff6020840151166020830152604083015161ffff808216604085015280606086015116606085015250506080830151608083015292915050565b60405180910390f35b348015620001df57600080fd5b50620001f7620001f13660046200280e565b62000841565b6040516001600160e01b03199091168152602001620001c9565b3480156200021e57600080fd5b506200024e62000230366004620027f1565b6001600160a01b031660009081526008602052604090205460ff1690565b6040519015158152602001620001c9565b3480156200026c57600080fd5b50620002846200027e36600462002c54565b620008c5565b6040516001600160a01b039091168152602001620001c9565b348015620002aa57600080fd5b50620002c2620002bc3660046200295e565b620008f1565b005b348015620002d157600080fd5b50620002e9620002e33660046200295e565b620009d5565b604051620001c9919062002e56565b3480156200030557600080fd5b506200024e620003173660046200292c565b60009081526004602052604090205460ff1690565b3480156200033957600080fd5b506001546001600160a01b031662000284565b3480156200035957600080fd5b50620003a96200036b3660046200292c565b6040805180820190915260008082526020820152506000908152600a6020908152604091829020825180840190935280548352600101549082015290565b60408051825181526020928301519281019290925201620001c9565b348015620003d257600080fd5b50600254640100000000900460ff1660405160ff9091168152602001620001c9565b3480156200040157600080fd5b506000546001600160a01b031662000284565b3480156200042157600080fd5b5060025461ffff165b60405161ffff9091168152602001620001c9565b3480156200044b57600080fd5b50620002c26200045d3660046200295e565b62000bab565b3480156200047057600080fd5b506200024e620004823660046200292c565b60009081526005602052604090205460ff1690565b348015620004a457600080fd5b50620004cc620004b636600462002c16565b61ffff1660009081526009602052604090205490565b604051908152602001620001c9565b348015620004e857600080fd5b50600354620004cc565b348015620004ff57600080fd5b50620002c2620005113660046200295e565b62000cb1565b6200052e62000528366004620028ac565b62000cbf565b6040516001600160401b039091168152602001620001c9565b3480156200055457600080fd5b506200024e62000566366004620027f1565b6001600160a01b031660009081526006602052604090205460ff1690565b3480156200059157600080fd5b50620005a9620005a3366004620029de565b62001383565b604051620001c9919062002ded565b348015620005c557600080fd5b5060025462010000900461ffff166200042a565b348015620005e657600080fd5b50620005fe620005f83660046200295e565b6200143f565b604051620001c991908151815260208083015160ff169082015260408083015161ffff16908201526060918201519181019190915260800190565b6040805160a08101825260008082526020820181905291810182905260608101829052608081018290529062000670838262001618565b82526200067f60208262002fdc565b8251909150684e465442726964676514620006ed5760405162461bcd60e51b815260206004820152602360248201527f696e76616c6964205265676973746572436861696e3a2077726f6e67206d6f64604482015262756c6560e81b60648201526084015b60405180910390fd5b620006f983826200167a565b60ff1660208301526200070e60018262002fdc565b9050816020015160ff16600114620007755760405162461bcd60e51b815260206004820152602360248201527f696e76616c6964205265676973746572436861696e3a2077726f6e672061637460448201526234b7b760e91b6064820152608401620006e4565b620007818382620016da565b61ffff1660408301526200079760028262002fdc565b9050620007a58382620016da565b61ffff166060830152620007bb60028262002fdc565b9050620007c9838262001618565b6080830152620007db60208262002fdc565b9050808351146200083b5760405162461bcd60e51b815260206004820152602360248201527f696e76616c6964205265676973746572436861696e3a2077726f6e67206c656e6044820152620cee8d60eb1b6064820152608401620006e4565b50919050565b60006001600160a01b0386163014620008b35760405162461bcd60e51b815260206004820152602d60248201527f63616e206f6e6c792062726964676520746f6b656e7320766961207472616e7360448201526c19995c939195081b595d1a1bd9609a1b6064820152608401620006e4565b50630a85bd0160e11b95945050505050565b61ffff91909116600090815260076020908152604080832093835292905220546001600160a01b031690565b600080600062000901846200173b565b9250925092508181906200092a5760405162461bcd60e51b8152600401620006e4919062002ded565b50620009508361014001516000908152600460205260409020805460ff19166001179055565b6000620009618460e001516200143f565b90506200097160025461ffff1690565b61ffff16816040015161ffff1614620009be5760405162461bcd60e51b815260206004820152600e60248201526d1ddc9bdb99c818da185a5b881a5960921b6044820152606401620006e4565b6060810151620009ce906200196a565b5050505050565b604080516101008101825260008082526020820181905291810182905260608082018390526080820183905260a082015260c0810182905260e08101829052908062000a2284826200167a565b905062000a3160018362002fdc565b91508060ff1660011462000a7b5760405162461bcd60e51b815260206004820152601060248201526f34b73b30b634b2102a3930b739b332b960811b6044820152606401620006e4565b62000a87848362001618565b835262000a9660208362002fdc565b915062000aa48483620016da565b61ffff16602084015262000aba60028362002fdc565b915062000ac8848362001618565b604084015262000ada60208362002fdc565b915062000ae8848362001618565b606084015262000afa60208362002fdc565b915062000b08848362001aa1565b608084015262000b1a60208362002fdc565b915062000b2960018362002fdc565b915062000b5682602284875162000b41919062002ff7565b62000b4d919062002ff7565b86919062001afa565b60a08401528351915062000b6c60028362002ff7565b915062000b7a8483620016da565b61ffff1660e084015262000b9060208362002ff7565b915062000b9e848362001618565b60c0840152509092915050565b600080600062000bbb846200173b565b92509250925081819062000be45760405162461bcd60e51b8152600401620006e4919062002ded565b5062000c0a8361014001516000908152600460205260409020805460ff19166001179055565b600062000c1b8460e0015162000639565b905062000c2b60025461ffff1690565b61ffff16816040015161ffff16148062000c4b5750604081015161ffff16155b62000c8c5760405162461bcd60e51b815260206004820152601060248201526f1a5b9d985b1a590818da185a5b881a5960821b6044820152606401620006e4565b620009ce8160600151826080015161ffff909116600090815260096020526040902055565b62000cbc8162001c13565b50565b600080600062000ce7886001600160a01b031660009081526008602052604090205460ff1690565b1562000de157876001600160a01b0316639a8a05926040518163ffffffff1660e01b815260040160206040518083038186803b15801562000d2757600080fd5b505afa15801562000d3c573d6000803e3d6000fd5b505050506040513d601f19601f8201168201806040525081019062000d62919062002c35565b9150876001600160a01b0316633d6c043b6040518163ffffffff1660e01b815260040160206040518083038186803b15801562000d9e57600080fd5b505afa15801562000db3573d6000803e3d6000fd5b505050506040513d601f19601f8201168201806040525081019062000dd9919062002945565b905062000fab565b60025461ffff166040516301ffc9a760e01b81526380ac58cd60e01b60048201529092506001600160a01b038916915081906301ffc9a79060240160206040518083038186803b15801562000e3557600080fd5b505afa15801562000e4a573d6000803e3d6000fd5b505050506040513d601f19601f8201168201806040525081019062000e7091906200290f565b62000ec85760405162461bcd60e51b815260206004820152602160248201527f6d75737420737570706f7274207468652045524337323120696e7465726661636044820152606560f81b6064820152608401620006e4565b6040516301ffc9a760e01b8152635b5e139f60e01b60048201526001600160a01b038916906301ffc9a79060240160206040518083038186803b15801562000f0f57600080fd5b505afa15801562000f24573d6000803e3d6000fd5b505050506040513d601f19601f8201168201806040525081019062000f4a91906200290f565b62000fab5760405162461bcd60e51b815260206004820152602a60248201527f6d75737420737570706f727420746865204552433732312d4d657461646174616044820152691032bc3a32b739b4b7b760b11b6064820152608401620006e4565b60608060608461ffff16600114620011055760408051600481526024810182526020810180516001600160e01b03166395d89b4160e01b17905290516000916001600160a01b038e169162001001919062002ccd565b600060405180830381855afa9150503d80600081146200103e576040519150601f19603f3d011682016040523d82523d6000602084013e62001043565b606091505b5060408051600481526024810182526020810180516001600160e01b03166306fdde0360e01b1790529051919350600092506001600160a01b038f16916200108c919062002ccd565b600060405180830381855afa9150503d8060008114620010c9576040519150601f19603f3d011682016040523d82523d6000602084013e620010ce565b606091505b5091505081806020019051810190620010e89190620029a8565b945080806020019051810190620011009190620029a8565b935050505b60008b6001600160a01b03168b6040516024016200112591815260200190565b60408051601f198184030181529181526020820180516001600160e01b031663c87b56dd60e01b179052516200115c919062002ccd565b600060405180830381855afa9150503d806000811462001199576040519150601f19603f3d011682016040523d82523d6000602084013e6200119e565b606091505b5091505080806020019051810190620011b89190620029a8565b9150506000808661ffff16600114156200123557604080518082018252600080825260209182018190528e8152600a825282812083518085019094528054845260010154918301919091529060208101518151909450925090506200122e8d6000908152600a6020526040812081815560010155565b5062001242565b5050602083810151908301515b604051632142170760e11b8152336004820152306024820152604481018d90526001600160a01b038e16906342842e0e90606401600060405180830381600087803b1580156200129157600080fd5b505af1158015620012a6573d6000803e3d6000fd5b50505050620012b860025461ffff1690565b61ffff168761ffff16146200132457604051630852cd8d60e31b8152600481018d90526001600160a01b038e16906342966c6890602401600060405180830381600087803b1580156200130a57600080fd5b505af11580156200131f573d6000803e3d6000fd5b505050505b620013726040518061010001604052808881526020018961ffff1681526020018481526020018381526020018e81526020018581526020018c81526020018d61ffff16815250348b62001ff7565b9d9c50505050505050505050505050565b606060c88260a00151511115620013e85760405162461bcd60e51b815260206004820152602260248201527f746f6b656e555249206d757374206e6f74206578636565642032303020627974604482015261657360f01b6064820152608401620006e4565b81516020808401516040808601516060870151608088015160a0890151805160c08b015160e08c01519651620014299a60019a909998939493910162002d1e565b6040516020818303038152906040529050919050565b6040805160808101825260008082526020820181905291810182905260608101829052906200146f838262001618565b82526200147e60208262002fdc565b8251909150684e465442726964676514620014ea5760405162461bcd60e51b815260206004820152602560248201527f696e76616c69642055706772616465436f6e74726163743a2077726f6e67206d6044820152646f64756c6560d81b6064820152608401620006e4565b620014f683826200167a565b60ff1660208301526200150b60018262002fdc565b9050816020015160ff16600214620015745760405162461bcd60e51b815260206004820152602560248201527f696e76616c69642055706772616465436f6e74726163743a2077726f6e67206160448201526431ba34b7b760d91b6064820152608401620006e4565b620015808382620016da565b61ffff1660408301526200159660028262002fdc565b9050620015a4838262001618565b6060830152620015b660208262002fdc565b9050808351146200083b5760405162461bcd60e51b815260206004820152602560248201527f696e76616c69642055706772616465436f6e74726163743a2077726f6e67206c6044820152640cadccee8d60db1b6064820152608401620006e4565b60006200162782602062002fdc565b83511015620016715760405162461bcd60e51b8152602060048201526015602482015274746f427974657333325f6f75744f66426f756e647360581b6044820152606401620006e4565b50016020015190565b60006200168982600162002fdc565b83511015620016d15760405162461bcd60e51b8152602060048201526013602482015272746f55696e74385f6f75744f66426f756e647360681b6044820152606401620006e4565b50016001015190565b6000620016e982600262002fdc565b83511015620017325760405162461bcd60e51b8152602060048201526014602482015273746f55696e7431365f6f75744f66426f756e647360601b6044820152606401620006e4565b50016002015190565b604080516101608101825260008082526020820181905291810182905260608082018390526080820183905260a0820183905260c0820183905260e082018190526101008201839052610120820152610140810191909152600060606000806000620017af6000546001600160a01b031690565b6001600160a01b031663c0fd8bde886040518263ffffffff1660e01b8152600401620017dc919062002ded565b60006040518083038186803b158015620017f557600080fd5b505afa1580156200180a573d6000803e3d6000fd5b505050506040513d6000823e601f3d908101601f1916820160405262001834919081019062002aa7565b925092509250816200184d579194509250905062001963565b60025462010000900461ffff1661ffff16836060015161ffff1614620018ab5750506040805180820190915260168152753bb937b7339033b7bb32b93730b731b29031b430b4b760511b602082015290935060009250905062001963565b600354836080015114620018fe57505060408051808201909152601981527f77726f6e6720676f7665726e616e636520636f6e747261637400000000000000602082015290935060009250905062001963565b61014083015160009081526004602052604090205460ff1615620019485782600060405180606001604052806022815260200162003a466022913995509550955050505062001963565b50506040805160208101909152600081529093506001925090505b9193909250565b60006200199e7f360894a13ba1a3210667c828492db98dca3e2076cc3735a920a3ca505d382bbc546001600160a01b031690565b9050620019ab82620020c0565b60408051600481526024810182526020810180516001600160e01b031663204a7f0760e21b179052905160009182916001600160a01b03861691620019f09162002ccd565b600060405180830381855af49150503d806000811462001a2d576040519150601f19603f3d011682016040523d82523d6000602084013e62001a32565b606091505b509150915081819062001a5a5760405162461bcd60e51b8152600401620006e4919062002ded565b50836001600160a01b0316836001600160a01b03167f2e4cc16c100f0b55e2df82ab0b1a7e294aa9cbd01b48fbaf622683fbc0507a4960405160405180910390a350505050565b600062001ab082602062002fdc565b83511015620016715760405162461bcd60e51b8152602060048201526015602482015274746f55696e743235365f6f75744f66426f756e647360581b6044820152606401620006e4565b60608162001b0a81601f62002fdc565b101562001b4b5760405162461bcd60e51b815260206004820152600e60248201526d736c6963655f6f766572666c6f7760901b6044820152606401620006e4565b62001b57828462002fdc565b8451101562001b9d5760405162461bcd60e51b8152602060048201526011602482015270736c6963655f6f75744f66426f756e647360781b6044820152606401620006e4565b60608215801562001bbe576040519150600082526020820160405262001c0a565b6040519150601f8416801560200281840101858101878315602002848b0101015b8183101562001bf957805183526020928301920162001bdf565b5050858452601f01601f1916604052505b50949350505050565b600080600062001c2b6000546001600160a01b031690565b6001600160a01b031663c0fd8bde856040518263ffffffff1660e01b815260040162001c58919062002ded565b60006040518083038186803b15801562001c7157600080fd5b505afa15801562001c86573d6000803e3d6000fd5b505050506040513d6000823e601f3d908101601f1916820160405262001cb0919081019062002aa7565b92509250925081819062001cd95760405162461bcd60e51b8152600401620006e4919062002ded565b5062001ce58362002102565b62001d255760405162461bcd60e51b815260206004820152600f60248201526e34b73b30b634b21032b6b4ba3a32b960891b6044820152606401620006e4565b600062001d368460e00151620009d5565b905062001d5784610140015160009081526005602052604090205460ff1690565b1562001da65760405162461bcd60e51b815260206004820152601a60248201527f7472616e7366657220616c726561647920636f6d706c657465640000000000006044820152606401620006e4565b62001dcb8461014001516000908152600560205260409020805460ff19166001179055565b60025461ffff1661ffff168160e0015161ffff161462001e255760405162461bcd60e51b815260206004820152601460248201527334b73b30b634b2103a30b933b2ba1031b430b4b760611b6044820152606401620006e4565b600062001e3560025461ffff1690565b61ffff16826020015161ffff16141562001e525750805162001e9d565b600062001e6883602001518460000151620008c5565b90506001600160a01b03811662001e9a5762001e9783602001518460000151856060015186604001516200213f565b90505b90505b60c082015160025461ffff1661ffff16836020015161ffff161462001f7c57826020015161ffff166001141562001f08576080830151604080518082018252606086015181528186015160208083019182526000948552600a90529190922091518255516001909101555b608083015160a08401516040516334ff261960e21b81526001600160a01b0385169263d3fc98649262001f42928692919060040162002dc4565b600060405180830381600087803b15801562001f5d57600080fd5b505af115801562001f72573d6000803e3d6000fd5b5050505062001fee565b6080830151604051632142170760e11b81523060048201526001600160a01b0383811660248301526044820192909252908316906342842e0e90606401600060405180830381600087803b15801562001fd457600080fd5b505af115801562001fe9573d6000803e3d6000fd5b505050505b50505050505050565b600080620020058562001383565b90506200201a6000546001600160a01b031690565b6001600160a01b031663b19a437e8585846200204160025460ff6401000000009091041690565b6040518563ffffffff1660e01b8152600401620020619392919062002ed4565b6020604051808303818588803b1580156200207b57600080fd5b505af115801562002090573d6000803e3d6000fd5b50505050506040513d601f19601f82011682018060405250810190620020b7919062002c82565b95945050505050565b620020cb81620023ec565b6040516001600160a01b038216907fbc7cd75a20ee27fd9adebab32041f755214dbc6bffa90cc0225b39da2e5c2d3b90600090a250565b6000816080015162002128836060015161ffff1660009081526009602052604090205490565b14156200213757506001919050565b506000919050565b60006200214f60025461ffff1690565b61ffff168561ffff161415620021b95760405162461bcd60e51b815260206004820152602860248201527f63616e206f6e6c79207772617020746f6b656e732066726f6d20666f726569676044820152676e20636861696e7360c01b6064820152608401620006e4565b6000620021c78686620008c5565b6001600160a01b0316146200221f5760405162461bcd60e51b815260206004820152601c60248201527f7772617070656420617373657420616c726561647920657869737473000000006044820152606401620006e4565b8461ffff166001141562002261577f576f726d686f6c65204272696467656420536f6c616e612d4e4654000000000092506915d3d49354d41313919560b21b91505b6000627ce50b60e31b620022758562002493565b620022808562002493565b3089896040516024016200229995949392919062002e02565b60408051601f19818403018152918152602080830180516001600160e01b03166001600160e01b03199095169490941790935251909250600091620022e391309185910162002d9e565b60405160208183030381529060405290506000604051806020016200230890620025ce565b601f1982820381018352601f9091011660408190526200232e9190849060200162002ceb565b60408051601f19818403018152908290526001600160f01b031960f08b901b166020830152602282018990529150600090604201604051602081830303815290604052805190602001209050808251602084016000f59450843b6200239257600080fd5b61ffff891660009081526007602090815260408083208b8452825280832080546001600160a01b0319166001600160a01b038a16908117909155835260089091529020805460ff1916600117905550505050949350505050565b803b620024525760405162461bcd60e51b815260206004820152602d60248201527f455243313936373a206e657720696d706c656d656e746174696f6e206973206e60448201526c1bdd08184818dbdb9d1c9858dd609a1b6064820152608401620006e4565b7f360894a13ba1a3210667c828492db98dca3e2076cc3735a920a3ca505d382bbc80546001600160a01b0319166001600160a01b0392909216919091179055565b606060005b602081108015620024d65750828160208110620024c557634e487b7160e01b600052603260045260246000fd5b1a60f81b6001600160f81b03191615155b15620024f15780620024e88162003044565b91505062002498565b6000816001600160401b038111156200251a57634e487b7160e01b600052604160045260246000fd5b6040519080825280601f01601f19166020018201604052801562002545576020820181803683370190505b50905060005b82811015620025c6578481602081106200257557634e487b7160e01b600052603260045260246000fd5b1a60f81b8282815181106200259a57634e487b7160e01b600052603260045260246000fd5b60200101906001600160f81b031916908160001a90535080620025bd8162003044565b9150506200254b565b509392505050565b61099380620030b383390190565b6000620025f3620025ed8462002fb2565b62002f7f565b90508281528383830111156200260857600080fd5b828260208301376000602084830101529392505050565b80356001600160a01b03811681146200263757600080fd5b919050565b600082601f8301126200264d578081fd5b815160206001600160401b038211156200266b576200266b62003078565b6200267b818360051b0162002f7f565b80838252828201915082860187848660071b89010111156200269b578586fd5b855b858110156200270757608080838b031215620026b7578788fd5b620026c162002f08565b8351815286840151878201526040620026dc818601620027df565b908201526060620026ef858201620027df565b9082015285529385019391909101906001016200269d565b5090979650505050505050565b805180151581146200263757600080fd5b600082601f83011262002736578081fd5b815162002747620025ed8262002fb2565b8181528460208386010111156200275c578283fd5b6200276f82602083016020870162003011565b949350505050565b600082601f83011262002788578081fd5b6200279983833560208501620025dc565b9392505050565b803562002637816200308e565b805162002637816200308e565b805162002637816200309f565b80516001600160401b03811681146200263757600080fd5b805160ff811681146200263757600080fd5b60006020828403121562002803578081fd5b62002799826200261f565b60008060008060006080868803121562002826578081fd5b62002831866200261f565b945062002841602087016200261f565b93506040860135925060608601356001600160401b038082111562002864578283fd5b818801915088601f83011262002878578283fd5b81358181111562002887578384fd5b89602082850101111562002899578384fd5b9699959850939650602001949392505050565b600080600080600060a08688031215620028c4578283fd5b620028cf866200261f565b9450602086013593506040860135620028e8816200308e565b925060608601359150608086013562002901816200309f565b809150509295509295909350565b60006020828403121562002921578081fd5b620027998262002714565b6000602082840312156200293e578081fd5b5035919050565b60006020828403121562002957578081fd5b5051919050565b60006020828403121562002970578081fd5b81356001600160401b0381111562002986578182fd5b8201601f8101841362002997578182fd5b6200276f84823560208401620025dc565b600060208284031215620029ba578081fd5b81516001600160401b03811115620029d0578182fd5b6200276f8482850162002725565b600060208284031215620029f0578081fd5b81356001600160401b038082111562002a07578283fd5b90830190610100828603121562002a1c578283fd5b62002a2662002f33565b8235815262002a3860208401620027a0565b602082015260408301356040820152606083013560608201526080830135608082015260a08301358281111562002a6d578485fd5b62002a7b8782860162002777565b60a08301525060c083013560c082015262002a9960e08401620027a0565b60e082015295945050505050565b60008060006060848603121562002abc578081fd5b83516001600160401b038082111562002ad3578283fd5b90850190610160828803121562002ae8578283fd5b62002af262002f59565b62002afd83620027df565b815262002b0d60208401620027ba565b602082015262002b2060408401620027ba565b604082015262002b3360608401620027ad565b60608201526080830151608082015262002b5060a08401620027c7565b60a082015262002b6360c08401620027df565b60c082015260e08301518281111562002b7a578485fd5b62002b888982860162002725565b60e08301525061010062002b9e818501620027ba565b90820152610120838101518381111562002bb6578586fd5b62002bc48a8287016200263c565b91830191909152506101408381015190820152945062002be76020870162002714565b9350604086015191508082111562002bfd578283fd5b5062002c0c8682870162002725565b9150509250925092565b60006020828403121562002c28578081fd5b813562002799816200308e565b60006020828403121562002c47578081fd5b815162002799816200308e565b6000806040838503121562002c67578182fd5b823562002c74816200308e565b946020939093013593505050565b60006020828403121562002c94578081fd5b6200279982620027c7565b6000815180845262002cb981602086016020860162003011565b601f01601f19169290920160200192915050565b6000825162002ce181846020870162003011565b9190910192915050565b6000835162002cff81846020880162003011565b83519083019062002d1581836020880162003011565b01949350505050565b600060ff60f81b808d60f81b1683528b600184015261ffff60f01b808c60f01b1660218501528a6023850152896043850152886063850152818860f81b1660838501528651915062002d78826084860160208a0162003011565b920160848101949094525060f09190911b1660a482015260a60198975050505050505050565b6001600160a01b03831681526040602082018190526000906200276f9083018462002c9f565b60018060a01b0384168152826020820152606060408201526000620020b7606083018462002c9f565b60208152600062002799602083018462002c9f565b60a08152600062002e1760a083018862002c9f565b828103602084015262002e2b818862002c9f565b6001600160a01b03969096166040840152505061ffff92909216606083015260809091015292915050565b60208152815160208201526000602083015161ffff80821660408501526040850151606085015260608501516080850152608085015160a085015260a085015191506101008060c086015262002eb161012086018462002c9f565b925060c086015160e08601528160e0870151168186015250508091505092915050565b63ffffffff8416815260606020820152600062002ef5606083018562002c9f565b905060ff83166040830152949350505050565b604051608081016001600160401b038111828210171562002f2d5762002f2d62003078565b60405290565b60405161010081016001600160401b038111828210171562002f2d5762002f2d62003078565b60405161016081016001600160401b038111828210171562002f2d5762002f2d62003078565b604051601f8201601f191681016001600160401b038111828210171562002faa5762002faa62003078565b604052919050565b60006001600160401b0382111562002fce5762002fce62003078565b50601f01601f191660200190565b6000821982111562002ff25762002ff262003062565b500190565b6000828210156200300c576200300c62003062565b500390565b60005b838110156200302e57818101518382015260200162003014565b838111156200303e576000848401525b50505050565b60006000198214156200305b576200305b62003062565b5060010190565b634e487b7160e01b600052601160045260246000fd5b634e487b7160e01b600052604160045260246000fd5b61ffff8116811462000cbc57600080fd5b63ffffffff8116811462000cbc57600080fdfe608060405234801561001057600080fd5b5060405161099338038061099383398101604081905261002f9161048e565b818161005c60017fa3f0ad74e5423aebfd80d3ef4346578335a9a72aeaee59ff6cb3582b35133d51610599565b60008051602061094c8339815191521461008657634e487b7160e01b600052600160045260246000fd5b6100928282600061009b565b505050506105fe565b6100a483610175565b6040516001600160a01b038416907f1cf3b03a6cf19fa2baba4df148e9dcabedea7f8a5c07840e207e5c089be95d3e90600090a26000825111806100e55750805b156101705761016e836001600160a01b0316635c60da1b6040518163ffffffff1660e01b815260040160206040518083038186803b15801561012657600080fd5b505afa15801561013a573d6000803e3d6000fd5b505050506040513d601f19601f8201168201806040525081019061015e9190610474565b8361031560201b6100291760201c565b505b505050565b6101888161034160201b6100551760201c565b6101e75760405162461bcd60e51b815260206004820152602560248201527f455243313936373a206e657720626561636f6e206973206e6f74206120636f6e6044820152641d1c9858dd60da1b60648201526084015b60405180910390fd5b61026a816001600160a01b0316635c60da1b6040518163ffffffff1660e01b815260040160206040518083038186803b15801561022357600080fd5b505afa158015610237573d6000803e3d6000fd5b505050506040513d601f19601f8201168201806040525081019061025b9190610474565b61034160201b6100551760201c565b6102cf5760405162461bcd60e51b815260206004820152603060248201527f455243313936373a20626561636f6e20696d706c656d656e746174696f6e206960448201526f1cc81b9bdd08184818dbdb9d1c9858dd60821b60648201526084016101de565b806102f460008051602061094c83398151915260001b61034760201b61005b1760201c565b80546001600160a01b0319166001600160a01b039290921691909117905550565b606061033a838360405180606001604052806027815260200161096c6027913961034a565b9392505050565b3b151590565b90565b6060833b6103a95760405162461bcd60e51b815260206004820152602660248201527f416464726573733a2064656c65676174652063616c6c20746f206e6f6e2d636f6044820152651b9d1c9858dd60d21b60648201526084016101de565b600080856001600160a01b0316856040516103c4919061054a565b600060405180830381855af49150503d80600081146103ff576040519150601f19603f3d011682016040523d82523d6000602084013e610404565b606091505b50909250905061041582828661041f565b9695505050505050565b6060831561042e57508161033a565b82511561043e5782518084602001fd5b8160405162461bcd60e51b81526004016101de9190610566565b80516001600160a01b038116811461046f57600080fd5b919050565b600060208284031215610485578081fd5b61033a82610458565b600080604083850312156104a0578081fd5b6104a983610458565b60208401519092506001600160401b03808211156104c5578283fd5b818501915085601f8301126104d8578283fd5b8151818111156104ea576104ea6105e8565b604051601f8201601f19908116603f01168101908382118183101715610512576105126105e8565b8160405282815288602084870101111561052a578586fd5b61053b8360208301602088016105bc565b80955050505050509250929050565b6000825161055c8184602087016105bc565b9190910192915050565b60208152600082518060208401526105858160408501602087016105bc565b601f01601f19169190910160400192915050565b6000828210156105b757634e487b7160e01b81526011600452602481fd5b500390565b60005b838110156105d75781810151838201526020016105bf565b8381111561016e5750506000910152565b634e487b7160e01b600052604160045260246000fd5b61033f8061060d6000396000f3fe60806040523661001357610011610017565b005b6100115b61002761002261005e565b610106565b565b606061004e83836040518060600160405280602781526020016102e36027913961012a565b9392505050565b3b151590565b90565b60006100917fa3f0ad74e5423aebfd80d3ef4346578335a9a72aeaee59ff6cb3582b35133d50546001600160a01b031690565b6001600160a01b0316635c60da1b6040518163ffffffff1660e01b815260040160206040518083038186803b1580156100c957600080fd5b505afa1580156100dd573d6000803e3d6000fd5b505050506040513d601f19601f82011682018060405250810190610101919061023c565b905090565b3660008037600080366000845af43d6000803e808015610125573d6000f35b3d6000fd5b6060833b61018e5760405162461bcd60e51b815260206004820152602660248201527f416464726573733a2064656c65676174652063616c6c20746f206e6f6e2d636f6044820152651b9d1c9858dd60d21b60648201526084015b60405180910390fd5b600080856001600160a01b0316856040516101a99190610263565b600060405180830381855af49150503d80600081146101e4576040519150601f19603f3d011682016040523d82523d6000602084013e6101e9565b606091505b50915091506101f9828286610203565b9695505050505050565b6060831561021257508161004e565b8251156102225782518084602001fd5b8160405162461bcd60e51b8152600401610185919061027f565b60006020828403121561024d578081fd5b81516001600160a01b038116811461004e578182fd5b600082516102758184602087016102b2565b9190910192915050565b602081526000825180602084015261029e8160408501602087016102b2565b601f01601f19169190910160400192915050565b60005b838110156102cd5781810151838201526020016102b5565b838111156102dc576000848401525b5050505056fe416464726573733a206c6f772d6c6576656c2064656c65676174652063616c6c206661696c6564a2646970667358221220160d85a29a84cf838180163b1113ca1cb351c7530a3b24652adb9dd2f2505a0764736f6c63430008040033a3f0ad74e5423aebfd80d3ef4346578335a9a72aeaee59ff6cb3582b35133d50416464726573733a206c6f772d6c6576656c2064656c65676174652063616c6c206661696c6564676f7665726e616e636520616374696f6e20616c726561647920636f6e73756d6564a26469706673582212203294ab8406b10cd751554bd9df1ce1f1639912904d05311c990e91bbde7e93af64736f6c63430008040033",
    "linkReferences": {}
  },
  "methodIdentifiers": {
    "bridgeContracts(uint16)": "ad66a5f1",
    "chainId()": "9a8a0592",
    "completeTransfer(bytes)": "c6878519",
    "encodeTransfer((bytes32,uint16,bytes32,bytes32,uint256,string,bytes32,uint16))": "e6a853e0",
    "finality()": "739fc8d1",
    "governanceActionIsConsumed(bytes32)": "2c3c02a4",
    "governanceChainId()": "fbe3c2cd",
    "governanceContract()": "b172b222",
    "isInitialized(address)": "d60b347f",
    "isTransferCompleted(bytes32)": "aa4efa5b",
    "isWrappedAsset(address)": "1a2be4da",
    "onERC721Received(address,address,uint256,bytes)": "150b7a02",
    "parseRegisterChain(bytes)": "01f53255",
    "parseTransfer(bytes)": "2b511375",
    "parseUpgrade(bytes)": "fbeeacd9",
    "registerChain(bytes)": "a5799f93",
    "splCache(uint256)": "3ca64826",
    "tokenImplementation()": "2f3a3d5d",
    "transferNFT(address,uint256,uint16,bytes32,uint32)": "c96616e1",
    "upgrade(bytes)": "25394645",
    "wormhole()": "84acd1bb",
    "wrappedAsset(uint16,bytes32)": "1ff1e286"
  },
  "id": 26
}