{
  "abi": [
    {
      "anonymous": false,
      "inputs": [
        {
          "indexed": false,
          "internalType": "address",
          "name": "previousAdmin",
          "type": "address"
        },
        {
          "indexed": false,
          "internalType": "address",
          "name": "newAdmin",
          "type": "address"
        }
      ],
      "name": "AdminChanged",
      "type": "event"
    },
    {
      "anonymous": false,
      "inputs": [
        {
          "indexed": true,
          "internalType": "address",
          "name": "beacon",
          "type": "address"
        }
      ],
      "name": "BeaconUpgraded",
      "type": "event"
    },
    {
      "anonymous": false,
      "inputs": [
        {
          "indexed": true,
          "internalType": "address",
          "name": "oldContract",
          "type": "address"
        },
        {
          "indexed": true,
          "internalType": "address",
          "name": "newContract",
          "type": "address"
        }
      ],
      "name": "ContractUpgraded",
      "type": "event"
    },
    {
      "anonymous": false,
      "inputs": [
        {
          "indexed": true,
          "internalType": "address",
          "name": "implementation",
          "type": "address"
        }
      ],
      "name": "Upgraded",
      "type": "event"
    },
    {
      "inputs": [
        {
          "internalType": "uint16",
          "name": "chainId_",
          "type": "uint16"
        }
      ],
      "name": "bridgeContracts",
      "outputs": [
        {
          "internalType": "bytes32",
          "name": "",
          "type": "bytes32"
        }
      ],
      "stateMutability": "view",
      "type": "function"
    },
    {
      "inputs": [],
      "name": "chainId",
      "outputs": [
        {
          "internalType": "uint16",
          "name": "",
          "type": "uint16"
        }
      ],
      "stateMutability": "view",
      "type": "function"
    },
    {
      "inputs": [
        {
          "internalType": "bytes",
          "name": "encodedVm",
          "type": "bytes"
        }
      ],
      "name": "completeTransfer",
      "outputs": [],
      "stateMutability": "nonpayable",
      "type": "function"
    },
    {
      "inputs": [
        {
          "components": [
            {
              "internalType": "bytes32",
              "name": "tokenAddress",
              "type": "bytes32"
            },
            {
              "internalType": "uint16",
              "name": "tokenChain",
              "type": "uint16"
            },
            {
              "internalType": "bytes32",
              "name": "symbol",
              "type": "bytes32"
            },
            {
              "internalType": "bytes32",
              "name": "name",
              "type": "bytes32"
            },
            {
              "internalType": "uint256",
              "name": "tokenID",
              "type": "uint256"
            },
            {
              "internalType": "string",
              "name": "uri",
              "type": "string"
            },
            {
              "internalType": "bytes32",
              "name": "to",
              "type": "bytes32"
            },
            {
              "internalType": "uint16",
              "name": "toChain",
              "type": "uint16"
            }
          ],
          "internalType": "struct NFTBridgeStructs.Transfer",
          "name": "transfer",
          "type": "tuple"
        }
      ],
      "name": "encodeTransfer",
      "outputs": [
        {
          "internalType": "bytes",
          "name": "encoded",
          "type": "bytes"
        }
      ],
      "stateMutability": "pure",
      "type": "function"
    },
    {
      "inputs": [],
      "name": "finality",
      "outputs": [
        {
          "internalType": "uint8",
          "name": "",
          "type": "uint8"
        }
      ],
      "stateMutability": "view",
      "type": "function"
    },
    {
      "inputs": [
        {
          "internalType": "bytes32",
          "name": "hash",
          "type": "bytes32"
        }
      ],
      "name": "governanceActionIsConsumed",
      "outputs": [
        {
          "internalType": "bool",
          "name": "",
          "type": "bool"
        }
      ],
      "stateMutability": "view",
      "type": "function"
    },
    {
      "inputs": [],
      "name": "governanceChainId",
      "outputs": [
        {
          "internalType": "uint16",
          "name": "",
          "type": "uint16"
        }
      ],
      "stateMutability": "view",
      "type": "function"
    },
    {
      "inputs": [],
      "name": "governanceContract",
      "outputs": [
        {
          "internalType": "bytes32",
          "name": "",
          "type": "bytes32"
        }
      ],
      "stateMutability": "view",
      "type": "function"
    },
    {
      "inputs": [],
      "name": "implementation",
      "outputs": [
        {
          "internalType": "address",
          "name": "",
          "type": "address"
        }
      ],
      "stateMutability": "view",
      "type": "function"
    },
    {
      "inputs": [],
      "name": "initialize",
      "outputs": [],
      "stateMutability": "nonpayable",
      "type": "function"
    },
    {
      "inputs": [
        {
          "internalType": "address",
          "name": "impl",
          "type": "address"
        }
      ],
      "name": "isInitialized",
      "outputs": [
        {
          "internalType": "bool",
          "name": "",
          "type": "bool"
        }
      ],
      "stateMutability": "view",
      "type": "function"
    },
    {
      "inputs": [
        {
          "internalType": "bytes32",
          "name": "hash",
          "type": "bytes32"
        }
      ],
      "name": "isTransferCompleted",
      "outputs": [
        {
          "internalType": "bool",
          "name": "",
          "type": "bool"
        }
      ],
      "stateMutability": "view",
      "type": "function"
    },
    {
      "inputs": [
        {
          "internalType": "address",
          "name": "token",
          "type": "address"
        }
      ],
      "name": "isWrappedAsset",
      "outputs": [
        {
          "internalType": "bool",
          "name": "",
          "type": "bool"
        }
      ],
      "stateMutability": "view",
      "type": "function"
    },
    {
      "inputs": [
        {
          "internalType": "address",
          "name": "operator",
          "type": "address"
        },
        {
          "internalType": "address",
          "name": "",
          "type": "address"
        },
        {
          "internalType": "uint256",
          "name": "",
          "type": "uint256"
        },
        {
          "internalType": "bytes",
          "name": "",
          "type": "bytes"
        }
      ],
      "name": "onERC721Received",
      "outputs": [
        {
          "internalType": "bytes4",
          "name": "",
          "type": "bytes4"
        }
      ],
      "stateMutability": "view",
      "type": "function"
    },
    {
      "inputs": [
        {
          "internalType": "bytes",
          "name": "encoded",
          "type": "bytes"
        }
      ],
      "name": "parseRegisterChain",
      "outputs": [
        {
          "components": [
            {
              "internalType": "bytes32",
              "name": "module",
              "type": "bytes32"
            },
            {
              "internalType": "uint8",
              "name": "action",
              "type": "uint8"
            },
            {
              "internalType": "uint16",
              "name": "chainId",
              "type": "uint16"
            },
            {
              "internalType": "uint16",
              "name": "emitterChainID",
              "type": "uint16"
            },
            {
              "internalType": "bytes32",
              "name": "emitterAddress",
              "type": "bytes32"
            }
          ],
          "internalType": "struct NFTBridgeStructs.RegisterChain",
          "name": "chain",
          "type": "tuple"
        }
      ],
      "stateMutability": "pure",
      "type": "function"
    },
    {
      "inputs": [
        {
          "internalType": "bytes",
          "name": "encoded",
          "type": "bytes"
        }
      ],
      "name": "parseTransfer",
      "outputs": [
        {
          "components": [
            {
              "internalType": "bytes32",
              "name": "tokenAddress",
              "type": "bytes32"
            },
            {
              "internalType": "uint16",
              "name": "tokenChain",
              "type": "uint16"
            },
            {
              "internalType": "bytes32",
              "name": "symbol",
              "type": "bytes32"
            },
            {
              "internalType": "bytes32",
              "name": "name",
              "type": "bytes32"
            },
            {
              "internalType": "uint256",
              "name": "tokenID",
              "type": "uint256"
            },
            {
              "internalType": "string",
              "name": "uri",
              "type": "string"
            },
            {
              "internalType": "bytes32",
              "name": "to",
              "type": "bytes32"
            },
            {
              "internalType": "uint16",
              "name": "toChain",
              "type": "uint16"
            }
          ],
          "internalType": "struct NFTBridgeStructs.Transfer",
          "name": "transfer",
          "type": "tuple"
        }
      ],
      "stateMutability": "pure",
      "type": "function"
    },
    {
      "inputs": [
        {
          "internalType": "bytes",
          "name": "encoded",
          "type": "bytes"
        }
      ],
      "name": "parseUpgrade",
      "outputs": [
        {
          "components": [
            {
              "internalType": "bytes32",
              "name": "module",
              "type": "bytes32"
            },
            {
              "internalType": "uint8",
              "name": "action",
              "type": "uint8"
            },
            {
              "internalType": "uint16",
              "name": "chainId",
              "type": "uint16"
            },
            {
              "internalType": "bytes32",
              "name": "newContract",
              "type": "bytes32"
            }
          ],
          "internalType": "struct NFTBridgeStructs.UpgradeContract",
          "name": "chain",
          "type": "tuple"
        }
      ],
      "stateMutability": "pure",
      "type": "function"
    },
    {
      "inputs": [
        {
          "internalType": "bytes",
          "name": "encodedVM",
          "type": "bytes"
        }
      ],
      "name": "registerChain",
      "outputs": [],
      "stateMutability": "nonpayable",
      "type": "function"
    },
    {
      "inputs": [
        {
          "internalType": "uint256",
          "name": "tokenId",
          "type": "uint256"
        }
      ],
      "name": "splCache",
      "outputs": [
        {
          "components": [
            {
              "internalType": "bytes32",
              "name": "name",
              "type": "bytes32"
            },
            {
              "internalType": "bytes32",
              "name": "symbol",
              "type": "bytes32"
            }
          ],
          "internalType": "struct NFTBridgeStorage.SPLCache",
          "name": "",
          "type": "tuple"
        }
      ],
      "stateMutability": "view",
      "type": "function"
    },
    {
      "inputs": [],
      "name": "testNewImplementationActive",
      "outputs": [
        {
          "internalType": "bool",
          "name": "",
          "type": "bool"
        }
      ],
      "stateMutability": "pure",
      "type": "function"
    },
    {
      "inputs": [],
      "name": "tokenImplementation",
      "outputs": [
        {
          "internalType": "address",
          "name": "",
          "type": "address"
        }
      ],
      "stateMutability": "view",
      "type": "function"
    },
    {
      "inputs": [
        {
          "internalType": "address",
          "name": "token",
          "type": "address"
        },
        {
          "internalType": "uint256",
          "name": "tokenID",
          "type": "uint256"
        },
        {
          "internalType": "uint16",
          "name": "recipientChain",
          "type": "uint16"
        },
        {
          "internalType": "bytes32",
          "name": "recipient",
          "type": "bytes32"
        },
        {
          "internalType": "uint32",
          "name": "nonce",
          "type": "uint32"
        }
      ],
      "name": "transferNFT",
      "outputs": [
        {
          "internalType": "uint64",
          "name": "sequence",
          "type": "uint64"
        }
      ],
      "stateMutability": "payable",
      "type": "function"
    },
    {
      "inputs": [
        {
          "internalType": "bytes",
          "name": "encodedVM",
          "type": "bytes"
        }
      ],
      "name": "upgrade",
      "outputs": [],
      "stateMutability": "nonpayable",
      "type": "function"
    },
    {
      "inputs": [],
      "name": "wormhole",
      "outputs": [
        {
          "internalType": "contract IWormhole",
          "name": "",
          "type": "address"
        }
      ],
      "stateMutability": "view",
      "type": "function"
    },
    {
      "inputs": [
        {
          "internalType": "uint16",
          "name": "tokenChainId",
          "type": "uint16"
        },
        {
          "internalType": "bytes32",
          "name": "tokenAddress",
          "type": "bytes32"
        }
      ],
      "name": "wrappedAsset",
      "outputs": [
        {
          "internalType": "address",
          "name": "",
          "type": "address"
        }
      ],
      "stateMutability": "view",
      "type": "function"
    }
  ],
  "bytecode": {
    "object": "0x608060405234801561001057600080fd5b50613bf9806100206000396000f3fe608060405260043610620001845760003560e01c80638129fc1c11620000e2578063b172b2221162000095578063d60b347f116200006c578063d60b347f14620005c2578063e6a853e014620005ff578063fbe3c2cd1462000633578063fbeeacd9146200065457600080fd5b8063b172b2221462000556578063c6878519146200056d578063c96616e1146200059257600080fd5b80638129fc1c146200045757806384acd1bb146200046f5780639a8a0592146200048f578063a5799f9314620004b9578063aa4efa5b14620004de578063ad66a5f1146200051257600080fd5b80632b511375116200013b5780632b511375146200030f5780632c3c02a414620003435780632f3a3d5d14620003775780633ca6482614620003975780635c60da1b1462000410578063739fc8d1146200042857600080fd5b806301f532551462000189578063150b7a0214620002075780631a2be4da14620002465780631f8cdb2b14620002945780631ff1e28614620002aa5780632539464514620002e8575b600080fd5b3480156200019657600080fd5b50620001ae620001a836600462002aba565b620006b4565b604051620001fe9190600060a0820190508251825260ff6020840151166020830152604083015161ffff808216604085015280606086015116606085015250506080830151608083015292915050565b60405180910390f35b3480156200021457600080fd5b506200022c620002263660046200296a565b620008bc565b6040516001600160e01b03199091168152602001620001fe565b3480156200025357600080fd5b5062000283620002653660046200294d565b6001600160a01b031660009081526008602052604090205460ff1690565b6040519015158152602001620001fe565b348015620002a157600080fd5b50600162000283565b348015620002b757600080fd5b50620002cf620002c936600462002db0565b62000940565b6040516001600160a01b039091168152602001620001fe565b348015620002f557600080fd5b506200030d6200030736600462002aba565b6200096c565b005b3480156200031c57600080fd5b50620003346200032e36600462002aba565b62000a50565b604051620001fe919062002fb2565b3480156200035057600080fd5b50620002836200036236600462002a88565b60009081526004602052604090205460ff1690565b3480156200038457600080fd5b506001546001600160a01b0316620002cf565b348015620003a457600080fd5b50620003f4620003b636600462002a88565b6040805180820190915260008082526020820152506000908152600a6020908152604091829020825180840190935280548352600101549082015290565b60408051825181526020928301519281019290925201620001fe565b3480156200041d57600080fd5b50620002cf62000c26565b3480156200043557600080fd5b50600254640100000000900460ff1660405160ff9091168152602001620001fe565b3480156200046457600080fd5b506200030d62000c40565b3480156200047c57600080fd5b506000546001600160a01b0316620002cf565b3480156200049c57600080fd5b5060025461ffff165b60405161ffff9091168152602001620001fe565b348015620004c657600080fd5b506200030d620004d836600462002aba565b62000d0a565b348015620004eb57600080fd5b5062000283620004fd36600462002a88565b60009081526005602052604090205460ff1690565b3480156200051f57600080fd5b50620005476200053136600462002d72565b61ffff1660009081526009602052604090205490565b604051908152602001620001fe565b3480156200056357600080fd5b5060035462000547565b3480156200057a57600080fd5b506200030d6200058c36600462002aba565b62000e10565b620005a9620005a336600462002a08565b62000e1b565b6040516001600160401b039091168152602001620001fe565b348015620005cf57600080fd5b5062000283620005e13660046200294d565b6001600160a01b031660009081526006602052604090205460ff1690565b3480156200060c57600080fd5b50620006246200061e36600462002b3a565b620014df565b604051620001fe919062002f49565b3480156200064057600080fd5b5060025462010000900461ffff16620004a5565b3480156200066157600080fd5b50620006796200067336600462002aba565b6200159b565b604051620001fe91908151815260208083015160ff169082015260408083015161ffff16908201526060918201519181019190915260800190565b6040805160a081018252600080825260208201819052918101829052606081018290526080810182905290620006eb838262001774565b8252620006fa60208262003138565b8251909150684e465442726964676514620007685760405162461bcd60e51b815260206004820152602360248201527f696e76616c6964205265676973746572436861696e3a2077726f6e67206d6f64604482015262756c6560e81b60648201526084015b60405180910390fd5b620007748382620017d6565b60ff1660208301526200078960018262003138565b9050816020015160ff16600114620007f05760405162461bcd60e51b815260206004820152602360248201527f696e76616c6964205265676973746572436861696e3a2077726f6e672061637460448201526234b7b760e91b60648201526084016200075f565b620007fc838262001836565b61ffff1660408301526200081260028262003138565b905062000820838262001836565b61ffff1660608301526200083660028262003138565b905062000844838262001774565b60808301526200085660208262003138565b905080835114620008b65760405162461bcd60e51b815260206004820152602360248201527f696e76616c6964205265676973746572436861696e3a2077726f6e67206c656e6044820152620cee8d60eb1b60648201526084016200075f565b50919050565b60006001600160a01b03861630146200092e5760405162461bcd60e51b815260206004820152602d60248201527f63616e206f6e6c792062726964676520746f6b656e7320766961207472616e7360448201526c19995c939195081b595d1a1bd9609a1b60648201526084016200075f565b50630a85bd0160e11b95945050505050565b61ffff91909116600090815260076020908152604080832093835292905220546001600160a01b031690565b60008060006200097c8462001897565b925092509250818190620009a55760405162461bcd60e51b81526004016200075f919062002f49565b50620009cb8361014001516000908152600460205260409020805460ff19166001179055565b6000620009dc8460e001516200159b565b9050620009ec60025461ffff1690565b61ffff16816040015161ffff161462000a395760405162461bcd60e51b815260206004820152600e60248201526d1ddc9bdb99c818da185a5b881a5960921b60448201526064016200075f565b606081015162000a499062001ac6565b5050505050565b604080516101008101825260008082526020820181905291810182905260608082018390526080820183905260a082015260c0810182905260e08101829052908062000a9d8482620017d6565b905062000aac60018362003138565b91508060ff1660011462000af65760405162461bcd60e51b815260206004820152601060248201526f34b73b30b634b2102a3930b739b332b960811b60448201526064016200075f565b62000b02848362001774565b835262000b1160208362003138565b915062000b1f848362001836565b61ffff16602084015262000b3560028362003138565b915062000b43848362001774565b604084015262000b5560208362003138565b915062000b63848362001774565b606084015262000b7560208362003138565b915062000b83848362001bfd565b608084015262000b9560208362003138565b915062000ba460018362003138565b915062000bd182602284875162000bbc919062003153565b62000bc8919062003153565b86919062001c56565b60a08401528351915062000be760028362003153565b915062000bf5848362001836565b61ffff1660e084015262000c0b60208362003153565b915062000c19848362001774565b60c0840152509092915050565b600062000c3b6001546001600160a01b031690565b905090565b600062000c747f360894a13ba1a3210667c828492db98dca3e2076cc3735a920a3ca505d382bbc546001600160a01b031690565b905062000c99816001600160a01b031660009081526006602052604090205460ff1690565b1562000cde5760405162461bcd60e51b8152602060048201526013602482015272185b1c9958591e481a5b9a5d1a585b1a5e9959606a1b60448201526064016200075f565b62000d07816001600160a01b03166000908152600660205260409020805460ff19166001179055565b50565b600080600062000d1a8462001897565b92509250925081819062000d435760405162461bcd60e51b81526004016200075f919062002f49565b5062000d698361014001516000908152600460205260409020805460ff19166001179055565b600062000d7a8460e00151620006b4565b905062000d8a60025461ffff1690565b61ffff16816040015161ffff16148062000daa5750604081015161ffff16155b62000deb5760405162461bcd60e51b815260206004820152601060248201526f1a5b9d985b1a590818da185a5b881a5960821b60448201526064016200075f565b62000a498160600151826080015161ffff909116600090815260096020526040902055565b62000d078162001d6f565b600080600062000e43886001600160a01b031660009081526008602052604090205460ff1690565b1562000f3d57876001600160a01b0316639a8a05926040518163ffffffff1660e01b815260040160206040518083038186803b15801562000e8357600080fd5b505afa15801562000e98573d6000803e3d6000fd5b505050506040513d601f19601f8201168201806040525081019062000ebe919062002d91565b9150876001600160a01b0316633d6c043b6040518163ffffffff1660e01b815260040160206040518083038186803b15801562000efa57600080fd5b505afa15801562000f0f573d6000803e3d6000fd5b505050506040513d601f19601f8201168201806040525081019062000f35919062002aa1565b905062001107565b60025461ffff166040516301ffc9a760e01b81526380ac58cd60e01b60048201529092506001600160a01b038916915081906301ffc9a79060240160206040518083038186803b15801562000f9157600080fd5b505afa15801562000fa6573d6000803e3d6000fd5b505050506040513d601f19601f8201168201806040525081019062000fcc919062002a6b565b620010245760405162461bcd60e51b815260206004820152602160248201527f6d75737420737570706f7274207468652045524337323120696e7465726661636044820152606560f81b60648201526084016200075f565b6040516301ffc9a760e01b8152635b5e139f60e01b60048201526001600160a01b038916906301ffc9a79060240160206040518083038186803b1580156200106b57600080fd5b505afa15801562001080573d6000803e3d6000fd5b505050506040513d601f19601f82011682018060405250810190620010a6919062002a6b565b620011075760405162461bcd60e51b815260206004820152602a60248201527f6d75737420737570706f727420746865204552433732312d4d657461646174616044820152691032bc3a32b739b4b7b760b11b60648201526084016200075f565b60608060608461ffff16600114620012615760408051600481526024810182526020810180516001600160e01b03166395d89b4160e01b17905290516000916001600160a01b038e16916200115d919062002e29565b600060405180830381855afa9150503d80600081146200119a576040519150601f19603f3d011682016040523d82523d6000602084013e6200119f565b606091505b5060408051600481526024810182526020810180516001600160e01b03166306fdde0360e01b1790529051919350600092506001600160a01b038f1691620011e8919062002e29565b600060405180830381855afa9150503d806000811462001225576040519150601f19603f3d011682016040523d82523d6000602084013e6200122a565b606091505b509150508180602001905181019062001244919062002b04565b9450808060200190518101906200125c919062002b04565b935050505b60008b6001600160a01b03168b6040516024016200128191815260200190565b60408051601f198184030181529181526020820180516001600160e01b031663c87b56dd60e01b17905251620012b8919062002e29565b600060405180830381855afa9150503d8060008114620012f5576040519150601f19603f3d011682016040523d82523d6000602084013e620012fa565b606091505b509150508080602001905181019062001314919062002b04565b9150506000808661ffff16600114156200139157604080518082018252600080825260209182018190528e8152600a825282812083518085019094528054845260010154918301919091529060208101518151909450925090506200138a8d6000908152600a6020526040812081815560010155565b506200139e565b5050602083810151908301515b604051632142170760e11b8152336004820152306024820152604481018d90526001600160a01b038e16906342842e0e90606401600060405180830381600087803b158015620013ed57600080fd5b505af115801562001402573d6000803e3d6000fd5b505050506200141460025461ffff1690565b61ffff168761ffff16146200148057604051630852cd8d60e31b8152600481018d90526001600160a01b038e16906342966c6890602401600060405180830381600087803b1580156200146657600080fd5b505af11580156200147b573d6000803e3d6000fd5b505050505b620014ce6040518061010001604052808881526020018961ffff1681526020018481526020018381526020018e81526020018581526020018c81526020018d61ffff16815250348b62002153565b9d9c50505050505050505050505050565b606060c88260a00151511115620015445760405162461bcd60e51b815260206004820152602260248201527f746f6b656e555249206d757374206e6f74206578636565642032303020627974604482015261657360f01b60648201526084016200075f565b81516020808401516040808601516060870151608088015160a0890151805160c08b015160e08c01519651620015859a60019a909998939493910162002e7a565b6040516020818303038152906040529050919050565b604080516080810182526000808252602082018190529181018290526060810182905290620015cb838262001774565b8252620015da60208262003138565b8251909150684e465442726964676514620016465760405162461bcd60e51b815260206004820152602560248201527f696e76616c69642055706772616465436f6e74726163743a2077726f6e67206d6044820152646f64756c6560d81b60648201526084016200075f565b620016528382620017d6565b60ff1660208301526200166760018262003138565b9050816020015160ff16600214620016d05760405162461bcd60e51b815260206004820152602560248201527f696e76616c69642055706772616465436f6e74726163743a2077726f6e67206160448201526431ba34b7b760d91b60648201526084016200075f565b620016dc838262001836565b61ffff166040830152620016f260028262003138565b905062001700838262001774565b60608301526200171260208262003138565b905080835114620008b65760405162461bcd60e51b815260206004820152602560248201527f696e76616c69642055706772616465436f6e74726163743a2077726f6e67206c6044820152640cadccee8d60db1b60648201526084016200075f565b60006200178382602062003138565b83511015620017cd5760405162461bcd60e51b8152602060048201526015602482015274746f427974657333325f6f75744f66426f756e647360581b60448201526064016200075f565b50016020015190565b6000620017e582600162003138565b835110156200182d5760405162461bcd60e51b8152602060048201526013602482015272746f55696e74385f6f75744f66426f756e647360681b60448201526064016200075f565b50016001015190565b60006200184582600262003138565b835110156200188e5760405162461bcd60e51b8152602060048201526014602482015273746f55696e7431365f6f75744f66426f756e647360601b60448201526064016200075f565b50016002015190565b604080516101608101825260008082526020820181905291810182905260608082018390526080820183905260a0820183905260c0820183905260e0820181905261010082018390526101208201526101408101919091526000606060008060006200190b6000546001600160a01b031690565b6001600160a01b031663c0fd8bde886040518263ffffffff1660e01b815260040162001938919062002f49565b60006040518083038186803b1580156200195157600080fd5b505afa15801562001966573d6000803e3d6000fd5b505050506040513d6000823e601f3d908101601f1916820160405262001990919081019062002c03565b92509250925081620019a9579194509250905062001abf565b60025462010000900461ffff1661ffff16836060015161ffff161462001a075750506040805180820190915260168152753bb937b7339033b7bb32b93730b731b29031b430b4b760511b602082015290935060009250905062001abf565b60035483608001511462001a5a57505060408051808201909152601981527f77726f6e6720676f7665726e616e636520636f6e747261637400000000000000602082015290935060009250905062001abf565b61014083015160009081526004602052604090205460ff161562001aa45782600060405180606001604052806022815260200162003ba26022913995509550955050505062001abf565b50506040805160208101909152600081529093506001925090505b9193909250565b600062001afa7f360894a13ba1a3210667c828492db98dca3e2076cc3735a920a3ca505d382bbc546001600160a01b031690565b905062001b07826200221c565b60408051600481526024810182526020810180516001600160e01b031663204a7f0760e21b179052905160009182916001600160a01b0386169162001b4c9162002e29565b600060405180830381855af49150503d806000811462001b89576040519150601f19603f3d011682016040523d82523d6000602084013e62001b8e565b606091505b509150915081819062001bb65760405162461bcd60e51b81526004016200075f919062002f49565b50836001600160a01b0316836001600160a01b03167f2e4cc16c100f0b55e2df82ab0b1a7e294aa9cbd01b48fbaf622683fbc0507a4960405160405180910390a350505050565b600062001c0c82602062003138565b83511015620017cd5760405162461bcd60e51b8152602060048201526015602482015274746f55696e743235365f6f75744f66426f756e647360581b60448201526064016200075f565b60608162001c6681601f62003138565b101562001ca75760405162461bcd60e51b815260206004820152600e60248201526d736c6963655f6f766572666c6f7760901b60448201526064016200075f565b62001cb3828462003138565b8451101562001cf95760405162461bcd60e51b8152602060048201526011602482015270736c6963655f6f75744f66426f756e647360781b60448201526064016200075f565b60608215801562001d1a576040519150600082526020820160405262001d66565b6040519150601f8416801560200281840101858101878315602002848b0101015b8183101562001d5557805183526020928301920162001d3b565b5050858452601f01601f1916604052505b50949350505050565b600080600062001d876000546001600160a01b031690565b6001600160a01b031663c0fd8bde856040518263ffffffff1660e01b815260040162001db4919062002f49565b60006040518083038186803b15801562001dcd57600080fd5b505afa15801562001de2573d6000803e3d6000fd5b505050506040513d6000823e601f3d908101601f1916820160405262001e0c919081019062002c03565b92509250925081819062001e355760405162461bcd60e51b81526004016200075f919062002f49565b5062001e41836200225e565b62001e815760405162461bcd60e51b815260206004820152600f60248201526e34b73b30b634b21032b6b4ba3a32b960891b60448201526064016200075f565b600062001e928460e0015162000a50565b905062001eb384610140015160009081526005602052604090205460ff1690565b1562001f025760405162461bcd60e51b815260206004820152601a60248201527f7472616e7366657220616c726561647920636f6d706c6574656400000000000060448201526064016200075f565b62001f278461014001516000908152600560205260409020805460ff19166001179055565b60025461ffff1661ffff168160e0015161ffff161462001f815760405162461bcd60e51b815260206004820152601460248201527334b73b30b634b2103a30b933b2ba1031b430b4b760611b60448201526064016200075f565b600062001f9160025461ffff1690565b61ffff16826020015161ffff16141562001fae5750805162001ff9565b600062001fc48360200151846000015162000940565b90506001600160a01b03811662001ff65762001ff383602001518460000151856060015186604001516200229b565b90505b90505b60c082015160025461ffff1661ffff16836020015161ffff1614620020d857826020015161ffff166001141562002064576080830151604080518082018252606086015181528186015160208083019182526000948552600a90529190922091518255516001909101555b608083015160a08401516040516334ff261960e21b81526001600160a01b0385169263d3fc9864926200209e928692919060040162002f20565b600060405180830381600087803b158015620020b957600080fd5b505af1158015620020ce573d6000803e3d6000fd5b505050506200214a565b6080830151604051632142170760e11b81523060048201526001600160a01b0383811660248301526044820192909252908316906342842e0e90606401600060405180830381600087803b1580156200213057600080fd5b505af115801562002145573d6000803e3d6000fd5b505050505b50505050505050565b6000806200216185620014df565b9050620021766000546001600160a01b031690565b6001600160a01b031663b19a437e8585846200219d60025460ff6401000000009091041690565b6040518563ffffffff1660e01b8152600401620021bd9392919062003030565b6020604051808303818588803b158015620021d757600080fd5b505af1158015620021ec573d6000803e3d6000fd5b50505050506040513d601f19601f8201168201806040525081019062002213919062002dde565b95945050505050565b620022278162002548565b6040516001600160a01b038216907fbc7cd75a20ee27fd9adebab32041f755214dbc6bffa90cc0225b39da2e5c2d3b90600090a250565b6000816080015162002284836060015161ffff1660009081526009602052604090205490565b14156200229357506001919050565b506000919050565b6000620022ab60025461ffff1690565b61ffff168561ffff161415620023155760405162461bcd60e51b815260206004820152602860248201527f63616e206f6e6c79207772617020746f6b656e732066726f6d20666f726569676044820152676e20636861696e7360c01b60648201526084016200075f565b600062002323868662000940565b6001600160a01b0316146200237b5760405162461bcd60e51b815260206004820152601c60248201527f7772617070656420617373657420616c7265616479206578697374730000000060448201526064016200075f565b8461ffff1660011415620023bd577f576f726d686f6c65204272696467656420536f6c616e612d4e4654000000000092506915d3d49354d41313919560b21b91505b6000627ce50b60e31b620023d185620025ef565b620023dc85620025ef565b308989604051602401620023f595949392919062002f5e565b60408051601f19818403018152918152602080830180516001600160e01b03166001600160e01b031990951694909417909352519092506000916200243f91309185910162002efa565b604051602081830303815290604052905060006040518060200162002464906200272a565b601f1982820381018352601f9091011660408190526200248a9190849060200162002e47565b60408051601f19818403018152908290526001600160f01b031960f08b901b166020830152602282018990529150600090604201604051602081830303815290604052805190602001209050808251602084016000f59450843b620024ee57600080fd5b61ffff891660009081526007602090815260408083208b8452825280832080546001600160a01b0319166001600160a01b038a16908117909155835260089091529020805460ff1916600117905550505050949350505050565b803b620025ae5760405162461bcd60e51b815260206004820152602d60248201527f455243313936373a206e657720696d706c656d656e746174696f6e206973206e60448201526c1bdd08184818dbdb9d1c9858dd609a1b60648201526084016200075f565b7f360894a13ba1a3210667c828492db98dca3e2076cc3735a920a3ca505d382bbc80546001600160a01b0319166001600160a01b0392909216919091179055565b606060005b6020811080156200263257508281602081106200262157634e487b7160e01b600052603260045260246000fd5b1a60f81b6001600160f81b03191615155b156200264d57806200264481620031a0565b915050620025f4565b6000816001600160401b038111156200267657634e487b7160e01b600052604160045260246000fd5b6040519080825280601f01601f191660200182016040528015620026a1576020820181803683370190505b50905060005b828110156200272257848160208110620026d157634e487b7160e01b600052603260045260246000fd5b1a60f81b828281518110620026f657634e487b7160e01b600052603260045260246000fd5b60200101906001600160f81b031916908160001a905350806200271981620031a0565b915050620026a7565b509392505050565b610993806200320f83390190565b60006200274f62002749846200310e565b620030db565b90508281528383830111156200276457600080fd5b828260208301376000602084830101529392505050565b80356001600160a01b03811681146200279357600080fd5b919050565b600082601f830112620027a9578081fd5b815160206001600160401b03821115620027c757620027c7620031d4565b620027d7818360051b01620030db565b80838252828201915082860187848660071b8901011115620027f7578586fd5b855b858110156200286357608080838b03121562002813578788fd5b6200281d62003064565b8351815286840151878201526040620028388186016200293b565b9082015260606200284b8582016200293b565b908201528552938501939190910190600101620027f9565b5090979650505050505050565b805180151581146200279357600080fd5b600082601f83011262002892578081fd5b8151620028a362002749826200310e565b818152846020838601011115620028b8578283fd5b620028cb8260208301602087016200316d565b949350505050565b600082601f830112620028e4578081fd5b620028f58383356020850162002738565b9392505050565b80356200279381620031ea565b80516200279381620031ea565b80516200279381620031fb565b80516001600160401b03811681146200279357600080fd5b805160ff811681146200279357600080fd5b6000602082840312156200295f578081fd5b620028f5826200277b565b60008060008060006080868803121562002982578081fd5b6200298d866200277b565b94506200299d602087016200277b565b93506040860135925060608601356001600160401b0380821115620029c0578283fd5b818801915088601f830112620029d4578283fd5b813581811115620029e3578384fd5b896020828501011115620029f5578384fd5b9699959850939650602001949392505050565b600080600080600060a0868803121562002a20578283fd5b62002a2b866200277b565b945060208601359350604086013562002a4481620031ea565b925060608601359150608086013562002a5d81620031fb565b809150509295509295909350565b60006020828403121562002a7d578081fd5b620028f58262002870565b60006020828403121562002a9a578081fd5b5035919050565b60006020828403121562002ab3578081fd5b5051919050565b60006020828403121562002acc578081fd5b81356001600160401b0381111562002ae2578182fd5b8201601f8101841362002af3578182fd5b620028cb8482356020840162002738565b60006020828403121562002b16578081fd5b81516001600160401b0381111562002b2c578182fd5b620028cb8482850162002881565b60006020828403121562002b4c578081fd5b81356001600160401b038082111562002b63578283fd5b90830190610100828603121562002b78578283fd5b62002b826200308f565b8235815262002b9460208401620028fc565b602082015260408301356040820152606083013560608201526080830135608082015260a08301358281111562002bc9578485fd5b62002bd787828601620028d3565b60a08301525060c083013560c082015262002bf560e08401620028fc565b60e082015295945050505050565b60008060006060848603121562002c18578081fd5b83516001600160401b038082111562002c2f578283fd5b90850190610160828803121562002c44578283fd5b62002c4e620030b5565b62002c59836200293b565b815262002c696020840162002916565b602082015262002c7c6040840162002916565b604082015262002c8f6060840162002909565b60608201526080830151608082015262002cac60a0840162002923565b60a082015262002cbf60c084016200293b565b60c082015260e08301518281111562002cd6578485fd5b62002ce48982860162002881565b60e08301525061010062002cfa81850162002916565b90820152610120838101518381111562002d12578586fd5b62002d208a82870162002798565b91830191909152506101408381015190820152945062002d436020870162002870565b9350604086015191508082111562002d59578283fd5b5062002d688682870162002881565b9150509250925092565b60006020828403121562002d84578081fd5b8135620028f581620031ea565b60006020828403121562002da3578081fd5b8151620028f581620031ea565b6000806040838503121562002dc3578182fd5b823562002dd081620031ea565b946020939093013593505050565b60006020828403121562002df0578081fd5b620028f58262002923565b6000815180845262002e158160208601602086016200316d565b601f01601f19169290920160200192915050565b6000825162002e3d8184602087016200316d565b9190910192915050565b6000835162002e5b8184602088016200316d565b83519083019062002e718183602088016200316d565b01949350505050565b600060ff60f81b808d60f81b1683528b600184015261ffff60f01b808c60f01b1660218501528a6023850152896043850152886063850152818860f81b1660838501528651915062002ed4826084860160208a016200316d565b920160848101949094525060f09190911b1660a482015260a60198975050505050505050565b6001600160a01b0383168152604060208201819052600090620028cb9083018462002dfb565b60018060a01b038416815282602082015260606040820152600062002213606083018462002dfb565b602081526000620028f5602083018462002dfb565b60a08152600062002f7360a083018862002dfb565b828103602084015262002f87818862002dfb565b6001600160a01b03969096166040840152505061ffff92909216606083015260809091015292915050565b60208152815160208201526000602083015161ffff80821660408501526040850151606085015260608501516080850152608085015160a085015260a085015191506101008060c08601526200300d61012086018462002dfb565b925060c086015160e08601528160e0870151168186015250508091505092915050565b63ffffffff8416815260606020820152600062003051606083018562002dfb565b905060ff83166040830152949350505050565b604051608081016001600160401b0381118282101715620030895762003089620031d4565b60405290565b60405161010081016001600160401b0381118282101715620030895762003089620031d4565b60405161016081016001600160401b0381118282101715620030895762003089620031d4565b604051601f8201601f191681016001600160401b0381118282101715620031065762003106620031d4565b604052919050565b60006001600160401b038211156200312a576200312a620031d4565b50601f01601f191660200190565b600082198211156200314e576200314e620031be565b500190565b600082821015620031685762003168620031be565b500390565b60005b838110156200318a57818101518382015260200162003170565b838111156200319a576000848401525b50505050565b6000600019821415620031b757620031b7620031be565b5060010190565b634e487b7160e01b600052601160045260246000fd5b634e487b7160e01b600052604160045260246000fd5b61ffff8116811462000d0757600080fd5b63ffffffff8116811462000d0757600080fdfe608060405234801561001057600080fd5b5060405161099338038061099383398101604081905261002f9161048e565b818161005c60017fa3f0ad74e5423aebfd80d3ef4346578335a9a72aeaee59ff6cb3582b35133d51610599565b60008051602061094c8339815191521461008657634e487b7160e01b600052600160045260246000fd5b6100928282600061009b565b505050506105fe565b6100a483610175565b6040516001600160a01b038416907f1cf3b03a6cf19fa2baba4df148e9dcabedea7f8a5c07840e207e5c089be95d3e90600090a26000825111806100e55750805b156101705761016e836001600160a01b0316635c60da1b6040518163ffffffff1660e01b815260040160206040518083038186803b15801561012657600080fd5b505afa15801561013a573d6000803e3d6000fd5b505050506040513d601f19601f8201168201806040525081019061015e9190610474565b8361031560201b6100291760201c565b505b505050565b6101888161034160201b6100551760201c565b6101e75760405162461bcd60e51b815260206004820152602560248201527f455243313936373a206e657720626561636f6e206973206e6f74206120636f6e6044820152641d1c9858dd60da1b60648201526084015b60405180910390fd5b61026a816001600160a01b0316635c60da1b6040518163ffffffff1660e01b815260040160206040518083038186803b15801561022357600080fd5b505afa158015610237573d6000803e3d6000fd5b505050506040513d601f19601f8201168201806040525081019061025b9190610474565b61034160201b6100551760201c565b6102cf5760405162461bcd60e51b815260206004820152603060248201527f455243313936373a20626561636f6e20696d706c656d656e746174696f6e206960448201526f1cc81b9bdd08184818dbdb9d1c9858dd60821b60648201526084016101de565b806102f460008051602061094c83398151915260001b61034760201b61005b1760201c565b80546001600160a01b0319166001600160a01b039290921691909117905550565b606061033a838360405180606001604052806027815260200161096c6027913961034a565b9392505050565b3b151590565b90565b6060833b6103a95760405162461bcd60e51b815260206004820152602660248201527f416464726573733a2064656c65676174652063616c6c20746f206e6f6e2d636f6044820152651b9d1c9858dd60d21b60648201526084016101de565b600080856001600160a01b0316856040516103c4919061054a565b600060405180830381855af49150503d80600081146103ff576040519150601f19603f3d011682016040523d82523d6000602084013e610404565b606091505b50909250905061041582828661041f565b9695505050505050565b6060831561042e57508161033a565b82511561043e5782518084602001fd5b8160405162461bcd60e51b81526004016101de9190610566565b80516001600160a01b038116811461046f57600080fd5b919050565b600060208284031215610485578081fd5b61033a82610458565b600080604083850312156104a0578081fd5b6104a983610458565b60208401519092506001600160401b03808211156104c5578283fd5b818501915085601f8301126104d8578283fd5b8151818111156104ea576104ea6105e8565b604051601f8201601f19908116603f01168101908382118183101715610512576105126105e8565b8160405282815288602084870101111561052a578586fd5b61053b8360208301602088016105bc565b80955050505050509250929050565b6000825161055c8184602087016105bc565b9190910192915050565b60208152600082518060208401526105858160408501602087016105bc565b601f01601f19169190910160400192915050565b6000828210156105b757634e487b7160e01b81526011600452602481fd5b500390565b60005b838110156105d75781810151838201526020016105bf565b8381111561016e5750506000910152565b634e487b7160e01b600052604160045260246000fd5b61033f8061060d6000396000f3fe60806040523661001357610011610017565b005b6100115b61002761002261005e565b610106565b565b606061004e83836040518060600160405280602781526020016102e36027913961012a565b9392505050565b3b151590565b90565b60006100917fa3f0ad74e5423aebfd80d3ef4346578335a9a72aeaee59ff6cb3582b35133d50546001600160a01b031690565b6001600160a01b0316635c60da1b6040518163ffffffff1660e01b815260040160206040518083038186803b1580156100c957600080fd5b505afa1580156100dd573d6000803e3d6000fd5b505050506040513d601f19601f82011682018060405250810190610101919061023c565b905090565b3660008037600080366000845af43d6000803e808015610125573d6000f35b3d6000fd5b6060833b61018e5760405162461bcd60e51b815260206004820152602660248201527f416464726573733a2064656c65676174652063616c6c20746f206e6f6e2d636f6044820152651b9d1c9858dd60d21b60648201526084015b60405180910390fd5b600080856001600160a01b0316856040516101a99190610263565b600060405180830381855af49150503d80600081146101e4576040519150601f19603f3d011682016040523d82523d6000602084013e6101e9565b606091505b50915091506101f9828286610203565b9695505050505050565b6060831561021257508161004e565b8251156102225782518084602001fd5b8160405162461bcd60e51b8152600401610185919061027f565b60006020828403121561024d578081fd5b81516001600160a01b038116811461004e578182fd5b600082516102758184602087016102b2565b9190910192915050565b602081526000825180602084015261029e8160408501602087016102b2565b601f01601f19169190910160400192915050565b60005b838110156102cd5781810151838201526020016102b5565b838111156102dc576000848401525b5050505056fe416464726573733a206c6f772d6c6576656c2064656c65676174652063616c6c206661696c6564a2646970667358221220160d85a29a84cf838180163b1113ca1cb351c7530a3b24652adb9dd2f2505a0764736f6c63430008040033a3f0ad74e5423aebfd80d3ef4346578335a9a72aeaee59ff6cb3582b35133d50416464726573733a206c6f772d6c6576656c2064656c65676174652063616c6c206661696c6564676f7665726e616e636520616374696f6e20616c726561647920636f6e73756d6564a264697066735822122050471ed3e57abc93607f31b2bd7ce2cf2123a573739b6e7db7e3a3cbce93cfe864736f6c63430008040033",
    "linkReferences": {}
  },
  "methodIdentifiers": {
    "bridgeContracts(uint16)": "ad66a5f1",
    "chainId()": "9a8a0592",
    "completeTransfer(bytes)": "c6878519",
    "encodeTransfer((bytes32,uint16,bytes32,bytes32,uint256,string,bytes32,uint16))": "e6a853e0",
    "finality()": "739fc8d1",
    "governanceActionIsConsumed(bytes32)": "2c3c02a4",
    "governanceChainId()": "fbe3c2cd",
    "governanceContract()": "b172b222",
    "implementation()": "5c60da1b",
    "initialize()": "8129fc1c",
    "isInitialized(address)": "d60b347f",
    "isTransferCompleted(bytes32)": "aa4efa5b",
    "isWrappedAsset(address)": "1a2be4da",
    "onERC721Received(address,address,uint256,bytes)": "150b7a02",
    "parseRegisterChain(bytes)": "01f53255",
    "parseTransfer(bytes)": "2b511375",
    "parseUpgrade(bytes)": "fbeeacd9",
    "registerChain(bytes)": "a5799f93",
    "splCache(uint256)": "3ca64826",
    "testNewImplementationActive()": "1f8cdb2b",
    "tokenImplementation()": "2f3a3d5d",
    "transferNFT(address,uint256,uint16,bytes32,uint32)": "c96616e1",
    "upgrade(bytes)": "25394645",
    "wormhole()": "84acd1bb",
    "wrappedAsset(uint16,bytes32)": "1ff1e286"
  },
  "id": 34
}