{
  "abi": [
    {
      "anonymous": false,
      "inputs": [
        {
          "indexed": false,
          "internalType": "address",
          "name": "previousAdmin",
          "type": "address"
        },
        {
          "indexed": false,
          "internalType": "address",
          "name": "newAdmin",
          "type": "address"
        }
      ],
      "name": "AdminChanged",
      "type": "event"
    },
    {
      "anonymous": false,
      "inputs": [
        {
          "indexed": true,
          "internalType": "address",
          "name": "beacon",
          "type": "address"
        }
      ],
      "name": "BeaconUpgraded",
      "type": "event"
    },
    {
      "anonymous": false,
      "inputs": [
        {
          "indexed": true,
          "internalType": "address",
          "name": "oldContract",
          "type": "address"
        },
        {
          "indexed": true,
          "internalType": "address",
          "name": "newContract",
          "type": "address"
        }
      ],
      "name": "ContractUpgraded",
      "type": "event"
    },
    {
      "anonymous": false,
      "inputs": [
        {
          "indexed": true,
          "internalType": "uint32",
          "name": "index",
          "type": "uint32"
        }
      ],
      "name": "GuardianSetAdded",
      "type": "event"
    },
    {
      "anonymous": false,
      "inputs": [
        {
          "indexed": true,
          "internalType": "address",
          "name": "sender",
          "type": "address"
        },
        {
          "indexed": false,
          "internalType": "uint64",
          "name": "sequence",
          "type": "uint64"
        },
        {
          "indexed": false,
          "internalType": "uint32",
          "name": "nonce",
          "type": "uint32"
        },
        {
          "indexed": false,
          "internalType": "bytes",
          "name": "payload",
          "type": "bytes"
        },
        {
          "indexed": false,
          "internalType": "uint8",
          "name": "consistencyLevel",
          "type": "uint8"
        }
      ],
      "name": "LogMessagePublished",
      "type": "event"
    },
    {
      "anonymous": false,
      "inputs": [
        {
          "indexed": true,
          "internalType": "address",
          "name": "implementation",
          "type": "address"
        }
      ],
      "name": "Upgraded",
      "type": "event"
    },
    {
      "stateMutability": "payable",
      "type": "fallback"
    },
    {
      "inputs": [],
      "name": "chainId",
      "outputs": [
        {
          "internalType": "uint16",
          "name": "",
          "type": "uint16"
        }
      ],
      "stateMutability": "view",
      "type": "function"
    },
    {
      "inputs": [
        {
          "internalType": "bytes32[]",
          "name": "hashesToClear",
          "type": "bytes32[]"
        }
      ],
      "name": "clearBatchCache",
      "outputs": [],
      "stateMutability": "nonpayable",
      "type": "function"
    },
    {
      "inputs": [],
      "name": "getCurrentGuardianSetIndex",
      "outputs": [
        {
          "internalType": "uint32",
          "name": "",
          "type": "uint32"
        }
      ],
      "stateMutability": "view",
      "type": "function"
    },
    {
      "inputs": [
        {
          "internalType": "uint32",
          "name": "index",
          "type": "uint32"
        }
      ],
      "name": "getGuardianSet",
      "outputs": [
        {
          "components": [
            {
              "internalType": "address[]",
              "name": "keys",
              "type": "address[]"
            },
            {
              "internalType": "uint32",
              "name": "expirationTime",
              "type": "uint32"
            }
          ],
          "internalType": "struct Structs.GuardianSet",
          "name": "",
          "type": "tuple"
        }
      ],
      "stateMutability": "view",
      "type": "function"
    },
    {
      "inputs": [],
      "name": "getGuardianSetExpiry",
      "outputs": [
        {
          "internalType": "uint32",
          "name": "",
          "type": "uint32"
        }
      ],
      "stateMutability": "view",
      "type": "function"
    },
    {
      "inputs": [
        {
          "internalType": "bytes32",
          "name": "hash",
          "type": "bytes32"
        }
      ],
      "name": "governanceActionIsConsumed",
      "outputs": [
        {
          "internalType": "bool",
          "name": "",
          "type": "bool"
        }
      ],
      "stateMutability": "view",
      "type": "function"
    },
    {
      "inputs": [],
      "name": "governanceChainId",
      "outputs": [
        {
          "internalType": "uint16",
          "name": "",
          "type": "uint16"
        }
      ],
      "stateMutability": "view",
      "type": "function"
    },
    {
      "inputs": [],
      "name": "governanceContract",
      "outputs": [
        {
          "internalType": "bytes32",
          "name": "",
          "type": "bytes32"
        }
      ],
      "stateMutability": "view",
      "type": "function"
    },
    {
      "inputs": [],
      "name": "initialize",
      "outputs": [],
      "stateMutability": "nonpayable",
      "type": "function"
    },
    {
      "inputs": [
        {
          "internalType": "address",
          "name": "impl",
          "type": "address"
        }
      ],
      "name": "isInitialized",
      "outputs": [
        {
          "internalType": "bool",
          "name": "",
          "type": "bool"
        }
      ],
      "stateMutability": "view",
      "type": "function"
    },
    {
      "inputs": [],
      "name": "messageFee",
      "outputs": [
        {
          "internalType": "uint256",
          "name": "",
          "type": "uint256"
        }
      ],
      "stateMutability": "view",
      "type": "function"
    },
    {
      "inputs": [
        {
          "internalType": "address",
          "name": "emitter",
          "type": "address"
        }
      ],
      "name": "nextSequence",
      "outputs": [
        {
          "internalType": "uint64",
          "name": "",
          "type": "uint64"
        }
      ],
      "stateMutability": "view",
      "type": "function"
    },
    {
      "inputs": [
        {
          "internalType": "bytes",
          "name": "encodedVM",
          "type": "bytes"
        },
        {
          "internalType": "bool",
          "name": "cache",
          "type": "bool"
        }
      ],
      "name": "parseAndVerifyBatchVM",
      "outputs": [
        {
          "components": [
            {
              "internalType": "uint8",
              "name": "version",
              "type": "uint8"
            },
            {
              "internalType": "uint32",
              "name": "guardianSetIndex",
              "type": "uint32"
            },
            {
              "components": [
                {
                  "internalType": "bytes32",
                  "name": "r",
                  "type": "bytes32"
                },
                {
                  "internalType": "bytes32",
                  "name": "s",
                  "type": "bytes32"
                },
                {
                  "internalType": "uint8",
                  "name": "v",
                  "type": "uint8"
                },
                {
                  "internalType": "uint8",
                  "name": "guardianIndex",
                  "type": "uint8"
                }
              ],
              "internalType": "struct Structs.Signature[]",
              "name": "signatures",
              "type": "tuple[]"
            },
            {
              "internalType": "bytes32[]",
              "name": "hashes",
              "type": "bytes32[]"
            },
            {
              "internalType": "bytes32",
              "name": "hash",
              "type": "bytes32"
            },
            {
              "components": [
                {
                  "internalType": "uint8",
                  "name": "index",
                  "type": "uint8"
                },
                {
                  "internalType": "bytes",
                  "name": "observation",
                  "type": "bytes"
                }
              ],
              "internalType": "struct Structs.IndexedObservation[]",
              "name": "indexedObservations",
              "type": "tuple[]"
            }
          ],
          "internalType": "struct Structs.VM2",
          "name": "vm",
          "type": "tuple"
        },
        {
          "internalType": "bool",
          "name": "valid",
          "type": "bool"
        },
        {
          "internalType": "string",
          "name": "reason",
          "type": "string"
        }
      ],
      "stateMutability": "nonpayable",
      "type": "function"
    },
    {
      "inputs": [
        {
          "internalType": "bytes",
          "name": "encodedVM",
          "type": "bytes"
        }
      ],
      "name": "parseAndVerifyVM",
      "outputs": [
        {
          "components": [
            {
              "internalType": "uint8",
              "name": "version",
              "type": "uint8"
            },
            {
              "internalType": "uint32",
              "name": "timestamp",
              "type": "uint32"
            },
            {
              "internalType": "uint32",
              "name": "nonce",
              "type": "uint32"
            },
            {
              "internalType": "uint16",
              "name": "emitterChainId",
              "type": "uint16"
            },
            {
              "internalType": "bytes32",
              "name": "emitterAddress",
              "type": "bytes32"
            },
            {
              "internalType": "uint64",
              "name": "sequence",
              "type": "uint64"
            },
            {
              "internalType": "uint8",
              "name": "consistencyLevel",
              "type": "uint8"
            },
            {
              "internalType": "bytes",
              "name": "payload",
              "type": "bytes"
            },
            {
              "internalType": "uint32",
              "name": "guardianSetIndex",
              "type": "uint32"
            },
            {
              "components": [
                {
                  "internalType": "bytes32",
                  "name": "r",
                  "type": "bytes32"
                },
                {
                  "internalType": "bytes32",
                  "name": "s",
                  "type": "bytes32"
                },
                {
                  "internalType": "uint8",
                  "name": "v",
                  "type": "uint8"
                },
                {
                  "internalType": "uint8",
                  "name": "guardianIndex",
                  "type": "uint8"
                }
              ],
              "internalType": "struct Structs.Signature[]",
              "name": "signatures",
              "type": "tuple[]"
            },
            {
              "internalType": "bytes32",
              "name": "hash",
              "type": "bytes32"
            }
          ],
          "internalType": "struct Structs.VM",
          "name": "vm",
          "type": "tuple"
        },
        {
          "internalType": "bool",
          "name": "valid",
          "type": "bool"
        },
        {
          "internalType": "string",
          "name": "reason",
          "type": "string"
        }
      ],
      "stateMutability": "view",
      "type": "function"
    },
    {
      "inputs": [
        {
          "internalType": "bytes",
          "name": "encodedVM",
          "type": "bytes"
        }
      ],
      "name": "parseBatchVM",
      "outputs": [
        {
          "components": [
            {
              "internalType": "uint8",
              "name": "version",
              "type": "uint8"
            },
            {
              "internalType": "uint32",
              "name": "guardianSetIndex",
              "type": "uint32"
            },
            {
              "components": [
                {
                  "internalType": "bytes32",
                  "name": "r",
                  "type": "bytes32"
                },
                {
                  "internalType": "bytes32",
                  "name": "s",
                  "type": "bytes32"
                },
                {
                  "internalType": "uint8",
                  "name": "v",
                  "type": "uint8"
                },
                {
                  "internalType": "uint8",
                  "name": "guardianIndex",
                  "type": "uint8"
                }
              ],
              "internalType": "struct Structs.Signature[]",
              "name": "signatures",
              "type": "tuple[]"
            },
            {
              "internalType": "bytes32[]",
              "name": "hashes",
              "type": "bytes32[]"
            },
            {
              "internalType": "bytes32",
              "name": "hash",
              "type": "bytes32"
            },
            {
              "components": [
                {
                  "internalType": "uint8",
                  "name": "index",
                  "type": "uint8"
                },
                {
                  "internalType": "bytes",
                  "name": "observation",
                  "type": "bytes"
                }
              ],
              "internalType": "struct Structs.IndexedObservation[]",
              "name": "indexedObservations",
              "type": "tuple[]"
            }
          ],
          "internalType": "struct Structs.VM2",
          "name": "vm",
          "type": "tuple"
        }
      ],
      "stateMutability": "pure",
      "type": "function"
    },
    {
      "inputs": [
        {
          "internalType": "bytes",
          "name": "encodedUpgrade",
          "type": "bytes"
        }
      ],
      "name": "parseContractUpgrade",
      "outputs": [
        {
          "components": [
            {
              "internalType": "bytes32",
              "name": "module",
              "type": "bytes32"
            },
            {
              "internalType": "uint8",
              "name": "action",
              "type": "uint8"
            },
            {
              "internalType": "uint16",
              "name": "chain",
              "type": "uint16"
            },
            {
              "internalType": "address",
              "name": "newContract",
              "type": "address"
            }
          ],
          "internalType": "struct GovernanceStructs.ContractUpgrade",
          "name": "cu",
          "type": "tuple"
        }
      ],
      "stateMutability": "pure",
      "type": "function"
    },
    {
      "inputs": [
        {
          "internalType": "bytes",
          "name": "encodedUpgrade",
          "type": "bytes"
        }
      ],
      "name": "parseGuardianSetUpgrade",
      "outputs": [
        {
          "components": [
            {
              "internalType": "bytes32",
              "name": "module",
              "type": "bytes32"
            },
            {
              "internalType": "uint8",
              "name": "action",
              "type": "uint8"
            },
            {
              "internalType": "uint16",
              "name": "chain",
              "type": "uint16"
            },
            {
              "components": [
                {
                  "internalType": "address[]",
                  "name": "keys",
                  "type": "address[]"
                },
                {
                  "internalType": "uint32",
                  "name": "expirationTime",
                  "type": "uint32"
                }
              ],
              "internalType": "struct Structs.GuardianSet",
              "name": "newGuardianSet",
              "type": "tuple"
            },
            {
              "internalType": "uint32",
              "name": "newGuardianSetIndex",
              "type": "uint32"
            }
          ],
          "internalType": "struct GovernanceStructs.GuardianSetUpgrade",
          "name": "gsu",
          "type": "tuple"
        }
      ],
      "stateMutability": "pure",
      "type": "function"
    },
    {
      "inputs": [
        {
          "internalType": "bytes",
          "name": "encodedSetMessageFee",
          "type": "bytes"
        }
      ],
      "name": "parseSetMessageFee",
      "outputs": [
        {
          "components": [
            {
              "internalType": "bytes32",
              "name": "module",
              "type": "bytes32"
            },
            {
              "internalType": "uint8",
              "name": "action",
              "type": "uint8"
            },
            {
              "internalType": "uint16",
              "name": "chain",
              "type": "uint16"
            },
            {
              "internalType": "uint256",
              "name": "messageFee",
              "type": "uint256"
            }
          ],
          "internalType": "struct GovernanceStructs.SetMessageFee",
          "name": "smf",
          "type": "tuple"
        }
      ],
      "stateMutability": "pure",
      "type": "function"
    },
    {
      "inputs": [
        {
          "internalType": "bytes",
          "name": "encodedTransferFees",
          "type": "bytes"
        }
      ],
      "name": "parseTransferFees",
      "outputs": [
        {
          "components": [
            {
              "internalType": "bytes32",
              "name": "module",
              "type": "bytes32"
            },
            {
              "internalType": "uint8",
              "name": "action",
              "type": "uint8"
            },
            {
              "internalType": "uint16",
              "name": "chain",
              "type": "uint16"
            },
            {
              "internalType": "uint256",
              "name": "amount",
              "type": "uint256"
            },
            {
              "internalType": "bytes32",
              "name": "recipient",
              "type": "bytes32"
            }
          ],
          "internalType": "struct GovernanceStructs.TransferFees",
          "name": "tf",
          "type": "tuple"
        }
      ],
      "stateMutability": "pure",
      "type": "function"
    },
    {
      "inputs": [
        {
          "internalType": "bytes",
          "name": "encodedVM",
          "type": "bytes"
        }
      ],
      "name": "parseVM",
      "outputs": [
        {
          "components": [
            {
              "internalType": "uint8",
              "name": "version",
              "type": "uint8"
            },
            {
              "internalType": "uint32",
              "name": "timestamp",
              "type": "uint32"
            },
            {
              "internalType": "uint32",
              "name": "nonce",
              "type": "uint32"
            },
            {
              "internalType": "uint16",
              "name": "emitterChainId",
              "type": "uint16"
            },
            {
              "internalType": "bytes32",
              "name": "emitterAddress",
              "type": "bytes32"
            },
            {
              "internalType": "uint64",
              "name": "sequence",
              "type": "uint64"
            },
            {
              "internalType": "uint8",
              "name": "consistencyLevel",
              "type": "uint8"
            },
            {
              "internalType": "bytes",
              "name": "payload",
              "type": "bytes"
            },
            {
              "internalType": "uint32",
              "name": "guardianSetIndex",
              "type": "uint32"
            },
            {
              "components": [
                {
                  "internalType": "bytes32",
                  "name": "r",
                  "type": "bytes32"
                },
                {
                  "internalType": "bytes32",
                  "name": "s",
                  "type": "bytes32"
                },
                {
                  "internalType": "uint8",
                  "name": "v",
                  "type": "uint8"
                },
                {
                  "internalType": "uint8",
                  "name": "guardianIndex",
                  "type": "uint8"
                }
              ],
              "internalType": "struct Structs.Signature[]",
              "name": "signatures",
              "type": "tuple[]"
            },
            {
              "internalType": "bytes32",
              "name": "hash",
              "type": "bytes32"
            }
          ],
          "internalType": "struct Structs.VM",
          "name": "vm",
          "type": "tuple"
        }
      ],
      "stateMutability": "pure",
      "type": "function"
    },
    {
      "inputs": [
        {
          "internalType": "uint32",
          "name": "nonce",
          "type": "uint32"
        },
        {
          "internalType": "bytes",
          "name": "payload",
          "type": "bytes"
        },
        {
          "internalType": "uint8",
          "name": "consistencyLevel",
          "type": "uint8"
        }
      ],
      "name": "publishMessage",
      "outputs": [
        {
          "internalType": "uint64",
          "name": "sequence",
          "type": "uint64"
        }
      ],
      "stateMutability": "payable",
      "type": "function"
    },
    {
      "inputs": [
        {
          "internalType": "uint256",
          "name": "numGuardians",
          "type": "uint256"
        }
      ],
      "name": "quorum",
      "outputs": [
        {
          "internalType": "uint256",
          "name": "numSignaturesRequiredForQuorum",
          "type": "uint256"
        }
      ],
      "stateMutability": "pure",
      "type": "function"
    },
    {
      "inputs": [
        {
          "internalType": "bytes",
          "name": "_vm",
          "type": "bytes"
        }
      ],
      "name": "submitContractUpgrade",
      "outputs": [],
      "stateMutability": "nonpayable",
      "type": "function"
    },
    {
      "inputs": [
        {
          "internalType": "bytes",
          "name": "_vm",
          "type": "bytes"
        }
      ],
      "name": "submitNewGuardianSet",
      "outputs": [],
      "stateMutability": "nonpayable",
      "type": "function"
    },
    {
      "inputs": [
        {
          "internalType": "bytes",
          "name": "_vm",
          "type": "bytes"
        }
      ],
      "name": "submitSetMessageFee",
      "outputs": [],
      "stateMutability": "nonpayable",
      "type": "function"
    },
    {
      "inputs": [
        {
          "internalType": "bytes",
          "name": "_vm",
          "type": "bytes"
        }
      ],
      "name": "submitTransferFees",
      "outputs": [],
      "stateMutability": "nonpayable",
      "type": "function"
    },
    {
      "inputs": [
        {
          "internalType": "bytes32",
          "name": "hash",
          "type": "bytes32"
        }
      ],
      "name": "verifiedHashCached",
      "outputs": [
        {
          "internalType": "bool",
          "name": "",
          "type": "bool"
        }
      ],
      "stateMutability": "view",
      "type": "function"
    },
    {
      "inputs": [
        {
          "components": [
            {
              "internalType": "uint8",
              "name": "version",
              "type": "uint8"
            },
            {
              "internalType": "uint32",
              "name": "guardianSetIndex",
              "type": "uint32"
            },
            {
              "components": [
                {
                  "internalType": "bytes32",
                  "name": "r",
                  "type": "bytes32"
                },
                {
                  "internalType": "bytes32",
                  "name": "s",
                  "type": "bytes32"
                },
                {
                  "internalType": "uint8",
                  "name": "v",
                  "type": "uint8"
                },
                {
                  "internalType": "uint8",
                  "name": "guardianIndex",
                  "type": "uint8"
                }
              ],
              "internalType": "struct Structs.Signature[]",
              "name": "signatures",
              "type": "tuple[]"
            },
            {
              "internalType": "bytes32[]",
              "name": "hashes",
              "type": "bytes32[]"
            },
            {
              "internalType": "bytes32",
              "name": "hash",
              "type": "bytes32"
            },
            {
              "components": [
                {
                  "internalType": "uint8",
                  "name": "index",
                  "type": "uint8"
                },
                {
                  "internalType": "bytes",
                  "name": "observation",
                  "type": "bytes"
                }
              ],
              "internalType": "struct Structs.IndexedObservation[]",
              "name": "indexedObservations",
              "type": "tuple[]"
            }
          ],
          "internalType": "struct Structs.VM2",
          "name": "vm",
          "type": "tuple"
        },
        {
          "internalType": "bool",
          "name": "cache",
          "type": "bool"
        }
      ],
      "name": "verifyBatchVM",
      "outputs": [
        {
          "internalType": "bool",
          "name": "valid",
          "type": "bool"
        },
        {
          "internalType": "string",
          "name": "reason",
          "type": "string"
        }
      ],
      "stateMutability": "nonpayable",
      "type": "function"
    },
    {
      "inputs": [
        {
          "internalType": "bytes32",
          "name": "hash",
          "type": "bytes32"
        },
        {
          "components": [
            {
              "internalType": "bytes32",
              "name": "r",
              "type": "bytes32"
            },
            {
              "internalType": "bytes32",
              "name": "s",
              "type": "bytes32"
            },
            {
              "internalType": "uint8",
              "name": "v",
              "type": "uint8"
            },
            {
              "internalType": "uint8",
              "name": "guardianIndex",
              "type": "uint8"
            }
          ],
          "internalType": "struct Structs.Signature[]",
          "name": "signatures",
          "type": "tuple[]"
        },
        {
          "components": [
            {
              "internalType": "address[]",
              "name": "keys",
              "type": "address[]"
            },
            {
              "internalType": "uint32",
              "name": "expirationTime",
              "type": "uint32"
            }
          ],
          "internalType": "struct Structs.GuardianSet",
          "name": "guardianSet",
          "type": "tuple"
        }
      ],
      "name": "verifySignatures",
      "outputs": [
        {
          "internalType": "bool",
          "name": "valid",
          "type": "bool"
        },
        {
          "internalType": "string",
          "name": "reason",
          "type": "string"
        }
      ],
      "stateMutability": "pure",
      "type": "function"
    },
    {
      "inputs": [
        {
          "components": [
            {
              "internalType": "uint8",
              "name": "version",
              "type": "uint8"
            },
            {
              "internalType": "uint32",
              "name": "timestamp",
              "type": "uint32"
            },
            {
              "internalType": "uint32",
              "name": "nonce",
              "type": "uint32"
            },
            {
              "internalType": "uint16",
              "name": "emitterChainId",
              "type": "uint16"
            },
            {
              "internalType": "bytes32",
              "name": "emitterAddress",
              "type": "bytes32"
            },
            {
              "internalType": "uint64",
              "name": "sequence",
              "type": "uint64"
            },
            {
              "internalType": "uint8",
              "name": "consistencyLevel",
              "type": "uint8"
            },
            {
              "internalType": "bytes",
              "name": "payload",
              "type": "bytes"
            },
            {
              "internalType": "uint32",
              "name": "guardianSetIndex",
              "type": "uint32"
            },
            {
              "components": [
                {
                  "internalType": "bytes32",
                  "name": "r",
                  "type": "bytes32"
                },
                {
                  "internalType": "bytes32",
                  "name": "s",
                  "type": "bytes32"
                },
                {
                  "internalType": "uint8",
                  "name": "v",
                  "type": "uint8"
                },
                {
                  "internalType": "uint8",
                  "name": "guardianIndex",
                  "type": "uint8"
                }
              ],
              "internalType": "struct Structs.Signature[]",
              "name": "signatures",
              "type": "tuple[]"
            },
            {
              "internalType": "bytes32",
              "name": "hash",
              "type": "bytes32"
            }
          ],
          "internalType": "struct Structs.VM",
          "name": "vm",
          "type": "tuple"
        }
      ],
      "name": "verifyVM",
      "outputs": [
        {
          "internalType": "bool",
          "name": "valid",
          "type": "bool"
        },
        {
          "internalType": "string",
          "name": "reason",
          "type": "string"
        }
      ],
      "stateMutability": "view",
      "type": "function"
    },
    {
      "stateMutability": "payable",
      "type": "receive"
    }
  ],
  "bytecode": {
    "object": "0x608060405234801561001057600080fd5b5061423d806100206000396000f3fe6080604052600436106101d15760003560e01c806396cfc86d116100f7578063c0fd8bde11610095578063f42bc64111610064578063f42bc64114610745578063f8ce560a14610765578063f951975a14610785578063fbe3c2cd146107b257610238565b8063c0fd8bde1461069a578063d60b347f146106c9578063e8d0df2514610702578063eb8d3f121461072257610238565b8063a9e11893116100d1578063a9e1189314610625578063ab2bc3bf14610652578063b172b22214610672578063b19a437e1461068757610238565b806396cfc86d146105ad5780639a8a0592146105dd578063a0cce1b31461060557610238565b8063515f32471161016f5780638129fc1c1161013e5780638129fc1c1461051b578063851bf95614610530578063875be02a1461055f57806393df337e1461058d57610238565b8063515f3247146104525780635cb8cae2146104ac5780636606b4e0146104ce5780636700a05a146104ee57610238565b80631cfe7951116101ab5780631cfe79511461032c5780632c3c02a4146103585780634cf842b5146103985780634fdc60fa146103ef57610238565b80630319e59c1461026e57806304ca84cf146102e05780631a90a2191461030d57610238565b366102385760405162461bcd60e51b815260206004820152602c60248201527f74686520576f726d686f6c6520636f6e747261637420646f6573206e6f74206160448201526b63636570742061737365747360a01b60648201526084015b60405180910390fd5b60405162461bcd60e51b815260206004820152600b60248201526a1d5b9cdd5c1c1bdc9d195960aa1b604482015260640161022f565b34801561027a57600080fd5b5061028e610289366004613828565b6107d1565b6040516102d79190600060a0820190508251825260ff602084015116602083015261ffff6040840151166040830152606083015160608301526080830151608083015292915050565b60405180910390f35b3480156102ec57600080fd5b506103006102fb366004613828565b610927565b6040516102d79190613e6b565b34801561031957600080fd5b506007545b6040519081526020016102d7565b34801561033857600080fd5b5060035463ffffffff165b60405163ffffffff90911681526020016102d7565b34801561036457600080fd5b50610388610373366004613679565b60009081526005602052604090205460ff1690565b60405190151581526020016102d7565b3480156103a457600080fd5b506103d76103b336600461361e565b6001600160a01b03166000908152600460205260409020546001600160401b031690565b6040516001600160401b0390911681526020016102d7565b3480156103fb57600080fd5b5061040f61040a366004613828565b610b5a565b6040516102d791908151815260208083015160ff169082015260408083015161ffff16908201526060918201516001600160a01b03169181019190915260800190565b34801561045e57600080fd5b5061047261046d366004613828565b610c96565b6040516102d791908151815260208083015160ff169082015260408083015161ffff16908201526060918201519181019190915260800190565b3480156104b857600080fd5b506104cc6104c7366004613828565b610dc5565b005b3480156104da57600080fd5b506104cc6104e9366004613828565b610ecd565b3480156104fa57600080fd5b5061050e610509366004613828565b6110ed565b6040516102d79190613edb565b34801561052757600080fd5b506104cc611514565b34801561053c57600080fd5b5061055061054b3660046137d7565b6115d9565b6040516102d793929190613eee565b34801561056b57600080fd5b5061057f61057a366004613946565b611668565b6040516102d7929190613e06565b34801561059957600080fd5b506104cc6105a8366004613828565b6116d7565b3480156105b957600080fd5b506103886105c8366004613679565b60009081526008602052604090205460ff1690565b3480156105e957600080fd5b5060005461ffff165b60405161ffff90911681526020016102d7565b34801561061157600080fd5b5061057f610620366004613691565b611823565b34801561063157600080fd5b50610645610640366004613828565b611a57565b6040516102d79190613f25565b34801561065e57600080fd5b5061057f61066d36600461385a565b611ad8565b34801561067e57600080fd5b5060015461031e565b6103d7610695366004613a7f565b611e20565b3480156106a657600080fd5b506106ba6106b5366004613798565b611ec0565b6040516102d793929190613f38565b3480156106d557600080fd5b506103886106e436600461361e565b6001600160a01b031660009081526006602052604090205460ff1690565b34801561070e57600080fd5b506104cc61071d36600461363f565b611f22565b34801561072e57600080fd5b50600354640100000000900463ffffffff16610343565b34801561075157600080fd5b506104cc610760366004613828565b611f83565b34801561077157600080fd5b5061031e610780366004613679565b612084565b34801561079157600080fd5b506107a56107a0366004613a65565b6120f4565b6040516102d79190613ec8565b3480156107be57600080fd5b5060005462010000900461ffff166105f2565b6040805160a0810182526000808252602082018190529181018290526060810182905260808101829052906108068382612193565b825261081360208261406f565b905061081f83826121f1565b60ff16602083015261083260018261406f565b9050816020015160ff166004146108825760405162461bcd60e51b8152602060048201526014602482015273696e76616c6964205472616e736665724665657360601b604482015260640161022f565b61088c838261224d565b61ffff1660408301526108a060028261406f565b90506108ac83826122aa565b60608301526108bc60208261406f565b90506108c88382612193565b60808301526108d860208261406f565b9050808351146109215760405162461bcd60e51b8152602060048201526014602482015273696e76616c6964205472616e736665724665657360601b604482015260640161022f565b50919050565b61092f6131fc565b600061093b8382612193565b825261094860208261406f565b905061095483826121f1565b60ff16602083015261096760018261406f565b9050816020015160ff166002146109c05760405162461bcd60e51b815260206004820152601a60248201527f696e76616c696420477561726469616e53657455706772616465000000000000604482015260640161022f565b6109ca838261224d565b61ffff1660408301526109de60028261406f565b90506109ea83826122ff565b63ffffffff166080830152610a0060048261406f565b90506000610a0e84836121f1565b9050610a1b60018361406f565b915060405180604001604052808260ff166001600160401b03811115610a5157634e487b7160e01b600052604160045260246000fd5b604051908082528060200260200182016040528015610a7a578160200160208202803683370190505b5081526000602090910181905260608501919091525b8160ff16811015610b0257610aa5858461235c565b606085015151805183908110610acb57634e487b7160e01b600052603260045260246000fd5b6001600160a01b0390921660209283029190910190910152610aee60148461406f565b925080610afa8161417c565b915050610a90565b5081845114610b535760405162461bcd60e51b815260206004820152601a60248201527f696e76616c696420477561726469616e53657455706772616465000000000000604482015260640161022f565b5050919050565b604080516080810182526000808252602082018190529181018290526060810182905290610b888382612193565b8252610b9560208261406f565b9050610ba183826121f1565b60ff166020830152610bb460018261406f565b9050816020015160ff16600114610c075760405162461bcd60e51b8152602060048201526017602482015276696e76616c696420436f6e74726163745570677261646560481b604482015260640161022f565b610c11838261224d565b61ffff166040830152610c2560028261406f565b9050610c318382612193565b6001600160a01b03166060830152610c4a60208261406f565b9050808351146109215760405162461bcd60e51b8152602060048201526017602482015276696e76616c696420436f6e74726163745570677261646560481b604482015260640161022f565b604080516080810182526000808252602082018190529181018290526060810182905290610cc48382612193565b8252610cd160208261406f565b9050610cdd83826121f1565b60ff166020830152610cf060018261406f565b9050816020015160ff16600314610d415760405162461bcd60e51b8152602060048201526015602482015274696e76616c6964205365744d65737361676546656560581b604482015260640161022f565b610d4b838261224d565b61ffff166040830152610d5f60028261406f565b9050610d6b83826122aa565b6060830152610d7b60208261406f565b9050808351146109215760405162461bcd60e51b8152602060048201526015602482015274696e76616c6964205365744d65737361676546656560581b604482015260640161022f565b6000610dd082611a57565b9050600080610dde836123c1565b91509150818190610e025760405162461bcd60e51b815260040161022f9190613e21565b506000610e128460e00151610b5a565b805190915063436f726514610e5a5760405162461bcd60e51b815260206004820152600e60248201526d496e76616c6964204d6f64756c6560901b604482015260640161022f565b60005461ffff1661ffff16816040015161ffff1614610eab5760405162461bcd60e51b815260206004820152600d60248201526c24b73b30b634b21021b430b4b760991b604482015260640161022f565b610eb9846101400151612537565b610ec68160600151612552565b5050505050565b6000610ed882611a57565b9050600080610ee6836123c1565b91509150818190610f0a5760405162461bcd60e51b815260040161022f9190613e21565b506000610f1a8460e00151610927565b805190915063436f726514610f625760405162461bcd60e51b815260206004820152600e60248201526d696e76616c6964204d6f64756c6560901b604482015260640161022f565b60005461ffff1661ffff16816040015161ffff161480610f885750604081015161ffff16155b610fc45760405162461bcd60e51b815260206004820152600d60248201526c34b73b30b634b21021b430b4b760991b604482015260640161022f565b606081015151516110175760405162461bcd60e51b815260206004820152601960248201527f6e657720677561726469616e2073657420697320656d70747900000000000000604482015260640161022f565b60035463ffffffff1661102b906001614087565b63ffffffff16816080015163ffffffff16146110935760405162461bcd60e51b815260206004820152602160248201527f696e646578206d75737420696e63726561736520696e207374657073206f66206044820152603160f81b606482015260840161022f565b6110a1846101400151612537565b6110b86110b360035463ffffffff1690565b61267f565b6110ca816060015182608001516126b7565b60808101516003805463ffffffff191663ffffffff909216919091179055610ec6565b6040805160c0810182526000808252602082018190526060928201839052828201839052608082015260a0810191909152600061112a83826121f1565b60ff16825261113a60018261406f565b9050816000015160ff166002146111635760405162461bcd60e51b815260040161022f90613e34565b61116d83826122ff565b63ffffffff16602083015261118360048261406f565b9050600061119184836121f1565b60ff1690506111a160018361406f565b91506111ae82828661270b565b60408401526111be816042614116565b6111c8908361406f565b915060006111d685846121f1565b60ff1690506111e660018461406f565b92506000611201846111f9846020614116565b8891906128e6565b9050808051906020012060405160200161121d91815260200190565b60408051601f1981840301815291905280516020909101206080860152816001600160401b0381111561126057634e487b7160e01b600052604160045260246000fd5b604051908082528060200260200182016040528015611289578160200160208202803683370190505b50606086015260005b828160ff1610156112f1576112a78786612193565b86606001518260ff16815181106112ce57634e487b7160e01b600052603260045260246000fd5b6020026020010181815250506020856112e7919061406f565b9450600101611292565b5060006112fe87866121f1565b905061130b60018661406f565b9450828160ff1611158015611323575060008160ff16115b61136f5760405162461bcd60e51b815260206004820152601e60248201527f696e76616c6964206e756d626572206f66206f62736572766174696f6e730000604482015260640161022f565b8060ff166001600160401b0381111561139857634e487b7160e01b600052604160045260246000fd5b6040519080825280602002602001820160405280156113de57816020015b6040805180820190915260008152606060208201528152602001906001900390816113b65790505b5060a0870152600080805b8360ff168160ff1610156114c9576114018a896121f1565b925061140e60018961406f565b975061141a8a896122ff565b915061142760048961406f565b975060405180604001604052808460ff168152602001600361145a8b8663ffffffff168f6128e69092919063ffffffff16565b60405160200161146b929190613dd7565b6040516020818303038152906040528152508960a001518260ff16815181106114a457634e487b7160e01b600052603260045260246000fd5b60209081029190910101526114bf63ffffffff83168961406f565b97506001016113e9565b50868951146115085760405162461bcd60e51b815260206004820152600b60248201526a34b73b30b634b2102b269960a91b604482015260640161022f565b50505050505050919050565b60006115477f360894a13ba1a3210667c828492db98dca3e2076cc3735a920a3ca505d382bbc546001600160a01b031690565b905061156b816001600160a01b031660009081526006602052604090205460ff1690565b156115ae5760405162461bcd60e51b8152602060048201526013602482015272185b1c9958591e481a5b9a5d1a585b1a5e9959606a1b604482015260640161022f565b6115d6816001600160a01b03166000908152600660205260409020805460ff19166001179055565b50565b6040805160c0810182526000808252602082018190526060928201839052828201839052608082015260a08101919091526000606061164d86868080601f0160208091040260200160405190810160405280939291908181526020018383808284376000920191909152506110ed92505050565b92506116598385611ad8565b93979096509294509192505050565b60006060826000015160ff166001141561168e57611685836129f3565b91509150915091565b826000015160ff16600314156116a75761168583612a44565b505060408051808201909152600f81526e24b73b30b634b2103b32b939b4b7b760891b6020820152600092909150565b60006116e282611a57565b90506000806116f0836123c1565b915091508181906117145760405162461bcd60e51b815260040161022f9190613e21565b5060006117248460e001516107d1565b805190915063436f72651461176c5760405162461bcd60e51b815260206004820152600e60248201526d696e76616c6964204d6f64756c6560901b604482015260640161022f565b60005461ffff1661ffff16816040015161ffff1614806117925750604081015161ffff16155b6117ce5760405162461bcd60e51b815260206004820152600d60248201526c34b73b30b634b21021b430b4b760991b604482015260640161022f565b6117dc846101400151612537565b608081015160608201516040516001600160a01b0383169180156108fc02916000818181858888f1935050505015801561181a573d6000803e3d6000fd5b50505050505050565b8051518251600091606091839190825b81811015611a3457600088828151811061185d57634e487b7160e01b600052603260045260246000fd5b60200260200101519050816000148061187f57508460ff16816060015160ff16115b6118d75760405162461bcd60e51b815260206004820152602360248201527f7369676e617475726520696e6469636573206d75737420626520617363656e64604482015262696e6760e81b606482015260840161022f565b6060810151945060ff851684116119305760405162461bcd60e51b815260206004820152601c60248201527f677561726469616e20696e646578206f7574206f6620626f756e647300000000604482015260640161022f565b8760000151816060015160ff168151811061195b57634e487b7160e01b600052603260045260246000fd5b60200260200101516001600160a01b031660018b836040015184600001518560200151604051600081526020016040526040516119b4949392919093845260ff9290921660208401526040830152606082015260800190565b6020604051602081039080840390855afa1580156119d6573d6000803e3d6000fd5b505050602060405103516001600160a01b031614611a2b576000604051806040016040528060148152602001731593481cda59db985d1d5c99481a5b9d985b1a5960621b815250965096505050505050611a4f565b50600101611833565b50600160405180602001604052806000815250945094505050505b935093915050565b611a5f613256565b6000611a6b83826121f1565b90508060ff1660011415611a8957611a8283612abb565b9150610921565b8060ff1660031415611a9e57611a8283612c52565b60405162461bcd60e51b815260206004820152600f60248201526e24b73b30b634b2103b32b939b4b7b760891b604482015260640161022f565b6040805160608082018352600080835260208084018381528486018381529188015163ffffffff16855294870151909452608086015190935290611b1b81612d7f565b90935091508215611e175760608501515160a08601515160009190825b81811015611e1257828960a001518281518110611b6557634e487b7160e01b600052603260045260246000fd5b60200260200101516000015160ff1610611bc15760405162461bcd60e51b815260206004820152601f60248201527f6f62736572766174696f6e20696e646578206f7574206f6620626f756e647300604482015260640161022f565b801580611c0257508360ff168960a001518281518110611bf157634e487b7160e01b600052603260045260246000fd5b60200260200101516000015160ff16115b611c5c5760405162461bcd60e51b815260206004820152602560248201527f6f62736572766174696f6e20696e6469636573206d75737420626520617363656044820152646e64696e6760d81b606482015260840161022f565b8860a001518181518110611c8057634e487b7160e01b600052603260045260246000fd5b60200260200101516000015193506000611d106001808c60a001518581518110611cba57634e487b7160e01b600052603260045260246000fd5b60200260200101516020015151611cd19190614135565b8c60a001518581518110611cf557634e487b7160e01b600052603260045260246000fd5b6020026020010151602001516128e69092919063ffffffff16565b905060008180519060200120604051602001611d2e91815260200190565b6040516020818303038152906040528051906020012090508a606001518b60a001518481518110611d6f57634e487b7160e01b600052603260045260246000fd5b60200260200101516000015160ff1681518110611d9c57634e487b7160e01b600052603260045260246000fd5b60200260200101518114611de85760006040518060400160405280601381526020017234b73b30b634b21037b139b2b93b30ba34b7b760691b8152509850985050505050505050611e19565b8915611e08576000818152600860205260409020805460ff191660011790555b5050600101611b38565b505050505b505b9250929050565b6000611e2b60075490565b3414611e675760405162461bcd60e51b815260206004820152600b60248201526a696e76616c69642066656560a81b604482015260640161022f565b611e7033612ed2565b9050336001600160a01b03167f6eb224fb001ed210e379b335e35efe88672a8ce935d981a6896b27ffdf52a3b282868686604051611eb19493929190613f4b565b60405180910390a29392505050565b611ec8613256565b60006060611f0b85858080601f016020809104026020016040519081016040528093929190818152602001838380828437600092019190915250611a5792505050565b9250611f1683611668565b93969095509293505050565b805160005b81811015611f7e57611f76838281518110611f5257634e487b7160e01b600052603260045260246000fd5b6020908102919091018101516000908152600890915260409020805460ff19169055565b600101611f27565b505050565b6000611f8e82611a57565b9050600080611f9c836123c1565b91509150818190611fc05760405162461bcd60e51b815260040161022f9190613e21565b506000611fd08460e00151610c96565b805190915063436f7265146120185760405162461bcd60e51b815260206004820152600e60248201526d496e76616c6964204d6f64756c6560901b604482015260640161022f565b60005461ffff1661ffff16816040015161ffff16146120695760405162461bcd60e51b815260206004820152600d60248201526c24b73b30b634b21021b430b4b760991b604482015260640161022f565b612077846101400151612537565b610ec68160600151600755565b600061010082106120cc5760405162461bcd60e51b8152602060048201526012602482015271746f6f206d616e7920677561726469616e7360701b604482015260640161022f565b60036120d9836002614116565b6120e391906140f6565b6120ee90600161406f565b92915050565b60408051808201825260608082526000602080840182905263ffffffff8616825260028152908490208451815492830281018401865294850182815293949390928492849184018282801561217257602002820191906000526020600020905b81546001600160a01b03168152600190910190602001808311612154575b50505091835250506001919091015463ffffffff1660209091015292915050565b60006121a082602061406f565b835110156121e85760405162461bcd60e51b8152602060048201526015602482015274746f427974657333325f6f75744f66426f756e647360581b604482015260640161022f565b50016020015190565b60006121fe82600161406f565b835110156122445760405162461bcd60e51b8152602060048201526013602482015272746f55696e74385f6f75744f66426f756e647360681b604482015260640161022f565b50016001015190565b600061225a82600261406f565b835110156122a15760405162461bcd60e51b8152602060048201526014602482015273746f55696e7431365f6f75744f66426f756e647360601b604482015260640161022f565b50016002015190565b60006122b782602061406f565b835110156121e85760405162461bcd60e51b8152602060048201526015602482015274746f55696e743235365f6f75744f66426f756e647360581b604482015260640161022f565b600061230c82600461406f565b835110156123535760405162461bcd60e51b8152602060048201526014602482015273746f55696e7433325f6f75744f66426f756e647360601b604482015260640161022f565b50016004015190565b600061236982601461406f565b835110156123b15760405162461bcd60e51b8152602060048201526015602482015274746f416464726573735f6f75744f66426f756e647360581b604482015260640161022f565b500160200151600160601b900490565b600060606000806123d185611668565b91509150816123e65760009590945092505050565b60035463ffffffff1663ffffffff1685610100015163ffffffff161461242c5760006040518060600160405280602281526020016141c460229139935093505050915091565b60005462010000900461ffff1661ffff16856060015161ffff1614612487576000604051806040016040528060168152602001753bb937b7339033b7bb32b93730b731b29031b430b4b760511b815250935093505050915091565b6001548560800151146124d75760006040518060400160405280601981526020017f77726f6e6720676f7665726e616e636520636f6e747261637400000000000000815250935093505050915091565b61014085015160009081526005602052604090205460ff161561251a5760006040518060600160405280602281526020016141e660229139935093505050915091565b600160405180602001604052806000815250935093505050915091565b6000908152600560205260409020805460ff19166001179055565b60006125857f360894a13ba1a3210667c828492db98dca3e2076cc3735a920a3ca505d382bbc546001600160a01b031690565b905061259082612f42565b60408051600481526024810182526020810180516001600160e01b031663204a7f0760e21b179052905160009182916001600160a01b038616916125d391613dbb565b600060405180830381855af49150503d806000811461260e576040519150601f19603f3d011682016040523d82523d6000602084013e612613565b606091505b50915091508181906126385760405162461bcd60e51b815260040161022f9190613e21565b50836001600160a01b0316836001600160a01b03167f2e4cc16c100f0b55e2df82ab0b1a7e294aa9cbd01b48fbaf622683fbc0507a4960405160405180910390a350505050565b61268c4262015180614087565b63ffffffff9182166000908152600260205260409020600101805463ffffffff191691909216179055565b63ffffffff811660009081526002602090815260409091208351805185936126e39284929101906132b1565b50602091909101516001909101805463ffffffff191663ffffffff9092169190911790555050565b606083836001600160401b0381111561273457634e487b7160e01b600052604160045260246000fd5b60405190808252806020026020018201604052801561278657816020015b6040805160808101825260008082526020808301829052928201819052606082015282526000199092019101816127525790505b50915060005b848110156128dd5761279e84836121f1565b8382815181106127be57634e487b7160e01b600052603260045260246000fd5b602090810291909101015160ff9091166060909101526127df60018361406f565b91506127eb8483612193565b83828151811061280b57634e487b7160e01b600052603260045260246000fd5b60200260200101516000018181525050602082612828919061406f565b91506128348483612193565b83828151811061285457634e487b7160e01b600052603260045260246000fd5b60200260200101516020018181525050602082612871919061406f565b915061287d84836121f1565b61288890601b6140d1565b8382815181106128a857634e487b7160e01b600052603260045260246000fd5b602090810291909101015160ff9091166040909101526128c960018361406f565b9150806128d58161417c565b91505061278c565b50509392505050565b6060816128f481601f61406f565b10156129335760405162461bcd60e51b815260206004820152600e60248201526d736c6963655f6f766572666c6f7760901b604482015260640161022f565b61293d828461406f565b845110156129815760405162461bcd60e51b8152602060048201526011602482015270736c6963655f6f75744f66426f756e647360781b604482015260640161022f565b6060821580156129a057604051915060008252602082016040526129ea565b6040519150601f8416801560200281840101858101878315602002848b0101015b818310156129d95780518352602092830192016129c1565b5050858452601f01601f1916604052505b50949350505050565b604080516060808201835260008083526020830182815293830181815261010086015163ffffffff16845261012086015190945261014085015190935290612a3a81612d7f565b9250925050915091565b61014081015160009081526008602052604081205460609060ff1615612a7d575050604080516020810190915260008152600192909150565b505060408051808201909152601c81527f436f756c64206e6f742066696e64206861736820696e206361636865000000006020820152600092909150565b612ac3613256565b6000612acf83826121f1565b60ff168252612adf60018261406f565b9050816000015160ff16600114612b085760405162461bcd60e51b815260040161022f90613e34565b612b1283826122ff565b63ffffffff16610100830152612b2960048261406f565b90506000612b3784836121f1565b60ff169050612b4760018361406f565b9150612b5482828661270b565b610120840152612b65816042614116565b612b6f908361406f565b91506000612b8c83848751612b849190614135565b8791906128e6565b90508080519060200120604051602001612ba891815260200190565b60405160208183030381529060405280519060200120846101400181815250506000612be184858851612bdb9190614135565b88612f82565b805163ffffffff9081166020808901919091528201511660408088019190915281015161ffff166060808801919091528101516080808801919091528101516001600160401b031660a08088019190915281015160ff1660c080880191909152015160e08601525092949350505050565b612c5a613256565b6000612c6683826121f1565b60ff168252612c7660018261406f565b9050816000015160ff16600314612c9f5760405162461bcd60e51b815260040161022f90613e34565b6000612cba82838651612cb29190614135565b8691906128e6565b90508080519060200120604051602001612cd691815260200190565b60405160208183030381529060405280519060200120836101400181815250506000612d0f83848751612d099190614135565b87612f82565b805163ffffffff9081166020808801919091528201511660408087019190915281015161ffff166060808701919091528101516080808701919091528101516001600160401b031660a08087019190915281015160ff1660c080870191909152015160e085015250919392505050565b600060606000612d9284600001516120f4565b805151909150612dd5576000604051806040016040528060148152602001731a5b9d985b1a590819dd585c991a585b881cd95d60621b8152509250925050915091565b600354845163ffffffff908116911614801590612dfb575042816020015163ffffffff16105b15612e425760006040518060400160405280601881526020017f677561726469616e2073657420686173206578706972656400000000000000008152509250925050915091565b805151612e4e90612084565b8460200151511015612e88576000604051806040016040528060098152602001686e6f2071756f72756d60b81b8152509250925050915091565b600080612e9e8660400151876020015185611823565b9150915081612eb4576000969095509350505050565b60016040518060200160405280600081525094509450505050915091565b6001600160a01b0381166000908152600460205260409020546001600160401b0316612f3d82612f038360016140af565b6001600160a01b03919091166000908152600460205260409020805467ffffffffffffffff19166001600160401b03909216919091179055565b919050565b612f4b816130fa565b6040516001600160a01b038216907fbc7cd75a20ee27fd9adebab32041f755214dbc6bffa90cc0225b39da2e5c2d3b90600090a250565b6040805160e08101825260008082526020820181905291810182905260608082018390526080820183905260a082019290925260c081019190915283612fc883826122ff565b63ffffffff168252612fdb60048261406f565b9050612fe783826122ff565b63ffffffff166020830152612ffd60048261406f565b9050613009838261224d565b61ffff16604083015261301d60028261406f565b90506130298382612193565b606083015261303960208261406f565b9050613045838261319f565b6001600160401b0316608083015261305e60088261406f565b905061306a83826121f1565b60ff1660a083015261307d60018261406f565b9050600061308b8683614135565b9050808510156130dd5760405162461bcd60e51b815260206004820152601f60248201527f496e73756666696369656e74206f62736572766174696f6e206c656e67746800604482015260640161022f565b6130eb82612cb28388614135565b60c08401525090949350505050565b803b61315e5760405162461bcd60e51b815260206004820152602d60248201527f455243313936373a206e657720696d706c656d656e746174696f6e206973206e60448201526c1bdd08184818dbdb9d1c9858dd609a1b606482015260840161022f565b7f360894a13ba1a3210667c828492db98dca3e2076cc3735a920a3ca505d382bbc80546001600160a01b0319166001600160a01b0392909216919091179055565b60006131ac82600861406f565b835110156131f35760405162461bcd60e51b8152602060048201526014602482015273746f55696e7436345f6f75744f66426f756e647360601b604482015260640161022f565b50016008015190565b6040518060a0016040528060008019168152602001600060ff168152602001600061ffff168152602001613249604051806040016040528060608152602001600063ffffffff1681525090565b8152600060209091015290565b604080516101608101825260008082526020820181905291810182905260608082018390526080820183905260a0820183905260c0820183905260e08201819052610100820183905261012082015261014081019190915290565b828054828255906000526020600020908101928215613306579160200282015b8281111561330657825182546001600160a01b0319166001600160a01b039091161782556020909201916001909101906132d1565b50613312929150613316565b5090565b5b808211156133125760008155600101613317565b80356001600160a01b0381168114612f3d57600080fd5b600082601f830112613352578081fd5b813560206133676133628361404c565b61401c565b80838252828201915082860187848660051b8901011115613386578586fd5b855b858110156133a457813584529284019290840190600101613388565b5090979650505050505050565b600082601f8301126133c1578081fd5b813560206133d16133628361404c565b80838252828201915082860187848660051b89010111156133f0578586fd5b855b858110156133a45781356001600160401b0380821115613410578889fd5b908901906040828c03601f190181131561342857898afd5b613430613f8d565b61343b89850161360d565b815290830135908282111561344e578a8bfd5b61345c8d8a84870101613566565b818a0152875250505092840192908401906001016133f2565b600082601f830112613485578081fd5b813560206134956133628361404c565b80838252828201915082860187848660071b89010111156134b4578586fd5b855b858110156133a457608080838b0312156134ce578788fd5b6134d6613fb5565b83358152868401358782015260406134ef81860161360d565b90820152606061350085820161360d565b9082015285529385019391909101906001016134b6565b80358015158114612f3d57600080fd5b60008083601f840112613538578182fd5b5081356001600160401b0381111561354e578182fd5b602083019150836020828501011115611e1957600080fd5b600082601f830112613576578081fd5b81356001600160401b0381111561358f5761358f6141ad565b6135a2601f8201601f191660200161401c565b8181528460208386010111156135b6578283fd5b816020850160208301379081016020019190915292915050565b803561ffff81168114612f3d57600080fd5b803563ffffffff81168114612f3d57600080fd5b80356001600160401b0381168114612f3d57600080fd5b803560ff81168114612f3d57600080fd5b60006020828403121561362f578081fd5b6136388261332b565b9392505050565b600060208284031215613650578081fd5b81356001600160401b03811115613665578182fd5b61367184828501613342565b949350505050565b60006020828403121561368a578081fd5b5035919050565b6000806000606084860312156136a5578182fd5b833592506020808501356001600160401b03808211156136c3578485fd5b6136cf88838901613475565b945060408701359150808211156136e4578384fd5b90860190604082890312156136f7578384fd5b6136ff613f8d565b82358281111561370d578586fd5b83019150601f8201891361371f578485fd5b813561372d6133628261404c565b8082825286820191508685018c888560051b880101111561374c578889fd5b8895505b83861015613775576137618161332b565b835260019590950194918701918701613750565b5083525061378690508385016135e2565b84820152809450505050509250925092565b600080602083850312156137aa578182fd5b82356001600160401b038111156137bf578283fd5b6137cb85828601613527565b90969095509350505050565b6000806000604084860312156137eb578081fd5b83356001600160401b03811115613800578182fd5b61380c86828701613527565b909450925061381f905060208501613517565b90509250925092565b600060208284031215613839578081fd5b81356001600160401b0381111561384e578182fd5b61367184828501613566565b6000806040838503121561386c578182fd5b82356001600160401b0380821115613882578384fd5b9084019060c08287031215613895578384fd5b61389d613fd7565b6138a68361360d565b81526138b4602084016135e2565b60208201526040830135828111156138ca578586fd5b6138d688828601613475565b6040830152506060830135828111156138ed578586fd5b6138f988828601613342565b6060830152506080830135608082015260a08301358281111561391a578586fd5b613926888286016133b1565b60a083015250935061393d91505060208401613517565b90509250929050565b600060208284031215613957578081fd5b81356001600160401b038082111561396d578283fd5b908301906101608286031215613981578283fd5b613989613ff9565b6139928361360d565b81526139a0602084016135e2565b60208201526139b1604084016135e2565b60408201526139c2606084016135d0565b6060820152608083013560808201526139dd60a084016135f6565b60a08201526139ee60c0840161360d565b60c082015260e083013582811115613a04578485fd5b613a1087828601613566565b60e083015250610100613a248185016135e2565b908201526101208381013583811115613a3b578586fd5b613a4788828701613475565b91830191909152506101409283013592810192909252509392505050565b600060208284031215613a76578081fd5b613638826135e2565b600080600060608486031215613a93578081fd5b613a9c846135e2565b925060208401356001600160401b03811115613ab6578182fd5b613ac286828701613566565b92505061381f6040850161360d565b600081518084526020808501808196508360051b81019150828601855b85811015613b2f5782840389528151805160ff1685528501516040868601819052613b1b81870183613b9f565b9a87019a9550505090840190600101613aee565b5091979650505050505050565b6000815180845260208085019450808401835b83811015613b9457815180518852838101518489015260408082015160ff908116918a0191909152606091820151169088015260809096019590820190600101613b4f565b509495945050505050565b60008151808452613bb781602086016020860161414c565b601f01601f19169290920160200192915050565b805160408084528151908401819052600091602091908201906060860190845b81811015613c105783516001600160a01b031683529284019291840191600101613beb565b50509382015163ffffffff16949091019390935250919050565b60ff81511682526000602063ffffffff818401511681850152604083015160c06040860152613c5c60c0860182613b3c565b606085810151878303918801919091528051808352908401925084918401905b80831015613c9c5783518252928401926001929092019190840190613c7c565b506080860151608088015260a0860151935086810360a0880152613cc08185613ad1565b979650505050505050565b805160ff16825260006101606020830151613cee602086018263ffffffff169052565b506040830151613d06604086018263ffffffff169052565b506060830151613d1c606086018261ffff169052565b506080830151608085015260a0830151613d4160a08601826001600160401b03169052565b5060c0830151613d5660c086018260ff169052565b5060e08301518160e0860152613d6e82860182613b9f565b91505061010080840151613d898287018263ffffffff169052565b50506101208084015185830382870152613da38382613b3c565b61014095860151969095019590955250919392505050565b60008251613dcd81846020870161414c565b9190910192915050565b60ff60f81b8360f81b16815260008251613df881600185016020870161414c565b919091016001019392505050565b82151581526040602082015260006136716040830184613b9f565b6020815260006136386020830184613b9f565b60208082526017908201527f564d2076657273696f6e20696e636f6d70617469626c65000000000000000000604082015260600190565b602081528151602082015260ff602083015116604082015261ffff60408301511660608201526000606083015160a06080840152613eac60c0840182613bcb565b905063ffffffff60808501511660a08401528091505092915050565b6020815260006136386020830184613bcb565b6020815260006136386020830184613c2a565b606081526000613f016060830186613c2a565b84151560208401528281036040840152613f1b8185613b9f565b9695505050505050565b6020815260006136386020830184613ccb565b606081526000613f016060830186613ccb565b6001600160401b038516815263ffffffff84166020820152608060408201526000613f796080830185613b9f565b905060ff8316606083015295945050505050565b604080519081016001600160401b0381118282101715613faf57613faf6141ad565b60405290565b604051608081016001600160401b0381118282101715613faf57613faf6141ad565b60405160c081016001600160401b0381118282101715613faf57613faf6141ad565b60405161016081016001600160401b0381118282101715613faf57613faf6141ad565b604051601f8201601f191681016001600160401b0381118282101715614044576140446141ad565b604052919050565b60006001600160401b03821115614065576140656141ad565b5060051b60200190565b6000821982111561408257614082614197565b500190565b600063ffffffff8083168185168083038211156140a6576140a6614197565b01949350505050565b60006001600160401b038083168185168083038211156140a6576140a6614197565b600060ff821660ff84168060ff038211156140ee576140ee614197565b019392505050565b60008261411157634e487b7160e01b81526012600452602481fd5b500490565b600081600019048311821515161561413057614130614197565b500290565b60008282101561414757614147614197565b500390565b60005b8381101561416757818101518382015260200161414f565b83811115614176576000848401525b50505050565b600060001982141561419057614190614197565b5060010190565b634e487b7160e01b600052601160045260246000fd5b634e487b7160e01b600052604160045260246000fdfe6e6f74207369676e65642062792063757272656e7420677561726469616e20736574676f7665726e616e636520616374696f6e20616c726561647920636f6e73756d6564a2646970667358221220e03fde957a8dbcae4fa8fbed307ec8fc0f1e3d548a6f9cabe98dc1128f3154bf64736f6c63430008040033",
    "linkReferences": {}
  },
  "methodIdentifiers": {
    "chainId()": "9a8a0592",
    "clearBatchCache(bytes32[])": "e8d0df25",
    "getCurrentGuardianSetIndex()": "1cfe7951",
    "getGuardianSet(uint32)": "f951975a",
    "getGuardianSetExpiry()": "eb8d3f12",
    "governanceActionIsConsumed(bytes32)": "2c3c02a4",
    "governanceChainId()": "fbe3c2cd",
    "governanceContract()": "b172b222",
    "initialize()": "8129fc1c",
    "isInitialized(address)": "d60b347f",
    "messageFee()": "1a90a219",
    "nextSequence(address)": "4cf842b5",
    "parseAndVerifyBatchVM(bytes,bool)": "851bf956",
    "parseAndVerifyVM(bytes)": "c0fd8bde",
    "parseBatchVM(bytes)": "6700a05a",
    "parseContractUpgrade(bytes)": "4fdc60fa",
    "parseGuardianSetUpgrade(bytes)": "04ca84cf",
    "parseSetMessageFee(bytes)": "515f3247",
    "parseTransferFees(bytes)": "0319e59c",
    "parseVM(bytes)": "a9e11893",
    "publishMessage(uint32,bytes,uint8)": "b19a437e",
    "quorum(uint256)": "f8ce560a",
    "submitContractUpgrade(bytes)": "5cb8cae2",
    "submitNewGuardianSet(bytes)": "6606b4e0",
    "submitSetMessageFee(bytes)": "f42bc641",
    "submitTransferFees(bytes)": "93df337e",
    "verifiedHashCached(bytes32)": "96cfc86d",
    "verifyBatchVM((uint8,uint32,(bytes32,bytes32,uint8,uint8)[],bytes32[],bytes32,(uint8,bytes)[]),bool)": "ab2bc3bf",
    "verifySignatures(bytes32,(bytes32,bytes32,uint8,uint8)[],(address[],uint32))": "a0cce1b3",
    "verifyVM((uint8,uint32,uint32,uint16,bytes32,uint64,uint8,bytes,uint32,(bytes32,bytes32,uint8,uint8)[],bytes32))": "875be02a"
  },
  "id": 3
}