{
  "abi": [
    {
      "anonymous": false,
      "inputs": [
        {
          "indexed": false,
          "internalType": "address",
          "name": "previousAdmin",
          "type": "address"
        },
        {
          "indexed": false,
          "internalType": "address",
          "name": "newAdmin",
          "type": "address"
        }
      ],
      "name": "AdminChanged",
      "type": "event"
    },
    {
      "anonymous": false,
      "inputs": [
        {
          "indexed": true,
          "internalType": "address",
          "name": "beacon",
          "type": "address"
        }
      ],
      "name": "BeaconUpgraded",
      "type": "event"
    },
    {
      "anonymous": false,
      "inputs": [
        {
          "indexed": true,
          "internalType": "address",
          "name": "oldContract",
          "type": "address"
        },
        {
          "indexed": true,
          "internalType": "address",
          "name": "newContract",
          "type": "address"
        }
      ],
      "name": "ContractUpgraded",
      "type": "event"
    },
    {
      "anonymous": false,
      "inputs": [
        {
          "indexed": true,
          "internalType": "uint32",
          "name": "index",
          "type": "uint32"
        }
      ],
      "name": "GuardianSetAdded",
      "type": "event"
    },
    {
      "anonymous": false,
      "inputs": [
        {
          "indexed": true,
          "internalType": "address",
          "name": "sender",
          "type": "address"
        },
        {
          "indexed": false,
          "internalType": "uint64",
          "name": "sequence",
          "type": "uint64"
        },
        {
          "indexed": false,
          "internalType": "uint32",
          "name": "nonce",
          "type": "uint32"
        },
        {
          "indexed": false,
          "internalType": "bytes",
          "name": "payload",
          "type": "bytes"
        },
        {
          "indexed": false,
          "internalType": "uint8",
          "name": "consistencyLevel",
          "type": "uint8"
        }
      ],
      "name": "LogMessagePublished",
      "type": "event"
    },
    {
      "anonymous": false,
      "inputs": [
        {
          "indexed": true,
          "internalType": "address",
          "name": "implementation",
          "type": "address"
        }
      ],
      "name": "Upgraded",
      "type": "event"
    },
    {
      "stateMutability": "payable",
      "type": "fallback"
    },
    {
      "inputs": [],
      "name": "chainId",
      "outputs": [
        {
          "internalType": "uint16",
          "name": "",
          "type": "uint16"
        }
      ],
      "stateMutability": "view",
      "type": "function"
    },
    {
      "inputs": [
        {
          "internalType": "bytes32[]",
          "name": "hashesToClear",
          "type": "bytes32[]"
        }
      ],
      "name": "clearBatchCache",
      "outputs": [],
      "stateMutability": "nonpayable",
      "type": "function"
    },
    {
      "inputs": [],
      "name": "getCurrentGuardianSetIndex",
      "outputs": [
        {
          "internalType": "uint32",
          "name": "",
          "type": "uint32"
        }
      ],
      "stateMutability": "view",
      "type": "function"
    },
    {
      "inputs": [
        {
          "internalType": "uint32",
          "name": "index",
          "type": "uint32"
        }
      ],
      "name": "getGuardianSet",
      "outputs": [
        {
          "components": [
            {
              "internalType": "address[]",
              "name": "keys",
              "type": "address[]"
            },
            {
              "internalType": "uint32",
              "name": "expirationTime",
              "type": "uint32"
            }
          ],
          "internalType": "struct Structs.GuardianSet",
          "name": "",
          "type": "tuple"
        }
      ],
      "stateMutability": "view",
      "type": "function"
    },
    {
      "inputs": [],
      "name": "getGuardianSetExpiry",
      "outputs": [
        {
          "internalType": "uint32",
          "name": "",
          "type": "uint32"
        }
      ],
      "stateMutability": "view",
      "type": "function"
    },
    {
      "inputs": [
        {
          "internalType": "bytes32",
          "name": "hash",
          "type": "bytes32"
        }
      ],
      "name": "governanceActionIsConsumed",
      "outputs": [
        {
          "internalType": "bool",
          "name": "",
          "type": "bool"
        }
      ],
      "stateMutability": "view",
      "type": "function"
    },
    {
      "inputs": [],
      "name": "governanceChainId",
      "outputs": [
        {
          "internalType": "uint16",
          "name": "",
          "type": "uint16"
        }
      ],
      "stateMutability": "view",
      "type": "function"
    },
    {
      "inputs": [],
      "name": "governanceContract",
      "outputs": [
        {
          "internalType": "bytes32",
          "name": "",
          "type": "bytes32"
        }
      ],
      "stateMutability": "view",
      "type": "function"
    },
    {
      "inputs": [],
      "name": "initialize",
      "outputs": [],
      "stateMutability": "nonpayable",
      "type": "function"
    },
    {
      "inputs": [
        {
          "internalType": "address",
          "name": "impl",
          "type": "address"
        }
      ],
      "name": "isInitialized",
      "outputs": [
        {
          "internalType": "bool",
          "name": "",
          "type": "bool"
        }
      ],
      "stateMutability": "view",
      "type": "function"
    },
    {
      "inputs": [],
      "name": "messageFee",
      "outputs": [
        {
          "internalType": "uint256",
          "name": "",
          "type": "uint256"
        }
      ],
      "stateMutability": "view",
      "type": "function"
    },
    {
      "inputs": [
        {
          "internalType": "address",
          "name": "emitter",
          "type": "address"
        }
      ],
      "name": "nextSequence",
      "outputs": [
        {
          "internalType": "uint64",
          "name": "",
          "type": "uint64"
        }
      ],
      "stateMutability": "view",
      "type": "function"
    },
    {
      "inputs": [
        {
          "internalType": "bytes",
          "name": "encodedVM",
          "type": "bytes"
        },
        {
          "internalType": "bool",
          "name": "cache",
          "type": "bool"
        }
      ],
      "name": "parseAndVerifyBatchVM",
      "outputs": [
        {
          "components": [
            {
              "internalType": "uint8",
              "name": "version",
              "type": "uint8"
            },
            {
              "internalType": "uint32",
              "name": "guardianSetIndex",
              "type": "uint32"
            },
            {
              "components": [
                {
                  "internalType": "bytes32",
                  "name": "r",
                  "type": "bytes32"
                },
                {
                  "internalType": "bytes32",
                  "name": "s",
                  "type": "bytes32"
                },
                {
                  "internalType": "uint8",
                  "name": "v",
                  "type": "uint8"
                },
                {
                  "internalType": "uint8",
                  "name": "guardianIndex",
                  "type": "uint8"
                }
              ],
              "internalType": "struct Structs.Signature[]",
              "name": "signatures",
              "type": "tuple[]"
            },
            {
              "internalType": "bytes32[]",
              "name": "hashes",
              "type": "bytes32[]"
            },
            {
              "internalType": "bytes32",
              "name": "hash",
              "type": "bytes32"
            },
            {
              "components": [
                {
                  "internalType": "uint8",
                  "name": "index",
                  "type": "uint8"
                },
                {
                  "internalType": "bytes",
                  "name": "observation",
                  "type": "bytes"
                }
              ],
              "internalType": "struct Structs.IndexedObservation[]",
              "name": "indexedObservations",
              "type": "tuple[]"
            }
          ],
          "internalType": "struct Structs.VM2",
          "name": "vm",
          "type": "tuple"
        },
        {
          "internalType": "bool",
          "name": "valid",
          "type": "bool"
        },
        {
          "internalType": "string",
          "name": "reason",
          "type": "string"
        }
      ],
      "stateMutability": "nonpayable",
      "type": "function"
    },
    {
      "inputs": [
        {
          "internalType": "bytes",
          "name": "encodedVM",
          "type": "bytes"
        }
      ],
      "name": "parseAndVerifyVM",
      "outputs": [
        {
          "components": [
            {
              "internalType": "uint8",
              "name": "version",
              "type": "uint8"
            },
            {
              "internalType": "uint32",
              "name": "timestamp",
              "type": "uint32"
            },
            {
              "internalType": "uint32",
              "name": "nonce",
              "type": "uint32"
            },
            {
              "internalType": "uint16",
              "name": "emitterChainId",
              "type": "uint16"
            },
            {
              "internalType": "bytes32",
              "name": "emitterAddress",
              "type": "bytes32"
            },
            {
              "internalType": "uint64",
              "name": "sequence",
              "type": "uint64"
            },
            {
              "internalType": "uint8",
              "name": "consistencyLevel",
              "type": "uint8"
            },
            {
              "internalType": "bytes",
              "name": "payload",
              "type": "bytes"
            },
            {
              "internalType": "uint32",
              "name": "guardianSetIndex",
              "type": "uint32"
            },
            {
              "components": [
                {
                  "internalType": "bytes32",
                  "name": "r",
                  "type": "bytes32"
                },
                {
                  "internalType": "bytes32",
                  "name": "s",
                  "type": "bytes32"
                },
                {
                  "internalType": "uint8",
                  "name": "v",
                  "type": "uint8"
                },
                {
                  "internalType": "uint8",
                  "name": "guardianIndex",
                  "type": "uint8"
                }
              ],
              "internalType": "struct Structs.Signature[]",
              "name": "signatures",
              "type": "tuple[]"
            },
            {
              "internalType": "bytes32",
              "name": "hash",
              "type": "bytes32"
            }
          ],
          "internalType": "struct Structs.VM",
          "name": "vm",
          "type": "tuple"
        },
        {
          "internalType": "bool",
          "name": "valid",
          "type": "bool"
        },
        {
          "internalType": "string",
          "name": "reason",
          "type": "string"
        }
      ],
      "stateMutability": "view",
      "type": "function"
    },
    {
      "inputs": [
        {
          "internalType": "bytes",
          "name": "encodedVM",
          "type": "bytes"
        }
      ],
      "name": "parseBatchVM",
      "outputs": [
        {
          "components": [
            {
              "internalType": "uint8",
              "name": "version",
              "type": "uint8"
            },
            {
              "internalType": "uint32",
              "name": "guardianSetIndex",
              "type": "uint32"
            },
            {
              "components": [
                {
                  "internalType": "bytes32",
                  "name": "r",
                  "type": "bytes32"
                },
                {
                  "internalType": "bytes32",
                  "name": "s",
                  "type": "bytes32"
                },
                {
                  "internalType": "uint8",
                  "name": "v",
                  "type": "uint8"
                },
                {
                  "internalType": "uint8",
                  "name": "guardianIndex",
                  "type": "uint8"
                }
              ],
              "internalType": "struct Structs.Signature[]",
              "name": "signatures",
              "type": "tuple[]"
            },
            {
              "internalType": "bytes32[]",
              "name": "hashes",
              "type": "bytes32[]"
            },
            {
              "internalType": "bytes32",
              "name": "hash",
              "type": "bytes32"
            },
            {
              "components": [
                {
                  "internalType": "uint8",
                  "name": "index",
                  "type": "uint8"
                },
                {
                  "internalType": "bytes",
                  "name": "observation",
                  "type": "bytes"
                }
              ],
              "internalType": "struct Structs.IndexedObservation[]",
              "name": "indexedObservations",
              "type": "tuple[]"
            }
          ],
          "internalType": "struct Structs.VM2",
          "name": "vm",
          "type": "tuple"
        }
      ],
      "stateMutability": "pure",
      "type": "function"
    },
    {
      "inputs": [
        {
          "internalType": "bytes",
          "name": "encodedUpgrade",
          "type": "bytes"
        }
      ],
      "name": "parseContractUpgrade",
      "outputs": [
        {
          "components": [
            {
              "internalType": "bytes32",
              "name": "module",
              "type": "bytes32"
            },
            {
              "internalType": "uint8",
              "name": "action",
              "type": "uint8"
            },
            {
              "internalType": "uint16",
              "name": "chain",
              "type": "uint16"
            },
            {
              "internalType": "address",
              "name": "newContract",
              "type": "address"
            }
          ],
          "internalType": "struct GovernanceStructs.ContractUpgrade",
          "name": "cu",
          "type": "tuple"
        }
      ],
      "stateMutability": "pure",
      "type": "function"
    },
    {
      "inputs": [
        {
          "internalType": "bytes",
          "name": "encodedUpgrade",
          "type": "bytes"
        }
      ],
      "name": "parseGuardianSetUpgrade",
      "outputs": [
        {
          "components": [
            {
              "internalType": "bytes32",
              "name": "module",
              "type": "bytes32"
            },
            {
              "internalType": "uint8",
              "name": "action",
              "type": "uint8"
            },
            {
              "internalType": "uint16",
              "name": "chain",
              "type": "uint16"
            },
            {
              "components": [
                {
                  "internalType": "address[]",
                  "name": "keys",
                  "type": "address[]"
                },
                {
                  "internalType": "uint32",
                  "name": "expirationTime",
                  "type": "uint32"
                }
              ],
              "internalType": "struct Structs.GuardianSet",
              "name": "newGuardianSet",
              "type": "tuple"
            },
            {
              "internalType": "uint32",
              "name": "newGuardianSetIndex",
              "type": "uint32"
            }
          ],
          "internalType": "struct GovernanceStructs.GuardianSetUpgrade",
          "name": "gsu",
          "type": "tuple"
        }
      ],
      "stateMutability": "pure",
      "type": "function"
    },
    {
      "inputs": [
        {
          "internalType": "bytes",
          "name": "encodedSetMessageFee",
          "type": "bytes"
        }
      ],
      "name": "parseSetMessageFee",
      "outputs": [
        {
          "components": [
            {
              "internalType": "bytes32",
              "name": "module",
              "type": "bytes32"
            },
            {
              "internalType": "uint8",
              "name": "action",
              "type": "uint8"
            },
            {
              "internalType": "uint16",
              "name": "chain",
              "type": "uint16"
            },
            {
              "internalType": "uint256",
              "name": "messageFee",
              "type": "uint256"
            }
          ],
          "internalType": "struct GovernanceStructs.SetMessageFee",
          "name": "smf",
          "type": "tuple"
        }
      ],
      "stateMutability": "pure",
      "type": "function"
    },
    {
      "inputs": [
        {
          "internalType": "bytes",
          "name": "encodedTransferFees",
          "type": "bytes"
        }
      ],
      "name": "parseTransferFees",
      "outputs": [
        {
          "components": [
            {
              "internalType": "bytes32",
              "name": "module",
              "type": "bytes32"
            },
            {
              "internalType": "uint8",
              "name": "action",
              "type": "uint8"
            },
            {
              "internalType": "uint16",
              "name": "chain",
              "type": "uint16"
            },
            {
              "internalType": "uint256",
              "name": "amount",
              "type": "uint256"
            },
            {
              "internalType": "bytes32",
              "name": "recipient",
              "type": "bytes32"
            }
          ],
          "internalType": "struct GovernanceStructs.TransferFees",
          "name": "tf",
          "type": "tuple"
        }
      ],
      "stateMutability": "pure",
      "type": "function"
    },
    {
      "inputs": [
        {
          "internalType": "bytes",
          "name": "encodedVM",
          "type": "bytes"
        }
      ],
      "name": "parseVM",
      "outputs": [
        {
          "components": [
            {
              "internalType": "uint8",
              "name": "version",
              "type": "uint8"
            },
            {
              "internalType": "uint32",
              "name": "timestamp",
              "type": "uint32"
            },
            {
              "internalType": "uint32",
              "name": "nonce",
              "type": "uint32"
            },
            {
              "internalType": "uint16",
              "name": "emitterChainId",
              "type": "uint16"
            },
            {
              "internalType": "bytes32",
              "name": "emitterAddress",
              "type": "bytes32"
            },
            {
              "internalType": "uint64",
              "name": "sequence",
              "type": "uint64"
            },
            {
              "internalType": "uint8",
              "name": "consistencyLevel",
              "type": "uint8"
            },
            {
              "internalType": "bytes",
              "name": "payload",
              "type": "bytes"
            },
            {
              "internalType": "uint32",
              "name": "guardianSetIndex",
              "type": "uint32"
            },
            {
              "components": [
                {
                  "internalType": "bytes32",
                  "name": "r",
                  "type": "bytes32"
                },
                {
                  "internalType": "bytes32",
                  "name": "s",
                  "type": "bytes32"
                },
                {
                  "internalType": "uint8",
                  "name": "v",
                  "type": "uint8"
                },
                {
                  "internalType": "uint8",
                  "name": "guardianIndex",
                  "type": "uint8"
                }
              ],
              "internalType": "struct Structs.Signature[]",
              "name": "signatures",
              "type": "tuple[]"
            },
            {
              "internalType": "bytes32",
              "name": "hash",
              "type": "bytes32"
            }
          ],
          "internalType": "struct Structs.VM",
          "name": "vm",
          "type": "tuple"
        }
      ],
      "stateMutability": "pure",
      "type": "function"
    },
    {
      "inputs": [
        {
          "internalType": "uint32",
          "name": "nonce",
          "type": "uint32"
        },
        {
          "internalType": "bytes",
          "name": "payload",
          "type": "bytes"
        },
        {
          "internalType": "uint8",
          "name": "consistencyLevel",
          "type": "uint8"
        }
      ],
      "name": "publishMessage",
      "outputs": [
        {
          "internalType": "uint64",
          "name": "sequence",
          "type": "uint64"
        }
      ],
      "stateMutability": "payable",
      "type": "function"
    },
    {
      "inputs": [
        {
          "internalType": "uint256",
          "name": "numGuardians",
          "type": "uint256"
        }
      ],
      "name": "quorum",
      "outputs": [
        {
          "internalType": "uint256",
          "name": "numSignaturesRequiredForQuorum",
          "type": "uint256"
        }
      ],
      "stateMutability": "pure",
      "type": "function"
    },
    {
      "inputs": [
        {
          "internalType": "bytes",
          "name": "_vm",
          "type": "bytes"
        }
      ],
      "name": "submitContractUpgrade",
      "outputs": [],
      "stateMutability": "nonpayable",
      "type": "function"
    },
    {
      "inputs": [
        {
          "internalType": "bytes",
          "name": "_vm",
          "type": "bytes"
        }
      ],
      "name": "submitNewGuardianSet",
      "outputs": [],
      "stateMutability": "nonpayable",
      "type": "function"
    },
    {
      "inputs": [
        {
          "internalType": "bytes",
          "name": "_vm",
          "type": "bytes"
        }
      ],
      "name": "submitSetMessageFee",
      "outputs": [],
      "stateMutability": "nonpayable",
      "type": "function"
    },
    {
      "inputs": [
        {
          "internalType": "bytes",
          "name": "_vm",
          "type": "bytes"
        }
      ],
      "name": "submitTransferFees",
      "outputs": [],
      "stateMutability": "nonpayable",
      "type": "function"
    },
    {
      "inputs": [],
      "name": "testNewImplementationActive",
      "outputs": [
        {
          "internalType": "bool",
          "name": "",
          "type": "bool"
        }
      ],
      "stateMutability": "pure",
      "type": "function"
    },
    {
      "inputs": [
        {
          "internalType": "bytes32",
          "name": "hash",
          "type": "bytes32"
        }
      ],
      "name": "verifiedHashCached",
      "outputs": [
        {
          "internalType": "bool",
          "name": "",
          "type": "bool"
        }
      ],
      "stateMutability": "view",
      "type": "function"
    },
    {
      "inputs": [
        {
          "components": [
            {
              "internalType": "uint8",
              "name": "version",
              "type": "uint8"
            },
            {
              "internalType": "uint32",
              "name": "guardianSetIndex",
              "type": "uint32"
            },
            {
              "components": [
                {
                  "internalType": "bytes32",
                  "name": "r",
                  "type": "bytes32"
                },
                {
                  "internalType": "bytes32",
                  "name": "s",
                  "type": "bytes32"
                },
                {
                  "internalType": "uint8",
                  "name": "v",
                  "type": "uint8"
                },
                {
                  "internalType": "uint8",
                  "name": "guardianIndex",
                  "type": "uint8"
                }
              ],
              "internalType": "struct Structs.Signature[]",
              "name": "signatures",
              "type": "tuple[]"
            },
            {
              "internalType": "bytes32[]",
              "name": "hashes",
              "type": "bytes32[]"
            },
            {
              "internalType": "bytes32",
              "name": "hash",
              "type": "bytes32"
            },
            {
              "components": [
                {
                  "internalType": "uint8",
                  "name": "index",
                  "type": "uint8"
                },
                {
                  "internalType": "bytes",
                  "name": "observation",
                  "type": "bytes"
                }
              ],
              "internalType": "struct Structs.IndexedObservation[]",
              "name": "indexedObservations",
              "type": "tuple[]"
            }
          ],
          "internalType": "struct Structs.VM2",
          "name": "vm",
          "type": "tuple"
        },
        {
          "internalType": "bool",
          "name": "cache",
          "type": "bool"
        }
      ],
      "name": "verifyBatchVM",
      "outputs": [
        {
          "internalType": "bool",
          "name": "valid",
          "type": "bool"
        },
        {
          "internalType": "string",
          "name": "reason",
          "type": "string"
        }
      ],
      "stateMutability": "nonpayable",
      "type": "function"
    },
    {
      "inputs": [
        {
          "internalType": "bytes32",
          "name": "hash",
          "type": "bytes32"
        },
        {
          "components": [
            {
              "internalType": "bytes32",
              "name": "r",
              "type": "bytes32"
            },
            {
              "internalType": "bytes32",
              "name": "s",
              "type": "bytes32"
            },
            {
              "internalType": "uint8",
              "name": "v",
              "type": "uint8"
            },
            {
              "internalType": "uint8",
              "name": "guardianIndex",
              "type": "uint8"
            }
          ],
          "internalType": "struct Structs.Signature[]",
          "name": "signatures",
          "type": "tuple[]"
        },
        {
          "components": [
            {
              "internalType": "address[]",
              "name": "keys",
              "type": "address[]"
            },
            {
              "internalType": "uint32",
              "name": "expirationTime",
              "type": "uint32"
            }
          ],
          "internalType": "struct Structs.GuardianSet",
          "name": "guardianSet",
          "type": "tuple"
        }
      ],
      "name": "verifySignatures",
      "outputs": [
        {
          "internalType": "bool",
          "name": "valid",
          "type": "bool"
        },
        {
          "internalType": "string",
          "name": "reason",
          "type": "string"
        }
      ],
      "stateMutability": "pure",
      "type": "function"
    },
    {
      "inputs": [
        {
          "components": [
            {
              "internalType": "uint8",
              "name": "version",
              "type": "uint8"
            },
            {
              "internalType": "uint32",
              "name": "timestamp",
              "type": "uint32"
            },
            {
              "internalType": "uint32",
              "name": "nonce",
              "type": "uint32"
            },
            {
              "internalType": "uint16",
              "name": "emitterChainId",
              "type": "uint16"
            },
            {
              "internalType": "bytes32",
              "name": "emitterAddress",
              "type": "bytes32"
            },
            {
              "internalType": "uint64",
              "name": "sequence",
              "type": "uint64"
            },
            {
              "internalType": "uint8",
              "name": "consistencyLevel",
              "type": "uint8"
            },
            {
              "internalType": "bytes",
              "name": "payload",
              "type": "bytes"
            },
            {
              "internalType": "uint32",
              "name": "guardianSetIndex",
              "type": "uint32"
            },
            {
              "components": [
                {
                  "internalType": "bytes32",
                  "name": "r",
                  "type": "bytes32"
                },
                {
                  "internalType": "bytes32",
                  "name": "s",
                  "type": "bytes32"
                },
                {
                  "internalType": "uint8",
                  "name": "v",
                  "type": "uint8"
                },
                {
                  "internalType": "uint8",
                  "name": "guardianIndex",
                  "type": "uint8"
                }
              ],
              "internalType": "struct Structs.Signature[]",
              "name": "signatures",
              "type": "tuple[]"
            },
            {
              "internalType": "bytes32",
              "name": "hash",
              "type": "bytes32"
            }
          ],
          "internalType": "struct Structs.VM",
          "name": "vm",
          "type": "tuple"
        }
      ],
      "name": "verifyVM",
      "outputs": [
        {
          "internalType": "bool",
          "name": "valid",
          "type": "bool"
        },
        {
          "internalType": "string",
          "name": "reason",
          "type": "string"
        }
      ],
      "stateMutability": "view",
      "type": "function"
    },
    {
      "stateMutability": "payable",
      "type": "receive"
    }
  ],
  "bytecode": {
    "object": "0x608060405234801561001057600080fd5b50614258806100206000396000f3fe6080604052600436106101dc5760003560e01c806393df337e11610102578063c0fd8bde11610095578063f42bc64111610064578063f42bc64114610760578063f8ce560a14610780578063f951975a146107a0578063fbe3c2cd146107cd57610243565b8063c0fd8bde146106b5578063d60b347f146106e4578063e8d0df251461071d578063eb8d3f121461073d57610243565b8063a9e11893116100d1578063a9e1189314610640578063ab2bc3bf1461066d578063b172b2221461068d578063b19a437e146106a257610243565b806393df337e146105a857806396cfc86d146105c85780639a8a0592146105f8578063a0cce1b31461062057610243565b80634fdc60fa1161017a5780636700a05a116101495780636700a05a146105095780638129fc1c14610536578063851bf9561461054b578063875be02a1461057a57610243565b80634fdc60fa1461040a578063515f32471461046d5780635cb8cae2146104c75780636606b4e0146104e957610243565b80631cfe7951116101b65780631cfe7951146103375780631f8cdb2b146103635780632c3c02a4146103835780634cf842b5146103b357610243565b80630319e59c1461027957806304ca84cf146102eb5780631a90a2191461031857610243565b366102435760405162461bcd60e51b815260206004820152602c60248201527f74686520576f726d686f6c6520636f6e747261637420646f6573206e6f74206160448201526b63636570742061737365747360a01b60648201526084015b60405180910390fd5b60405162461bcd60e51b815260206004820152600b60248201526a1d5b9cdd5c1c1bdc9d195960aa1b604482015260640161023a565b34801561028557600080fd5b50610299610294366004613843565b6107ec565b6040516102e29190600060a0820190508251825260ff602084015116602083015261ffff6040840151166040830152606083015160608301526080830151608083015292915050565b60405180910390f35b3480156102f757600080fd5b5061030b610306366004613843565b610942565b6040516102e29190613e86565b34801561032457600080fd5b506007545b6040519081526020016102e2565b34801561034357600080fd5b5060035463ffffffff165b60405163ffffffff90911681526020016102e2565b34801561036f57600080fd5b5060015b60405190151581526020016102e2565b34801561038f57600080fd5b5061037361039e366004613694565b60009081526005602052604090205460ff1690565b3480156103bf57600080fd5b506103f26103ce366004613639565b6001600160a01b03166000908152600460205260409020546001600160401b031690565b6040516001600160401b0390911681526020016102e2565b34801561041657600080fd5b5061042a610425366004613843565b610b75565b6040516102e291908151815260208083015160ff169082015260408083015161ffff16908201526060918201516001600160a01b03169181019190915260800190565b34801561047957600080fd5b5061048d610488366004613843565b610cb1565b6040516102e291908151815260208083015160ff169082015260408083015161ffff16908201526060918201519181019190915260800190565b3480156104d357600080fd5b506104e76104e2366004613843565b610de0565b005b3480156104f557600080fd5b506104e7610504366004613843565b610ee8565b34801561051557600080fd5b50610529610524366004613843565b611108565b6040516102e29190613ef6565b34801561054257600080fd5b506104e761152f565b34801561055757600080fd5b5061056b6105663660046137f2565b6115f4565b6040516102e293929190613f09565b34801561058657600080fd5b5061059a610595366004613961565b611683565b6040516102e2929190613e21565b3480156105b457600080fd5b506104e76105c3366004613843565b6116f2565b3480156105d457600080fd5b506103736105e3366004613694565b60009081526008602052604090205460ff1690565b34801561060457600080fd5b5060005461ffff165b60405161ffff90911681526020016102e2565b34801561062c57600080fd5b5061059a61063b3660046136ac565b61183e565b34801561064c57600080fd5b5061066061065b366004613843565b611a72565b6040516102e29190613f40565b34801561067957600080fd5b5061059a610688366004613875565b611af3565b34801561069957600080fd5b50600154610329565b6103f26106b0366004613a9a565b611e3b565b3480156106c157600080fd5b506106d56106d03660046137b3565b611edb565b6040516102e293929190613f53565b3480156106f057600080fd5b506103736106ff366004613639565b6001600160a01b031660009081526006602052604090205460ff1690565b34801561072957600080fd5b506104e761073836600461365a565b611f3d565b34801561074957600080fd5b50600354640100000000900463ffffffff1661034e565b34801561076c57600080fd5b506104e761077b366004613843565b611f9e565b34801561078c57600080fd5b5061032961079b366004613694565b61209f565b3480156107ac57600080fd5b506107c06107bb366004613a80565b61210f565b6040516102e29190613ee3565b3480156107d957600080fd5b5060005462010000900461ffff1661060d565b6040805160a08101825260008082526020820181905291810182905260608101829052608081018290529061082183826121ae565b825261082e60208261408a565b905061083a838261220c565b60ff16602083015261084d60018261408a565b9050816020015160ff1660041461089d5760405162461bcd60e51b8152602060048201526014602482015273696e76616c6964205472616e736665724665657360601b604482015260640161023a565b6108a78382612268565b61ffff1660408301526108bb60028261408a565b90506108c783826122c5565b60608301526108d760208261408a565b90506108e383826121ae565b60808301526108f360208261408a565b90508083511461093c5760405162461bcd60e51b8152602060048201526014602482015273696e76616c6964205472616e736665724665657360601b604482015260640161023a565b50919050565b61094a613217565b600061095683826121ae565b825261096360208261408a565b905061096f838261220c565b60ff16602083015261098260018261408a565b9050816020015160ff166002146109db5760405162461bcd60e51b815260206004820152601a60248201527f696e76616c696420477561726469616e53657455706772616465000000000000604482015260640161023a565b6109e58382612268565b61ffff1660408301526109f960028261408a565b9050610a05838261231a565b63ffffffff166080830152610a1b60048261408a565b90506000610a29848361220c565b9050610a3660018361408a565b915060405180604001604052808260ff166001600160401b03811115610a6c57634e487b7160e01b600052604160045260246000fd5b604051908082528060200260200182016040528015610a95578160200160208202803683370190505b5081526000602090910181905260608501919091525b8160ff16811015610b1d57610ac08584612377565b606085015151805183908110610ae657634e487b7160e01b600052603260045260246000fd5b6001600160a01b0390921660209283029190910190910152610b0960148461408a565b925080610b1581614197565b915050610aab565b5081845114610b6e5760405162461bcd60e51b815260206004820152601a60248201527f696e76616c696420477561726469616e53657455706772616465000000000000604482015260640161023a565b5050919050565b604080516080810182526000808252602082018190529181018290526060810182905290610ba383826121ae565b8252610bb060208261408a565b9050610bbc838261220c565b60ff166020830152610bcf60018261408a565b9050816020015160ff16600114610c225760405162461bcd60e51b8152602060048201526017602482015276696e76616c696420436f6e74726163745570677261646560481b604482015260640161023a565b610c2c8382612268565b61ffff166040830152610c4060028261408a565b9050610c4c83826121ae565b6001600160a01b03166060830152610c6560208261408a565b90508083511461093c5760405162461bcd60e51b8152602060048201526017602482015276696e76616c696420436f6e74726163745570677261646560481b604482015260640161023a565b604080516080810182526000808252602082018190529181018290526060810182905290610cdf83826121ae565b8252610cec60208261408a565b9050610cf8838261220c565b60ff166020830152610d0b60018261408a565b9050816020015160ff16600314610d5c5760405162461bcd60e51b8152602060048201526015602482015274696e76616c6964205365744d65737361676546656560581b604482015260640161023a565b610d668382612268565b61ffff166040830152610d7a60028261408a565b9050610d8683826122c5565b6060830152610d9660208261408a565b90508083511461093c5760405162461bcd60e51b8152602060048201526015602482015274696e76616c6964205365744d65737361676546656560581b604482015260640161023a565b6000610deb82611a72565b9050600080610df9836123dc565b91509150818190610e1d5760405162461bcd60e51b815260040161023a9190613e3c565b506000610e2d8460e00151610b75565b805190915063436f726514610e755760405162461bcd60e51b815260206004820152600e60248201526d496e76616c6964204d6f64756c6560901b604482015260640161023a565b60005461ffff1661ffff16816040015161ffff1614610ec65760405162461bcd60e51b815260206004820152600d60248201526c24b73b30b634b21021b430b4b760991b604482015260640161023a565b610ed4846101400151612552565b610ee1816060015161256d565b5050505050565b6000610ef382611a72565b9050600080610f01836123dc565b91509150818190610f255760405162461bcd60e51b815260040161023a9190613e3c565b506000610f358460e00151610942565b805190915063436f726514610f7d5760405162461bcd60e51b815260206004820152600e60248201526d696e76616c6964204d6f64756c6560901b604482015260640161023a565b60005461ffff1661ffff16816040015161ffff161480610fa35750604081015161ffff16155b610fdf5760405162461bcd60e51b815260206004820152600d60248201526c34b73b30b634b21021b430b4b760991b604482015260640161023a565b606081015151516110325760405162461bcd60e51b815260206004820152601960248201527f6e657720677561726469616e2073657420697320656d70747900000000000000604482015260640161023a565b60035463ffffffff166110469060016140a2565b63ffffffff16816080015163ffffffff16146110ae5760405162461bcd60e51b815260206004820152602160248201527f696e646578206d75737420696e63726561736520696e207374657073206f66206044820152603160f81b606482015260840161023a565b6110bc846101400151612552565b6110d36110ce60035463ffffffff1690565b61269a565b6110e5816060015182608001516126d2565b60808101516003805463ffffffff191663ffffffff909216919091179055610ee1565b6040805160c0810182526000808252602082018190526060928201839052828201839052608082015260a08101919091526000611145838261220c565b60ff16825261115560018261408a565b9050816000015160ff1660021461117e5760405162461bcd60e51b815260040161023a90613e4f565b611188838261231a565b63ffffffff16602083015261119e60048261408a565b905060006111ac848361220c565b60ff1690506111bc60018361408a565b91506111c9828286612726565b60408401526111d9816042614131565b6111e3908361408a565b915060006111f1858461220c565b60ff16905061120160018461408a565b9250600061121c84611214846020614131565b889190612901565b9050808051906020012060405160200161123891815260200190565b60408051601f1981840301815291905280516020909101206080860152816001600160401b0381111561127b57634e487b7160e01b600052604160045260246000fd5b6040519080825280602002602001820160405280156112a4578160200160208202803683370190505b50606086015260005b828160ff16101561130c576112c287866121ae565b86606001518260ff16815181106112e957634e487b7160e01b600052603260045260246000fd5b602002602001018181525050602085611302919061408a565b94506001016112ad565b506000611319878661220c565b905061132660018661408a565b9450828160ff161115801561133e575060008160ff16115b61138a5760405162461bcd60e51b815260206004820152601e60248201527f696e76616c6964206e756d626572206f66206f62736572766174696f6e730000604482015260640161023a565b8060ff166001600160401b038111156113b357634e487b7160e01b600052604160045260246000fd5b6040519080825280602002602001820160405280156113f957816020015b6040805180820190915260008152606060208201528152602001906001900390816113d15790505b5060a0870152600080805b8360ff168160ff1610156114e45761141c8a8961220c565b925061142960018961408a565b97506114358a8961231a565b915061144260048961408a565b975060405180604001604052808460ff16815260200160036114758b8663ffffffff168f6129019092919063ffffffff16565b604051602001611486929190613df2565b6040516020818303038152906040528152508960a001518260ff16815181106114bf57634e487b7160e01b600052603260045260246000fd5b60209081029190910101526114da63ffffffff83168961408a565b9750600101611404565b50868951146115235760405162461bcd60e51b815260206004820152600b60248201526a34b73b30b634b2102b269960a91b604482015260640161023a565b50505050505050919050565b60006115627f360894a13ba1a3210667c828492db98dca3e2076cc3735a920a3ca505d382bbc546001600160a01b031690565b9050611586816001600160a01b031660009081526006602052604090205460ff1690565b156115c95760405162461bcd60e51b8152602060048201526013602482015272185b1c9958591e481a5b9a5d1a585b1a5e9959606a1b604482015260640161023a565b6115f1816001600160a01b03166000908152600660205260409020805460ff19166001179055565b50565b6040805160c0810182526000808252602082018190526060928201839052828201839052608082015260a08101919091526000606061166886868080601f01602080910402602001604051908101604052809392919081815260200183838082843760009201919091525061110892505050565b92506116748385611af3565b93979096509294509192505050565b60006060826000015160ff16600114156116a9576116a083612a0e565b91509150915091565b826000015160ff16600314156116c2576116a083612a5f565b505060408051808201909152600f81526e24b73b30b634b2103b32b939b4b7b760891b6020820152600092909150565b60006116fd82611a72565b905060008061170b836123dc565b9150915081819061172f5760405162461bcd60e51b815260040161023a9190613e3c565b50600061173f8460e001516107ec565b805190915063436f7265146117875760405162461bcd60e51b815260206004820152600e60248201526d696e76616c6964204d6f64756c6560901b604482015260640161023a565b60005461ffff1661ffff16816040015161ffff1614806117ad5750604081015161ffff16155b6117e95760405162461bcd60e51b815260206004820152600d60248201526c34b73b30b634b21021b430b4b760991b604482015260640161023a565b6117f7846101400151612552565b608081015160608201516040516001600160a01b0383169180156108fc02916000818181858888f19350505050158015611835573d6000803e3d6000fd5b50505050505050565b8051518251600091606091839190825b81811015611a4f57600088828151811061187857634e487b7160e01b600052603260045260246000fd5b60200260200101519050816000148061189a57508460ff16816060015160ff16115b6118f25760405162461bcd60e51b815260206004820152602360248201527f7369676e617475726520696e6469636573206d75737420626520617363656e64604482015262696e6760e81b606482015260840161023a565b6060810151945060ff8516841161194b5760405162461bcd60e51b815260206004820152601c60248201527f677561726469616e20696e646578206f7574206f6620626f756e647300000000604482015260640161023a565b8760000151816060015160ff168151811061197657634e487b7160e01b600052603260045260246000fd5b60200260200101516001600160a01b031660018b836040015184600001518560200151604051600081526020016040526040516119cf949392919093845260ff9290921660208401526040830152606082015260800190565b6020604051602081039080840390855afa1580156119f1573d6000803e3d6000fd5b505050602060405103516001600160a01b031614611a46576000604051806040016040528060148152602001731593481cda59db985d1d5c99481a5b9d985b1a5960621b815250965096505050505050611a6a565b5060010161184e565b50600160405180602001604052806000815250945094505050505b935093915050565b611a7a613271565b6000611a86838261220c565b90508060ff1660011415611aa457611a9d83612ad6565b915061093c565b8060ff1660031415611ab957611a9d83612c6d565b60405162461bcd60e51b815260206004820152600f60248201526e24b73b30b634b2103b32b939b4b7b760891b604482015260640161023a565b6040805160608082018352600080835260208084018381528486018381529188015163ffffffff16855294870151909452608086015190935290611b3681612d9a565b90935091508215611e325760608501515160a08601515160009190825b81811015611e2d57828960a001518281518110611b8057634e487b7160e01b600052603260045260246000fd5b60200260200101516000015160ff1610611bdc5760405162461bcd60e51b815260206004820152601f60248201527f6f62736572766174696f6e20696e646578206f7574206f6620626f756e647300604482015260640161023a565b801580611c1d57508360ff168960a001518281518110611c0c57634e487b7160e01b600052603260045260246000fd5b60200260200101516000015160ff16115b611c775760405162461bcd60e51b815260206004820152602560248201527f6f62736572766174696f6e20696e6469636573206d75737420626520617363656044820152646e64696e6760d81b606482015260840161023a565b8860a001518181518110611c9b57634e487b7160e01b600052603260045260246000fd5b60200260200101516000015193506000611d2b6001808c60a001518581518110611cd557634e487b7160e01b600052603260045260246000fd5b60200260200101516020015151611cec9190614150565b8c60a001518581518110611d1057634e487b7160e01b600052603260045260246000fd5b6020026020010151602001516129019092919063ffffffff16565b905060008180519060200120604051602001611d4991815260200190565b6040516020818303038152906040528051906020012090508a606001518b60a001518481518110611d8a57634e487b7160e01b600052603260045260246000fd5b60200260200101516000015160ff1681518110611db757634e487b7160e01b600052603260045260246000fd5b60200260200101518114611e035760006040518060400160405280601381526020017234b73b30b634b21037b139b2b93b30ba34b7b760691b8152509850985050505050505050611e34565b8915611e23576000818152600860205260409020805460ff191660011790555b5050600101611b53565b505050505b505b9250929050565b6000611e4660075490565b3414611e825760405162461bcd60e51b815260206004820152600b60248201526a696e76616c69642066656560a81b604482015260640161023a565b611e8b33612eed565b9050336001600160a01b03167f6eb224fb001ed210e379b335e35efe88672a8ce935d981a6896b27ffdf52a3b282868686604051611ecc9493929190613f66565b60405180910390a29392505050565b611ee3613271565b60006060611f2685858080601f016020809104026020016040519081016040528093929190818152602001838380828437600092019190915250611a7292505050565b9250611f3183611683565b93969095509293505050565b805160005b81811015611f9957611f91838281518110611f6d57634e487b7160e01b600052603260045260246000fd5b6020908102919091018101516000908152600890915260409020805460ff19169055565b600101611f42565b505050565b6000611fa982611a72565b9050600080611fb7836123dc565b91509150818190611fdb5760405162461bcd60e51b815260040161023a9190613e3c565b506000611feb8460e00151610cb1565b805190915063436f7265146120335760405162461bcd60e51b815260206004820152600e60248201526d496e76616c6964204d6f64756c6560901b604482015260640161023a565b60005461ffff1661ffff16816040015161ffff16146120845760405162461bcd60e51b815260206004820152600d60248201526c24b73b30b634b21021b430b4b760991b604482015260640161023a565b612092846101400151612552565b610ee18160600151600755565b600061010082106120e75760405162461bcd60e51b8152602060048201526012602482015271746f6f206d616e7920677561726469616e7360701b604482015260640161023a565b60036120f4836002614131565b6120fe9190614111565b61210990600161408a565b92915050565b60408051808201825260608082526000602080840182905263ffffffff8616825260028152908490208451815492830281018401865294850182815293949390928492849184018282801561218d57602002820191906000526020600020905b81546001600160a01b0316815260019091019060200180831161216f575b50505091835250506001919091015463ffffffff1660209091015292915050565b60006121bb82602061408a565b835110156122035760405162461bcd60e51b8152602060048201526015602482015274746f427974657333325f6f75744f66426f756e647360581b604482015260640161023a565b50016020015190565b600061221982600161408a565b8351101561225f5760405162461bcd60e51b8152602060048201526013602482015272746f55696e74385f6f75744f66426f756e647360681b604482015260640161023a565b50016001015190565b600061227582600261408a565b835110156122bc5760405162461bcd60e51b8152602060048201526014602482015273746f55696e7431365f6f75744f66426f756e647360601b604482015260640161023a565b50016002015190565b60006122d282602061408a565b835110156122035760405162461bcd60e51b8152602060048201526015602482015274746f55696e743235365f6f75744f66426f756e647360581b604482015260640161023a565b600061232782600461408a565b8351101561236e5760405162461bcd60e51b8152602060048201526014602482015273746f55696e7433325f6f75744f66426f756e647360601b604482015260640161023a565b50016004015190565b600061238482601461408a565b835110156123cc5760405162461bcd60e51b8152602060048201526015602482015274746f416464726573735f6f75744f66426f756e647360581b604482015260640161023a565b500160200151600160601b900490565b600060606000806123ec85611683565b91509150816124015760009590945092505050565b60035463ffffffff1663ffffffff1685610100015163ffffffff16146124475760006040518060600160405280602281526020016141df60229139935093505050915091565b60005462010000900461ffff1661ffff16856060015161ffff16146124a2576000604051806040016040528060168152602001753bb937b7339033b7bb32b93730b731b29031b430b4b760511b815250935093505050915091565b6001548560800151146124f25760006040518060400160405280601981526020017f77726f6e6720676f7665726e616e636520636f6e747261637400000000000000815250935093505050915091565b61014085015160009081526005602052604090205460ff161561253557600060405180606001604052806022815260200161420160229139935093505050915091565b600160405180602001604052806000815250935093505050915091565b6000908152600560205260409020805460ff19166001179055565b60006125a07f360894a13ba1a3210667c828492db98dca3e2076cc3735a920a3ca505d382bbc546001600160a01b031690565b90506125ab82612f5d565b60408051600481526024810182526020810180516001600160e01b031663204a7f0760e21b179052905160009182916001600160a01b038616916125ee91613dd6565b600060405180830381855af49150503d8060008114612629576040519150601f19603f3d011682016040523d82523d6000602084013e61262e565b606091505b50915091508181906126535760405162461bcd60e51b815260040161023a9190613e3c565b50836001600160a01b0316836001600160a01b03167f2e4cc16c100f0b55e2df82ab0b1a7e294aa9cbd01b48fbaf622683fbc0507a4960405160405180910390a350505050565b6126a742620151806140a2565b63ffffffff9182166000908152600260205260409020600101805463ffffffff191691909216179055565b63ffffffff811660009081526002602090815260409091208351805185936126fe9284929101906132cc565b50602091909101516001909101805463ffffffff191663ffffffff9092169190911790555050565b606083836001600160401b0381111561274f57634e487b7160e01b600052604160045260246000fd5b6040519080825280602002602001820160405280156127a157816020015b60408051608081018252600080825260208083018290529282018190526060820152825260001990920191018161276d5790505b50915060005b848110156128f8576127b9848361220c565b8382815181106127d957634e487b7160e01b600052603260045260246000fd5b602090810291909101015160ff9091166060909101526127fa60018361408a565b915061280684836121ae565b83828151811061282657634e487b7160e01b600052603260045260246000fd5b60200260200101516000018181525050602082612843919061408a565b915061284f84836121ae565b83828151811061286f57634e487b7160e01b600052603260045260246000fd5b6020026020010151602001818152505060208261288c919061408a565b9150612898848361220c565b6128a390601b6140ec565b8382815181106128c357634e487b7160e01b600052603260045260246000fd5b602090810291909101015160ff9091166040909101526128e460018361408a565b9150806128f081614197565b9150506127a7565b50509392505050565b60608161290f81601f61408a565b101561294e5760405162461bcd60e51b815260206004820152600e60248201526d736c6963655f6f766572666c6f7760901b604482015260640161023a565b612958828461408a565b8451101561299c5760405162461bcd60e51b8152602060048201526011602482015270736c6963655f6f75744f66426f756e647360781b604482015260640161023a565b6060821580156129bb5760405191506000825260208201604052612a05565b6040519150601f8416801560200281840101858101878315602002848b0101015b818310156129f45780518352602092830192016129dc565b5050858452601f01601f1916604052505b50949350505050565b604080516060808201835260008083526020830182815293830181815261010086015163ffffffff16845261012086015190945261014085015190935290612a5581612d9a565b9250925050915091565b61014081015160009081526008602052604081205460609060ff1615612a98575050604080516020810190915260008152600192909150565b505060408051808201909152601c81527f436f756c64206e6f742066696e64206861736820696e206361636865000000006020820152600092909150565b612ade613271565b6000612aea838261220c565b60ff168252612afa60018261408a565b9050816000015160ff16600114612b235760405162461bcd60e51b815260040161023a90613e4f565b612b2d838261231a565b63ffffffff16610100830152612b4460048261408a565b90506000612b52848361220c565b60ff169050612b6260018361408a565b9150612b6f828286612726565b610120840152612b80816042614131565b612b8a908361408a565b91506000612ba783848751612b9f9190614150565b879190612901565b90508080519060200120604051602001612bc391815260200190565b60405160208183030381529060405280519060200120846101400181815250506000612bfc84858851612bf69190614150565b88612f9d565b805163ffffffff9081166020808901919091528201511660408088019190915281015161ffff166060808801919091528101516080808801919091528101516001600160401b031660a08088019190915281015160ff1660c080880191909152015160e08601525092949350505050565b612c75613271565b6000612c81838261220c565b60ff168252612c9160018261408a565b9050816000015160ff16600314612cba5760405162461bcd60e51b815260040161023a90613e4f565b6000612cd582838651612ccd9190614150565b869190612901565b90508080519060200120604051602001612cf191815260200190565b60405160208183030381529060405280519060200120836101400181815250506000612d2a83848751612d249190614150565b87612f9d565b805163ffffffff9081166020808801919091528201511660408087019190915281015161ffff166060808701919091528101516080808701919091528101516001600160401b031660a08087019190915281015160ff1660c080870191909152015160e085015250919392505050565b600060606000612dad846000015161210f565b805151909150612df0576000604051806040016040528060148152602001731a5b9d985b1a590819dd585c991a585b881cd95d60621b8152509250925050915091565b600354845163ffffffff908116911614801590612e16575042816020015163ffffffff16105b15612e5d5760006040518060400160405280601881526020017f677561726469616e2073657420686173206578706972656400000000000000008152509250925050915091565b805151612e699061209f565b8460200151511015612ea3576000604051806040016040528060098152602001686e6f2071756f72756d60b81b8152509250925050915091565b600080612eb9866040015187602001518561183e565b9150915081612ecf576000969095509350505050565b60016040518060200160405280600081525094509450505050915091565b6001600160a01b0381166000908152600460205260409020546001600160401b0316612f5882612f1e8360016140ca565b6001600160a01b03919091166000908152600460205260409020805467ffffffffffffffff19166001600160401b03909216919091179055565b919050565b612f6681613115565b6040516001600160a01b038216907fbc7cd75a20ee27fd9adebab32041f755214dbc6bffa90cc0225b39da2e5c2d3b90600090a250565b6040805160e08101825260008082526020820181905291810182905260608082018390526080820183905260a082019290925260c081019190915283612fe3838261231a565b63ffffffff168252612ff660048261408a565b9050613002838261231a565b63ffffffff16602083015261301860048261408a565b90506130248382612268565b61ffff16604083015261303860028261408a565b905061304483826121ae565b606083015261305460208261408a565b905061306083826131ba565b6001600160401b0316608083015261307960088261408a565b9050613085838261220c565b60ff1660a083015261309860018261408a565b905060006130a68683614150565b9050808510156130f85760405162461bcd60e51b815260206004820152601f60248201527f496e73756666696369656e74206f62736572766174696f6e206c656e67746800604482015260640161023a565b61310682612ccd8388614150565b60c08401525090949350505050565b803b6131795760405162461bcd60e51b815260206004820152602d60248201527f455243313936373a206e657720696d706c656d656e746174696f6e206973206e60448201526c1bdd08184818dbdb9d1c9858dd609a1b606482015260840161023a565b7f360894a13ba1a3210667c828492db98dca3e2076cc3735a920a3ca505d382bbc80546001600160a01b0319166001600160a01b0392909216919091179055565b60006131c782600861408a565b8351101561320e5760405162461bcd60e51b8152602060048201526014602482015273746f55696e7436345f6f75744f66426f756e647360601b604482015260640161023a565b50016008015190565b6040518060a0016040528060008019168152602001600060ff168152602001600061ffff168152602001613264604051806040016040528060608152602001600063ffffffff1681525090565b8152600060209091015290565b604080516101608101825260008082526020820181905291810182905260608082018390526080820183905260a0820183905260c0820183905260e08201819052610100820183905261012082015261014081019190915290565b828054828255906000526020600020908101928215613321579160200282015b8281111561332157825182546001600160a01b0319166001600160a01b039091161782556020909201916001909101906132ec565b5061332d929150613331565b5090565b5b8082111561332d5760008155600101613332565b80356001600160a01b0381168114612f5857600080fd5b600082601f83011261336d578081fd5b8135602061338261337d83614067565b614037565b80838252828201915082860187848660051b89010111156133a1578586fd5b855b858110156133bf578135845292840192908401906001016133a3565b5090979650505050505050565b600082601f8301126133dc578081fd5b813560206133ec61337d83614067565b80838252828201915082860187848660051b890101111561340b578586fd5b855b858110156133bf5781356001600160401b038082111561342b578889fd5b908901906040828c03601f190181131561344357898afd5b61344b613fa8565b613456898501613628565b8152908301359082821115613469578a8bfd5b6134778d8a84870101613581565b818a01528752505050928401929084019060010161340d565b600082601f8301126134a0578081fd5b813560206134b061337d83614067565b80838252828201915082860187848660071b89010111156134cf578586fd5b855b858110156133bf57608080838b0312156134e9578788fd5b6134f1613fd0565b833581528684013587820152604061350a818601613628565b90820152606061351b858201613628565b9082015285529385019391909101906001016134d1565b80358015158114612f5857600080fd5b60008083601f840112613553578182fd5b5081356001600160401b03811115613569578182fd5b602083019150836020828501011115611e3457600080fd5b600082601f830112613591578081fd5b81356001600160401b038111156135aa576135aa6141c8565b6135bd601f8201601f1916602001614037565b8181528460208386010111156135d1578283fd5b816020850160208301379081016020019190915292915050565b803561ffff81168114612f5857600080fd5b803563ffffffff81168114612f5857600080fd5b80356001600160401b0381168114612f5857600080fd5b803560ff81168114612f5857600080fd5b60006020828403121561364a578081fd5b61365382613346565b9392505050565b60006020828403121561366b578081fd5b81356001600160401b03811115613680578182fd5b61368c8482850161335d565b949350505050565b6000602082840312156136a5578081fd5b5035919050565b6000806000606084860312156136c0578182fd5b833592506020808501356001600160401b03808211156136de578485fd5b6136ea88838901613490565b945060408701359150808211156136ff578384fd5b9086019060408289031215613712578384fd5b61371a613fa8565b823582811115613728578586fd5b83019150601f8201891361373a578485fd5b813561374861337d82614067565b8082825286820191508685018c888560051b8801011115613767578889fd5b8895505b838610156137905761377c81613346565b83526001959095019491870191870161376b565b508352506137a190508385016135fd565b84820152809450505050509250925092565b600080602083850312156137c5578182fd5b82356001600160401b038111156137da578283fd5b6137e685828601613542565b90969095509350505050565b600080600060408486031215613806578081fd5b83356001600160401b0381111561381b578182fd5b61382786828701613542565b909450925061383a905060208501613532565b90509250925092565b600060208284031215613854578081fd5b81356001600160401b03811115613869578182fd5b61368c84828501613581565b60008060408385031215613887578182fd5b82356001600160401b038082111561389d578384fd5b9084019060c082870312156138b0578384fd5b6138b8613ff2565b6138c183613628565b81526138cf602084016135fd565b60208201526040830135828111156138e5578586fd5b6138f188828601613490565b604083015250606083013582811115613908578586fd5b6139148882860161335d565b6060830152506080830135608082015260a083013582811115613935578586fd5b613941888286016133cc565b60a083015250935061395891505060208401613532565b90509250929050565b600060208284031215613972578081fd5b81356001600160401b0380821115613988578283fd5b90830190610160828603121561399c578283fd5b6139a4614014565b6139ad83613628565b81526139bb602084016135fd565b60208201526139cc604084016135fd565b60408201526139dd606084016135eb565b6060820152608083013560808201526139f860a08401613611565b60a0820152613a0960c08401613628565b60c082015260e083013582811115613a1f578485fd5b613a2b87828601613581565b60e083015250610100613a3f8185016135fd565b908201526101208381013583811115613a56578586fd5b613a6288828701613490565b91830191909152506101409283013592810192909252509392505050565b600060208284031215613a91578081fd5b613653826135fd565b600080600060608486031215613aae578081fd5b613ab7846135fd565b925060208401356001600160401b03811115613ad1578182fd5b613add86828701613581565b92505061383a60408501613628565b600081518084526020808501808196508360051b81019150828601855b85811015613b4a5782840389528151805160ff1685528501516040868601819052613b3681870183613bba565b9a87019a9550505090840190600101613b09565b5091979650505050505050565b6000815180845260208085019450808401835b83811015613baf57815180518852838101518489015260408082015160ff908116918a0191909152606091820151169088015260809096019590820190600101613b6a565b509495945050505050565b60008151808452613bd2816020860160208601614167565b601f01601f19169290920160200192915050565b805160408084528151908401819052600091602091908201906060860190845b81811015613c2b5783516001600160a01b031683529284019291840191600101613c06565b50509382015163ffffffff16949091019390935250919050565b60ff81511682526000602063ffffffff818401511681850152604083015160c06040860152613c7760c0860182613b57565b606085810151878303918801919091528051808352908401925084918401905b80831015613cb75783518252928401926001929092019190840190613c97565b506080860151608088015260a0860151935086810360a0880152613cdb8185613aec565b979650505050505050565b805160ff16825260006101606020830151613d09602086018263ffffffff169052565b506040830151613d21604086018263ffffffff169052565b506060830151613d37606086018261ffff169052565b506080830151608085015260a0830151613d5c60a08601826001600160401b03169052565b5060c0830151613d7160c086018260ff169052565b5060e08301518160e0860152613d8982860182613bba565b91505061010080840151613da48287018263ffffffff169052565b50506101208084015185830382870152613dbe8382613b57565b61014095860151969095019590955250919392505050565b60008251613de8818460208701614167565b9190910192915050565b60ff60f81b8360f81b16815260008251613e13816001850160208701614167565b919091016001019392505050565b821515815260406020820152600061368c6040830184613bba565b6020815260006136536020830184613bba565b60208082526017908201527f564d2076657273696f6e20696e636f6d70617469626c65000000000000000000604082015260600190565b602081528151602082015260ff602083015116604082015261ffff60408301511660608201526000606083015160a06080840152613ec760c0840182613be6565b905063ffffffff60808501511660a08401528091505092915050565b6020815260006136536020830184613be6565b6020815260006136536020830184613c45565b606081526000613f1c6060830186613c45565b84151560208401528281036040840152613f368185613bba565b9695505050505050565b6020815260006136536020830184613ce6565b606081526000613f1c6060830186613ce6565b6001600160401b038516815263ffffffff84166020820152608060408201526000613f946080830185613bba565b905060ff8316606083015295945050505050565b604080519081016001600160401b0381118282101715613fca57613fca6141c8565b60405290565b604051608081016001600160401b0381118282101715613fca57613fca6141c8565b60405160c081016001600160401b0381118282101715613fca57613fca6141c8565b60405161016081016001600160401b0381118282101715613fca57613fca6141c8565b604051601f8201601f191681016001600160401b038111828210171561405f5761405f6141c8565b604052919050565b60006001600160401b03821115614080576140806141c8565b5060051b60200190565b6000821982111561409d5761409d6141b2565b500190565b600063ffffffff8083168185168083038211156140c1576140c16141b2565b01949350505050565b60006001600160401b038083168185168083038211156140c1576140c16141b2565b600060ff821660ff84168060ff03821115614109576141096141b2565b019392505050565b60008261412c57634e487b7160e01b81526012600452602481fd5b500490565b600081600019048311821515161561414b5761414b6141b2565b500290565b600082821015614162576141626141b2565b500390565b60005b8381101561418257818101518382015260200161416a565b83811115614191576000848401525b50505050565b60006000198214156141ab576141ab6141b2565b5060010190565b634e487b7160e01b600052601160045260246000fd5b634e487b7160e01b600052604160045260246000fdfe6e6f74207369676e65642062792063757272656e7420677561726469616e20736574676f7665726e616e636520616374696f6e20616c726561647920636f6e73756d6564a2646970667358221220dbed4c2522ca8e3824aac0c83af73426d034a51a634fd80078d5f5a82dc0d06964736f6c63430008040033",
    "linkReferences": {}
  },
  "methodIdentifiers": {
    "chainId()": "9a8a0592",
    "clearBatchCache(bytes32[])": "e8d0df25",
    "getCurrentGuardianSetIndex()": "1cfe7951",
    "getGuardianSet(uint32)": "f951975a",
    "getGuardianSetExpiry()": "eb8d3f12",
    "governanceActionIsConsumed(bytes32)": "2c3c02a4",
    "governanceChainId()": "fbe3c2cd",
    "governanceContract()": "b172b222",
    "initialize()": "8129fc1c",
    "isInitialized(address)": "d60b347f",
    "messageFee()": "1a90a219",
    "nextSequence(address)": "4cf842b5",
    "parseAndVerifyBatchVM(bytes,bool)": "851bf956",
    "parseAndVerifyVM(bytes)": "c0fd8bde",
    "parseBatchVM(bytes)": "6700a05a",
    "parseContractUpgrade(bytes)": "4fdc60fa",
    "parseGuardianSetUpgrade(bytes)": "04ca84cf",
    "parseSetMessageFee(bytes)": "515f3247",
    "parseTransferFees(bytes)": "0319e59c",
    "parseVM(bytes)": "a9e11893",
    "publishMessage(uint32,bytes,uint8)": "b19a437e",
    "quorum(uint256)": "f8ce560a",
    "submitContractUpgrade(bytes)": "5cb8cae2",
    "submitNewGuardianSet(bytes)": "6606b4e0",
    "submitSetMessageFee(bytes)": "f42bc641",
    "submitTransferFees(bytes)": "93df337e",
    "testNewImplementationActive()": "1f8cdb2b",
    "verifiedHashCached(bytes32)": "96cfc86d",
    "verifyBatchVM((uint8,uint32,(bytes32,bytes32,uint8,uint8)[],bytes32[],bytes32,(uint8,bytes)[]),bool)": "ab2bc3bf",
    "verifySignatures(bytes32,(bytes32,bytes32,uint8,uint8)[],(address[],uint32))": "a0cce1b3",
    "verifyVM((uint8,uint32,uint32,uint16,bytes32,uint64,uint8,bytes,uint32,(bytes32,bytes32,uint8,uint8)[],bytes32))": "875be02a"
  },
  "id": 25
}