{
  "abi": [
    {
      "inputs": [],
      "name": "chainId",
      "outputs": [
        {
          "internalType": "uint16",
          "name": "",
          "type": "uint16"
        }
      ],
      "stateMutability": "view",
      "type": "function"
    },
    {
      "inputs": [],
      "name": "getCurrentGuardianSetIndex",
      "outputs": [
        {
          "internalType": "uint32",
          "name": "",
          "type": "uint32"
        }
      ],
      "stateMutability": "view",
      "type": "function"
    },
    {
      "inputs": [
        {
          "internalType": "uint32",
          "name": "index",
          "type": "uint32"
        }
      ],
      "name": "getGuardianSet",
      "outputs": [
        {
          "components": [
            {
              "internalType": "address[]",
              "name": "keys",
              "type": "address[]"
            },
            {
              "internalType": "uint32",
              "name": "expirationTime",
              "type": "uint32"
            }
          ],
          "internalType": "struct Structs.GuardianSet",
          "name": "",
          "type": "tuple"
        }
      ],
      "stateMutability": "view",
      "type": "function"
    },
    {
      "inputs": [],
      "name": "getGuardianSetExpiry",
      "outputs": [
        {
          "internalType": "uint32",
          "name": "",
          "type": "uint32"
        }
      ],
      "stateMutability": "view",
      "type": "function"
    },
    {
      "inputs": [
        {
          "internalType": "bytes32",
          "name": "hash",
          "type": "bytes32"
        }
      ],
      "name": "governanceActionIsConsumed",
      "outputs": [
        {
          "internalType": "bool",
          "name": "",
          "type": "bool"
        }
      ],
      "stateMutability": "view",
      "type": "function"
    },
    {
      "inputs": [],
      "name": "governanceChainId",
      "outputs": [
        {
          "internalType": "uint16",
          "name": "",
          "type": "uint16"
        }
      ],
      "stateMutability": "view",
      "type": "function"
    },
    {
      "inputs": [],
      "name": "governanceContract",
      "outputs": [
        {
          "internalType": "bytes32",
          "name": "",
          "type": "bytes32"
        }
      ],
      "stateMutability": "view",
      "type": "function"
    },
    {
      "inputs": [
        {
          "internalType": "address",
          "name": "impl",
          "type": "address"
        }
      ],
      "name": "isInitialized",
      "outputs": [
        {
          "internalType": "bool",
          "name": "",
          "type": "bool"
        }
      ],
      "stateMutability": "view",
      "type": "function"
    },
    {
      "inputs": [],
      "name": "messageFee",
      "outputs": [
        {
          "internalType": "uint256",
          "name": "",
          "type": "uint256"
        }
      ],
      "stateMutability": "view",
      "type": "function"
    },
    {
      "inputs": [
        {
          "internalType": "address",
          "name": "emitter",
          "type": "address"
        }
      ],
      "name": "nextSequence",
      "outputs": [
        {
          "internalType": "uint64",
          "name": "",
          "type": "uint64"
        }
      ],
      "stateMutability": "view",
      "type": "function"
    },
    {
      "inputs": [
        {
          "internalType": "bytes32",
          "name": "hash",
          "type": "bytes32"
        }
      ],
      "name": "verifiedHashCached",
      "outputs": [
        {
          "internalType": "bool",
          "name": "",
          "type": "bool"
        }
      ],
      "stateMutability": "view",
      "type": "function"
    }
  ],
  "bytecode": {
    "object": "0x608060405234801561001057600080fd5b506103c7806100206000396000f3fe608060405234801561001057600080fd5b50600436106100a95760003560e01c80639a8a0592116100715780639a8a059214610186578063b172b222146101a1578063d60b347f146101a9578063eb8d3f12146101d5578063f951975a146101eb578063fbe3c2cd1461020b57600080fd5b80631a90a219146100ae5780631cfe7951146100c55780632c3c02a4146100e45780634cf842b51461011757806396cfc86d14610163575b600080fd5b6007545b6040519081526020015b60405180910390f35b60035463ffffffff165b60405163ffffffff90911681526020016100bc565b6101076100f23660046102ea565b60009081526005602052604090205460ff1690565b60405190151581526020016100bc565b61014a6101253660046102bc565b6001600160a01b031660009081526004602052604090205467ffffffffffffffff1690565b60405167ffffffffffffffff90911681526020016100bc565b6101076101713660046102ea565b60009081526008602052604090205460ff1690565b60005461ffff165b60405161ffff90911681526020016100bc565b6001546100b2565b6101076101b73660046102bc565b6001600160a01b031660009081526006602052604090205460ff1690565b600354640100000000900463ffffffff166100cf565b6101fe6101f9366004610302565b61021d565b6040516100bc9190610326565b60005462010000900461ffff1661018e565b60408051808201825260608082526000602080840182905263ffffffff8616825260028152908490208451815492830281018401865294850182815293949390928492849184018282801561029b57602002820191906000526020600020905b81546001600160a01b0316815260019091019060200180831161027d575b50505091835250506001919091015463ffffffff1660209091015292915050565b6000602082840312156102cd578081fd5b81356001600160a01b03811681146102e3578182fd5b9392505050565b6000602082840312156102fb578081fd5b5035919050565b600060208284031215610313578081fd5b813563ffffffff811681146102e3578182fd5b6020808252825160408383015280516060840181905260009291820190839060808601905b808310156103745783516001600160a01b0316825292840192600192909201919084019061034b565b5063ffffffff84880151166040870152809450505050509291505056fea2646970667358221220e881f93d62f55676175d3d467c1b6c31f7b7ce1b6f8c404c832219656575f0fc64736f6c63430008040033",
    "linkReferences": {}
  },
  "methodIdentifiers": {
    "chainId()": "9a8a0592",
    "getCurrentGuardianSetIndex()": "1cfe7951",
    "getGuardianSet(uint32)": "f951975a",
    "getGuardianSetExpiry()": "eb8d3f12",
    "governanceActionIsConsumed(bytes32)": "2c3c02a4",
    "governanceChainId()": "fbe3c2cd",
    "governanceContract()": "b172b222",
    "isInitialized(address)": "d60b347f",
    "messageFee()": "1a90a219",
    "nextSequence(address)": "4cf842b5",
    "verifiedHashCached(bytes32)": "96cfc86d"
  },
  "id": 0
}