{
  "abi": [
    {
      "anonymous": false,
      "inputs": [
        {
          "indexed": false,
          "internalType": "address",
          "name": "previousAdmin",
          "type": "address"
        },
        {
          "indexed": false,
          "internalType": "address",
          "name": "newAdmin",
          "type": "address"
        }
      ],
      "name": "AdminChanged",
      "type": "event"
    },
    {
      "anonymous": false,
      "inputs": [
        {
          "indexed": true,
          "internalType": "address",
          "name": "beacon",
          "type": "address"
        }
      ],
      "name": "BeaconUpgraded",
      "type": "event"
    },
    {
      "anonymous": false,
      "inputs": [
        {
          "indexed": true,
          "internalType": "address",
          "name": "oldContract",
          "type": "address"
        },
        {
          "indexed": true,
          "internalType": "address",
          "name": "newContract",
          "type": "address"
        }
      ],
      "name": "ContractUpgraded",
      "type": "event"
    },
    {
      "anonymous": false,
      "inputs": [
        {
          "indexed": true,
          "internalType": "address",
          "name": "implementation",
          "type": "address"
        }
      ],
      "name": "Upgraded",
      "type": "event"
    },
    {
      "inputs": [],
      "name": "WETH",
      "outputs": [
        {
          "internalType": "contract IWETH",
          "name": "",
          "type": "address"
        }
      ],
      "stateMutability": "view",
      "type": "function"
    },
    {
      "inputs": [
        {
          "internalType": "uint16",
          "name": "chainId_",
          "type": "uint16"
        }
      ],
      "name": "bridgeContracts",
      "outputs": [
        {
          "internalType": "bytes32",
          "name": "",
          "type": "bytes32"
        }
      ],
      "stateMutability": "view",
      "type": "function"
    },
    {
      "inputs": [],
      "name": "chainId",
      "outputs": [
        {
          "internalType": "uint16",
          "name": "",
          "type": "uint16"
        }
      ],
      "stateMutability": "view",
      "type": "function"
    },
    {
      "inputs": [],
      "name": "finality",
      "outputs": [
        {
          "internalType": "uint8",
          "name": "",
          "type": "uint8"
        }
      ],
      "stateMutability": "view",
      "type": "function"
    },
    {
      "inputs": [
        {
          "internalType": "bytes32",
          "name": "hash",
          "type": "bytes32"
        }
      ],
      "name": "governanceActionIsConsumed",
      "outputs": [
        {
          "internalType": "bool",
          "name": "",
          "type": "bool"
        }
      ],
      "stateMutability": "view",
      "type": "function"
    },
    {
      "inputs": [],
      "name": "governanceChainId",
      "outputs": [
        {
          "internalType": "uint16",
          "name": "",
          "type": "uint16"
        }
      ],
      "stateMutability": "view",
      "type": "function"
    },
    {
      "inputs": [],
      "name": "governanceContract",
      "outputs": [
        {
          "internalType": "bytes32",
          "name": "",
          "type": "bytes32"
        }
      ],
      "stateMutability": "view",
      "type": "function"
    },
    {
      "inputs": [
        {
          "internalType": "address",
          "name": "impl",
          "type": "address"
        }
      ],
      "name": "isInitialized",
      "outputs": [
        {
          "internalType": "bool",
          "name": "",
          "type": "bool"
        }
      ],
      "stateMutability": "view",
      "type": "function"
    },
    {
      "inputs": [
        {
          "internalType": "bytes32",
          "name": "hash",
          "type": "bytes32"
        }
      ],
      "name": "isTransferCompleted",
      "outputs": [
        {
          "internalType": "bool",
          "name": "",
          "type": "bool"
        }
      ],
      "stateMutability": "view",
      "type": "function"
    },
    {
      "inputs": [
        {
          "internalType": "address",
          "name": "token",
          "type": "address"
        }
      ],
      "name": "isWrappedAsset",
      "outputs": [
        {
          "internalType": "bool",
          "name": "",
          "type": "bool"
        }
      ],
      "stateMutability": "view",
      "type": "function"
    },
    {
      "inputs": [
        {
          "internalType": "address",
          "name": "token",
          "type": "address"
        }
      ],
      "name": "outstandingBridged",
      "outputs": [
        {
          "internalType": "uint256",
          "name": "",
          "type": "uint256"
        }
      ],
      "stateMutability": "view",
      "type": "function"
    },
    {
      "inputs": [
        {
          "internalType": "bytes",
          "name": "encoded",
          "type": "bytes"
        }
      ],
      "name": "parseRegisterChain",
      "outputs": [
        {
          "components": [
            {
              "internalType": "bytes32",
              "name": "module",
              "type": "bytes32"
            },
            {
              "internalType": "uint8",
              "name": "action",
              "type": "uint8"
            },
            {
              "internalType": "uint16",
              "name": "chainId",
              "type": "uint16"
            },
            {
              "internalType": "uint16",
              "name": "emitterChainID",
              "type": "uint16"
            },
            {
              "internalType": "bytes32",
              "name": "emitterAddress",
              "type": "bytes32"
            }
          ],
          "internalType": "struct BridgeStructs.RegisterChain",
          "name": "chain",
          "type": "tuple"
        }
      ],
      "stateMutability": "pure",
      "type": "function"
    },
    {
      "inputs": [
        {
          "internalType": "bytes",
          "name": "encoded",
          "type": "bytes"
        }
      ],
      "name": "parseUpgrade",
      "outputs": [
        {
          "components": [
            {
              "internalType": "bytes32",
              "name": "module",
              "type": "bytes32"
            },
            {
              "internalType": "uint8",
              "name": "action",
              "type": "uint8"
            },
            {
              "internalType": "uint16",
              "name": "chainId",
              "type": "uint16"
            },
            {
              "internalType": "bytes32",
              "name": "newContract",
              "type": "bytes32"
            }
          ],
          "internalType": "struct BridgeStructs.UpgradeContract",
          "name": "chain",
          "type": "tuple"
        }
      ],
      "stateMutability": "pure",
      "type": "function"
    },
    {
      "inputs": [
        {
          "internalType": "bytes",
          "name": "encodedVM",
          "type": "bytes"
        }
      ],
      "name": "registerChain",
      "outputs": [],
      "stateMutability": "nonpayable",
      "type": "function"
    },
    {
      "inputs": [],
      "name": "tokenImplementation",
      "outputs": [
        {
          "internalType": "address",
          "name": "",
          "type": "address"
        }
      ],
      "stateMutability": "view",
      "type": "function"
    },
    {
      "inputs": [
        {
          "internalType": "bytes",
          "name": "encodedVM",
          "type": "bytes"
        }
      ],
      "name": "upgrade",
      "outputs": [],
      "stateMutability": "nonpayable",
      "type": "function"
    },
    {
      "inputs": [],
      "name": "wormhole",
      "outputs": [
        {
          "internalType": "contract IWormhole",
          "name": "",
          "type": "address"
        }
      ],
      "stateMutability": "view",
      "type": "function"
    },
    {
      "inputs": [
        {
          "internalType": "uint16",
          "name": "tokenChainId",
          "type": "uint16"
        },
        {
          "internalType": "bytes32",
          "name": "tokenAddress",
          "type": "bytes32"
        }
      ],
      "name": "wrappedAsset",
      "outputs": [
        {
          "internalType": "address",
          "name": "",
          "type": "address"
        }
      ],
      "stateMutability": "view",
      "type": "function"
    }
  ],
  "bytecode": {
    "object": "0x608060405234801561001057600080fd5b506114b0806100206000396000f3fe608060405234801561001057600080fd5b50600436106101165760003560e01c8063a5799f93116100a2578063b172b22211610071578063b172b22214610322578063b96c7e4d1461032a578063d60b347f14610353578063fbe3c2cd1461037f578063fbeeacd91461039157600080fd5b8063a5799f93146102a9578063aa4efa5b146102bc578063ad5c4648146102df578063ad66a5f1146102f057600080fd5b80632c3c02a4116100e95780632c3c02a4146102295780632f3a3d5d1461024c578063739fc8d11461025d57806384acd1bb1461027d5780639a8a05921461028e57600080fd5b806301f532551461011b5780631a2be4da146101865780631ff1e286146101c25780632539464514610214575b600080fd5b61012e6101293660046110cd565b6103de565b60405161017d9190600060a0820190508251825260ff6020840151166020830152604083015161ffff808216604085015280606086015116606085015250506080830151608083015292915050565b60405180910390f35b6101b2610194366004611087565b6001600160a01b031660009081526009602052604090205460ff1690565b604051901515815260200161017d565b6101fc6101d03660046112af565b61ffff91909116600090815260086020908152604080832093835292905220546001600160a01b031690565b6040516001600160a01b03909116815260200161017d565b6102276102223660046110cd565b6105cf565b005b6101b26102373660046110b5565b60009081526005602052604090205460ff1690565b6001546001600160a01b03166101fc565b600254640100000000900460ff1660405160ff909116815260200161017d565b6000546001600160a01b03166101fc565b60025461ffff165b60405161ffff909116815260200161017d565b6102276102b73660046110cd565b6106a6565b6101b26102ca3660046110b5565b60009081526006602052604090205460ff1690565b6004546001600160a01b03166101fc565b6103146102fe366004611293565b61ffff166000908152600b602052604090205490565b60405190815260200161017d565b600354610314565b610314610338366004611087565b6001600160a01b03166000908152600a602052604090205490565b6101b2610361366004611087565b6001600160a01b031660009081526007602052604090205460ff1690565b60025462010000900461ffff16610296565b6103a461039f3660046110cd565b610804565b60405161017d91908151815260208083015160ff169082015260408083015161ffff16908201526060918201519181019190915260800190565b6040805160a08101825260008082526020820181905291810182905260608101829052608081018290529061041383826109c9565b82526104206020826113db565b82519091506a546f6b656e4272696467651461048f5760405162461bcd60e51b815260206004820152602360248201527f696e76616c6964205265676973746572436861696e3a2077726f6e67206d6f64604482015262756c6560e81b60648201526084015b60405180910390fd5b6104998382610a27565b60ff1660208301526104ac6001826113db565b9050816020015160ff166001146105115760405162461bcd60e51b815260206004820152602360248201527f696e76616c6964205265676973746572436861696e3a2077726f6e672061637460448201526234b7b760e91b6064820152608401610486565b61051b8382610a83565b61ffff16604083015261052f6002826113db565b905061053b8382610a83565b61ffff16606083015261054f6002826113db565b905061055b83826109c9565b608083015261056b6020826113db565b9050808351146105c95760405162461bcd60e51b815260206004820152602360248201527f696e76616c6964205265676973746572436861696e3a2077726f6e67206c656e6044820152620cee8d60eb1b6064820152608401610486565b50919050565b60008060006105dd84610ae0565b9250925092508181906106035760405162461bcd60e51b81526004016104869190611322565b506106288361014001516000908152600560205260409020805460ff19166001179055565b60006106378460e00151610804565b905061064660025461ffff1690565b61ffff16816040015161ffff16146106915760405162461bcd60e51b815260206004820152600e60248201526d1ddc9bdb99c818da185a5b881a5960921b6044820152606401610486565b606081015161069f90610cff565b5050505050565b60008060006106b484610ae0565b9250925092508181906106da5760405162461bcd60e51b81526004016104869190611322565b506106ff8361014001516000908152600560205260409020805460ff19166001179055565b600061070e8460e001516103de565b905061071d60025461ffff1690565b61ffff16816040015161ffff16148061073c5750604081015161ffff16155b61077b5760405162461bcd60e51b815260206004820152601060248201526f1a5b9d985b1a590818da185a5b881a5960821b6044820152606401610486565b606081015161ffff166000908152600b6020526040812054146107e05760405162461bcd60e51b815260206004820152601860248201527f636861696e20616c7265616479207265676973746572656400000000000000006044820152606401610486565b61069f8160600151826080015161ffff9091166000908152600b6020526040902055565b60408051608081018252600080825260208201819052918101829052606081018290529061083283826109c9565b825261083f6020826113db565b82519091506a546f6b656e427269646765146108ab5760405162461bcd60e51b815260206004820152602560248201527f696e76616c69642055706772616465436f6e74726163743a2077726f6e67206d6044820152646f64756c6560d81b6064820152608401610486565b6108b58382610a27565b60ff1660208301526108c86001826113db565b9050816020015160ff1660021461092f5760405162461bcd60e51b815260206004820152602560248201527f696e76616c69642055706772616465436f6e74726163743a2077726f6e67206160448201526431ba34b7b760d91b6064820152608401610486565b6109398382610a83565b61ffff16604083015261094d6002826113db565b905061095983826109c9565b60608301526109696020826113db565b9050808351146105c95760405162461bcd60e51b815260206004820152602560248201527f696e76616c69642055706772616465436f6e74726163743a2077726f6e67206c6044820152640cadccee8d60db1b6064820152608401610486565b60006109d68260206113db565b83511015610a1e5760405162461bcd60e51b8152602060048201526015602482015274746f427974657333325f6f75744f66426f756e647360581b6044820152606401610486565b50016020015190565b6000610a348260016113db565b83511015610a7a5760405162461bcd60e51b8152602060048201526013602482015272746f55696e74385f6f75744f66426f756e647360681b6044820152606401610486565b50016001015190565b6000610a908260026113db565b83511015610ad75760405162461bcd60e51b8152602060048201526014602482015273746f55696e7431365f6f75744f66426f756e647360601b6044820152606401610486565b50016002015190565b604080516101608101825260008082526020820181905291810182905260608082018390526080820183905260a0820183905260c0820183905260e082018190526101008201839052610120820152610140810191909152600060606000806000610b536000546001600160a01b031690565b6001600160a01b031663c0fd8bde886040518263ffffffff1660e01b8152600401610b7e9190611322565b60006040518083038186803b158015610b9657600080fd5b505afa158015610baa573d6000803e3d6000fd5b505050506040513d6000823e601f3d908101601f19168201604052610bd29190810190611141565b92509250925081610be95791945092509050610cf8565b60025462010000900461ffff1661ffff16836060015161ffff1614610c455750506040805180820190915260168152753bb937b7339033b7bb32b93730b731b29031b430b4b760511b6020820152909350600092509050610cf8565b600354836080015114610c9657505060408051808201909152601981527f77726f6e6720676f7665726e616e636520636f6e7472616374000000000000006020820152909350600092509050610cf8565b61014083015160009081526005602052604090205460ff1615610cdd5782600060405180606001604052806022815260200161145960229139955095509550505050610cf8565b50506040805160208101909152600081529093506001925090505b9193909250565b6000610d327f360894a13ba1a3210667c828492db98dca3e2076cc3735a920a3ca505d382bbc546001600160a01b031690565b9050610d3d82610e2c565b60408051600481526024810182526020810180516001600160e01b031663204a7f0760e21b179052905160009182916001600160a01b03861691610d8091611306565b600060405180830381855af49150503d8060008114610dbb576040519150601f19603f3d011682016040523d82523d6000602084013e610dc0565b606091505b5091509150818190610de55760405162461bcd60e51b81526004016104869190611322565b50836001600160a01b0316836001600160a01b03167f2e4cc16c100f0b55e2df82ab0b1a7e294aa9cbd01b48fbaf622683fbc0507a4960405160405180910390a350505050565b610e3581610e6c565b6040516001600160a01b038216907fbc7cd75a20ee27fd9adebab32041f755214dbc6bffa90cc0225b39da2e5c2d3b90600090a250565b803b610ed05760405162461bcd60e51b815260206004820152602d60248201527f455243313936373a206e657720696d706c656d656e746174696f6e206973206e60448201526c1bdd08184818dbdb9d1c9858dd609a1b6064820152608401610486565b7f360894a13ba1a3210667c828492db98dca3e2076cc3735a920a3ca505d382bbc80546001600160a01b0319166001600160a01b0392909216919091179055565b600082601f830112610f21578081fd5b8151602067ffffffffffffffff821115610f3d57610f3d61142f565b610f4b818360051b01611382565b80838252828201915082860187848660071b8901011115610f6a578586fd5b855b85811015610fcd57608080838b031215610f84578788fd5b610f8c611335565b8351815286840151878201526040610fa5818601611076565b908201526060610fb6858201611076565b908201528552938501939190910190600101610f6c565b5090979650505050505050565b80518015158114610fea57600080fd5b919050565b600082601f830112610fff578081fd5b815161101261100d826113b3565b611382565b818152846020838601011115611026578283fd5b6110378260208301602087016113ff565b949350505050565b8051610fea81611445565b805163ffffffff81168114610fea57600080fd5b805167ffffffffffffffff81168114610fea57600080fd5b805160ff81168114610fea57600080fd5b600060208284031215611098578081fd5b81356001600160a01b03811681146110ae578182fd5b9392505050565b6000602082840312156110c6578081fd5b5035919050565b6000602082840312156110de578081fd5b813567ffffffffffffffff8111156110f4578182fd5b8201601f81018413611104578182fd5b803561111261100d826113b3565b818152856020838501011115611126578384fd5b81602084016020830137908101602001929092525092915050565b600080600060608486031215611155578182fd5b835167ffffffffffffffff8082111561116c578384fd5b908501906101608288031215611180578384fd5b61118861135e565b61119183611076565b815261119f6020840161104a565b60208201526111b06040840161104a565b60408201526111c16060840161103f565b6060820152608083015160808201526111dc60a0840161105e565b60a08201526111ed60c08401611076565b60c082015260e083015182811115611203578586fd5b61120f89828601610fef565b60e08301525061010061122381850161104a565b90820152610120838101518381111561123a578687fd5b6112468a828701610f11565b91830191909152506101408381015190820152945061126760208701610fda565b9350604086015191508082111561127c578283fd5b5061128986828701610fef565b9150509250925092565b6000602082840312156112a4578081fd5b81356110ae81611445565b600080604083850312156112c1578182fd5b82356112cc81611445565b946020939093013593505050565b600081518084526112f28160208601602086016113ff565b601f01601f19169290920160200192915050565b600082516113188184602087016113ff565b9190910192915050565b6020815260006110ae60208301846112da565b6040516080810167ffffffffffffffff811182821017156113585761135861142f565b60405290565b604051610160810167ffffffffffffffff811182821017156113585761135861142f565b604051601f8201601f1916810167ffffffffffffffff811182821017156113ab576113ab61142f565b604052919050565b600067ffffffffffffffff8211156113cd576113cd61142f565b50601f01601f191660200190565b600082198211156113fa57634e487b7160e01b81526011600452602481fd5b500190565b60005b8381101561141a578181015183820152602001611402565b83811115611429576000848401525b50505050565b634e487b7160e01b600052604160045260246000fd5b61ffff8116811461145557600080fd5b5056fe676f7665726e616e636520616374696f6e20616c726561647920636f6e73756d6564a2646970667358221220310caaa3902bd1b0f65f7f5d80731129881052ae3bac293f7d1e7e21397d975464736f6c63430008040033",
    "linkReferences": {}
  },
  "methodIdentifiers": {
    "WETH()": "ad5c4648",
    "bridgeContracts(uint16)": "ad66a5f1",
    "chainId()": "9a8a0592",
    "finality()": "739fc8d1",
    "governanceActionIsConsumed(bytes32)": "2c3c02a4",
    "governanceChainId()": "fbe3c2cd",
    "governanceContract()": "b172b222",
    "isInitialized(address)": "d60b347f",
    "isTransferCompleted(bytes32)": "aa4efa5b",
    "isWrappedAsset(address)": "1a2be4da",
    "outstandingBridged(address)": "b96c7e4d",
    "parseRegisterChain(bytes)": "01f53255",
    "parseUpgrade(bytes)": "fbeeacd9",
    "registerChain(bytes)": "a5799f93",
    "tokenImplementation()": "2f3a3d5d",
    "upgrade(bytes)": "25394645",
    "wormhole()": "84acd1bb",
    "wrappedAsset(uint16,bytes32)": "1ff1e286"
  },
  "id": 11
}