{
  "abi": [
    {
      "anonymous": false,
      "inputs": [
        {
          "indexed": false,
          "internalType": "address",
          "name": "previousAdmin",
          "type": "address"
        },
        {
          "indexed": false,
          "internalType": "address",
          "name": "newAdmin",
          "type": "address"
        }
      ],
      "name": "AdminChanged",
      "type": "event"
    },
    {
      "anonymous": false,
      "inputs": [
        {
          "indexed": true,
          "internalType": "address",
          "name": "beacon",
          "type": "address"
        }
      ],
      "name": "BeaconUpgraded",
      "type": "event"
    },
    {
      "anonymous": false,
      "inputs": [
        {
          "indexed": true,
          "internalType": "address",
          "name": "oldContract",
          "type": "address"
        },
        {
          "indexed": true,
          "internalType": "address",
          "name": "newContract",
          "type": "address"
        }
      ],
      "name": "ContractUpgraded",
      "type": "event"
    },
    {
      "anonymous": false,
      "inputs": [
        {
          "indexed": true,
          "internalType": "address",
          "name": "implementation",
          "type": "address"
        }
      ],
      "name": "Upgraded",
      "type": "event"
    },
    {
      "inputs": [
        {
          "internalType": "uint16",
          "name": "chainId_",
          "type": "uint16"
        }
      ],
      "name": "bridgeContracts",
      "outputs": [
        {
          "internalType": "bytes32",
          "name": "",
          "type": "bytes32"
        }
      ],
      "stateMutability": "view",
      "type": "function"
    },
    {
      "inputs": [],
      "name": "chainId",
      "outputs": [
        {
          "internalType": "uint16",
          "name": "",
          "type": "uint16"
        }
      ],
      "stateMutability": "view",
      "type": "function"
    },
    {
      "inputs": [
        {
          "internalType": "bytes",
          "name": "encodedVm",
          "type": "bytes"
        }
      ],
      "name": "completeTransfer",
      "outputs": [],
      "stateMutability": "nonpayable",
      "type": "function"
    },
    {
      "inputs": [
        {
          "components": [
            {
              "internalType": "bytes32",
              "name": "tokenAddress",
              "type": "bytes32"
            },
            {
              "internalType": "uint16",
              "name": "tokenChain",
              "type": "uint16"
            },
            {
              "internalType": "bytes32",
              "name": "symbol",
              "type": "bytes32"
            },
            {
              "internalType": "bytes32",
              "name": "name",
              "type": "bytes32"
            },
            {
              "internalType": "uint256",
              "name": "tokenID",
              "type": "uint256"
            },
            {
              "internalType": "string",
              "name": "uri",
              "type": "string"
            },
            {
              "internalType": "bytes32",
              "name": "to",
              "type": "bytes32"
            },
            {
              "internalType": "uint16",
              "name": "toChain",
              "type": "uint16"
            }
          ],
          "internalType": "struct NFTBridgeStructs.Transfer",
          "name": "transfer",
          "type": "tuple"
        }
      ],
      "name": "encodeTransfer",
      "outputs": [
        {
          "internalType": "bytes",
          "name": "encoded",
          "type": "bytes"
        }
      ],
      "stateMutability": "pure",
      "type": "function"
    },
    {
      "inputs": [],
      "name": "finality",
      "outputs": [
        {
          "internalType": "uint8",
          "name": "",
          "type": "uint8"
        }
      ],
      "stateMutability": "view",
      "type": "function"
    },
    {
      "inputs": [
        {
          "internalType": "bytes32",
          "name": "hash",
          "type": "bytes32"
        }
      ],
      "name": "governanceActionIsConsumed",
      "outputs": [
        {
          "internalType": "bool",
          "name": "",
          "type": "bool"
        }
      ],
      "stateMutability": "view",
      "type": "function"
    },
    {
      "inputs": [],
      "name": "governanceChainId",
      "outputs": [
        {
          "internalType": "uint16",
          "name": "",
          "type": "uint16"
        }
      ],
      "stateMutability": "view",
      "type": "function"
    },
    {
      "inputs": [],
      "name": "governanceContract",
      "outputs": [
        {
          "internalType": "bytes32",
          "name": "",
          "type": "bytes32"
        }
      ],
      "stateMutability": "view",
      "type": "function"
    },
    {
      "inputs": [],
      "name": "implementation",
      "outputs": [
        {
          "internalType": "address",
          "name": "",
          "type": "address"
        }
      ],
      "stateMutability": "view",
      "type": "function"
    },
    {
      "inputs": [],
      "name": "initialize",
      "outputs": [],
      "stateMutability": "nonpayable",
      "type": "function"
    },
    {
      "inputs": [
        {
          "internalType": "address",
          "name": "impl",
          "type": "address"
        }
      ],
      "name": "isInitialized",
      "outputs": [
        {
          "internalType": "bool",
          "name": "",
          "type": "bool"
        }
      ],
      "stateMutability": "view",
      "type": "function"
    },
    {
      "inputs": [
        {
          "internalType": "bytes32",
          "name": "hash",
          "type": "bytes32"
        }
      ],
      "name": "isTransferCompleted",
      "outputs": [
        {
          "internalType": "bool",
          "name": "",
          "type": "bool"
        }
      ],
      "stateMutability": "view",
      "type": "function"
    },
    {
      "inputs": [
        {
          "internalType": "address",
          "name": "token",
          "type": "address"
        }
      ],
      "name": "isWrappedAsset",
      "outputs": [
        {
          "internalType": "bool",
          "name": "",
          "type": "bool"
        }
      ],
      "stateMutability": "view",
      "type": "function"
    },
    {
      "inputs": [
        {
          "internalType": "address",
          "name": "operator",
          "type": "address"
        },
        {
          "internalType": "address",
          "name": "",
          "type": "address"
        },
        {
          "internalType": "uint256",
          "name": "",
          "type": "uint256"
        },
        {
          "internalType": "bytes",
          "name": "",
          "type": "bytes"
        }
      ],
      "name": "onERC721Received",
      "outputs": [
        {
          "internalType": "bytes4",
          "name": "",
          "type": "bytes4"
        }
      ],
      "stateMutability": "view",
      "type": "function"
    },
    {
      "inputs": [
        {
          "internalType": "bytes",
          "name": "encoded",
          "type": "bytes"
        }
      ],
      "name": "parseRegisterChain",
      "outputs": [
        {
          "components": [
            {
              "internalType": "bytes32",
              "name": "module",
              "type": "bytes32"
            },
            {
              "internalType": "uint8",
              "name": "action",
              "type": "uint8"
            },
            {
              "internalType": "uint16",
              "name": "chainId",
              "type": "uint16"
            },
            {
              "internalType": "uint16",
              "name": "emitterChainID",
              "type": "uint16"
            },
            {
              "internalType": "bytes32",
              "name": "emitterAddress",
              "type": "bytes32"
            }
          ],
          "internalType": "struct NFTBridgeStructs.RegisterChain",
          "name": "chain",
          "type": "tuple"
        }
      ],
      "stateMutability": "pure",
      "type": "function"
    },
    {
      "inputs": [
        {
          "internalType": "bytes",
          "name": "encoded",
          "type": "bytes"
        }
      ],
      "name": "parseTransfer",
      "outputs": [
        {
          "components": [
            {
              "internalType": "bytes32",
              "name": "tokenAddress",
              "type": "bytes32"
            },
            {
              "internalType": "uint16",
              "name": "tokenChain",
              "type": "uint16"
            },
            {
              "internalType": "bytes32",
              "name": "symbol",
              "type": "bytes32"
            },
            {
              "internalType": "bytes32",
              "name": "name",
              "type": "bytes32"
            },
            {
              "internalType": "uint256",
              "name": "tokenID",
              "type": "uint256"
            },
            {
              "internalType": "string",
              "name": "uri",
              "type": "string"
            },
            {
              "internalType": "bytes32",
              "name": "to",
              "type": "bytes32"
            },
            {
              "internalType": "uint16",
              "name": "toChain",
              "type": "uint16"
            }
          ],
          "internalType": "struct NFTBridgeStructs.Transfer",
          "name": "transfer",
          "type": "tuple"
        }
      ],
      "stateMutability": "pure",
      "type": "function"
    },
    {
      "inputs": [
        {
          "internalType": "bytes",
          "name": "encoded",
          "type": "bytes"
        }
      ],
      "name": "parseUpgrade",
      "outputs": [
        {
          "components": [
            {
              "internalType": "bytes32",
              "name": "module",
              "type": "bytes32"
            },
            {
              "internalType": "uint8",
              "name": "action",
              "type": "uint8"
            },
            {
              "internalType": "uint16",
              "name": "chainId",
              "type": "uint16"
            },
            {
              "internalType": "bytes32",
              "name": "newContract",
              "type": "bytes32"
            }
          ],
          "internalType": "struct NFTBridgeStructs.UpgradeContract",
          "name": "chain",
          "type": "tuple"
        }
      ],
      "stateMutability": "pure",
      "type": "function"
    },
    {
      "inputs": [
        {
          "internalType": "bytes",
          "name": "encodedVM",
          "type": "bytes"
        }
      ],
      "name": "registerChain",
      "outputs": [],
      "stateMutability": "nonpayable",
      "type": "function"
    },
    {
      "inputs": [
        {
          "internalType": "uint256",
          "name": "tokenId",
          "type": "uint256"
        }
      ],
      "name": "splCache",
      "outputs": [
        {
          "components": [
            {
              "internalType": "bytes32",
              "name": "name",
              "type": "bytes32"
            },
            {
              "internalType": "bytes32",
              "name": "symbol",
              "type": "bytes32"
            }
          ],
          "internalType": "struct NFTBridgeStorage.SPLCache",
          "name": "",
          "type": "tuple"
        }
      ],
      "stateMutability": "view",
      "type": "function"
    },
    {
      "inputs": [],
      "name": "tokenImplementation",
      "outputs": [
        {
          "internalType": "address",
          "name": "",
          "type": "address"
        }
      ],
      "stateMutability": "view",
      "type": "function"
    },
    {
      "inputs": [
        {
          "internalType": "address",
          "name": "token",
          "type": "address"
        },
        {
          "internalType": "uint256",
          "name": "tokenID",
          "type": "uint256"
        },
        {
          "internalType": "uint16",
          "name": "recipientChain",
          "type": "uint16"
        },
        {
          "internalType": "bytes32",
          "name": "recipient",
          "type": "bytes32"
        },
        {
          "internalType": "uint32",
          "name": "nonce",
          "type": "uint32"
        }
      ],
      "name": "transferNFT",
      "outputs": [
        {
          "internalType": "uint64",
          "name": "sequence",
          "type": "uint64"
        }
      ],
      "stateMutability": "payable",
      "type": "function"
    },
    {
      "inputs": [
        {
          "internalType": "bytes",
          "name": "encodedVM",
          "type": "bytes"
        }
      ],
      "name": "upgrade",
      "outputs": [],
      "stateMutability": "nonpayable",
      "type": "function"
    },
    {
      "inputs": [],
      "name": "wormhole",
      "outputs": [
        {
          "internalType": "contract IWormhole",
          "name": "",
          "type": "address"
        }
      ],
      "stateMutability": "view",
      "type": "function"
    },
    {
      "inputs": [
        {
          "internalType": "uint16",
          "name": "tokenChainId",
          "type": "uint16"
        },
        {
          "internalType": "bytes32",
          "name": "tokenAddress",
          "type": "bytes32"
        }
      ],
      "name": "wrappedAsset",
      "outputs": [
        {
          "internalType": "address",
          "name": "",
          "type": "address"
        }
      ],
      "stateMutability": "view",
      "type": "function"
    }
  ],
  "bytecode": {
    "object": "0x608060405234801561001057600080fd5b50613d6d806100206000396000f3fe608060405260043610620001675760003560e01c806384acd1bb11620000c5578063c68785191162000078578063c6878519146200053a578063c96616e1146200055f578063d60b347f146200058f578063e6a853e014620005cc578063fbe3c2cd1462000600578063fbeeacd9146200062157600080fd5b806384acd1bb146200043c5780639a8a0592146200045c578063a5799f931462000486578063aa4efa5b14620004ab578063ad66a5f114620004df578063b172b222146200052357600080fd5b80632c3c02a4116200011e5780632c3c02a414620003105780632f3a3d5d14620003445780633ca6482614620003645780635c60da1b14620003dd578063739fc8d114620003f55780638129fc1c146200042457600080fd5b806301f53255146200016c578063150b7a0214620001ea5780631a2be4da14620002295780631ff1e28614620002775780632539464514620002b55780632b51137514620002dc575b600080fd5b3480156200017957600080fd5b50620001916200018b36600462002c2e565b62000681565b604051620001e19190600060a0820190508251825260ff6020840151166020830152604083015161ffff808216604085015280606086015116606085015250506080830151608083015292915050565b60405180910390f35b348015620001f757600080fd5b506200020f6200020936600462002ade565b62000889565b6040516001600160e01b03199091168152602001620001e1565b3480156200023657600080fd5b50620002666200024836600462002ac1565b6001600160a01b031660009081526008602052604090205460ff1690565b6040519015158152602001620001e1565b3480156200028457600080fd5b506200029c6200029636600462002f24565b6200090d565b6040516001600160a01b039091168152602001620001e1565b348015620002c257600080fd5b50620002da620002d436600462002c2e565b62000939565b005b348015620002e957600080fd5b5062000301620002fb36600462002c2e565b62000a1d565b604051620001e1919062003126565b3480156200031d57600080fd5b50620002666200032f36600462002bfc565b60009081526004602052604090205460ff1690565b3480156200035157600080fd5b506001546001600160a01b03166200029c565b3480156200037157600080fd5b50620003c16200038336600462002bfc565b6040805180820190915260008082526020820152506000908152600a6020908152604091829020825180840190935280548352600101549082015290565b60408051825181526020928301519281019290925201620001e1565b348015620003ea57600080fd5b506200029c62000bf3565b3480156200040257600080fd5b50600254640100000000900460ff1660405160ff9091168152602001620001e1565b3480156200043157600080fd5b50620002da62000c0d565b3480156200044957600080fd5b506000546001600160a01b03166200029c565b3480156200046957600080fd5b5060025461ffff165b60405161ffff9091168152602001620001e1565b3480156200049357600080fd5b50620002da620004a536600462002c2e565b62000e7b565b348015620004b857600080fd5b5062000266620004ca36600462002bfc565b60009081526005602052604090205460ff1690565b348015620004ec57600080fd5b5062000514620004fe36600462002ee6565b61ffff1660009081526009602052604090205490565b604051908152602001620001e1565b3480156200053057600080fd5b5060035462000514565b3480156200054757600080fd5b50620002da6200055936600462002c2e565b62000f81565b620005766200057036600462002b7c565b62000f8f565b6040516001600160401b039091168152602001620001e1565b3480156200059c57600080fd5b5062000266620005ae36600462002ac1565b6001600160a01b031660009081526006602052604090205460ff1690565b348015620005d957600080fd5b50620005f1620005eb36600462002cae565b62001653565b604051620001e19190620030bd565b3480156200060d57600080fd5b5060025462010000900461ffff1662000472565b3480156200062e57600080fd5b50620006466200064036600462002c2e565b6200170f565b604051620001e191908151815260208083015160ff169082015260408083015161ffff16908201526060918201519181019190915260800190565b6040805160a081018252600080825260208201819052918101829052606081018290526080810182905290620006b88382620018e8565b8252620006c7602082620032ac565b8251909150684e465442726964676514620007355760405162461bcd60e51b815260206004820152602360248201527f696e76616c6964205265676973746572436861696e3a2077726f6e67206d6f64604482015262756c6560e81b60648201526084015b60405180910390fd5b6200074183826200194a565b60ff16602083015262000756600182620032ac565b9050816020015160ff16600114620007bd5760405162461bcd60e51b815260206004820152602360248201527f696e76616c6964205265676973746572436861696e3a2077726f6e672061637460448201526234b7b760e91b60648201526084016200072c565b620007c98382620019aa565b61ffff166040830152620007df600282620032ac565b9050620007ed8382620019aa565b61ffff16606083015262000803600282620032ac565b9050620008118382620018e8565b608083015262000823602082620032ac565b905080835114620008835760405162461bcd60e51b815260206004820152602360248201527f696e76616c6964205265676973746572436861696e3a2077726f6e67206c656e6044820152620cee8d60eb1b60648201526084016200072c565b50919050565b60006001600160a01b0386163014620008fb5760405162461bcd60e51b815260206004820152602d60248201527f63616e206f6e6c792062726964676520746f6b656e7320766961207472616e7360448201526c19995c939195081b595d1a1bd9609a1b60648201526084016200072c565b50630a85bd0160e11b95945050505050565b61ffff91909116600090815260076020908152604080832093835292905220546001600160a01b031690565b6000806000620009498462001a0b565b925092509250818190620009725760405162461bcd60e51b81526004016200072c9190620030bd565b50620009988361014001516000908152600460205260409020805460ff19166001179055565b6000620009a98460e001516200170f565b9050620009b960025461ffff1690565b61ffff16816040015161ffff161462000a065760405162461bcd60e51b815260206004820152600e60248201526d1ddc9bdb99c818da185a5b881a5960921b60448201526064016200072c565b606081015162000a169062001c3a565b5050505050565b604080516101008101825260008082526020820181905291810182905260608082018390526080820183905260a082015260c0810182905260e08101829052908062000a6a84826200194a565b905062000a79600183620032ac565b91508060ff1660011462000ac35760405162461bcd60e51b815260206004820152601060248201526f34b73b30b634b2102a3930b739b332b960811b60448201526064016200072c565b62000acf8483620018e8565b835262000ade602083620032ac565b915062000aec8483620019aa565b61ffff16602084015262000b02600283620032ac565b915062000b108483620018e8565b604084015262000b22602083620032ac565b915062000b308483620018e8565b606084015262000b42602083620032ac565b915062000b50848362001d71565b608084015262000b62602083620032ac565b915062000b71600183620032ac565b915062000b9e82602284875162000b899190620032c7565b62000b959190620032c7565b86919062001dca565b60a08401528351915062000bb4600283620032c7565b915062000bc28483620019aa565b61ffff1660e084015262000bd8602083620032c7565b915062000be68483620018e8565b60c0840152509092915050565b600062000c086001546001600160a01b031690565b905090565b600062000c417f360894a13ba1a3210667c828492db98dca3e2076cc3735a920a3ca505d382bbc546001600160a01b031690565b905062000c66816001600160a01b031660009081526006602052604090205460ff1690565b1562000cab5760405162461bcd60e51b8152602060048201526013602482015272185b1c9958591e481a5b9a5d1a585b1a5e9959606a1b60448201526064016200072c565b62000cd4816001600160a01b03166000908152600660205260409020805460ff19166001179055565b60008062000ce560025461ffff1690565b90508061ffff166002141562000cff57600f915062000e5c565b8061ffff166004141562000d1757600f915062000e5c565b8061ffff166005141562000d2f57600f915062000e5c565b8061ffff166006141562000d47576001915062000e5c565b8061ffff166007141562000d5f576001915062000e5c565b8061ffff166009141562000d77576001915062000e5c565b8061ffff16600a141562000d8f576001915062000e5c565b8061ffff16600b141562000da7576001915062000e5c565b8061ffff16600c141562000dbf576001915062000e5c565b8061ffff16600d141562000dd7576001915062000e5c565b8061ffff16600e141562000def576001915062000e5c565b8061ffff166010141562000e07576001915062000e5c565b8061ffff166011141562000e1f576020915062000e5c565b60405162461bcd60e51b81526020600482015260116024820152702ab735b737bbb71031b430b4b71034b21760791b60448201526064016200072c565b6002805464ff00000000191664010000000060ff851602179055505050565b600080600062000e8b8462001a0b565b92509250925081819062000eb45760405162461bcd60e51b81526004016200072c9190620030bd565b5062000eda8361014001516000908152600460205260409020805460ff19166001179055565b600062000eeb8460e0015162000681565b905062000efb60025461ffff1690565b61ffff16816040015161ffff16148062000f1b5750604081015161ffff16155b62000f5c5760405162461bcd60e51b815260206004820152601060248201526f1a5b9d985b1a590818da185a5b881a5960821b60448201526064016200072c565b62000a168160600151826080015161ffff909116600090815260096020526040902055565b62000f8c8162001ee3565b50565b600080600062000fb7886001600160a01b031660009081526008602052604090205460ff1690565b15620010b157876001600160a01b0316639a8a05926040518163ffffffff1660e01b815260040160206040518083038186803b15801562000ff757600080fd5b505afa1580156200100c573d6000803e3d6000fd5b505050506040513d601f19601f8201168201806040525081019062001032919062002f05565b9150876001600160a01b0316633d6c043b6040518163ffffffff1660e01b815260040160206040518083038186803b1580156200106e57600080fd5b505afa15801562001083573d6000803e3d6000fd5b505050506040513d601f19601f82011682018060405250810190620010a9919062002c15565b90506200127b565b60025461ffff166040516301ffc9a760e01b81526380ac58cd60e01b60048201529092506001600160a01b038916915081906301ffc9a79060240160206040518083038186803b1580156200110557600080fd5b505afa1580156200111a573d6000803e3d6000fd5b505050506040513d601f19601f8201168201806040525081019062001140919062002bdf565b620011985760405162461bcd60e51b815260206004820152602160248201527f6d75737420737570706f7274207468652045524337323120696e7465726661636044820152606560f81b60648201526084016200072c565b6040516301ffc9a760e01b8152635b5e139f60e01b60048201526001600160a01b038916906301ffc9a79060240160206040518083038186803b158015620011df57600080fd5b505afa158015620011f4573d6000803e3d6000fd5b505050506040513d601f19601f820116820180604052508101906200121a919062002bdf565b6200127b5760405162461bcd60e51b815260206004820152602a60248201527f6d75737420737570706f727420746865204552433732312d4d657461646174616044820152691032bc3a32b739b4b7b760b11b60648201526084016200072c565b60608060608461ffff16600114620013d55760408051600481526024810182526020810180516001600160e01b03166395d89b4160e01b17905290516000916001600160a01b038e1691620012d1919062002f9d565b600060405180830381855afa9150503d80600081146200130e576040519150601f19603f3d011682016040523d82523d6000602084013e62001313565b606091505b5060408051600481526024810182526020810180516001600160e01b03166306fdde0360e01b1790529051919350600092506001600160a01b038f16916200135c919062002f9d565b600060405180830381855afa9150503d806000811462001399576040519150601f19603f3d011682016040523d82523d6000602084013e6200139e565b606091505b5091505081806020019051810190620013b8919062002c78565b945080806020019051810190620013d0919062002c78565b935050505b60008b6001600160a01b03168b604051602401620013f591815260200190565b60408051601f198184030181529181526020820180516001600160e01b031663c87b56dd60e01b179052516200142c919062002f9d565b600060405180830381855afa9150503d806000811462001469576040519150601f19603f3d011682016040523d82523d6000602084013e6200146e565b606091505b509150508080602001905181019062001488919062002c78565b9150506000808661ffff16600114156200150557604080518082018252600080825260209182018190528e8152600a82528281208351808501909452805484526001015491830191909152906020810151815190945092509050620014fe8d6000908152600a6020526040812081815560010155565b5062001512565b5050602083810151908301515b604051632142170760e11b8152336004820152306024820152604481018d90526001600160a01b038e16906342842e0e90606401600060405180830381600087803b1580156200156157600080fd5b505af115801562001576573d6000803e3d6000fd5b505050506200158860025461ffff1690565b61ffff168761ffff1614620015f457604051630852cd8d60e31b8152600481018d90526001600160a01b038e16906342966c6890602401600060405180830381600087803b158015620015da57600080fd5b505af1158015620015ef573d6000803e3d6000fd5b505050505b620016426040518061010001604052808881526020018961ffff1681526020018481526020018381526020018e81526020018581526020018c81526020018d61ffff16815250348b620022c7565b9d9c50505050505050505050505050565b606060c88260a00151511115620016b85760405162461bcd60e51b815260206004820152602260248201527f746f6b656e555249206d757374206e6f74206578636565642032303020627974604482015261657360f01b60648201526084016200072c565b81516020808401516040808601516060870151608088015160a0890151805160c08b015160e08c01519651620016f99a60019a909998939493910162002fee565b6040516020818303038152906040529050919050565b6040805160808101825260008082526020820181905291810182905260608101829052906200173f8382620018e8565b82526200174e602082620032ac565b8251909150684e465442726964676514620017ba5760405162461bcd60e51b815260206004820152602560248201527f696e76616c69642055706772616465436f6e74726163743a2077726f6e67206d6044820152646f64756c6560d81b60648201526084016200072c565b620017c683826200194a565b60ff166020830152620017db600182620032ac565b9050816020015160ff16600214620018445760405162461bcd60e51b815260206004820152602560248201527f696e76616c69642055706772616465436f6e74726163743a2077726f6e67206160448201526431ba34b7b760d91b60648201526084016200072c565b620018508382620019aa565b61ffff16604083015262001866600282620032ac565b9050620018748382620018e8565b606083015262001886602082620032ac565b905080835114620008835760405162461bcd60e51b815260206004820152602560248201527f696e76616c69642055706772616465436f6e74726163743a2077726f6e67206c6044820152640cadccee8d60db1b60648201526084016200072c565b6000620018f7826020620032ac565b83511015620019415760405162461bcd60e51b8152602060048201526015602482015274746f427974657333325f6f75744f66426f756e647360581b60448201526064016200072c565b50016020015190565b600062001959826001620032ac565b83511015620019a15760405162461bcd60e51b8152602060048201526013602482015272746f55696e74385f6f75744f66426f756e647360681b60448201526064016200072c565b50016001015190565b6000620019b9826002620032ac565b8351101562001a025760405162461bcd60e51b8152602060048201526014602482015273746f55696e7431365f6f75744f66426f756e647360601b60448201526064016200072c565b50016002015190565b604080516101608101825260008082526020820181905291810182905260608082018390526080820183905260a0820183905260c0820183905260e08201819052610100820183905261012082015261014081019190915260006060600080600062001a7f6000546001600160a01b031690565b6001600160a01b031663c0fd8bde886040518263ffffffff1660e01b815260040162001aac9190620030bd565b60006040518083038186803b15801562001ac557600080fd5b505afa15801562001ada573d6000803e3d6000fd5b505050506040513d6000823e601f3d908101601f1916820160405262001b04919081019062002d77565b9250925092508162001b1d579194509250905062001c33565b60025462010000900461ffff1661ffff16836060015161ffff161462001b7b5750506040805180820190915260168152753bb937b7339033b7bb32b93730b731b29031b430b4b760511b602082015290935060009250905062001c33565b60035483608001511462001bce57505060408051808201909152601981527f77726f6e6720676f7665726e616e636520636f6e747261637400000000000000602082015290935060009250905062001c33565b61014083015160009081526004602052604090205460ff161562001c185782600060405180606001604052806022815260200162003d166022913995509550955050505062001c33565b50506040805160208101909152600081529093506001925090505b9193909250565b600062001c6e7f360894a13ba1a3210667c828492db98dca3e2076cc3735a920a3ca505d382bbc546001600160a01b031690565b905062001c7b8262002390565b60408051600481526024810182526020810180516001600160e01b031663204a7f0760e21b179052905160009182916001600160a01b0386169162001cc09162002f9d565b600060405180830381855af49150503d806000811462001cfd576040519150601f19603f3d011682016040523d82523d6000602084013e62001d02565b606091505b509150915081819062001d2a5760405162461bcd60e51b81526004016200072c9190620030bd565b50836001600160a01b0316836001600160a01b03167f2e4cc16c100f0b55e2df82ab0b1a7e294aa9cbd01b48fbaf622683fbc0507a4960405160405180910390a350505050565b600062001d80826020620032ac565b83511015620019415760405162461bcd60e51b8152602060048201526015602482015274746f55696e743235365f6f75744f66426f756e647360581b60448201526064016200072c565b60608162001dda81601f620032ac565b101562001e1b5760405162461bcd60e51b815260206004820152600e60248201526d736c6963655f6f766572666c6f7760901b60448201526064016200072c565b62001e278284620032ac565b8451101562001e6d5760405162461bcd60e51b8152602060048201526011602482015270736c6963655f6f75744f66426f756e647360781b60448201526064016200072c565b60608215801562001e8e576040519150600082526020820160405262001eda565b6040519150601f8416801560200281840101858101878315602002848b0101015b8183101562001ec957805183526020928301920162001eaf565b5050858452601f01601f1916604052505b50949350505050565b600080600062001efb6000546001600160a01b031690565b6001600160a01b031663c0fd8bde856040518263ffffffff1660e01b815260040162001f289190620030bd565b60006040518083038186803b15801562001f4157600080fd5b505afa15801562001f56573d6000803e3d6000fd5b505050506040513d6000823e601f3d908101601f1916820160405262001f80919081019062002d77565b92509250925081819062001fa95760405162461bcd60e51b81526004016200072c9190620030bd565b5062001fb583620023d2565b62001ff55760405162461bcd60e51b815260206004820152600f60248201526e34b73b30b634b21032b6b4ba3a32b960891b60448201526064016200072c565b6000620020068460e0015162000a1d565b90506200202784610140015160009081526005602052604090205460ff1690565b15620020765760405162461bcd60e51b815260206004820152601a60248201527f7472616e7366657220616c726561647920636f6d706c6574656400000000000060448201526064016200072c565b6200209b8461014001516000908152600560205260409020805460ff19166001179055565b60025461ffff1661ffff168160e0015161ffff1614620020f55760405162461bcd60e51b815260206004820152601460248201527334b73b30b634b2103a30b933b2ba1031b430b4b760611b60448201526064016200072c565b60006200210560025461ffff1690565b61ffff16826020015161ffff16141562002122575080516200216d565b600062002138836020015184600001516200090d565b90506001600160a01b0381166200216a576200216783602001518460000151856060015186604001516200240f565b90505b90505b60c082015160025461ffff1661ffff16836020015161ffff16146200224c57826020015161ffff1660011415620021d8576080830151604080518082018252606086015181528186015160208083019182526000948552600a90529190922091518255516001909101555b608083015160a08401516040516334ff261960e21b81526001600160a01b0385169263d3fc98649262002212928692919060040162003094565b600060405180830381600087803b1580156200222d57600080fd5b505af115801562002242573d6000803e3d6000fd5b50505050620022be565b6080830151604051632142170760e11b81523060048201526001600160a01b0383811660248301526044820192909252908316906342842e0e90606401600060405180830381600087803b158015620022a457600080fd5b505af1158015620022b9573d6000803e3d6000fd5b505050505b50505050505050565b600080620022d58562001653565b9050620022ea6000546001600160a01b031690565b6001600160a01b031663b19a437e8585846200231160025460ff6401000000009091041690565b6040518563ffffffff1660e01b81526004016200233193929190620031a4565b6020604051808303818588803b1580156200234b57600080fd5b505af115801562002360573d6000803e3d6000fd5b50505050506040513d601f19601f8201168201806040525081019062002387919062002f52565b95945050505050565b6200239b81620026bc565b6040516001600160a01b038216907fbc7cd75a20ee27fd9adebab32041f755214dbc6bffa90cc0225b39da2e5c2d3b90600090a250565b60008160800151620023f8836060015161ffff1660009081526009602052604090205490565b14156200240757506001919050565b506000919050565b60006200241f60025461ffff1690565b61ffff168561ffff161415620024895760405162461bcd60e51b815260206004820152602860248201527f63616e206f6e6c79207772617020746f6b656e732066726f6d20666f726569676044820152676e20636861696e7360c01b60648201526084016200072c565b60006200249786866200090d565b6001600160a01b031614620024ef5760405162461bcd60e51b815260206004820152601c60248201527f7772617070656420617373657420616c7265616479206578697374730000000060448201526064016200072c565b8461ffff166001141562002531577f576f726d686f6c65204272696467656420536f6c616e612d4e4654000000000092506915d3d49354d41313919560b21b91505b6000627ce50b60e31b620025458562002763565b620025508562002763565b30898960405160240162002569959493929190620030d2565b60408051601f19818403018152918152602080830180516001600160e01b03166001600160e01b03199095169490941790935251909250600091620025b39130918591016200306e565b6040516020818303038152906040529050600060405180602001620025d8906200289e565b601f1982820381018352601f909101166040819052620025fe9190849060200162002fbb565b60408051601f19818403018152908290526001600160f01b031960f08b901b166020830152602282018990529150600090604201604051602081830303815290604052805190602001209050808251602084016000f59450843b6200266257600080fd5b61ffff891660009081526007602090815260408083208b8452825280832080546001600160a01b0319166001600160a01b038a16908117909155835260089091529020805460ff1916600117905550505050949350505050565b803b620027225760405162461bcd60e51b815260206004820152602d60248201527f455243313936373a206e657720696d706c656d656e746174696f6e206973206e60448201526c1bdd08184818dbdb9d1c9858dd609a1b60648201526084016200072c565b7f360894a13ba1a3210667c828492db98dca3e2076cc3735a920a3ca505d382bbc80546001600160a01b0319166001600160a01b0392909216919091179055565b606060005b602081108015620027a657508281602081106200279557634e487b7160e01b600052603260045260246000fd5b1a60f81b6001600160f81b03191615155b15620027c15780620027b88162003314565b91505062002768565b6000816001600160401b03811115620027ea57634e487b7160e01b600052604160045260246000fd5b6040519080825280601f01601f19166020018201604052801562002815576020820181803683370190505b50905060005b8281101562002896578481602081106200284557634e487b7160e01b600052603260045260246000fd5b1a60f81b8282815181106200286a57634e487b7160e01b600052603260045260246000fd5b60200101906001600160f81b031916908160001a905350806200288d8162003314565b9150506200281b565b509392505050565b610993806200338383390190565b6000620028c3620028bd8462003282565b6200324f565b9050828152838383011115620028d857600080fd5b828260208301376000602084830101529392505050565b80356001600160a01b03811681146200290757600080fd5b919050565b600082601f8301126200291d578081fd5b815160206001600160401b038211156200293b576200293b62003348565b6200294b818360051b016200324f565b80838252828201915082860187848660071b89010111156200296b578586fd5b855b85811015620029d757608080838b03121562002987578788fd5b62002991620031d8565b8351815286840151878201526040620029ac81860162002aaf565b908201526060620029bf85820162002aaf565b9082015285529385019391909101906001016200296d565b5090979650505050505050565b805180151581146200290757600080fd5b600082601f83011262002a06578081fd5b815162002a17620028bd8262003282565b81815284602083860101111562002a2c578283fd5b62002a3f826020830160208701620032e1565b949350505050565b600082601f83011262002a58578081fd5b62002a6983833560208501620028ac565b9392505050565b803562002907816200335e565b805162002907816200335e565b805162002907816200336f565b80516001600160401b03811681146200290757600080fd5b805160ff811681146200290757600080fd5b60006020828403121562002ad3578081fd5b62002a6982620028ef565b60008060008060006080868803121562002af6578081fd5b62002b0186620028ef565b945062002b1160208701620028ef565b93506040860135925060608601356001600160401b038082111562002b34578283fd5b818801915088601f83011262002b48578283fd5b81358181111562002b57578384fd5b89602082850101111562002b69578384fd5b9699959850939650602001949392505050565b600080600080600060a0868803121562002b94578283fd5b62002b9f86620028ef565b945060208601359350604086013562002bb8816200335e565b925060608601359150608086013562002bd1816200336f565b809150509295509295909350565b60006020828403121562002bf1578081fd5b62002a6982620029e4565b60006020828403121562002c0e578081fd5b5035919050565b60006020828403121562002c27578081fd5b5051919050565b60006020828403121562002c40578081fd5b81356001600160401b0381111562002c56578182fd5b8201601f8101841362002c67578182fd5b62002a3f84823560208401620028ac565b60006020828403121562002c8a578081fd5b81516001600160401b0381111562002ca0578182fd5b62002a3f84828501620029f5565b60006020828403121562002cc0578081fd5b81356001600160401b038082111562002cd7578283fd5b90830190610100828603121562002cec578283fd5b62002cf662003203565b8235815262002d086020840162002a70565b602082015260408301356040820152606083013560608201526080830135608082015260a08301358281111562002d3d578485fd5b62002d4b8782860162002a47565b60a08301525060c083013560c082015262002d6960e0840162002a70565b60e082015295945050505050565b60008060006060848603121562002d8c578081fd5b83516001600160401b038082111562002da3578283fd5b90850190610160828803121562002db8578283fd5b62002dc262003229565b62002dcd8362002aaf565b815262002ddd6020840162002a8a565b602082015262002df06040840162002a8a565b604082015262002e036060840162002a7d565b60608201526080830151608082015262002e2060a0840162002a97565b60a082015262002e3360c0840162002aaf565b60c082015260e08301518281111562002e4a578485fd5b62002e5889828601620029f5565b60e08301525061010062002e6e81850162002a8a565b90820152610120838101518381111562002e86578586fd5b62002e948a8287016200290c565b91830191909152506101408381015190820152945062002eb760208701620029e4565b9350604086015191508082111562002ecd578283fd5b5062002edc86828701620029f5565b9150509250925092565b60006020828403121562002ef8578081fd5b813562002a69816200335e565b60006020828403121562002f17578081fd5b815162002a69816200335e565b6000806040838503121562002f37578182fd5b823562002f44816200335e565b946020939093013593505050565b60006020828403121562002f64578081fd5b62002a698262002a97565b6000815180845262002f89816020860160208601620032e1565b601f01601f19169290920160200192915050565b6000825162002fb1818460208701620032e1565b9190910192915050565b6000835162002fcf818460208801620032e1565b83519083019062002fe5818360208801620032e1565b01949350505050565b600060ff60f81b808d60f81b1683528b600184015261ffff60f01b808c60f01b1660218501528a6023850152896043850152886063850152818860f81b1660838501528651915062003048826084860160208a01620032e1565b920160848101949094525060f09190911b1660a482015260a60198975050505050505050565b6001600160a01b038316815260406020820181905260009062002a3f9083018462002f6f565b60018060a01b038416815282602082015260606040820152600062002387606083018462002f6f565b60208152600062002a69602083018462002f6f565b60a081526000620030e760a083018862002f6f565b8281036020840152620030fb818862002f6f565b6001600160a01b03969096166040840152505061ffff92909216606083015260809091015292915050565b60208152815160208201526000602083015161ffff80821660408501526040850151606085015260608501516080850152608085015160a085015260a085015191506101008060c08601526200318161012086018462002f6f565b925060c086015160e08601528160e0870151168186015250508091505092915050565b63ffffffff84168152606060208201526000620031c5606083018562002f6f565b905060ff83166040830152949350505050565b604051608081016001600160401b0381118282101715620031fd57620031fd62003348565b60405290565b60405161010081016001600160401b0381118282101715620031fd57620031fd62003348565b60405161016081016001600160401b0381118282101715620031fd57620031fd62003348565b604051601f8201601f191681016001600160401b03811182821017156200327a576200327a62003348565b604052919050565b60006001600160401b038211156200329e576200329e62003348565b50601f01601f191660200190565b60008219821115620032c257620032c262003332565b500190565b600082821015620032dc57620032dc62003332565b500390565b60005b83811015620032fe578181015183820152602001620032e4565b838111156200330e576000848401525b50505050565b60006000198214156200332b576200332b62003332565b5060010190565b634e487b7160e01b600052601160045260246000fd5b634e487b7160e01b600052604160045260246000fd5b61ffff8116811462000f8c57600080fd5b63ffffffff8116811462000f8c57600080fdfe608060405234801561001057600080fd5b5060405161099338038061099383398101604081905261002f9161048e565b818161005c60017fa3f0ad74e5423aebfd80d3ef4346578335a9a72aeaee59ff6cb3582b35133d51610599565b60008051602061094c8339815191521461008657634e487b7160e01b600052600160045260246000fd5b6100928282600061009b565b505050506105fe565b6100a483610175565b6040516001600160a01b038416907f1cf3b03a6cf19fa2baba4df148e9dcabedea7f8a5c07840e207e5c089be95d3e90600090a26000825111806100e55750805b156101705761016e836001600160a01b0316635c60da1b6040518163ffffffff1660e01b815260040160206040518083038186803b15801561012657600080fd5b505afa15801561013a573d6000803e3d6000fd5b505050506040513d601f19601f8201168201806040525081019061015e9190610474565b8361031560201b6100291760201c565b505b505050565b6101888161034160201b6100551760201c565b6101e75760405162461bcd60e51b815260206004820152602560248201527f455243313936373a206e657720626561636f6e206973206e6f74206120636f6e6044820152641d1c9858dd60da1b60648201526084015b60405180910390fd5b61026a816001600160a01b0316635c60da1b6040518163ffffffff1660e01b815260040160206040518083038186803b15801561022357600080fd5b505afa158015610237573d6000803e3d6000fd5b505050506040513d601f19601f8201168201806040525081019061025b9190610474565b61034160201b6100551760201c565b6102cf5760405162461bcd60e51b815260206004820152603060248201527f455243313936373a20626561636f6e20696d706c656d656e746174696f6e206960448201526f1cc81b9bdd08184818dbdb9d1c9858dd60821b60648201526084016101de565b806102f460008051602061094c83398151915260001b61034760201b61005b1760201c565b80546001600160a01b0319166001600160a01b039290921691909117905550565b606061033a838360405180606001604052806027815260200161096c6027913961034a565b9392505050565b3b151590565b90565b6060833b6103a95760405162461bcd60e51b815260206004820152602660248201527f416464726573733a2064656c65676174652063616c6c20746f206e6f6e2d636f6044820152651b9d1c9858dd60d21b60648201526084016101de565b600080856001600160a01b0316856040516103c4919061054a565b600060405180830381855af49150503d80600081146103ff576040519150601f19603f3d011682016040523d82523d6000602084013e610404565b606091505b50909250905061041582828661041f565b9695505050505050565b6060831561042e57508161033a565b82511561043e5782518084602001fd5b8160405162461bcd60e51b81526004016101de9190610566565b80516001600160a01b038116811461046f57600080fd5b919050565b600060208284031215610485578081fd5b61033a82610458565b600080604083850312156104a0578081fd5b6104a983610458565b60208401519092506001600160401b03808211156104c5578283fd5b818501915085601f8301126104d8578283fd5b8151818111156104ea576104ea6105e8565b604051601f8201601f19908116603f01168101908382118183101715610512576105126105e8565b8160405282815288602084870101111561052a578586fd5b61053b8360208301602088016105bc565b80955050505050509250929050565b6000825161055c8184602087016105bc565b9190910192915050565b60208152600082518060208401526105858160408501602087016105bc565b601f01601f19169190910160400192915050565b6000828210156105b757634e487b7160e01b81526011600452602481fd5b500390565b60005b838110156105d75781810151838201526020016105bf565b8381111561016e5750506000910152565b634e487b7160e01b600052604160045260246000fd5b61033f8061060d6000396000f3fe60806040523661001357610011610017565b005b6100115b61002761002261005e565b610106565b565b606061004e83836040518060600160405280602781526020016102e36027913961012a565b9392505050565b3b151590565b90565b60006100917fa3f0ad74e5423aebfd80d3ef4346578335a9a72aeaee59ff6cb3582b35133d50546001600160a01b031690565b6001600160a01b0316635c60da1b6040518163ffffffff1660e01b815260040160206040518083038186803b1580156100c957600080fd5b505afa1580156100dd573d6000803e3d6000fd5b505050506040513d601f19601f82011682018060405250810190610101919061023c565b905090565b3660008037600080366000845af43d6000803e808015610125573d6000f35b3d6000fd5b6060833b61018e5760405162461bcd60e51b815260206004820152602660248201527f416464726573733a2064656c65676174652063616c6c20746f206e6f6e2d636f6044820152651b9d1c9858dd60d21b60648201526084015b60405180910390fd5b600080856001600160a01b0316856040516101a99190610263565b600060405180830381855af49150503d80600081146101e4576040519150601f19603f3d011682016040523d82523d6000602084013e6101e9565b606091505b50915091506101f9828286610203565b9695505050505050565b6060831561021257508161004e565b8251156102225782518084602001fd5b8160405162461bcd60e51b8152600401610185919061027f565b60006020828403121561024d578081fd5b81516001600160a01b038116811461004e578182fd5b600082516102758184602087016102b2565b9190910192915050565b602081526000825180602084015261029e8160408501602087016102b2565b601f01601f19169190910160400192915050565b60005b838110156102cd5781810151838201526020016102b5565b838111156102dc576000848401525b5050505056fe416464726573733a206c6f772d6c6576656c2064656c65676174652063616c6c206661696c6564a2646970667358221220160d85a29a84cf838180163b1113ca1cb351c7530a3b24652adb9dd2f2505a0764736f6c63430008040033a3f0ad74e5423aebfd80d3ef4346578335a9a72aeaee59ff6cb3582b35133d50416464726573733a206c6f772d6c6576656c2064656c65676174652063616c6c206661696c6564676f7665726e616e636520616374696f6e20616c726561647920636f6e73756d6564a2646970667358221220a39edb0d7da1961fa04ba2c4c77e1cc264a960743a00f3e8c0cc76c84a5d6f0b64736f6c63430008040033",
    "linkReferences": {}
  },
  "methodIdentifiers": {
    "bridgeContracts(uint16)": "ad66a5f1",
    "chainId()": "9a8a0592",
    "completeTransfer(bytes)": "c6878519",
    "encodeTransfer((bytes32,uint16,bytes32,bytes32,uint256,string,bytes32,uint16))": "e6a853e0",
    "finality()": "739fc8d1",
    "governanceActionIsConsumed(bytes32)": "2c3c02a4",
    "governanceChainId()": "fbe3c2cd",
    "governanceContract()": "b172b222",
    "implementation()": "5c60da1b",
    "initialize()": "8129fc1c",
    "isInitialized(address)": "d60b347f",
    "isTransferCompleted(bytes32)": "aa4efa5b",
    "isWrappedAsset(address)": "1a2be4da",
    "onERC721Received(address,address,uint256,bytes)": "150b7a02",
    "parseRegisterChain(bytes)": "01f53255",
    "parseTransfer(bytes)": "2b511375",
    "parseUpgrade(bytes)": "fbeeacd9",
    "registerChain(bytes)": "a5799f93",
    "splCache(uint256)": "3ca64826",
    "tokenImplementation()": "2f3a3d5d",
    "transferNFT(address,uint256,uint16,bytes32,uint32)": "c96616e1",
    "upgrade(bytes)": "25394645",
    "wormhole()": "84acd1bb",
    "wrappedAsset(uint16,bytes32)": "1ff1e286"
  },
  "id": 29
}