{
  "abi": [
    {
      "anonymous": false,
      "inputs": [
        {
          "indexed": false,
          "internalType": "address",
          "name": "previousAdmin",
          "type": "address"
        },
        {
          "indexed": false,
          "internalType": "address",
          "name": "newAdmin",
          "type": "address"
        }
      ],
      "name": "AdminChanged",
      "type": "event"
    },
    {
      "anonymous": false,
      "inputs": [
        {
          "indexed": true,
          "internalType": "address",
          "name": "beacon",
          "type": "address"
        }
      ],
      "name": "BeaconUpgraded",
      "type": "event"
    },
    {
      "anonymous": false,
      "inputs": [
        {
          "indexed": true,
          "internalType": "address",
          "name": "oldContract",
          "type": "address"
        },
        {
          "indexed": true,
          "internalType": "address",
          "name": "newContract",
          "type": "address"
        }
      ],
      "name": "ContractUpgraded",
      "type": "event"
    },
    {
      "anonymous": false,
      "inputs": [
        {
          "indexed": true,
          "internalType": "address",
          "name": "implementation",
          "type": "address"
        }
      ],
      "name": "Upgraded",
      "type": "event"
    },
    {
      "inputs": [],
      "name": "WETH",
      "outputs": [
        {
          "internalType": "contract IWETH",
          "name": "",
          "type": "address"
        }
      ],
      "stateMutability": "view",
      "type": "function"
    },
    {
      "inputs": [
        {
          "internalType": "bytes",
          "name": "encoded",
          "type": "bytes"
        }
      ],
      "name": "_parseTransferCommon",
      "outputs": [
        {
          "components": [
            {
              "internalType": "uint8",
              "name": "payloadID",
              "type": "uint8"
            },
            {
              "internalType": "uint256",
              "name": "amount",
              "type": "uint256"
            },
            {
              "internalType": "bytes32",
              "name": "tokenAddress",
              "type": "bytes32"
            },
            {
              "internalType": "uint16",
              "name": "tokenChain",
              "type": "uint16"
            },
            {
              "internalType": "bytes32",
              "name": "to",
              "type": "bytes32"
            },
            {
              "internalType": "uint16",
              "name": "toChain",
              "type": "uint16"
            },
            {
              "internalType": "uint256",
              "name": "fee",
              "type": "uint256"
            }
          ],
          "internalType": "struct BridgeStructs.Transfer",
          "name": "transfer",
          "type": "tuple"
        }
      ],
      "stateMutability": "pure",
      "type": "function"
    },
    {
      "inputs": [
        {
          "internalType": "address",
          "name": "tokenAddress",
          "type": "address"
        },
        {
          "internalType": "uint32",
          "name": "nonce",
          "type": "uint32"
        }
      ],
      "name": "attestToken",
      "outputs": [
        {
          "internalType": "uint64",
          "name": "sequence",
          "type": "uint64"
        }
      ],
      "stateMutability": "payable",
      "type": "function"
    },
    {
      "inputs": [
        {
          "internalType": "uint16",
          "name": "chainId_",
          "type": "uint16"
        }
      ],
      "name": "bridgeContracts",
      "outputs": [
        {
          "internalType": "bytes32",
          "name": "",
          "type": "bytes32"
        }
      ],
      "stateMutability": "view",
      "type": "function"
    },
    {
      "inputs": [],
      "name": "chainId",
      "outputs": [
        {
          "internalType": "uint16",
          "name": "",
          "type": "uint16"
        }
      ],
      "stateMutability": "view",
      "type": "function"
    },
    {
      "inputs": [
        {
          "internalType": "bytes",
          "name": "encodedVm",
          "type": "bytes"
        }
      ],
      "name": "completeTransfer",
      "outputs": [],
      "stateMutability": "nonpayable",
      "type": "function"
    },
    {
      "inputs": [
        {
          "internalType": "bytes",
          "name": "encodedVm",
          "type": "bytes"
        }
      ],
      "name": "completeTransferAndUnwrapETH",
      "outputs": [],
      "stateMutability": "nonpayable",
      "type": "function"
    },
    {
      "inputs": [
        {
          "internalType": "bytes",
          "name": "encodedVm",
          "type": "bytes"
        }
      ],
      "name": "completeTransferAndUnwrapETHWithPayload",
      "outputs": [
        {
          "internalType": "bytes",
          "name": "",
          "type": "bytes"
        }
      ],
      "stateMutability": "nonpayable",
      "type": "function"
    },
    {
      "inputs": [
        {
          "internalType": "bytes",
          "name": "encodedVm",
          "type": "bytes"
        }
      ],
      "name": "completeTransferWithPayload",
      "outputs": [
        {
          "internalType": "bytes",
          "name": "",
          "type": "bytes"
        }
      ],
      "stateMutability": "nonpayable",
      "type": "function"
    },
    {
      "inputs": [
        {
          "internalType": "bytes",
          "name": "encodedVm",
          "type": "bytes"
        }
      ],
      "name": "createWrapped",
      "outputs": [
        {
          "internalType": "address",
          "name": "token",
          "type": "address"
        }
      ],
      "stateMutability": "nonpayable",
      "type": "function"
    },
    {
      "inputs": [
        {
          "components": [
            {
              "internalType": "uint8",
              "name": "payloadID",
              "type": "uint8"
            },
            {
              "internalType": "bytes32",
              "name": "tokenAddress",
              "type": "bytes32"
            },
            {
              "internalType": "uint16",
              "name": "tokenChain",
              "type": "uint16"
            },
            {
              "internalType": "uint8",
              "name": "decimals",
              "type": "uint8"
            },
            {
              "internalType": "bytes32",
              "name": "symbol",
              "type": "bytes32"
            },
            {
              "internalType": "bytes32",
              "name": "name",
              "type": "bytes32"
            }
          ],
          "internalType": "struct BridgeStructs.AssetMeta",
          "name": "meta",
          "type": "tuple"
        }
      ],
      "name": "encodeAssetMeta",
      "outputs": [
        {
          "internalType": "bytes",
          "name": "encoded",
          "type": "bytes"
        }
      ],
      "stateMutability": "pure",
      "type": "function"
    },
    {
      "inputs": [
        {
          "components": [
            {
              "internalType": "uint8",
              "name": "payloadID",
              "type": "uint8"
            },
            {
              "internalType": "uint256",
              "name": "amount",
              "type": "uint256"
            },
            {
              "internalType": "bytes32",
              "name": "tokenAddress",
              "type": "bytes32"
            },
            {
              "internalType": "uint16",
              "name": "tokenChain",
              "type": "uint16"
            },
            {
              "internalType": "bytes32",
              "name": "to",
              "type": "bytes32"
            },
            {
              "internalType": "uint16",
              "name": "toChain",
              "type": "uint16"
            },
            {
              "internalType": "uint256",
              "name": "fee",
              "type": "uint256"
            }
          ],
          "internalType": "struct BridgeStructs.Transfer",
          "name": "transfer",
          "type": "tuple"
        }
      ],
      "name": "encodeTransfer",
      "outputs": [
        {
          "internalType": "bytes",
          "name": "encoded",
          "type": "bytes"
        }
      ],
      "stateMutability": "pure",
      "type": "function"
    },
    {
      "inputs": [
        {
          "components": [
            {
              "internalType": "uint8",
              "name": "payloadID",
              "type": "uint8"
            },
            {
              "internalType": "uint256",
              "name": "amount",
              "type": "uint256"
            },
            {
              "internalType": "bytes32",
              "name": "tokenAddress",
              "type": "bytes32"
            },
            {
              "internalType": "uint16",
              "name": "tokenChain",
              "type": "uint16"
            },
            {
              "internalType": "bytes32",
              "name": "to",
              "type": "bytes32"
            },
            {
              "internalType": "uint16",
              "name": "toChain",
              "type": "uint16"
            },
            {
              "internalType": "bytes32",
              "name": "fromAddress",
              "type": "bytes32"
            },
            {
              "internalType": "bytes",
              "name": "payload",
              "type": "bytes"
            }
          ],
          "internalType": "struct BridgeStructs.TransferWithPayload",
          "name": "transfer",
          "type": "tuple"
        }
      ],
      "name": "encodeTransferWithPayload",
      "outputs": [
        {
          "internalType": "bytes",
          "name": "encoded",
          "type": "bytes"
        }
      ],
      "stateMutability": "pure",
      "type": "function"
    },
    {
      "inputs": [],
      "name": "finality",
      "outputs": [
        {
          "internalType": "uint8",
          "name": "",
          "type": "uint8"
        }
      ],
      "stateMutability": "view",
      "type": "function"
    },
    {
      "inputs": [
        {
          "internalType": "bytes32",
          "name": "hash",
          "type": "bytes32"
        }
      ],
      "name": "governanceActionIsConsumed",
      "outputs": [
        {
          "internalType": "bool",
          "name": "",
          "type": "bool"
        }
      ],
      "stateMutability": "view",
      "type": "function"
    },
    {
      "inputs": [],
      "name": "governanceChainId",
      "outputs": [
        {
          "internalType": "uint16",
          "name": "",
          "type": "uint16"
        }
      ],
      "stateMutability": "view",
      "type": "function"
    },
    {
      "inputs": [],
      "name": "governanceContract",
      "outputs": [
        {
          "internalType": "bytes32",
          "name": "",
          "type": "bytes32"
        }
      ],
      "stateMutability": "view",
      "type": "function"
    },
    {
      "inputs": [],
      "name": "implementation",
      "outputs": [
        {
          "internalType": "address",
          "name": "",
          "type": "address"
        }
      ],
      "stateMutability": "view",
      "type": "function"
    },
    {
      "inputs": [],
      "name": "initialize",
      "outputs": [],
      "stateMutability": "nonpayable",
      "type": "function"
    },
    {
      "inputs": [
        {
          "internalType": "address",
          "name": "impl",
          "type": "address"
        }
      ],
      "name": "isInitialized",
      "outputs": [
        {
          "internalType": "bool",
          "name": "",
          "type": "bool"
        }
      ],
      "stateMutability": "view",
      "type": "function"
    },
    {
      "inputs": [
        {
          "internalType": "bytes32",
          "name": "hash",
          "type": "bytes32"
        }
      ],
      "name": "isTransferCompleted",
      "outputs": [
        {
          "internalType": "bool",
          "name": "",
          "type": "bool"
        }
      ],
      "stateMutability": "view",
      "type": "function"
    },
    {
      "inputs": [
        {
          "internalType": "address",
          "name": "token",
          "type": "address"
        }
      ],
      "name": "isWrappedAsset",
      "outputs": [
        {
          "internalType": "bool",
          "name": "",
          "type": "bool"
        }
      ],
      "stateMutability": "view",
      "type": "function"
    },
    {
      "inputs": [
        {
          "internalType": "address",
          "name": "token",
          "type": "address"
        }
      ],
      "name": "outstandingBridged",
      "outputs": [
        {
          "internalType": "uint256",
          "name": "",
          "type": "uint256"
        }
      ],
      "stateMutability": "view",
      "type": "function"
    },
    {
      "inputs": [
        {
          "internalType": "bytes",
          "name": "encoded",
          "type": "bytes"
        }
      ],
      "name": "parseAssetMeta",
      "outputs": [
        {
          "components": [
            {
              "internalType": "uint8",
              "name": "payloadID",
              "type": "uint8"
            },
            {
              "internalType": "bytes32",
              "name": "tokenAddress",
              "type": "bytes32"
            },
            {
              "internalType": "uint16",
              "name": "tokenChain",
              "type": "uint16"
            },
            {
              "internalType": "uint8",
              "name": "decimals",
              "type": "uint8"
            },
            {
              "internalType": "bytes32",
              "name": "symbol",
              "type": "bytes32"
            },
            {
              "internalType": "bytes32",
              "name": "name",
              "type": "bytes32"
            }
          ],
          "internalType": "struct BridgeStructs.AssetMeta",
          "name": "meta",
          "type": "tuple"
        }
      ],
      "stateMutability": "pure",
      "type": "function"
    },
    {
      "inputs": [
        {
          "internalType": "bytes",
          "name": "encoded",
          "type": "bytes"
        }
      ],
      "name": "parsePayloadID",
      "outputs": [
        {
          "internalType": "uint8",
          "name": "payloadID",
          "type": "uint8"
        }
      ],
      "stateMutability": "pure",
      "type": "function"
    },
    {
      "inputs": [
        {
          "internalType": "bytes",
          "name": "encoded",
          "type": "bytes"
        }
      ],
      "name": "parseRegisterChain",
      "outputs": [
        {
          "components": [
            {
              "internalType": "bytes32",
              "name": "module",
              "type": "bytes32"
            },
            {
              "internalType": "uint8",
              "name": "action",
              "type": "uint8"
            },
            {
              "internalType": "uint16",
              "name": "chainId",
              "type": "uint16"
            },
            {
              "internalType": "uint16",
              "name": "emitterChainID",
              "type": "uint16"
            },
            {
              "internalType": "bytes32",
              "name": "emitterAddress",
              "type": "bytes32"
            }
          ],
          "internalType": "struct BridgeStructs.RegisterChain",
          "name": "chain",
          "type": "tuple"
        }
      ],
      "stateMutability": "pure",
      "type": "function"
    },
    {
      "inputs": [
        {
          "internalType": "bytes",
          "name": "encoded",
          "type": "bytes"
        }
      ],
      "name": "parseTransfer",
      "outputs": [
        {
          "components": [
            {
              "internalType": "uint8",
              "name": "payloadID",
              "type": "uint8"
            },
            {
              "internalType": "uint256",
              "name": "amount",
              "type": "uint256"
            },
            {
              "internalType": "bytes32",
              "name": "tokenAddress",
              "type": "bytes32"
            },
            {
              "internalType": "uint16",
              "name": "tokenChain",
              "type": "uint16"
            },
            {
              "internalType": "bytes32",
              "name": "to",
              "type": "bytes32"
            },
            {
              "internalType": "uint16",
              "name": "toChain",
              "type": "uint16"
            },
            {
              "internalType": "uint256",
              "name": "fee",
              "type": "uint256"
            }
          ],
          "internalType": "struct BridgeStructs.Transfer",
          "name": "transfer",
          "type": "tuple"
        }
      ],
      "stateMutability": "pure",
      "type": "function"
    },
    {
      "inputs": [
        {
          "internalType": "bytes",
          "name": "encoded",
          "type": "bytes"
        }
      ],
      "name": "parseTransferWithPayload",
      "outputs": [
        {
          "components": [
            {
              "internalType": "uint8",
              "name": "payloadID",
              "type": "uint8"
            },
            {
              "internalType": "uint256",
              "name": "amount",
              "type": "uint256"
            },
            {
              "internalType": "bytes32",
              "name": "tokenAddress",
              "type": "bytes32"
            },
            {
              "internalType": "uint16",
              "name": "tokenChain",
              "type": "uint16"
            },
            {
              "internalType": "bytes32",
              "name": "to",
              "type": "bytes32"
            },
            {
              "internalType": "uint16",
              "name": "toChain",
              "type": "uint16"
            },
            {
              "internalType": "bytes32",
              "name": "fromAddress",
              "type": "bytes32"
            },
            {
              "internalType": "bytes",
              "name": "payload",
              "type": "bytes"
            }
          ],
          "internalType": "struct BridgeStructs.TransferWithPayload",
          "name": "transfer",
          "type": "tuple"
        }
      ],
      "stateMutability": "pure",
      "type": "function"
    },
    {
      "inputs": [
        {
          "internalType": "bytes",
          "name": "encoded",
          "type": "bytes"
        }
      ],
      "name": "parseUpgrade",
      "outputs": [
        {
          "components": [
            {
              "internalType": "bytes32",
              "name": "module",
              "type": "bytes32"
            },
            {
              "internalType": "uint8",
              "name": "action",
              "type": "uint8"
            },
            {
              "internalType": "uint16",
              "name": "chainId",
              "type": "uint16"
            },
            {
              "internalType": "bytes32",
              "name": "newContract",
              "type": "bytes32"
            }
          ],
          "internalType": "struct BridgeStructs.UpgradeContract",
          "name": "chain",
          "type": "tuple"
        }
      ],
      "stateMutability": "pure",
      "type": "function"
    },
    {
      "inputs": [
        {
          "internalType": "bytes",
          "name": "encodedVM",
          "type": "bytes"
        }
      ],
      "name": "registerChain",
      "outputs": [],
      "stateMutability": "nonpayable",
      "type": "function"
    },
    {
      "inputs": [],
      "name": "testNewImplementationActive",
      "outputs": [
        {
          "internalType": "bool",
          "name": "",
          "type": "bool"
        }
      ],
      "stateMutability": "pure",
      "type": "function"
    },
    {
      "inputs": [
        {
          "internalType": "address",
          "name": "WETH",
          "type": "address"
        }
      ],
      "name": "testUpdateWETHAddress",
      "outputs": [],
      "stateMutability": "nonpayable",
      "type": "function"
    },
    {
      "inputs": [],
      "name": "tokenImplementation",
      "outputs": [
        {
          "internalType": "address",
          "name": "",
          "type": "address"
        }
      ],
      "stateMutability": "view",
      "type": "function"
    },
    {
      "inputs": [
        {
          "internalType": "address",
          "name": "token",
          "type": "address"
        },
        {
          "internalType": "uint256",
          "name": "amount",
          "type": "uint256"
        },
        {
          "internalType": "uint16",
          "name": "recipientChain",
          "type": "uint16"
        },
        {
          "internalType": "bytes32",
          "name": "recipient",
          "type": "bytes32"
        },
        {
          "internalType": "uint256",
          "name": "arbiterFee",
          "type": "uint256"
        },
        {
          "internalType": "uint32",
          "name": "nonce",
          "type": "uint32"
        }
      ],
      "name": "transferTokens",
      "outputs": [
        {
          "internalType": "uint64",
          "name": "sequence",
          "type": "uint64"
        }
      ],
      "stateMutability": "payable",
      "type": "function"
    },
    {
      "inputs": [
        {
          "internalType": "address",
          "name": "token",
          "type": "address"
        },
        {
          "internalType": "uint256",
          "name": "amount",
          "type": "uint256"
        },
        {
          "internalType": "uint16",
          "name": "recipientChain",
          "type": "uint16"
        },
        {
          "internalType": "bytes32",
          "name": "recipient",
          "type": "bytes32"
        },
        {
          "internalType": "uint32",
          "name": "nonce",
          "type": "uint32"
        },
        {
          "internalType": "bytes",
          "name": "payload",
          "type": "bytes"
        }
      ],
      "name": "transferTokensWithPayload",
      "outputs": [
        {
          "internalType": "uint64",
          "name": "sequence",
          "type": "uint64"
        }
      ],
      "stateMutability": "payable",
      "type": "function"
    },
    {
      "inputs": [
        {
          "internalType": "bytes",
          "name": "encodedVm",
          "type": "bytes"
        }
      ],
      "name": "updateWrapped",
      "outputs": [
        {
          "internalType": "address",
          "name": "token",
          "type": "address"
        }
      ],
      "stateMutability": "nonpayable",
      "type": "function"
    },
    {
      "inputs": [
        {
          "internalType": "bytes",
          "name": "encodedVM",
          "type": "bytes"
        }
      ],
      "name": "upgrade",
      "outputs": [],
      "stateMutability": "nonpayable",
      "type": "function"
    },
    {
      "inputs": [],
      "name": "wormhole",
      "outputs": [
        {
          "internalType": "contract IWormhole",
          "name": "",
          "type": "address"
        }
      ],
      "stateMutability": "view",
      "type": "function"
    },
    {
      "inputs": [
        {
          "internalType": "uint16",
          "name": "recipientChain",
          "type": "uint16"
        },
        {
          "internalType": "bytes32",
          "name": "recipient",
          "type": "bytes32"
        },
        {
          "internalType": "uint256",
          "name": "arbiterFee",
          "type": "uint256"
        },
        {
          "internalType": "uint32",
          "name": "nonce",
          "type": "uint32"
        }
      ],
      "name": "wrapAndTransferETH",
      "outputs": [
        {
          "internalType": "uint64",
          "name": "sequence",
          "type": "uint64"
        }
      ],
      "stateMutability": "payable",
      "type": "function"
    },
    {
      "inputs": [
        {
          "internalType": "uint16",
          "name": "recipientChain",
          "type": "uint16"
        },
        {
          "internalType": "bytes32",
          "name": "recipient",
          "type": "bytes32"
        },
        {
          "internalType": "uint32",
          "name": "nonce",
          "type": "uint32"
        },
        {
          "internalType": "bytes",
          "name": "payload",
          "type": "bytes"
        }
      ],
      "name": "wrapAndTransferETHWithPayload",
      "outputs": [
        {
          "internalType": "uint64",
          "name": "sequence",
          "type": "uint64"
        }
      ],
      "stateMutability": "payable",
      "type": "function"
    },
    {
      "inputs": [
        {
          "internalType": "uint16",
          "name": "tokenChainId",
          "type": "uint16"
        },
        {
          "internalType": "bytes32",
          "name": "tokenAddress",
          "type": "bytes32"
        }
      ],
      "name": "wrappedAsset",
      "outputs": [
        {
          "internalType": "address",
          "name": "",
          "type": "address"
        }
      ],
      "stateMutability": "view",
      "type": "function"
    },
    {
      "stateMutability": "payable",
      "type": "receive"
    }
  ],
  "bytecode": {
    "object": "0x608060405234801561001057600080fd5b506001600c55615a4e806100256000396000f3fe6080604052600436106200027b5760003560e01c8063aa4efa5b1162000153578063c5a5ebda11620000c5578063e89bc4011162000084578063e89bc4011462000922578063ea63738d1462000947578063f768441f146200097b578063fbe3c2cd14620009a0578063fbeeacd914620009c1578063ff200cde1462000a2157600080fd5b8063c5a5ebda146200085f578063c68785191462000876578063d56e2e24146200089b578063d60b347f14620008c0578063e805981014620008fd57600080fd5b8063b62681461162000112578063b62681461462000795578063b96c7e4d14620007d2578063bee9cdfc146200080c578063c3f511c11462000823578063c48fa115146200084857600080fd5b8063aa4efa5b14620006c1578063ad5c464814620006f5578063ad66a5f11462000715578063b046223b1462000759578063b172b222146200077e57600080fd5b80632c3c02a411620001ed5780638129fc1c11620001ac5780638129fc1c146200062357806384acd1bb146200063b5780639981509f146200065b5780639a8a05921462000672578063a5799f93146200069c57600080fd5b80632c3c02a414620005705780632f3a3d5d14620005a45780635c60da1b14620005c45780635f85426614620005dc578063739fc8d1146200060157600080fd5b80631c8475e4116200023a5780631c8475e414620004385780631f8cdb2b146200046c5780631ff1e28614620004825780632539464514620004c05780632b51137514620004e757600080fd5b806301f53255146200028857806307dfd8fb14620003065780630f50900814620003825780630f5287b014620003ba5780631a2be4da14620003ea57600080fd5b366200028357005b600080fd5b3480156200029557600080fd5b50620002ad620002a736600462004511565b62000a46565b604051620002fd9190600060a0820190508251825260ff6020840151166020830152604083015161ffff808216604085015280606086015116606085015250506080830151608083015292915050565b60405180910390f35b3480156200031357600080fd5b506200032b6200032536600462004511565b62000c50565b604051620002fd9190600060c08201905060ff83511682526020830151602083015261ffff604084015116604083015260ff60608401511660608301526080830151608083015260a083015160a083015292915050565b3480156200038f57600080fd5b50620003a7620003a136600462004511565b62000ddf565b60405160ff9091168152602001620002fd565b620003d1620003cb36600462004390565b62000df3565b6040516001600160401b039091168152602001620002fd565b348015620003f757600080fd5b50620004276200040936600462004373565b6001600160a01b031660009081526009602052604090205460ff1690565b6040519015158152602001620002fd565b3480156200044557600080fd5b506200045d6200045736600462004511565b62000e97565b604051620002fd919062004b75565b3480156200047957600080fd5b50600162000427565b3480156200048f57600080fd5b50620004a7620004a13660046200493b565b62000ea6565b6040516001600160a01b039091168152602001620002fd565b348015620004cd57600080fd5b50620004e5620004df36600462004511565b62000ed2565b005b348015620004f457600080fd5b506200050c6200050636600462004511565b62000fb6565b604051620002fd9190600060e08201905060ff83511682526020830151602083015260408301516040830152606083015161ffff8082166060850152608085015160808501528060a08601511660a0850152505060c083015160c083015292915050565b3480156200057d57600080fd5b50620004276200058f366004620044df565b60009081526005602052604090205460ff1690565b348015620005b157600080fd5b506001546001600160a01b0316620004a7565b348015620005d157600080fd5b50620004a762001127565b348015620005e957600080fd5b506200045d620005fb366004620046e9565b62001141565b3480156200060e57600080fd5b50600254640100000000900460ff16620003a7565b3480156200063057600080fd5b50620004e5620011d6565b3480156200064857600080fd5b506000546001600160a01b0316620004a7565b620003d16200066c36600462004969565b620012a0565b3480156200067f57600080fd5b5060025461ffff165b60405161ffff9091168152602001620002fd565b348015620006a957600080fd5b50620004e5620006bb36600462004511565b620012e0565b348015620006ce57600080fd5b5062000427620006e0366004620044df565b60009081526006602052604090205460ff1690565b3480156200070257600080fd5b506004546001600160a01b0316620004a7565b3480156200072257600080fd5b506200074a62000734366004620048fd565b61ffff166000908152600b602052604090205490565b604051908152602001620002fd565b3480156200076657600080fd5b506200045d620007783660046200457d565b6200144d565b3480156200078b57600080fd5b506003546200074a565b348015620007a257600080fd5b50620004e5620007b436600462004373565b600480546001600160a01b0319166001600160a01b03831617905550565b348015620007df57600080fd5b506200074a620007f136600462004373565b6001600160a01b03166000908152600a602052604090205490565b620003d16200081d366004620049b7565b620014c6565b3480156200083057600080fd5b506200045d6200084236600462004511565b620014f9565b620003d16200085936600462004487565b62001508565b620003d162000870366004620043fb565b6200182d565b3480156200088357600080fd5b50620004e56200089536600462004511565b620018bc565b348015620008a857600080fd5b506200045d620008ba36600462004617565b620018cd565b348015620008cd57600080fd5b5062000427620008df36600462004373565b6001600160a01b031660009081526007602052604090205460ff1690565b3480156200090a57600080fd5b50620004a76200091c36600462004511565b62001910565b3480156200092f57600080fd5b506200050c6200094136600462004511565b62001a25565b3480156200095457600080fd5b506200096c6200096636600462004511565b62001b31565b604051620002fd919062004c8d565b3480156200098857600080fd5b50620004a76200099a36600462004511565b62001cae565b348015620009ad57600080fd5b5060025462010000900461ffff1662000688565b348015620009ce57600080fd5b50620009e6620009e036600462004511565b62001dc3565b604051620002fd91908151815260208083015160ff169082015260408083015161ffff16908201526060918201519181019190915260800190565b34801562000a2e57600080fd5b50620004e562000a4036600462004511565b62001f9e565b6040805160a08101825260008082526020820181905291810182905260608101829052608081018290529062000a7d838262001fab565b825262000a8c60208262004e10565b82519091506a546f6b656e4272696467651462000afc5760405162461bcd60e51b815260206004820152602360248201527f696e76616c6964205265676973746572436861696e3a2077726f6e67206d6f64604482015262756c6560e81b60648201526084015b60405180910390fd5b62000b0883826200200d565b60ff16602083015262000b1d60018262004e10565b9050816020015160ff1660011462000b845760405162461bcd60e51b815260206004820152602360248201527f696e76616c6964205265676973746572436861696e3a2077726f6e672061637460448201526234b7b760e91b606482015260840162000af3565b62000b9083826200206d565b61ffff16604083015262000ba660028262004e10565b905062000bb483826200206d565b61ffff16606083015262000bca60028262004e10565b905062000bd8838262001fab565b608083015262000bea60208262004e10565b90508083511462000c4a5760405162461bcd60e51b815260206004820152602360248201527f696e76616c6964205265676973746572436861696e3a2077726f6e67206c656e6044820152620cee8d60eb1b606482015260840162000af3565b50919050565b6040805160c081018252600080825260208201819052918101829052606081018290526080810182905260a081018290529062000c8e83826200200d565b60ff16825262000ca060018262004e10565b9050816000015160ff1660021462000cef5760405162461bcd60e51b8152602060048201526011602482015270696e76616c69642041737365744d65746160781b604482015260640162000af3565b62000cfb838262001fab565b60208084019190915262000d10908262004e10565b905062000d1e83826200206d565b61ffff16604083015262000d3460028262004e10565b905062000d4283826200200d565b60ff16606083015262000d5760018262004e10565b905062000d65838262001fab565b608083015262000d7760208262004e10565b905062000d85838262001fab565b60a083015262000d9760208262004e10565b90508083511462000c4a5760405162461bcd60e51b8152602060048201526011602482015270696e76616c69642041737365744d65746160781b604482015260640162000af3565b600062000ded82826200200d565b92915050565b60006002600c54141562000e4a5760405162461bcd60e51b815260206004820152601f60248201527f5265656e7472616e637947756172643a207265656e7472616e742063616c6c00604482015260640162000af3565b6002600c55600062000e5e888886620020ce565b905062000e868160000151826020015183604001518989866060015187608001518a6200257e565b6001600c5598975050505050505050565b606062000ded826001620026d0565b61ffff91909116600090815260086020908152604080832093835292905220546001600160a01b031690565b600080600062000ee28462002e43565b92509250925081819062000f0b5760405162461bcd60e51b815260040162000af3919062004b75565b5062000f318361014001516000908152600560205260409020805460ff19166001179055565b600062000f428460e0015162001dc3565b905062000f5260025461ffff1690565b61ffff16816040015161ffff161462000f9f5760405162461bcd60e51b815260206004820152600e60248201526d1ddc9bdb99c818da185a5b881a5960921b604482015260640162000af3565b606081015162000faf9062003072565b5050505050565b6040805160e081018252600080825260208201819052918101829052606081018290526080810182905260a0810182905260c081018290529062000ffb83826200200d565b60ff1682526200100d60018262004e10565b9050816000015160ff16600114620010395760405162461bcd60e51b815260040162000af39062004c63565b620010458382620031a9565b6020808401919091526200105a908262004e10565b905062001068838262001fab565b60408301526200107a60208262004e10565b90506200108883826200206d565b61ffff1660608301526200109e60028262004e10565b9050620010ac838262001fab565b6080830152620010be60208262004e10565b9050620010cc83826200206d565b61ffff1660a0830152620010e260028262004e10565b9050620010f08382620031a9565b60c08301526200110260208262004e10565b90508083511462000c4a5760405162461bcd60e51b815260040162000af39062004c63565b60006200113c6001546001600160a01b031690565b905090565b8051602080830151604080850151606080870151608088015160a089015160c08a0151955160f89990991b6001600160f81b031916978901979097526021880195909552604187019290925260f091821b6001600160f01b03199081166061880152606387019490945293901b909116608384015260858301529060a5015b6040516020818303038152906040529050919050565b60006200120a7f360894a13ba1a3210667c828492db98dca3e2076cc3735a920a3ca505d382bbc546001600160a01b031690565b90506200122f816001600160a01b031660009081526007602052604090205460ff1690565b15620012745760405162461bcd60e51b8152602060048201526013602482015272185b1c9958591e481a5b9a5d1a585b1a5e9959606a1b604482015260640162000af3565b6200129d816001600160a01b03166000908152600760205260409020805460ff19166001179055565b50565b600080620012ae8462003202565b9050620012d68160000151826020015183604001518989866060015187608001518a6200257e565b9695505050505050565b6000806000620012f08462002e43565b925092509250818190620013195760405162461bcd60e51b815260040162000af3919062004b75565b506200133f8361014001516000908152600560205260409020805460ff19166001179055565b6000620013508460e0015162000a46565b90506200136060025461ffff1690565b61ffff16816040015161ffff161480620013805750604081015161ffff16155b620013c15760405162461bcd60e51b815260206004820152601060248201526f1a5b9d985b1a590818da185a5b881a5960821b604482015260640162000af3565b606081015161ffff166000908152600b602052604081205414620014285760405162461bcd60e51b815260206004820152601860248201527f636861696e20616c726561647920726567697374657265640000000000000000604482015260640162000af3565b62000faf8160600151826080015161ffff9091166000908152600b6020526040902055565b8051602080830151604080850151606080870151608088015160a0890151945160f898891b6001600160f81b031990811698820198909852602181019690965260f09390931b6001600160f01b031916604186015290951b909316604383015260448201929092526064810191909152608401620011c0565b600080620014d5600062003202565b9050620012d6816000015182602001518360400151898986608001518a8a620034dc565b606062000ded826000620026d0565b60408051600481526024810182526020810180516001600160e01b031663313ce56760e01b179052905160009182916001600160a01b038616916200154d9162004a92565b600060405180830381855afa9150503d80600081146200158a576040519150601f19603f3d011682016040523d82523d6000602084013e6200158f565b606091505b5060408051600481526024810182526020810180516001600160e01b03166395d89b4160e01b1790529051919350600092506001600160a01b03871691620015d8919062004a92565b600060405180830381855afa9150503d806000811462001615576040519150601f19603f3d011682016040523d82523d6000602084013e6200161a565b606091505b5060408051600481526024810182526020810180516001600160e01b03166306fdde0360e01b1790529051919350600092506001600160a01b0388169162001663919062004a92565b600060405180830381855afa9150503d8060008114620016a0576040519150601f19603f3d011682016040523d82523d6000602084013e620016a5565b606091505b50915050600083806020019051810190620016c1919062004a45565b9050600083806020019051810190620016db919062004547565b9050600083806020019051810190620016f5919062004547565b9050600080602084015191506020830151905060006040518060c00160405280600260ff1681526020018d6001600160a01b031660001b81526020016200173f60025461ffff1690565b61ffff1681526020018760ff16815260200184815260200183815250905060006200176a826200144d565b90506200177f6000546001600160a01b031690565b6001600160a01b031663b19a437e348e84620017a660025460ff6401000000009091041690565b6040518563ffffffff1660e01b8152600401620017c69392919062004d08565b6020604051808303818588803b158015620017e057600080fd5b505af1158015620017f5573d6000803e3d6000fd5b50505050506040513d601f19601f820116820180604052508101906200181c919062004a28565b9d9c50505050505050505050505050565b60006002600c541415620018845760405162461bcd60e51b815260206004820152601f60248201527f5265656e7472616e637947756172643a207265656e7472616e742063616c6c00604482015260640162000af3565b6002600c55600062001898888883620020ce565b905062000e86816000015182602001518360400151898986608001518a8a620034dc565b620018c9816000620026d0565b5050565b6060816000015182602001518360400151846060015185608001518660a001518760c001518860e00151604051602001620011c098979695949392919062004ae3565b600080600080620019296000546001600160a01b031690565b6001600160a01b031663c0fd8bde866040518263ffffffff1660e01b815260040162001956919062004b75565b60006040518083038186803b1580156200196f57600080fd5b505afa15801562001984573d6000803e3d6000fd5b505050506040513d6000823e601f3d908101601f19168201604052620019ae91908101906200478e565b925092509250818190620019d75760405162461bcd60e51b815260040162000af3919062004b75565b50620019e38362003569565b62001a025760405162461bcd60e51b815260040162000af39062004c3a565b600062001a138460e0015162000c50565b9050620012d6818560a00151620035a6565b6040805160e081018252600080825260208201819052918101829052606081018290526080810182905260a0810182905260c081018290529062001a698362000ddf565b90508060ff166001141562001a8b5762001a838362000fb6565b915062000c4a565b8060ff166003141562001af357600062001aa58462001b31565b60038452602080820151908501526040808201519085015260608082015161ffff908116918601919091526080808301519086015260a091820151169084015250600060c083015262000c4a565b60405162461bcd60e51b8152602060048201526012602482015271125b9d985b1a59081c185e5b1bd859081a5960721b604482015260640162000af3565b604080516101008101825260008082526020820181905291810182905260608082018390526080820183905260a0820183905260c0820183905260e08201529062001b7d83826200200d565b60ff16825262001b8f60018262004e10565b9050816000015160ff1660031462001bbb5760405162461bcd60e51b815260040162000af39062004c63565b62001bc78382620031a9565b60208084019190915262001bdc908262004e10565b905062001bea838262001fab565b604083015262001bfc60208262004e10565b905062001c0a83826200206d565b61ffff16606083015262001c2060028262004e10565b905062001c2e838262001fab565b608083015262001c4060208262004e10565b905062001c4e83826200206d565b61ffff1660a083015262001c6460028262004e10565b905062001c72838262001fab565b60c083015262001c8460208262004e10565b905062001ca38182855162001c9a919062004f76565b85919062003857565b60e083015250919050565b60008060008062001cc76000546001600160a01b031690565b6001600160a01b031663c0fd8bde866040518263ffffffff1660e01b815260040162001cf4919062004b75565b60006040518083038186803b15801562001d0d57600080fd5b505afa15801562001d22573d6000803e3d6000fd5b505050506040513d6000823e601f3d908101601f1916820160405262001d4c91908101906200478e565b92509250925081819062001d755760405162461bcd60e51b815260040162000af3919062004b75565b5062001d818362003569565b62001da05760405162461bcd60e51b815260040162000af39062004c3a565b600062001db18460e0015162000c50565b9050620012d6818560a0015162003972565b60408051608081018252600080825260208201819052918101829052606081018290529062001df3838262001fab565b825262001e0260208262004e10565b82519091506a546f6b656e4272696467651462001e705760405162461bcd60e51b815260206004820152602560248201527f696e76616c69642055706772616465436f6e74726163743a2077726f6e67206d6044820152646f64756c6560d81b606482015260840162000af3565b62001e7c83826200200d565b60ff16602083015262001e9160018262004e10565b9050816020015160ff1660021462001efa5760405162461bcd60e51b815260206004820152602560248201527f696e76616c69642055706772616465436f6e74726163743a2077726f6e67206160448201526431ba34b7b760d91b606482015260840162000af3565b62001f0683826200206d565b61ffff16604083015262001f1c60028262004e10565b905062001f2a838262001fab565b606083015262001f3c60208262004e10565b90508083511462000c4a5760405162461bcd60e51b815260206004820152602560248201527f696e76616c69642055706772616465436f6e74726163743a2077726f6e67206c6044820152640cadccee8d60db1b606482015260840162000af3565b620018c9816001620026d0565b600062001fba82602062004e10565b83511015620020045760405162461bcd60e51b8152602060048201526015602482015274746f427974657333325f6f75744f66426f756e647360581b604482015260640162000af3565b50016020015190565b60006200201c82600162004e10565b83511015620020645760405162461bcd60e51b8152602060048201526013602482015272746f55696e74385f6f75744f66426f756e647360681b604482015260640162000af3565b50016001015190565b60006200207c82600262004e10565b83511015620020c55760405162461bcd60e51b8152602060048201526014602482015273746f55696e7431365f6f75744f66426f756e647360601b604482015260640162000af3565b50016002015190565b6040805160a0810182526000808252602082018190529181018290526060810182905260808101919091526001600160a01b038416600090815260096020526040812054819060ff16156200221157856001600160a01b0316639a8a05926040518163ffffffff1660e01b815260040160206040518083038186803b1580156200215757600080fd5b505afa1580156200216c573d6000803e3d6000fd5b505050506040513d601f19601f820116820180604052508101906200219291906200491c565b9150856001600160a01b0316633d6c043b6040518163ffffffff1660e01b815260040160206040518083038186803b158015620021ce57600080fd5b505afa158015620021e3573d6000803e3d6000fd5b505050506040513d601f19601f82011682018060405250810190620022099190620044f8565b905062002225565b505060025461ffff166001600160a01b0385165b60408051600481526024810182526020810180516001600160e01b031663313ce56760e01b17905290516000916001600160a01b0389169162002269919062004a92565b600060405180830381855afa9150503d8060008114620022a6576040519150601f19603f3d011682016040523d82523d6000602084013e620022ab565b606091505b50915050600081806020019051810190620022c7919062004a45565b9050620022e0620022d9888362003a6d565b8262003aac565b9650620022f060025461ffff1690565b61ffff168461ffff1614156200249057604080513060248083019190915282518083039091018152604490910182526020810180516001600160e01b03166370a0823160e01b17905290516000916001600160a01b038b169162002355919062004a92565b600060405180830381855afa9150503d806000811462002392576040519150601f19603f3d011682016040523d82523d6000602084013e62002397565b606091505b50915050600081806020019051810190620023b39190620044f8565b9050620023c38a33308c62003ae1565b604080513060248083019190915282518083039091018152604490910182526020810180516001600160e01b03166370a0823160e01b17905290516000916001600160a01b038d169162002418919062004a92565b600060405180830381855afa9150503d806000811462002455576040519150601f19603f3d011682016040523d82523d6000602084013e6200245a565b606091505b50915050600081806020019051810190620024769190620044f8565b905062002484838262004f76565b9a505050505062002501565b6200249e8833308a62003ae1565b604051632770a7eb60e21b8152306004820152602481018890526001600160a01b03891690639dc29fac90604401600060405180830381600087803b158015620024e757600080fd5b505af1158015620024fc573d6000803e3d6000fd5b505050505b60006200250f888362003a6d565b905060006200251f888462003a6d565b90506200252f60025461ffff1690565b61ffff168661ffff1614156200254b576200254b8a8362003b54565b6040805160a08101825261ffff909716875260208701959095529385015250506060820152346080820152949350505050565b600086841115620025c75760405162461bcd60e51b815260206004820152601260248201527119995948195e18d959591cc8185b5bdd5b9d60721b604482015260640162000af3565b6040805160e081018252600181526020810189905290810189905261ffff808b16606083015260808201879052871660a082015260c0810185905260006200260f8262001141565b9050620026246000546001600160a01b031690565b6001600160a01b031663b19a437e8686846200264b60025460ff6401000000009091041690565b6040518563ffffffff1660e01b81526004016200266b9392919062004d08565b6020604051808303818588803b1580156200268557600080fd5b505af11580156200269a573d6000803e3d6000fd5b50505050506040513d601f19601f82011682018060405250810190620026c1919062004a28565b9b9a5050505050505050505050565b60606000806000620026ea6000546001600160a01b031690565b6001600160a01b031663c0fd8bde876040518263ffffffff1660e01b815260040162002717919062004b75565b60006040518083038186803b1580156200273057600080fd5b505afa15801562002745573d6000803e3d6000fd5b505050506040513d6000823e601f3d908101601f191682016040526200276f91908101906200478e565b925092509250818190620027985760405162461bcd60e51b815260040162000af3919062004b75565b50620027a48362003569565b620027c35760405162461bcd60e51b815260040162000af39062004c3a565b6000620027d48460e0015162001a25565b90506000620027e7826080015162003c21565b9050816000015160ff16600314156200284557336001600160a01b03821614620028455760405162461bcd60e51b815260206004820152600e60248201526d34b73b30b634b21039b2b73232b960911b604482015260640162000af3565b61014085015160009081526006602052604090205460ff1615620028ac5760405162461bcd60e51b815260206004820152601a60248201527f7472616e7366657220616c726561647920636f6d706c65746564000000000000604482015260640162000af3565b620028d18561014001516000908152600660205260409020805460ff19166001179055565b60025461ffff1661ffff168260a0015161ffff16146200292b5760405162461bcd60e51b815260206004820152601460248201527334b73b30b634b2103a30b933b2ba1031b430b4b760611b604482015260640162000af3565b60006200293b60025461ffff1690565b61ffff16836060015161ffff16141562002976576200295e836040015162003c21565b90506200297081846020015162003c77565b620029f7565b60006200298c8460600151856040015162000ea6565b90506001600160a01b038116620029f45760405162461bcd60e51b815260206004820152602560248201527f6e6f207772617070657220666f72207468697320746f6b656e2063726561746560448201526419081e595d60da1b606482015260840162000af3565b90505b87158062002a1257506004546001600160a01b038281169116145b62002a6c5760405162461bcd60e51b815260206004820152602360248201527f696e76616c696420746f6b656e2c2063616e206f6e6c7920756e77726170205760448201526208aa8960eb1b606482015260840162000af3565b60408051600481526024810182526020810180516001600160e01b031663313ce56760e01b17905290516000916001600160a01b0384169162002ab0919062004a92565b600060405180830381855afa9150503d806000811462002aed576040519150601f19603f3d011682016040523d82523d6000602084013e62002af2565b606091505b5091505060008180602001905181019062002b0e919062004a45565b9050600062002b2286602001518362003aac565b9050600062002b368760c001518462003aac565b905060008111801562002b5257506001600160a01b0386163314155b1562002ce4578181111562002bb55760405162461bcd60e51b815260206004820152602260248201527f66656520686967686572207468616e207472616e7366657272656420616d6f756044820152611b9d60f21b606482015260840162000af3565b8b1562002c4f5760048054604051632e1a7d4d60e01b81529182018390526001600160a01b031690632e1a7d4d90602401600060405180830381600087803b15801562002c0157600080fd5b505af115801562002c16573d6000803e3d6000fd5b505060405133925083156108fc02915083906000818181858888f1935050505015801562002c48573d6000803e3d6000fd5b5062002ce8565b60025461ffff1661ffff16876060015161ffff161462002cd1576040516340c10f1960e01b8152336004820152602481018290526001600160a01b038616906340c10f1990604401600060405180830381600087803b15801562002cb257600080fd5b505af115801562002cc7573d6000803e3d6000fd5b5050505062002ce8565b62002cde85338362003ca9565b62002ce8565b5060005b600062002cf6828462004f76565b90508c1562002d9b5760048054604051632e1a7d4d60e01b81529182018390526001600160a01b031690632e1a7d4d90602401600060405180830381600087803b15801562002d4457600080fd5b505af115801562002d59573d6000803e3d6000fd5b50506040516001600160a01b038a16925083156108fc02915083906000818181858888f1935050505015801562002d94573d6000803e3d6000fd5b5062002e2c565b60025461ffff1661ffff16886060015161ffff161462002e1f576040516340c10f1960e01b81526001600160a01b038881166004830152602482018390528716906340c10f1990604401600060405180830381600087803b15801562002e0057600080fd5b505af115801562002e15573d6000803e3d6000fd5b5050505062002e2c565b62002e2c86888362003ca9565b50505060e0909701519a9950505050505050505050565b604080516101608101825260008082526020820181905291810182905260608082018390526080820183905260a0820183905260c0820183905260e08201819052610100820183905261012082015261014081019190915260006060600080600062002eb76000546001600160a01b031690565b6001600160a01b031663c0fd8bde886040518263ffffffff1660e01b815260040162002ee4919062004b75565b60006040518083038186803b15801562002efd57600080fd5b505afa15801562002f12573d6000803e3d6000fd5b505050506040513d6000823e601f3d908101601f1916820160405262002f3c91908101906200478e565b9250925092508162002f5557919450925090506200306b565b60025462010000900461ffff1661ffff16836060015161ffff161462002fb35750506040805180820190915260168152753bb937b7339033b7bb32b93730b731b29031b430b4b760511b60208201529093506000925090506200306b565b6003548360800151146200300657505060408051808201909152601981527f77726f6e6720676f7665726e616e636520636f6e74726163740000000000000060208201529093506000925090506200306b565b61014083015160009081526005602052604090205460ff16156200305057826000604051806060016040528060228152602001620059f7602291399550955095505050506200306b565b50506040805160208101909152600081529093506001925090505b9193909250565b6000620030a67f360894a13ba1a3210667c828492db98dca3e2076cc3735a920a3ca505d382bbc546001600160a01b031690565b9050620030b38262003cdb565b60408051600481526024810182526020810180516001600160e01b031663204a7f0760e21b179052905160009182916001600160a01b03861691620030f89162004a92565b600060405180830381855af49150503d806000811462003135576040519150601f19603f3d011682016040523d82523d6000602084013e6200313a565b606091505b5091509150818190620031625760405162461bcd60e51b815260040162000af3919062004b75565b50836001600160a01b0316836001600160a01b03167f2e4cc16c100f0b55e2df82ab0b1a7e294aa9cbd01b48fbaf622683fbc0507a4960405160405180910390a350505050565b6000620031b882602062004e10565b83511015620020045760405162461bcd60e51b8152602060048201526015602482015274746f55696e743235365f6f75744f66426f756e647360581b604482015260640162000af3565b6040805160a081018252600080825260208201819052918101829052606081018290526080810191909152600080546001600160a01b03166001600160a01b0316631a90a2196040518163ffffffff1660e01b815260040160206040518083038186803b1580156200327357600080fd5b505afa15801562003288573d6000803e3d6000fd5b505050506040513d601f19601f82011682018060405250810190620032ae9190620044f8565b90503481106200330c5760405162461bcd60e51b815260206004820152602260248201527f76616c756520697320736d616c6c6572207468616e20776f726d686f6c652066604482015261656560f01b606482015260840162000af3565b60006200331a823462004f76565b905080841115620033835760405162461bcd60e51b815260206004820152602c60248201527f66656520697320626967676572207468616e20616d6f756e74206d696e75732060448201526b776f726d686f6c652066656560a01b606482015260840162000af3565b60006200339282601262003a6d565b90506000620033a386601262003a6d565b90506000620033b483601262003aac565b620033c0908562004f76565b90508015620033f957604051339082156108fc029083906000818181858888f19350505050158015620033f7573d6000803e3d6000fd5b505b6004546001600160a01b031663d0e30db062003416838762004f76565b6040518263ffffffff1660e01b81526004016000604051808303818588803b1580156200344257600080fd5b505af115801562003457573d6000803e3d6000fd5b50505050506200347a620034736004546001600160a01b031690565b8462003b54565b6040518060a001604052806200349360025461ffff1690565b61ffff168152602001620034af6004546001600160a01b031690565b6001600160a01b031660001b81526020018481526020018381526020018681525095505050505050919050565b6040805161010081018252600381526020810188905290810188905261ffff808a16606083015260808201869052861660a08201523360c082015260e08101829052600090816200352d82620018cd565b9050620035426000546001600160a01b031690565b6001600160a01b031663b19a437e8787846200264b60025460ff6401000000009091041690565b600081608001516200358f836060015161ffff166000908152600b602052604090205490565b14156200359e57506001919050565b506000919050565b6000620035b660025461ffff1690565b61ffff16836040015161ffff161415620036245760405162461bcd60e51b815260206004820152602860248201527f63616e206f6e6c79207772617020746f6b656e732066726f6d20666f726569676044820152676e20636861696e7360c01b606482015260840162000af3565b60006001600160a01b0316620036438460400151856020015162000ea6565b6001600160a01b0316146200369b5760405162461bcd60e51b815260206004820152601c60248201527f7772617070656420617373657420616c72656164792065786973747300000000604482015260640162000af3565b600063c71f461560e01b620036b48560a0015162003d1d565b620036c3866080015162003d1d565b8660600151863089604001518a60200151604051602401620036ec979695949392919062004bcd565b60408051601f19818403018152918152602080830180516001600160e01b03166001600160e01b031990951694909417909352519092506000916200373691309185910162004b4f565b60405160208183030381529060405290506000604051806020016200375b9062004161565b601f1982820381018352601f909101166040819052620037819190849060200162004ab0565b6040516020818303038152906040529050600086604001518760200151604051602001620037c892919060f09290921b6001600160f01b0319168252600282015260220190565b604051602081830303815290604052805190602001209050808251602084016000f59450843b620037f857600080fd5b6040808801516020808a015161ffff90921660009081526008825283812092815291815282822080546001600160a01b0319166001600160a01b038a1690811790915582526009905220805460ff191660011790555050505092915050565b6060816200386781601f62004e10565b1015620038a85760405162461bcd60e51b815260206004820152600e60248201526d736c6963655f6f766572666c6f7760901b604482015260640162000af3565b620038b4828462004e10565b84511015620038fa5760405162461bcd60e51b8152602060048201526011602482015270736c6963655f6f75744f66426f756e647360781b604482015260640162000af3565b6060821580156200391b576040519150600082526020820160405262003967565b6040519150601f8416801560200281840101858101878315602002848b0101015b81831015620039565780518352602092830192016200393c565b5050858452601f01601f1916604052505b5090505b9392505050565b600080620039898460400151856020015162000ea6565b90506001600160a01b038116620039e35760405162461bcd60e51b815260206004820152601d60248201527f7772617070656420617373657420646f6573206e6f7420657869737473000000604482015260640162000af3565b806001600160a01b031663a18cd7c662003a018660a0015162003d1d565b62003a10876080015162003d1d565b866040518463ffffffff1660e01b815260040162003a319392919062004b8a565b600060405180830381600087803b15801562003a4c57600080fd5b505af115801562003a61573d6000803e3d6000fd5b50929695505050505050565b600060088260ff16111562003aa55762003a8960088362004f90565b62003a9690600a62004e95565b62003aa2908462004e2b565b92505b5090919050565b600060088260ff16111562003aa55762003ac860088362004f90565b62003ad590600a62004e95565b62003aa2908462004f54565b6040516001600160a01b038085166024830152831660448201526064810182905262003b4e9085906323b872dd60e01b906084015b60408051601f198184030181529190526020810180516001600160e01b03166001600160e01b03199093169290921790915262003e58565b50505050565b6001600160a01b0382166000908152600a60205260409020546001600160401b0362003b81838362004e10565b111562003bef5760405162461bcd60e51b815260206004820152603560248201527f7472616e736665722065786365656473206d6178206f75747374616e64696e6760448201527408189c9a5919d959081d1bdad95b88185b5bdd5b9d605a1b606482015260840162000af3565b62003c1c8362003c00848462004e10565b6001600160a01b039091166000908152600a6020526040902055565b505050565b60006001600160a01b031982161562003c735760405162461bcd60e51b8152602060048201526013602482015272696e76616c69642045564d206164647265737360681b604482015260640162000af3565b5090565b620018c9828262003c9d856001600160a01b03166000908152600a602052604090205490565b62003c00919062004f76565b6040516001600160a01b03831660248201526044810182905262003c1c90849063a9059cbb60e01b9060640162003b16565b62003ce68162003f31565b6040516001600160a01b038216907fbc7cd75a20ee27fd9adebab32041f755214dbc6bffa90cc0225b39da2e5c2d3b90600090a250565b606060005b60208110801562003d60575082816020811062003d4f57634e487b7160e01b600052603260045260246000fd5b1a60f81b6001600160f81b03191615155b1562003d7b578062003d728162004fe5565b91505062003d22565b6000816001600160401b0381111562003da457634e487b7160e01b600052604160045260246000fd5b6040519080825280601f01601f19166020018201604052801562003dcf576020820181803683370190505b50905060005b8281101562003e505784816020811062003dff57634e487b7160e01b600052603260045260246000fd5b1a60f81b82828151811062003e2457634e487b7160e01b600052603260045260246000fd5b60200101906001600160f81b031916908160001a9053508062003e478162004fe5565b91505062003dd5565b509392505050565b600062003eaf826040518060400160405280602081526020017f5361666545524332303a206c6f772d6c6576656c2063616c6c206661696c6564815250856001600160a01b031662003fd89092919063ffffffff16565b80519091501562003c1c578080602001905181019062003ed09190620044c2565b62003c1c5760405162461bcd60e51b815260206004820152602a60248201527f5361666545524332303a204552433230206f7065726174696f6e20646964206e6044820152691bdd081cdd58d8d9595960b21b606482015260840162000af3565b803b62003f975760405162461bcd60e51b815260206004820152602d60248201527f455243313936373a206e657720696d706c656d656e746174696f6e206973206e60448201526c1bdd08184818dbdb9d1c9858dd609a1b606482015260840162000af3565b7f360894a13ba1a3210667c828492db98dca3e2076cc3735a920a3ca505d382bbc80546001600160a01b0319166001600160a01b0392909216919091179055565b606062003fe9848460008562003ff1565b949350505050565b606082471015620040545760405162461bcd60e51b815260206004820152602660248201527f416464726573733a20696e73756666696369656e742062616c616e636520666f6044820152651c8818d85b1b60d21b606482015260840162000af3565b843b620040a45760405162461bcd60e51b815260206004820152601d60248201527f416464726573733a2063616c6c20746f206e6f6e2d636f6e7472616374000000604482015260640162000af3565b600080866001600160a01b03168587604051620040c2919062004a92565b60006040518083038185875af1925050503d806000811462004101576040519150601f19603f3d011682016040523d82523d6000602084013e62004106565b606091505b50915091506200411882828662004123565b979650505050505050565b60608315620041345750816200396b565b825115620041455782518084602001fd5b8160405162461bcd60e51b815260040162000af3919062004b75565b610993806200506483390190565b80356001600160a01b03811681146200418757600080fd5b919050565b600082601f8301126200419d578081fd5b815160206001600160401b03821115620041bb57620041bb62005019565b620041cb818360051b0162004db3565b80838252828201915082860187848660071b8901011115620041eb578586fd5b855b858110156200425b57608080838b03121562004207578788fd5b6200421162004d3c565b8351815286840151878201526040808501516200422e8162005053565b90820152606084810151620042438162005053565b908201528552938501939190910190600101620041ed565b5090979650505050505050565b805180151581146200418757600080fd5b600082601f8301126200428a578081fd5b8135620042a16200429b8262004de6565b62004db3565b818152846020838601011115620042b6578283fd5b816020850160208301379081016020019190915292915050565b600082601f830112620042e1578081fd5b8151620042f26200429b8262004de6565b81815284602083860101111562004307578283fd5b62003fe982602083016020870162004fb6565b803562004187816200502f565b805162004187816200502f565b8051620041878162005040565b80516001600160401b03811681146200418757600080fd5b8035620041878162005053565b8051620041878162005053565b60006020828403121562004385578081fd5b6200396b826200416f565b60008060008060008060c08789031215620043a9578182fd5b620043b4876200416f565b9550602087013594506040870135620043cd816200502f565b9350606087013592506080870135915060a0870135620043ed8162005040565b809150509295509295509295565b60008060008060008060c0878903121562004414578384fd5b6200441f876200416f565b955060208701359450604087013562004438816200502f565b9350606087013592506080870135620044518162005040565b915060a08701356001600160401b038111156200446c578182fd5b6200447a89828a0162004279565b9150509295509295509295565b600080604083850312156200449a578182fd5b620044a5836200416f565b91506020830135620044b78162005040565b809150509250929050565b600060208284031215620044d4578081fd5b6200396b8262004268565b600060208284031215620044f1578081fd5b5035919050565b6000602082840312156200450a578081fd5b5051919050565b60006020828403121562004523578081fd5b81356001600160401b0381111562004539578182fd5b62003fe98482850162004279565b60006020828403121562004559578081fd5b81516001600160401b038111156200456f578182fd5b62003fe984828501620042d0565b600060c082840312156200458f578081fd5b60405160c081018181106001600160401b0382111715620045b457620045b462005019565b6040528235620045c48162005053565b8152602083810135908201526040830135620045e0816200502f565b60408201526060830135620045f58162005053565b60608201526080838101359082015260a0928301359281019290925250919050565b60006020828403121562004629578081fd5b81356001600160401b038082111562004640578283fd5b90830190610100828603121562004655578283fd5b6200465f62004d67565b6200466a8362004359565b815260208301356020820152604083013560408201526200468e606084016200431a565b606082015260808301356080820152620046ab60a084016200431a565b60a082015260c083013560c082015260e083013582811115620046cc578485fd5b620046da8782860162004279565b60e08301525095945050505050565b600060e08284031215620046fb578081fd5b60405160e081018181106001600160401b038211171562004720576200472062005019565b6040528235620047308162005053565b808252506020830135602082015260408301356040820152606083013562004758816200502f565b6060820152608083810135908201526200477560a084016200431a565b60a082015260c083013560c08201528091505092915050565b600080600060608486031215620047a3578081fd5b83516001600160401b0380821115620047ba578283fd5b908501906101608288031215620047cf578283fd5b620047d962004d8d565b620047e48362004366565b8152620047f46020840162004334565b6020820152620048076040840162004334565b60408201526200481a6060840162004327565b6060820152608083015160808201526200483760a0840162004341565b60a08201526200484a60c0840162004366565b60c082015260e08301518281111562004861578485fd5b6200486f89828601620042d0565b60e0830152506101006200488581850162004334565b9082015261012083810151838111156200489d578586fd5b620048ab8a8287016200418c565b918301919091525061014083810151908201529450620048ce6020870162004268565b93506040860151915080821115620048e4578283fd5b50620048f386828701620042d0565b9150509250925092565b6000602082840312156200490f578081fd5b81356200396b816200502f565b6000602082840312156200492e578081fd5b81516200396b816200502f565b600080604083850312156200494e578182fd5b82356200495b816200502f565b946020939093013593505050565b600080600080608085870312156200497f578182fd5b84356200498c816200502f565b935060208501359250604085013591506060850135620049ac8162005040565b939692955090935050565b60008060008060808587031215620049cd578182fd5b8435620049da816200502f565b9350602085013592506040850135620049f38162005040565b915060608501356001600160401b0381111562004a0e578182fd5b62004a1c8782880162004279565b91505092959194509250565b60006020828403121562004a3a578081fd5b6200396b8262004341565b60006020828403121562004a57578081fd5b81516200396b8162005053565b6000815180845262004a7e81602086016020860162004fb6565b601f01601f19169290920160200192915050565b6000825162004aa681846020870162004fb6565b9190910192915050565b6000835162004ac481846020880162004fb6565b83519083019062004ada81836020880162004fb6565b01949350505050565b60ff60f81b8960f81b168152876001820152866021820152600061ffff60f01b808860f01b166041840152866043840152808660f01b16606384015250836065830152825162004b3b81608585016020870162004fb6565b919091016085019998505050505050505050565b6001600160a01b038316815260406020820181905260009062003fe99083018462004a64565b6020815260006200396b602083018462004a64565b60608152600062004b9f606083018662004a64565b828103602084015262004bb3818662004a64565b9150506001600160401b0383166040830152949350505050565b60e08152600062004be260e083018a62004a64565b828103602084015262004bf6818a62004a64565b60ff98909816604084015250506001600160401b039490941660608501526001600160a01b0392909216608084015261ffff1660a083015260c09091015292915050565b6020808252600f908201526e34b73b30b634b21032b6b4ba3a32b960891b604082015260600190565b60208082526010908201526f34b73b30b634b2102a3930b739b332b960811b604082015260600190565b6020815260ff8251166020820152602082015160408201526040820151606082015261ffff6060830151166080820152608082015160a0820152600060a083015162004cdf60c084018261ffff169052565b5060c083015160e083015260e083015161010080818501525062003fe961012084018262004a64565b63ffffffff8416815260606020820152600062004d29606083018562004a64565b905060ff83166040830152949350505050565b604051608081016001600160401b038111828210171562004d615762004d6162005019565b60405290565b60405161010081016001600160401b038111828210171562004d615762004d6162005019565b60405161016081016001600160401b038111828210171562004d615762004d6162005019565b604051601f8201601f191681016001600160401b038111828210171562004dde5762004dde62005019565b604052919050565b60006001600160401b0382111562004e025762004e0262005019565b50601f01601f191660200190565b6000821982111562004e265762004e2662005003565b500190565b60008262004e4757634e487b7160e01b81526012600452602481fd5b500490565b600181815b8085111562004e8d57816000190482111562004e715762004e7162005003565b8085161562004e7f57918102915b93841c939080029062004e51565b509250929050565b60006200396b60ff84168360008262004eb15750600162000ded565b8162004ec05750600062000ded565b816001811462004ed9576002811462004ee45762004f04565b600191505062000ded565b60ff84111562004ef85762004ef862005003565b50506001821b62000ded565b5060208310610133831016604e8410600b841016171562004f29575081810a62000ded565b62004f35838362004e4c565b806000190482111562004f4c5762004f4c62005003565b029392505050565b600081600019048311821515161562004f715762004f7162005003565b500290565b60008282101562004f8b5762004f8b62005003565b500390565b600060ff821660ff84168082101562004fad5762004fad62005003565b90039392505050565b60005b8381101562004fd357818101518382015260200162004fb9565b8381111562003b4e5750506000910152565b600060001982141562004ffc5762004ffc62005003565b5060010190565b634e487b7160e01b600052601160045260246000fd5b634e487b7160e01b600052604160045260246000fd5b61ffff811681146200129d57600080fd5b63ffffffff811681146200129d57600080fd5b60ff811681146200129d57600080fdfe608060405234801561001057600080fd5b5060405161099338038061099383398101604081905261002f9161048e565b818161005c60017fa3f0ad74e5423aebfd80d3ef4346578335a9a72aeaee59ff6cb3582b35133d51610599565b60008051602061094c8339815191521461008657634e487b7160e01b600052600160045260246000fd5b6100928282600061009b565b505050506105fe565b6100a483610175565b6040516001600160a01b038416907f1cf3b03a6cf19fa2baba4df148e9dcabedea7f8a5c07840e207e5c089be95d3e90600090a26000825111806100e55750805b156101705761016e836001600160a01b0316635c60da1b6040518163ffffffff1660e01b815260040160206040518083038186803b15801561012657600080fd5b505afa15801561013a573d6000803e3d6000fd5b505050506040513d601f19601f8201168201806040525081019061015e9190610474565b8361031560201b6100291760201c565b505b505050565b6101888161034160201b6100551760201c565b6101e75760405162461bcd60e51b815260206004820152602560248201527f455243313936373a206e657720626561636f6e206973206e6f74206120636f6e6044820152641d1c9858dd60da1b60648201526084015b60405180910390fd5b61026a816001600160a01b0316635c60da1b6040518163ffffffff1660e01b815260040160206040518083038186803b15801561022357600080fd5b505afa158015610237573d6000803e3d6000fd5b505050506040513d601f19601f8201168201806040525081019061025b9190610474565b61034160201b6100551760201c565b6102cf5760405162461bcd60e51b815260206004820152603060248201527f455243313936373a20626561636f6e20696d706c656d656e746174696f6e206960448201526f1cc81b9bdd08184818dbdb9d1c9858dd60821b60648201526084016101de565b806102f460008051602061094c83398151915260001b61034760201b61005b1760201c565b80546001600160a01b0319166001600160a01b039290921691909117905550565b606061033a838360405180606001604052806027815260200161096c6027913961034a565b9392505050565b3b151590565b90565b6060833b6103a95760405162461bcd60e51b815260206004820152602660248201527f416464726573733a2064656c65676174652063616c6c20746f206e6f6e2d636f6044820152651b9d1c9858dd60d21b60648201526084016101de565b600080856001600160a01b0316856040516103c4919061054a565b600060405180830381855af49150503d80600081146103ff576040519150601f19603f3d011682016040523d82523d6000602084013e610404565b606091505b50909250905061041582828661041f565b9695505050505050565b6060831561042e57508161033a565b82511561043e5782518084602001fd5b8160405162461bcd60e51b81526004016101de9190610566565b80516001600160a01b038116811461046f57600080fd5b919050565b600060208284031215610485578081fd5b61033a82610458565b600080604083850312156104a0578081fd5b6104a983610458565b60208401519092506001600160401b03808211156104c5578283fd5b818501915085601f8301126104d8578283fd5b8151818111156104ea576104ea6105e8565b604051601f8201601f19908116603f01168101908382118183101715610512576105126105e8565b8160405282815288602084870101111561052a578586fd5b61053b8360208301602088016105bc565b80955050505050509250929050565b6000825161055c8184602087016105bc565b9190910192915050565b60208152600082518060208401526105858160408501602087016105bc565b601f01601f19169190910160400192915050565b6000828210156105b757634e487b7160e01b81526011600452602481fd5b500390565b60005b838110156105d75781810151838201526020016105bf565b8381111561016e5750506000910152565b634e487b7160e01b600052604160045260246000fd5b61033f8061060d6000396000f3fe60806040523661001357610011610017565b005b6100115b61002761002261005e565b610106565b565b606061004e83836040518060600160405280602781526020016102e36027913961012a565b9392505050565b3b151590565b90565b60006100917fa3f0ad74e5423aebfd80d3ef4346578335a9a72aeaee59ff6cb3582b35133d50546001600160a01b031690565b6001600160a01b0316635c60da1b6040518163ffffffff1660e01b815260040160206040518083038186803b1580156100c957600080fd5b505afa1580156100dd573d6000803e3d6000fd5b505050506040513d601f19601f82011682018060405250810190610101919061023c565b905090565b3660008037600080366000845af43d6000803e808015610125573d6000f35b3d6000fd5b6060833b61018e5760405162461bcd60e51b815260206004820152602660248201527f416464726573733a2064656c65676174652063616c6c20746f206e6f6e2d636f6044820152651b9d1c9858dd60d21b60648201526084015b60405180910390fd5b600080856001600160a01b0316856040516101a99190610263565b600060405180830381855af49150503d80600081146101e4576040519150601f19603f3d011682016040523d82523d6000602084013e6101e9565b606091505b50915091506101f9828286610203565b9695505050505050565b6060831561021257508161004e565b8251156102225782518084602001fd5b8160405162461bcd60e51b8152600401610185919061027f565b60006020828403121561024d578081fd5b81516001600160a01b038116811461004e578182fd5b600082516102758184602087016102b2565b9190910192915050565b602081526000825180602084015261029e8160408501602087016102b2565b601f01601f19169190910160400192915050565b60005b838110156102cd5781810151838201526020016102b5565b838111156102dc576000848401525b5050505056fe416464726573733a206c6f772d6c6576656c2064656c65676174652063616c6c206661696c6564a2646970667358221220ff047c07940f83ab989549d0a9c1cd73484360b3bc622b498b259f7f7f694b6564736f6c63430008040033a3f0ad74e5423aebfd80d3ef4346578335a9a72aeaee59ff6cb3582b35133d50416464726573733a206c6f772d6c6576656c2064656c65676174652063616c6c206661696c6564676f7665726e616e636520616374696f6e20616c726561647920636f6e73756d6564a2646970667358221220dfdad17aa61407582dae79c7ad46f2091d0062070597176a9912c01638d31e6b64736f6c63430008040033",
    "linkReferences": {}
  },
  "methodIdentifiers": {
    "WETH()": "ad5c4648",
    "_parseTransferCommon(bytes)": "e89bc401",
    "attestToken(address,uint32)": "c48fa115",
    "bridgeContracts(uint16)": "ad66a5f1",
    "chainId()": "9a8a0592",
    "completeTransfer(bytes)": "c6878519",
    "completeTransferAndUnwrapETH(bytes)": "ff200cde",
    "completeTransferAndUnwrapETHWithPayload(bytes)": "1c8475e4",
    "completeTransferWithPayload(bytes)": "c3f511c1",
    "createWrapped(bytes)": "e8059810",
    "encodeAssetMeta((uint8,bytes32,uint16,uint8,bytes32,bytes32))": "b046223b",
    "encodeTransfer((uint8,uint256,bytes32,uint16,bytes32,uint16,uint256))": "5f854266",
    "encodeTransferWithPayload((uint8,uint256,bytes32,uint16,bytes32,uint16,bytes32,bytes))": "d56e2e24",
    "finality()": "739fc8d1",
    "governanceActionIsConsumed(bytes32)": "2c3c02a4",
    "governanceChainId()": "fbe3c2cd",
    "governanceContract()": "b172b222",
    "implementation()": "5c60da1b",
    "initialize()": "8129fc1c",
    "isInitialized(address)": "d60b347f",
    "isTransferCompleted(bytes32)": "aa4efa5b",
    "isWrappedAsset(address)": "1a2be4da",
    "outstandingBridged(address)": "b96c7e4d",
    "parseAssetMeta(bytes)": "07dfd8fb",
    "parsePayloadID(bytes)": "0f509008",
    "parseRegisterChain(bytes)": "01f53255",
    "parseTransfer(bytes)": "2b511375",
    "parseTransferWithPayload(bytes)": "ea63738d",
    "parseUpgrade(bytes)": "fbeeacd9",
    "registerChain(bytes)": "a5799f93",
    "testNewImplementationActive()": "1f8cdb2b",
    "testUpdateWETHAddress(address)": "b6268146",
    "tokenImplementation()": "2f3a3d5d",
    "transferTokens(address,uint256,uint16,bytes32,uint256,uint32)": "0f5287b0",
    "transferTokensWithPayload(address,uint256,uint16,bytes32,uint32,bytes)": "c5a5ebda",
    "updateWrapped(bytes)": "f768441f",
    "upgrade(bytes)": "25394645",
    "wormhole()": "84acd1bb",
    "wrapAndTransferETH(uint16,bytes32,uint256,uint32)": "9981509f",
    "wrapAndTransferETHWithPayload(uint16,bytes32,uint32,bytes)": "bee9cdfc",
    "wrappedAsset(uint16,bytes32)": "1ff1e286"
  },
  "id": 17
}